{
  "address": "0x1EbcB010Eef5A9d0382d0d801b96c47929d81893",
  "abi": [
    {
      "inputs": [],
      "stateMutability": "nonpayable",
      "type": "constructor"
    },
    {
      "anonymous": false,
      "inputs": [
        {
          "indexed": false,
          "internalType": "uint64",
          "name": "dstChainId",
          "type": "uint64"
        }
      ],
      "name": "DstChainIdUpdated",
      "type": "event"
    },
    {
      "anonymous": false,
      "inputs": [
        {
          "indexed": false,
          "internalType": "uint8",
          "name": "version",
          "type": "uint8"
        }
      ],
      "name": "Initialized",
      "type": "event"
    },
    {
      "anonymous": false,
      "inputs": [
        {
          "indexed": false,
          "internalType": "address",
          "name": "messageBus",
          "type": "address"
        }
      ],
      "name": "MessageBusUpdated",
      "type": "event"
    },
    {
      "anonymous": false,
      "inputs": [
        {
          "indexed": false,
          "internalType": "address",
          "name": "token",
          "type": "address"
        },
        {
          "indexed": false,
          "internalType": "uint256",
          "name": "amount",
          "type": "uint256"
        },
        {
          "indexed": false,
          "internalType": "bytes",
          "name": "message",
          "type": "bytes"
        },
        {
          "indexed": false,
          "internalType": "address",
          "name": "executor",
          "type": "address"
        }
      ],
      "name": "MessageWithTransferRefund",
      "type": "event"
    },
    {
      "anonymous": false,
      "inputs": [
        {
          "indexed": false,
          "internalType": "address",
          "name": "to",
          "type": "address"
        },
        {
          "indexed": false,
          "internalType": "uint256",
          "name": "value",
          "type": "uint256"
        }
      ],
      "name": "NativeWithdrawal",
      "type": "event"
    },
    {
      "anonymous": false,
      "inputs": [
        {
          "indexed": true,
          "internalType": "address",
          "name": "previousOwner",
          "type": "address"
        },
        {
          "indexed": true,
          "internalType": "address",
          "name": "newOwner",
          "type": "address"
        }
      ],
      "name": "OwnershipTransferred",
      "type": "event"
    },
    {
      "anonymous": false,
      "inputs": [
        {
          "indexed": false,
          "internalType": "address",
          "name": "receiver",
          "type": "address"
        }
      ],
      "name": "ReceiverUpdated",
      "type": "event"
    },
    {
      "anonymous": false,
      "inputs": [
        {
          "indexed": false,
          "internalType": "address",
          "name": "payment",
          "type": "address"
        }
      ],
      "name": "SrcChainPaymentUpdated",
      "type": "event"
    },
    {
      "anonymous": false,
      "inputs": [
        {
          "indexed": false,
          "internalType": "contract IERC20Upgradeable",
          "name": "token",
          "type": "address"
        },
        {
          "indexed": false,
          "internalType": "address",
          "name": "to",
          "type": "address"
        },
        {
          "indexed": false,
          "internalType": "uint256",
          "name": "value",
          "type": "uint256"
        }
      ],
      "name": "Withdrawal",
      "type": "event"
    },
    {
      "inputs": [
        {
          "internalType": "bytes",
          "name": "message",
          "type": "bytes"
        }
      ],
      "name": "calcFee",
      "outputs": [
        {
          "internalType": "uint256",
          "name": "",
          "type": "uint256"
        }
      ],
      "stateMutability": "view",
      "type": "function"
    },
    {
      "inputs": [],
      "name": "dstChainId",
      "outputs": [
        {
          "internalType": "uint64",
          "name": "",
          "type": "uint64"
        }
      ],
      "stateMutability": "view",
      "type": "function"
    },
    {
      "inputs": [
        {
          "internalType": "address",
          "name": "_token",
          "type": "address"
        },
        {
          "internalType": "uint256",
          "name": "_amount",
          "type": "uint256"
        },
        {
          "internalType": "bytes",
          "name": "_message",
          "type": "bytes"
        },
        {
          "internalType": "address",
          "name": "executor",
          "type": "address"
        }
      ],
      "name": "executeMessageWithTransferRefund",
      "outputs": [
        {
          "internalType": "enum MessageSender.ExecutionStatus",
          "name": "",
          "type": "uint8"
        }
      ],
      "stateMutability": "payable",
      "type": "function"
    },
    {
      "inputs": [
        {
          "internalType": "address",
          "name": "owner",
          "type": "address"
        },
        {
          "internalType": "address",
          "name": "_messageBus",
          "type": "address"
        },
        {
          "internalType": "address",
          "name": "_receiver",
          "type": "address"
        },
        {
          "internalType": "uint64",
          "name": "_dstChainId",
          "type": "uint64"
        }
      ],
      "name": "initialize",
      "outputs": [],
      "stateMutability": "nonpayable",
      "type": "function"
    },
    {
      "inputs": [],
      "name": "messageBus",
      "outputs": [
        {
          "internalType": "address",
          "name": "",
          "type": "address"
        }
      ],
      "stateMutability": "view",
      "type": "function"
    },
    {
      "inputs": [
        {
          "components": [
            {
              "internalType": "address",
              "name": "sender",
              "type": "address"
            },
            {
              "internalType": "address",
              "name": "receiver",
              "type": "address"
            },
            {
              "internalType": "uint64",
              "name": "srcChainId",
              "type": "uint64"
            },
            {
              "internalType": "bytes32",
              "name": "srcTxHash",
              "type": "bytes32"
            }
          ],
          "internalType": "struct MsgDataTypes.RouteInfo",
          "name": "route",
          "type": "tuple"
        },
        {
          "internalType": "uint64",
          "name": "dstChainId",
          "type": "uint64"
        },
        {
          "internalType": "bytes",
          "name": "message",
          "type": "bytes"
        }
      ],
      "name": "messageId",
      "outputs": [
        {
          "internalType": "bytes32",
          "name": "",
          "type": "bytes32"
        }
      ],
      "stateMutability": "view",
      "type": "function"
    },
    {
      "inputs": [],
      "name": "owner",
      "outputs": [
        {
          "internalType": "address",
          "name": "",
          "type": "address"
        }
      ],
      "stateMutability": "view",
      "type": "function"
    },
    {
      "inputs": [
        {
          "internalType": "contract IERC20Upgradeable",
          "name": "token",
          "type": "address"
        },
        {
          "internalType": "address",
          "name": "to",
          "type": "address"
        },
        {
          "internalType": "uint256",
          "name": "value",
          "type": "uint256"
        }
      ],
      "name": "ownerWithdrawERC20",
      "outputs": [],
      "stateMutability": "nonpayable",
      "type": "function"
    },
    {
      "inputs": [
        {
          "internalType": "address payable",
          "name": "to",
          "type": "address"
        },
        {
          "internalType": "uint256",
          "name": "value",
          "type": "uint256"
        }
      ],
      "name": "ownerWithdrawNative",
      "outputs": [],
      "stateMutability": "nonpayable",
      "type": "function"
    },
    {
      "inputs": [],
      "name": "receiver",
      "outputs": [
        {
          "internalType": "address",
          "name": "",
          "type": "address"
        }
      ],
      "stateMutability": "view",
      "type": "function"
    },
    {
      "inputs": [],
      "name": "renounceOwnership",
      "outputs": [],
      "stateMutability": "nonpayable",
      "type": "function"
    },
    {
      "inputs": [
        {
          "internalType": "bytes",
          "name": "message",
          "type": "bytes"
        }
      ],
      "name": "sendMessage",
      "outputs": [],
      "stateMutability": "payable",
      "type": "function"
    },
    {
      "inputs": [
        {
          "internalType": "address",
          "name": "token",
          "type": "address"
        },
        {
          "internalType": "uint256",
          "name": "amount",
          "type": "uint256"
        },
        {
          "internalType": "uint64",
          "name": "nonce",
          "type": "uint64"
        },
        {
          "internalType": "uint32",
          "name": "maxSlippage",
          "type": "uint32"
        },
        {
          "internalType": "bytes",
          "name": "message",
          "type": "bytes"
        },
        {
          "internalType": "enum MsgDataTypes.BridgeSendType",
          "name": "bridgeSendType",
          "type": "uint8"
        }
      ],
      "name": "sendMessageWithTransfer",
      "outputs": [
        {
          "internalType": "bytes32",
          "name": "",
          "type": "bytes32"
        }
      ],
      "stateMutability": "payable",
      "type": "function"
    },
    {
      "inputs": [
        {
          "internalType": "uint64",
          "name": "dstChainId",
          "type": "uint64"
        }
      ],
      "name": "setDstChainId",
      "outputs": [],
      "stateMutability": "nonpayable",
      "type": "function"
    },
    {
      "inputs": [
        {
          "internalType": "address",
          "name": "messageBus",
          "type": "address"
        }
      ],
      "name": "setMessageBus",
      "outputs": [],
      "stateMutability": "nonpayable",
      "type": "function"
    },
    {
      "inputs": [
        {
          "internalType": "address",
          "name": "_receiver",
          "type": "address"
        }
      ],
      "name": "setReceiver",
      "outputs": [],
      "stateMutability": "nonpayable",
      "type": "function"
    },
    {
      "inputs": [
        {
          "internalType": "address",
          "name": "_payment",
          "type": "address"
        }
      ],
      "name": "setSrcChainPayment",
      "outputs": [],
      "stateMutability": "nonpayable",
      "type": "function"
    },
    {
      "inputs": [],
      "name": "srcChainPayment",
      "outputs": [
        {
          "internalType": "address",
          "name": "",
          "type": "address"
        }
      ],
      "stateMutability": "view",
      "type": "function"
    },
    {
      "inputs": [
        {
          "internalType": "address",
          "name": "newOwner",
          "type": "address"
        }
      ],
      "name": "transferOwnership",
      "outputs": [],
      "stateMutability": "nonpayable",
      "type": "function"
    }
  ],
  "transactionHash": "0x0ec5094978479afc3a866ff68442c3a4f6e1e2e7a88da72f8745e6b4971ce931",
  "args": [],
  "numDeployments": 2,
  "solcInputHash": "62e761bbb84603c3d003113b5cc39bba",
  "bytecode": "0x60806040523480156200001157600080fd5b5060006200002060016200008e565b9050801562000039576000805461ff0019166101001790555b801562000087576000805461ff00191690556040517f7f26b83ff96e1f2b6a682f133852f6798a09c465da95921460cefb3847402498906200007e9060019062000168565b60405180910390a15b50620001cb565b60008054610100900460ff1615620000f7578160ff166001148015620000c75750620000c5306200013b60201b6200096b1760201c565b155b620000ef5760405162461bcd60e51b8152600401620000e69062000178565b60405180910390fd5b506000919050565b60005460ff808416911610620001215760405162461bcd60e51b8152600401620000e69062000178565b506000805460ff191660ff92909216919091179055600190565b6001600160a01b03163b151590565b600060ff82165b92915050565b62000162816200014a565b82525050565b6020810162000151828462000157565b602080825281016200015181602e81527f496e697469616c697a61626c653a20636f6e747261637420697320616c72656160208201526d191e481a5b9a5d1a585b1a5e995960921b604082015260600190565b6126a380620001db6000396000f3fe6080604052600436106101145760003560e01c80638da5cb5b116100a0578063d204d9a811610064578063d204d9a8146102f4578063d7c8cb2414610314578063f2fde38b14610334578063f718845314610354578063f7260d3e1461036757600080fd5b80638da5cb5b1461024d57806393563a9514610274578063a1a227fa14610294578063bb0248aa146102b4578063bbd53ea7146102d457600080fd5b8063547cad12116100e7578063547cad12146101c5578063699256f4146101e5578063715018a614610205578063718da7ee1461021a57806382646a581461023a57600080fd5b80630bcb49821461011957806330c593f7146101425780633fe3f1cf146101765780635335dca214610198575b600080fd5b61012c61012736600461179e565b610387565b604051610139919061186b565b60405180910390f35b34801561014e57600080fd5b5060675461016990600160a01b90046001600160401b031681565b6040516101399190611888565b34801561018257600080fd5b506101966101913660046118b0565b610409565b005b3480156101a457600080fd5b506101b86101b3366004611a08565b6104a3565b6040516101399190611a48565b3480156101d157600080fd5b506101966101e0366004611a56565b61052a565b3480156101f157600080fd5b50610196610200366004611a77565b610560565b34801561021157600080fd5b5061019661060e565b34801561022657600080fd5b50610196610235366004611a56565b610644565b610196610248366004611a08565b610677565b34801561025957600080fd5b506033546001600160a01b03165b6040516101399190611abd565b34801561028057600080fd5b5061019661028f366004611aea565b6106d2565b3480156102a057600080fd5b50606654610267906001600160a01b031681565b3480156102c057600080fd5b506101b86102cf366004611b55565b610743565b3480156102e057600080fd5b506101966102ef366004611a56565b6107b4565b34801561030057600080fd5b50606554610267906001600160a01b031681565b34801561032057600080fd5b5061019661032f366004611bc2565b6107e7565b34801561034057600080fd5b5061019661034f366004611a56565b61081a565b6101b8610362366004611c12565b610873565b34801561037357600080fd5b50606754610267906001600160a01b031681565b6066546000906001600160a01b031633146103bd5760405162461bcd60e51b81526004016103b490611d00565b60405180910390fd5b7f9afeef02b2dc7c87e4d0fe67945dedf1c4ee5bcf5cdf26f94fb1837859816f3386868686866040516103f4959493929190611d39565b60405180910390a15060015b95945050505050565b6000610415600161097a565b9050801561042d576000805461ff0019166101001790555b61043685610a07565b61043f84610a59565b61044883610ab0565b61045182610afb565b801561049c576000805461ff00191690556040517f7f26b83ff96e1f2b6a682f133852f6798a09c465da95921460cefb38474024989061049390600190611d93565b60405180910390a15b5050505050565b60665460405163299aee5160e11b81526000916001600160a01b031690635335dca2906104d4908590600401611dfb565b60206040518083038186803b1580156104ec57600080fd5b505afa158015610500573d6000803e3d6000fd5b505050506040513d601f19601f820116820180604052508101906105249190611e17565b92915050565b6033546001600160a01b031633146105545760405162461bcd60e51b81526004016103b490611e6d565b61055d81610a59565b50565b6033546001600160a01b0316331461058a5760405162461bcd60e51b81526004016103b490611e6d565b6040516000906001600160a01b0384169083156108fc0290849084818181858888f193505050509050806105d05760405162461bcd60e51b81526004016103b490611ec9565b7f2c876ecb97b3c6854f2488d373403f903eacb800e51c159a5c0c7a9c857e48278383604051610601929190611eed565b60405180910390a1505050565b6033546001600160a01b031633146106385760405162461bcd60e51b81526004016103b490611e6d565b6106426000610a07565b565b6033546001600160a01b0316331461066e5760405162461bcd60e51b81526004016103b490611e6d565b61055d81610ab0565b6065546001600160a01b031633146106a15760405162461bcd60e51b81526004016103b490611f52565b60675460665461055d916001600160a01b0380821692600160a01b9092046001600160401b03169185911634610b50565b6033546001600160a01b031633146106fc5760405162461bcd60e51b81526004016103b490611e6d565b6107106001600160a01b0384168383610bbb565b7f2717ead6b9200dd235aad468c9809ea400fe33ac69b5bfaa6d3e90fc922b639883838360405161060193929190611f62565b600060016107546020870187611a56565b6107646040880160208901611a56565b6107746060890160408a01611bc2565b8860600135888888604051602001610793989796959493929190612025565b6040516020818303038152906040528051906020012090505b949350505050565b6033546001600160a01b031633146107de5760405162461bcd60e51b81526004016103b490611e6d565b61055d81610c16565b6033546001600160a01b031633146108115760405162461bcd60e51b81526004016103b490611e6d565b61055d81610afb565b6033546001600160a01b031633146108445760405162461bcd60e51b81526004016103b490611e6d565b6001600160a01b03811661086a5760405162461bcd60e51b81526004016103b4906120d5565b61055d81610a07565b6065546000906001600160a01b031633146108a05760405162461bcd60e51b81526004016103b490611f52565b6040516323b872dd60e01b81526001600160a01b038816906323b872dd906108d090339030908b906004016120e5565b602060405180830381600087803b1580156108ea57600080fd5b505af11580156108fe573d6000803e3d6000fd5b505050506040513d601f19601f820116820180604052508101906109229190612106565b5060675460665461095e916001600160a01b03808216928b928b92600160a01b9091046001600160401b0316918b918b918b918b911634610c61565b90505b9695505050505050565b6001600160a01b03163b151590565b60008054610100900460ff16156109c1578160ff16600114801561099d5750303b155b6109b95760405162461bcd60e51b81526004016103b490612172565b506000919050565b60005460ff8084169116106109e85760405162461bcd60e51b81526004016103b490612172565b506000805460ff191660ff92909216919091179055600190565b919050565b603380546001600160a01b038381166001600160a01b0319831681179093556040519116919082907f8be0079c531659141344cd1fd0a4f28419497f9722a3daafe3b4186f6b6457e090600090a35050565b606680546001600160a01b0319166001600160a01b0383169081179091556040517f3f8223bcd8b3b875473e9f9e14e1ad075451a2b5ffd31591655da9a01516bf5e91610aa591611abd565b60405180910390a150565b606780546001600160a01b0319166001600160a01b0383161790556040517f75fd3aa5d9b6e2a8a9d8894008c9263200713f4b1fa9113665e09ceac002774690610aa5908390611abd565b6067805467ffffffffffffffff60a01b1916600160a01b6001600160401b038416021790556040517fb21f4918f3e7b110065f3bf18a09b38074a4553144258ccfc30b57a76211e92990610aa5908390611888565b604051634f9e72ad60e11b81526001600160a01b03831690639f3ce55a908390610b82908990899089906004016121a0565b6000604051808303818588803b158015610b9b57600080fd5b505af1158015610baf573d6000803e3d6000fd5b50505050505050505050565b610c118363a9059cbb60e01b8484604051602401610bda9291906121cd565b60408051601f198184030181529190526020810180516001600160e01b03166001600160e01b031990931692909217909152610d49565b505050565b606580546001600160a01b0319166001600160a01b0383161790556040517faf4cc7de2dd4900af1750e9a7af95c24ca2096d76903102700c90a6abaa819a290610aa5908390611abd565b60006001846006811115610c7757610c77611821565b1415610c9557610c8e8b8b8b8b8b8b8b8a8a610dd8565b9050610d3b565b6002846006811115610ca957610ca9611821565b1480610cc657506004846006811115610cc457610cc4611821565b145b15610cdc57610c8e848c8c8c8c8c8b8a8a610f78565b6003846006811115610cf057610cf0611821565b1480610d0d57506005846006811115610d0b57610d0b611821565b145b15610d2357610c8e848c8c8c8c8c8b8a8a611210565b60405162461bcd60e51b81526004016103b49061220f565b9a9950505050505050505050565b6000610d9e826040518060400160405280602081526020017f5361666545524332303a206c6f772d6c6576656c2063616c6c206661696c6564815250856001600160a01b03166114839092919063ffffffff16565b805190915015610c115780806020019051810190610dbc9190612106565b610c115760405162461bcd60e51b81526004016103b490612266565b600080836001600160a01b03166382980dc46040518163ffffffff1660e01b815260040160206040518083038186803b158015610e1457600080fd5b505afa158015610e28573d6000803e3d6000fd5b505050506040513d601f19601f82011682018060405250810190610e4c9190612281565b9050610e626001600160a01b038b16828b61149c565b60405163a5977fbb60e01b81526001600160a01b0382169063a5977fbb90610e98908e908e908e908e908e908e906004016122ae565b600060405180830381600087803b158015610eb257600080fd5b505af1158015610ec6573d6000803e3d6000fd5b505050506000308c8c8c8c8c46604051602001610ee997969594939291906122fd565b604051602081830303815290604052805190602001209050846001600160a01b0316634289fbb3858e8c86868c6040518763ffffffff1660e01b8152600401610f36959493929190612378565b6000604051808303818588803b158015610f4f57600080fd5b505af1158015610f63573d6000803e3d6000fd5b50939f9e505050505050505050505050505050565b60008060028b6006811115610f8f57610f8f611821565b141561100d57836001600160a01b031663d8257d176040518163ffffffff1660e01b815260040160206040518083038186803b158015610fce57600080fd5b505afa158015610fe2573d6000803e3d6000fd5b505050506040513d601f19601f820116820180604052508101906110069190612281565b9050611081565b836001600160a01b031663c66a9c5a6040518163ffffffff1660e01b815260040160206040518083038186803b15801561104657600080fd5b505afa15801561105a573d6000803e3d6000fd5b505050506040513d601f19601f8201168201806040525081019061107e9190612281565b90505b6110956001600160a01b038a16828a61149c565b600060028c60068111156110ab576110ab611821565b141561115157816001600160a01b031663234636248b8b8b8f8c6040518663ffffffff1660e01b81526004016110e59594939291906123bf565b600060405180830381600087803b1580156110ff57600080fd5b505af1158015611113573d6000803e3d6000fd5b50505050308a8a8a8e8b466040516020016111349796959493929190612401565b6040516020818303038152906040528051906020012090506111da565b816001600160a01b031663234636248b8b8b8f8c6040518663ffffffff1660e01b81526004016111859594939291906123bf565b602060405180830381600087803b15801561119f57600080fd5b505af11580156111b3573d6000803e3d6000fd5b505050506040513d601f19601f820116820180604052508101906111d79190611e17565b90505b604051634289fbb360e01b81526001600160a01b03861690634289fbb3908690610f36908f908d90889088908e90600401612378565b60008060038b600681111561122757611227611821565b14156112a557836001600160a01b031663dfa2dbaf6040518163ffffffff1660e01b815260040160206040518083038186803b15801561126657600080fd5b505afa15801561127a573d6000803e3d6000fd5b505050506040513d601f19601f8201168201806040525081019061129e9190612281565b9050611319565b836001600160a01b03166395b12c276040518163ffffffff1660e01b815260040160206040518083038186803b1580156112de57600080fd5b505afa1580156112f2573d6000803e3d6000fd5b505050506040513d601f19601f820116820180604052508101906113169190612281565b90505b61132d6001600160a01b038a16828a61149c565b600060038c600681111561134357611343611821565b14156113e557816001600160a01b031663de790c7e8b8b8e8b6040518563ffffffff1660e01b815260040161137b949392919061245d565b600060405180830381600087803b15801561139557600080fd5b505af11580156113a9573d6000803e3d6000fd5b50505050308a8a8d8a466040516020016113c896959493929190612492565b60405160208183030381529060405280519060200120905061146e565b816001600160a01b031663a00293018b8b8b8f8c6040518663ffffffff1660e01b81526004016114199594939291906123bf565b602060405180830381600087803b15801561143357600080fd5b505af1158015611447573d6000803e3d6000fd5b505050506040513d601f19601f8201168201806040525081019061146b9190611e17565b90505b6111da6001600160a01b038b1683600061154e565b60606114928484600085611611565b90505b9392505050565b600081846001600160a01b031663dd62ed3e30866040518363ffffffff1660e01b81526004016114cd9291906124fc565b60206040518083038186803b1580156114e557600080fd5b505afa1580156114f9573d6000803e3d6000fd5b505050506040513d601f19601f8201168201806040525081019061151d9190611e17565b611527919061252d565b90506115488463095ea7b360e01b8584604051602401610bda9291906121cd565b50505050565b8015806115d65750604051636eb1769f60e11b81526001600160a01b0384169063dd62ed3e9061158490309086906004016124fc565b60206040518083038186803b15801561159c57600080fd5b505afa1580156115b0573d6000803e3d6000fd5b505050506040513d601f19601f820116820180604052508101906115d49190611e17565b155b6115f25760405162461bcd60e51b81526004016103b490612598565b610c118363095ea7b360e01b8484604051602401610bda9291906121cd565b6060824710156116335760405162461bcd60e51b81526004016103b4906125eb565b6001600160a01b0385163b61165a5760405162461bcd60e51b81526004016103b49061262f565b600080866001600160a01b031685876040516116769190612661565b60006040518083038185875af1925050503d80600081146116b3576040519150601f19603f3d011682016040523d82523d6000602084013e6116b8565b606091505b50915091506116c88282866116d3565b979650505050505050565b606083156116e2575081611495565b8251156116f25782518084602001fd5b8160405162461bcd60e51b81526004016103b49190611dfb565b60006001600160a01b038216610524565b6117268161170c565b811461055d57600080fd5b80356105248161171d565b80611726565b80356105248161173c565b60008083601f84011261176257611762600080fd5b5081356001600160401b0381111561177c5761177c600080fd5b60208301915083600182028301111561179757611797600080fd5b9250929050565b6000806000806000608086880312156117b9576117b9600080fd5b60006117c58888611731565b95505060206117d688828901611742565b94505060408601356001600160401b038111156117f5576117f5600080fd5b6118018882890161174d565b9350935050606061181488828901611731565b9150509295509295909350565b634e487b7160e01b600052602160045260246000fd5b6003811061055d5761055d611821565b80610a0281611837565b600061052482611847565b61186581611851565b82525050565b60208101610524828461185c565b6001600160401b038116611865565b602081016105248284611879565b6001600160401b038116611726565b803561052481611896565b600080600080608085870312156118c9576118c9600080fd5b60006118d58787611731565b94505060206118e687828801611731565b93505060406118f787828801611731565b9250506060611908878288016118a5565b91505092959194509250565b634e487b7160e01b600052604160045260246000fd5b601f19601f83011681018181106001600160401b038211171561194f5761194f611914565b6040525050565b600061196160405190565b9050610a02828261192a565b60006001600160401b0382111561198657611986611914565b601f19601f83011660200192915050565b82818337506000910152565b60006119b66119b18461196d565b611956565b9050828152602081018484840111156119d1576119d1600080fd5b6119dc848285611997565b509392505050565b600082601f8301126119f8576119f8600080fd5b81356107ac8482602086016119a3565b600060208284031215611a1d57611a1d600080fd5b81356001600160401b03811115611a3657611a36600080fd5b6107ac848285016119e4565b80611865565b602081016105248284611a42565b600060208284031215611a6b57611a6b600080fd5b60006107ac8484611731565b60008060408385031215611a8d57611a8d600080fd5b6000611a998585611731565b9250506020611aaa85828601611742565b9150509250929050565b6118658161170c565b602081016105248284611ab4565b60006105248261170c565b61172681611acb565b803561052481611ad6565b600080600060608486031215611b0257611b02600080fd5b6000611b0e8686611adf565b9350506020611b1f86828701611731565b9250506040611b3086828701611742565b9150509250925092565b600060808284031215611b4f57611b4f600080fd5b50919050565b60008060008060c08587031215611b6e57611b6e600080fd5b6000611b7a8787611b3a565b9450506080611b8b878288016118a5565b93505060a08501356001600160401b03811115611baa57611baa600080fd5b611bb68782880161174d565b95989497509550505050565b600060208284031215611bd757611bd7600080fd5b60006107ac84846118a5565b63ffffffff8116611726565b803561052481611be3565b6007811061055d57600080fd5b803561052481611bfa565b60008060008060008060c08789031215611c2e57611c2e600080fd5b6000611c3a8989611731565b9650506020611c4b89828a01611742565b9550506040611c5c89828a016118a5565b9450506060611c6d89828a01611bef565b93505060808701356001600160401b03811115611c8c57611c8c600080fd5b611c9889828a016119e4565b92505060a0611ca989828a01611c07565b9150509295509295509295565b602a81526000602082017f4d65737361676552656365697665723a2063616c6c6572206973206e6f74206d8152696573736167652062757360b01b602082015291505b5060400190565b6020808252810161052481611cb6565b8183526000602084019350611d26838584611997565b601f19601f8401165b9093019392505050565b60808101611d478288611ab4565b611d546020830187611a42565b8181036040830152611d67818587611d10565b90506109616060830184611ab4565b600061052482611d84565b90565b60ff1690565b61186581611d76565b602081016105248284611d8a565b60005b83811015611dbc578181015183820152602001611da4565b838111156115485750506000910152565b6000611dd7825190565b808452602084019350611dee818560208601611da1565b601f19601f820116611d2f565b602080825281016114958184611dcd565b80516105248161173c565b600060208284031215611e2c57611e2c600080fd5b60006107ac8484611e0c565b60208082527f4f776e61626c653a2063616c6c6572206973206e6f7420746865206f776e6572910190815260005b5060200190565b6020808252810161052481611e38565b602f81526000602082017f4f776e6572576974686472617761626c653a207769746864726177206e61746981526e1d99481d1bdad95b8819985a5b1959608a1b60208201529150611cf9565b6020808252810161052481611e7d565b600061052482611acb565b61186581611ed9565b60408101611efb8285611ee4565b6114956020830184611a42565b602d81526000602082017f4d65737361676553656e6465723a2063616c6c6572206973206e6f742070617981526c1b595b9d0818dbdb9d1c9858dd609a1b60208201529150611cf9565b6020808252810161052481611f08565b60608101611f708286611ee4565b611f7d6020830185611ab4565b6107ac6040830184611a42565b6002811061055d5761055d611821565b80610a0281611f8a565b600061052482611f9a565b60006105248260f81b90565b611865611fc782611fa4565b611faf565b60006105248260601b90565b600061052482611fcc565b611865611fef8261170c565b611fd8565b60006105248260c01b90565b6118656001600160401b038216611ff4565b600061201f838584611997565b50500190565b6000612031828b611fbb565b600182019150612041828a611fe3565b6014820191506120518289611fe3565b6014820191506120618288612000565b6008820191506120718287611a42565b6020820191506120818286612000565b600882019150610d3b828486612012565b602681526000602082017f4f776e61626c653a206e6577206f776e657220697320746865207a65726f206181526564647265737360d01b60208201529150611cf9565b6020808252810161052481612092565b60608101611f708286611ab4565b801515611726565b8051610524816120f3565b60006020828403121561211b5761211b600080fd5b60006107ac84846120fb565b602e81526000602082017f496e697469616c697a61626c653a20636f6e747261637420697320616c72656181526d191e481a5b9a5d1a585b1a5e995960921b60208201529150611cf9565b6020808252810161052481612127565b6000610524611d816001600160401b03841681565b61186581612182565b606081016121ae8286611ab4565b6121bb6020830185612197565b81810360408301526104008184611dcd565b60408101611efb8285611ab4565b601981526000602082017f6272696467652074797065206e6f7420737570706f727465640000000000000081529150611e66565b60208082528101610524816121db565b602a81526000602082017f5361666545524332303a204552433230206f7065726174696f6e20646964206e8152691bdd081cdd58d8d9595960b21b60208201529150611cf9565b602080825281016105248161221f565b80516105248161171d565b60006020828403121561229657612296600080fd5b60006107ac8484612276565b63ffffffff8116611865565b60c081016122bc8289611ab4565b6122c96020830188611ab4565b6122d66040830187611a42565b6122e36060830186611879565b6122f06080830185611879565b6116c860a08301846122a2565b6000612309828a611fe3565b6014820191506123198289611fe3565b6014820191506123298288611fe3565b6014820191506123398287611a42565b6020820191506123498286612000565b6008820191506123598285612000565b6008820191506123698284612000565b50600801979650505050505050565b60a081016123868288611ab4565b6123936020830187612197565b6123a06040830186611ab4565b6123ad6060830185611a42565b818103608083015261095e8184611dcd565b60a081016123cd8288611ab4565b6123da6020830187611a42565b6123e76040830186611879565b6123f46060830185611ab4565b6109616080830184611879565b600061240d828a611fe3565b60148201915061241d8289611fe3565b60148201915061242d8288611a42565b60208201915061243d8287612000565b60088201915061244d8286611fe3565b6014820191506123598285612000565b6080810161246b8287611ab4565b6124786020830186611a42565b6124856040830185611ab4565b6104006060830184611879565b600061249e8289611fe3565b6014820191506124ae8288611fe3565b6014820191506124be8287611a42565b6020820191506124ce8286611fe3565b6014820191506124de8285612000565b6008820191506124ee8284612000565b506008019695505050505050565b6040810161250a8285611ab4565b6114956020830184611ab4565b634e487b7160e01b600052601160045260246000fd5b6000821982111561254057612540612517565b500190565b603681526000602082017f5361666545524332303a20617070726f76652066726f6d206e6f6e2d7a65726f81527520746f206e6f6e2d7a65726f20616c6c6f77616e636560501b60208201529150611cf9565b6020808252810161052481612545565b602681526000602082017f416464726573733a20696e73756666696369656e742062616c616e636520666f8152651c8818d85b1b60d21b60208201529150611cf9565b60208082528101610524816125a8565b601d81526000602082017f416464726573733a2063616c6c20746f206e6f6e2d636f6e747261637400000081529150611e66565b60208082528101610524816125fb565b6000612649825190565b612657818560208601611da1565b9290920192915050565b6000611495828461263f56fea2646970667358221220f34b08074c1f98fa1fd6b2fb2d1c6866a5ce2d48e7f5499b36e1b754260ff4f864736f6c63430008090033",
  "devdoc": {
    "author": "Alexandas",
    "details": "Celer SGN source chain sender contract",
    "kind": "dev",
    "methods": {
      "calcFee(bytes)": {
        "details": "calculate message fee",
        "params": {
          "message": "message bytes"
        },
        "returns": {
          "_0": "fee"
        }
      },
      "executeMessageWithTransferRefund(address,uint256,bytes,address)": {
        "details": "call when cBridge transfer failed",
        "params": {
          "_amount": "token amount",
          "_message": "message",
          "_token": "token address",
          "executor": "exector address"
        }
      },
      "initialize(address,address,address,uint64)": {
        "details": "proxy initialize function",
        "params": {
          "_dstChainId": "dst chain chainId",
          "_messageBus": "src chain messageBus",
          "_receiver": "dst chain receiver",
          "owner": "contract owner"
        }
      },
      "messageId((address,address,uint64,bytes32),uint64,bytes)": {
        "details": "messageId for message bus",
        "params": {
          "dstChainId": "message route info",
          "message": "message bytes",
          "route": "message route info"
        }
      },
      "owner()": {
        "details": "Returns the address of the current owner."
      },
      "ownerWithdrawERC20(address,address,uint256)": {
        "details": "withdraw token",
        "params": {
          "to": "receiver address",
          "token": "token address",
          "value": "token value"
        }
      },
      "ownerWithdrawNative(address,uint256)": {
        "details": "withdraw ETH",
        "params": {
          "to": "receiver address",
          "value": "token value"
        }
      },
      "renounceOwnership()": {
        "details": "Leaves the contract without owner. It will not be possible to call `onlyOwner` functions anymore. Can only be called by the current owner. NOTE: Renouncing ownership will leave the contract without an owner, thereby removing any functionality that is only available to the owner."
      },
      "sendMessage(bytes)": {
        "details": "sendMessage to dst chain",
        "params": {
          "message": "message to dst chain"
        }
      },
      "sendMessageWithTransfer(address,uint256,uint64,uint32,bytes,uint8)": {
        "details": "sendMessageWithTransfer to dst chain",
        "params": {
          "amount": "token amount",
          "bridgeSendType": "bridge send type for sgn cBridge",
          "maxSlippage": "maxSlippage for sgn cBridge",
          "message": "message to dst chain",
          "nonce": "nonce",
          "token": "src payment token address"
        }
      },
      "setDstChainId(uint64)": {
        "details": "set dst chain chainId",
        "params": {
          "dstChainId": "dst chainId"
        }
      },
      "setMessageBus(address)": {
        "details": "update message bus",
        "params": {
          "messageBus": "message bus address"
        }
      },
      "setReceiver(address)": {
        "details": "set dst chain receiver",
        "params": {
          "_receiver": "dst chain receiver"
        }
      },
      "setSrcChainPayment(address)": {
        "details": "set src chain payment",
        "params": {
          "_payment": "src chain payment address"
        }
      },
      "transferOwnership(address)": {
        "details": "Transfers ownership of the contract to a new account (`newOwner`). Can only be called by the current owner."
      }
    },
    "stateVariables": {
      "dstChainId": {
        "details": "dst chainId"
      },
      "messageBus": {
        "details": "src chain messageBus address"
      },
      "receiver": {
        "details": "dst chain receiver address"
      },
      "srcChainPayment": {
        "details": "src chain payment address"
      }
    },
    "version": 1
  },
  "userdoc": {
    "kind": "user",
    "methods": {},
    "version": 1
  },
  "storageLayout": {
    "storage": [
      {
        "astId": 147,
        "contract": "contracts/messages/MessageSender.sol:MessageSender",
        "label": "_initialized",
        "offset": 0,
        "slot": "0",
        "type": "t_uint8"
      },
      {
        "astId": 150,
        "contract": "contracts/messages/MessageSender.sol:MessageSender",
        "label": "_initializing",
        "offset": 1,
        "slot": "0",
        "type": "t_bool"
      },
      {
        "astId": 1038,
        "contract": "contracts/messages/MessageSender.sol:MessageSender",
        "label": "__gap",
        "offset": 0,
        "slot": "1",
        "type": "t_array(t_uint256)50_storage"
      },
      {
        "astId": 10,
        "contract": "contracts/messages/MessageSender.sol:MessageSender",
        "label": "_owner",
        "offset": 0,
        "slot": "51",
        "type": "t_address"
      },
      {
        "astId": 122,
        "contract": "contracts/messages/MessageSender.sol:MessageSender",
        "label": "__gap",
        "offset": 0,
        "slot": "52",
        "type": "t_array(t_uint256)49_storage"
      },
      {
        "astId": 7978,
        "contract": "contracts/messages/MessageSender.sol:MessageSender",
        "label": "srcChainPayment",
        "offset": 0,
        "slot": "101",
        "type": "t_address"
      },
      {
        "astId": 7981,
        "contract": "contracts/messages/MessageSender.sol:MessageSender",
        "label": "messageBus",
        "offset": 0,
        "slot": "102",
        "type": "t_address"
      },
      {
        "astId": 7985,
        "contract": "contracts/messages/MessageSender.sol:MessageSender",
        "label": "receiver",
        "offset": 0,
        "slot": "103",
        "type": "t_address"
      },
      {
        "astId": 7989,
        "contract": "contracts/messages/MessageSender.sol:MessageSender",
        "label": "dstChainId",
        "offset": 20,
        "slot": "103",
        "type": "t_uint64"
      }
    ],
    "types": {
      "t_address": {
        "encoding": "inplace",
        "label": "address",
        "numberOfBytes": "20"
      },
      "t_array(t_uint256)49_storage": {
        "base": "t_uint256",
        "encoding": "inplace",
        "label": "uint256[49]",
        "numberOfBytes": "1568"
      },
      "t_array(t_uint256)50_storage": {
        "base": "t_uint256",
        "encoding": "inplace",
        "label": "uint256[50]",
        "numberOfBytes": "1600"
      },
      "t_bool": {
        "encoding": "inplace",
        "label": "bool",
        "numberOfBytes": "1"
      },
      "t_uint256": {
        "encoding": "inplace",
        "label": "uint256",
        "numberOfBytes": "32"
      },
      "t_uint64": {
        "encoding": "inplace",
        "label": "uint64",
        "numberOfBytes": "8"
      },
      "t_uint8": {
        "encoding": "inplace",
        "label": "uint8",
        "numberOfBytes": "1"
      }
    }
  }
}