{
  "address": "0x08A11ef47aF1d5259004Bb29BB590448528faFBF",
  "abi": [
    {
      "inputs": [],
      "stateMutability": "nonpayable",
      "type": "constructor"
    },
    {
      "anonymous": false,
      "inputs": [
        {
          "indexed": false,
          "internalType": "uint64",
          "name": "dstChainId",
          "type": "uint64"
        }
      ],
      "name": "DstChainIdUpdated",
      "type": "event"
    },
    {
      "anonymous": false,
      "inputs": [
        {
          "indexed": false,
          "internalType": "uint8",
          "name": "version",
          "type": "uint8"
        }
      ],
      "name": "Initialized",
      "type": "event"
    },
    {
      "anonymous": false,
      "inputs": [
        {
          "indexed": false,
          "internalType": "address",
          "name": "messageBus",
          "type": "address"
        }
      ],
      "name": "MessageBusUpdated",
      "type": "event"
    },
    {
      "anonymous": false,
      "inputs": [
        {
          "indexed": false,
          "internalType": "address",
          "name": "sender",
          "type": "address"
        },
        {
          "indexed": false,
          "internalType": "address",
          "name": "receiver",
          "type": "address"
        },
        {
          "indexed": false,
          "internalType": "uint64",
          "name": "srcChainId",
          "type": "uint64"
        },
        {
          "indexed": false,
          "internalType": "uint64",
          "name": "dstChainId",
          "type": "uint64"
        },
        {
          "indexed": false,
          "internalType": "bytes",
          "name": "message",
          "type": "bytes"
        }
      ],
      "name": "MessageSent",
      "type": "event"
    },
    {
      "anonymous": false,
      "inputs": [
        {
          "indexed": false,
          "internalType": "address",
          "name": "token",
          "type": "address"
        },
        {
          "indexed": false,
          "internalType": "uint256",
          "name": "amount",
          "type": "uint256"
        },
        {
          "indexed": false,
          "internalType": "bytes",
          "name": "message",
          "type": "bytes"
        },
        {
          "indexed": false,
          "internalType": "address",
          "name": "executor",
          "type": "address"
        }
      ],
      "name": "MessageWithTransferRefund",
      "type": "event"
    },
    {
      "anonymous": false,
      "inputs": [
        {
          "indexed": false,
          "internalType": "address",
          "name": "to",
          "type": "address"
        },
        {
          "indexed": false,
          "internalType": "uint256",
          "name": "value",
          "type": "uint256"
        }
      ],
      "name": "NativeWithdrawal",
      "type": "event"
    },
    {
      "anonymous": false,
      "inputs": [
        {
          "indexed": true,
          "internalType": "address",
          "name": "previousOwner",
          "type": "address"
        },
        {
          "indexed": true,
          "internalType": "address",
          "name": "newOwner",
          "type": "address"
        }
      ],
      "name": "OwnershipTransferred",
      "type": "event"
    },
    {
      "anonymous": false,
      "inputs": [
        {
          "indexed": false,
          "internalType": "address",
          "name": "receiver",
          "type": "address"
        }
      ],
      "name": "ReceiverUpdated",
      "type": "event"
    },
    {
      "anonymous": false,
      "inputs": [
        {
          "indexed": false,
          "internalType": "address",
          "name": "payment",
          "type": "address"
        }
      ],
      "name": "SrcChainPaymentUpdated",
      "type": "event"
    },
    {
      "anonymous": false,
      "inputs": [
        {
          "indexed": false,
          "internalType": "contract IERC20Upgradeable",
          "name": "token",
          "type": "address"
        },
        {
          "indexed": false,
          "internalType": "address",
          "name": "to",
          "type": "address"
        },
        {
          "indexed": false,
          "internalType": "uint256",
          "name": "value",
          "type": "uint256"
        }
      ],
      "name": "Withdrawal",
      "type": "event"
    },
    {
      "inputs": [
        {
          "internalType": "bytes",
          "name": "message",
          "type": "bytes"
        }
      ],
      "name": "calcFee",
      "outputs": [
        {
          "internalType": "uint256",
          "name": "",
          "type": "uint256"
        }
      ],
      "stateMutability": "view",
      "type": "function"
    },
    {
      "inputs": [],
      "name": "dstChainId",
      "outputs": [
        {
          "internalType": "uint64",
          "name": "",
          "type": "uint64"
        }
      ],
      "stateMutability": "view",
      "type": "function"
    },
    {
      "inputs": [
        {
          "internalType": "address",
          "name": "_token",
          "type": "address"
        },
        {
          "internalType": "uint256",
          "name": "_amount",
          "type": "uint256"
        },
        {
          "internalType": "bytes",
          "name": "_message",
          "type": "bytes"
        },
        {
          "internalType": "address",
          "name": "executor",
          "type": "address"
        }
      ],
      "name": "executeMessageWithTransferRefund",
      "outputs": [
        {
          "internalType": "enum MessageSender.ExecutionStatus",
          "name": "",
          "type": "uint8"
        }
      ],
      "stateMutability": "payable",
      "type": "function"
    },
    {
      "inputs": [
        {
          "internalType": "address",
          "name": "owner",
          "type": "address"
        },
        {
          "internalType": "address",
          "name": "_messageBus",
          "type": "address"
        },
        {
          "internalType": "address",
          "name": "_receiver",
          "type": "address"
        },
        {
          "internalType": "uint64",
          "name": "_dstChainId",
          "type": "uint64"
        }
      ],
      "name": "initialize",
      "outputs": [],
      "stateMutability": "nonpayable",
      "type": "function"
    },
    {
      "inputs": [],
      "name": "messageBus",
      "outputs": [
        {
          "internalType": "address",
          "name": "",
          "type": "address"
        }
      ],
      "stateMutability": "view",
      "type": "function"
    },
    {
      "inputs": [
        {
          "components": [
            {
              "internalType": "address",
              "name": "sender",
              "type": "address"
            },
            {
              "internalType": "address",
              "name": "receiver",
              "type": "address"
            },
            {
              "internalType": "uint64",
              "name": "srcChainId",
              "type": "uint64"
            },
            {
              "internalType": "bytes32",
              "name": "srcTxHash",
              "type": "bytes32"
            }
          ],
          "internalType": "struct MsgDataTypes.RouteInfo",
          "name": "route",
          "type": "tuple"
        },
        {
          "internalType": "uint64",
          "name": "dstChainId",
          "type": "uint64"
        },
        {
          "internalType": "bytes",
          "name": "message",
          "type": "bytes"
        }
      ],
      "name": "messageId",
      "outputs": [
        {
          "internalType": "bytes32",
          "name": "",
          "type": "bytes32"
        }
      ],
      "stateMutability": "view",
      "type": "function"
    },
    {
      "inputs": [],
      "name": "owner",
      "outputs": [
        {
          "internalType": "address",
          "name": "",
          "type": "address"
        }
      ],
      "stateMutability": "view",
      "type": "function"
    },
    {
      "inputs": [
        {
          "internalType": "contract IERC20Upgradeable",
          "name": "token",
          "type": "address"
        },
        {
          "internalType": "address",
          "name": "to",
          "type": "address"
        },
        {
          "internalType": "uint256",
          "name": "value",
          "type": "uint256"
        }
      ],
      "name": "ownerWithdrawERC20",
      "outputs": [],
      "stateMutability": "nonpayable",
      "type": "function"
    },
    {
      "inputs": [
        {
          "internalType": "address payable",
          "name": "to",
          "type": "address"
        },
        {
          "internalType": "uint256",
          "name": "value",
          "type": "uint256"
        }
      ],
      "name": "ownerWithdrawNative",
      "outputs": [],
      "stateMutability": "nonpayable",
      "type": "function"
    },
    {
      "inputs": [],
      "name": "receiver",
      "outputs": [
        {
          "internalType": "address",
          "name": "",
          "type": "address"
        }
      ],
      "stateMutability": "view",
      "type": "function"
    },
    {
      "inputs": [],
      "name": "renounceOwnership",
      "outputs": [],
      "stateMutability": "nonpayable",
      "type": "function"
    },
    {
      "inputs": [
        {
          "internalType": "bytes",
          "name": "message",
          "type": "bytes"
        }
      ],
      "name": "sendMessage",
      "outputs": [],
      "stateMutability": "payable",
      "type": "function"
    },
    {
      "inputs": [
        {
          "internalType": "address",
          "name": "token",
          "type": "address"
        },
        {
          "internalType": "uint256",
          "name": "amount",
          "type": "uint256"
        },
        {
          "internalType": "uint64",
          "name": "nonce",
          "type": "uint64"
        },
        {
          "internalType": "uint32",
          "name": "maxSlippage",
          "type": "uint32"
        },
        {
          "internalType": "bytes",
          "name": "message",
          "type": "bytes"
        },
        {
          "internalType": "enum MsgDataTypes.BridgeSendType",
          "name": "bridgeSendType",
          "type": "uint8"
        }
      ],
      "name": "sendMessageWithTransfer",
      "outputs": [
        {
          "internalType": "bytes32",
          "name": "",
          "type": "bytes32"
        }
      ],
      "stateMutability": "payable",
      "type": "function"
    },
    {
      "inputs": [
        {
          "internalType": "uint64",
          "name": "dstChainId",
          "type": "uint64"
        }
      ],
      "name": "setDstChainId",
      "outputs": [],
      "stateMutability": "nonpayable",
      "type": "function"
    },
    {
      "inputs": [
        {
          "internalType": "address",
          "name": "messageBus",
          "type": "address"
        }
      ],
      "name": "setMessageBus",
      "outputs": [],
      "stateMutability": "nonpayable",
      "type": "function"
    },
    {
      "inputs": [
        {
          "internalType": "address",
          "name": "_receiver",
          "type": "address"
        }
      ],
      "name": "setReceiver",
      "outputs": [],
      "stateMutability": "nonpayable",
      "type": "function"
    },
    {
      "inputs": [
        {
          "internalType": "address",
          "name": "_payment",
          "type": "address"
        }
      ],
      "name": "setSrcChainPayment",
      "outputs": [],
      "stateMutability": "nonpayable",
      "type": "function"
    },
    {
      "inputs": [],
      "name": "srcChainPayment",
      "outputs": [
        {
          "internalType": "address",
          "name": "",
          "type": "address"
        }
      ],
      "stateMutability": "view",
      "type": "function"
    },
    {
      "inputs": [
        {
          "internalType": "address",
          "name": "newOwner",
          "type": "address"
        }
      ],
      "name": "transferOwnership",
      "outputs": [],
      "stateMutability": "nonpayable",
      "type": "function"
    }
  ],
  "transactionHash": "0x192f381e959e3e10fa5cc0ad93eceacb53e20e027cd52ec066a0371cba5687e7",
  "args": [],
  "numDeployments": 3,
  "solcInputHash": "19782946ed3d35188254660cff9ea2f8",
  "bytecode": "0x60806040523480156200001157600080fd5b5060006200002060016200008e565b9050801562000039576000805461ff0019166101001790555b801562000087576000805461ff00191690556040517f7f26b83ff96e1f2b6a682f133852f6798a09c465da95921460cefb3847402498906200007e9060019062000168565b60405180910390a15b50620001cb565b60008054610100900460ff1615620000f7578160ff166001148015620000c75750620000c5306200013b60201b620009c91760201c565b155b620000ef5760405162461bcd60e51b8152600401620000e69062000178565b60405180910390fd5b506000919050565b60005460ff808416911610620001215760405162461bcd60e51b8152600401620000e69062000178565b506000805460ff191660ff92909216919091179055600190565b6001600160a01b03163b151590565b600060ff82165b92915050565b62000162816200014a565b82525050565b6020810162000151828462000157565b602080825281016200015181602e81527f496e697469616c697a61626c653a20636f6e747261637420697320616c72656160208201526d191e481a5b9a5d1a585b1a5e995960921b604082015260600190565b61272b80620001db6000396000f3fe6080604052600436106101145760003560e01c80638da5cb5b116100a0578063d204d9a811610064578063d204d9a8146102f4578063d7c8cb2414610314578063f2fde38b14610334578063f718845314610354578063f7260d3e1461036757600080fd5b80638da5cb5b1461024d57806393563a9514610274578063a1a227fa14610294578063bb0248aa146102b4578063bbd53ea7146102d457600080fd5b8063547cad12116100e7578063547cad12146101c5578063699256f4146101e5578063715018a614610205578063718da7ee1461021a57806382646a581461023a57600080fd5b80630bcb49821461011957806330c593f7146101425780633fe3f1cf146101765780635335dca214610198575b600080fd5b61012c6101273660046117f1565b610387565b60405161013991906118be565b60405180910390f35b34801561014e57600080fd5b5060675461016990600160a01b90046001600160401b031681565b60405161013991906118db565b34801561018257600080fd5b50610196610191366004611903565b610409565b005b3480156101a457600080fd5b506101b86101b3366004611a5b565b6104a3565b6040516101399190611a9b565b3480156101d157600080fd5b506101966101e0366004611aa9565b61052a565b3480156101f157600080fd5b50610196610200366004611aca565b610560565b34801561021157600080fd5b5061019661060e565b34801561022657600080fd5b50610196610235366004611aa9565b610644565b610196610248366004611a5b565b610677565b34801561025957600080fd5b506033546001600160a01b03165b6040516101399190611b10565b34801561028057600080fd5b5061019661028f366004611b3d565b610730565b3480156102a057600080fd5b50606654610267906001600160a01b031681565b3480156102c057600080fd5b506101b86102cf366004611ba8565b6107a1565b3480156102e057600080fd5b506101966102ef366004611aa9565b610812565b34801561030057600080fd5b50606554610267906001600160a01b031681565b34801561032057600080fd5b5061019661032f366004611c15565b610845565b34801561034057600080fd5b5061019661034f366004611aa9565b610878565b6101b8610362366004611c65565b6108d1565b34801561037357600080fd5b50606754610267906001600160a01b031681565b6066546000906001600160a01b031633146103bd5760405162461bcd60e51b81526004016103b490611d53565b60405180910390fd5b7f9afeef02b2dc7c87e4d0fe67945dedf1c4ee5bcf5cdf26f94fb1837859816f3386868686866040516103f4959493929190611d8c565b60405180910390a15060015b95945050505050565b600061041560016109d8565b9050801561042d576000805461ff0019166101001790555b61043685610a65565b61043f84610ab7565b61044883610b03565b61045182610b4e565b801561049c576000805461ff00191690556040517f7f26b83ff96e1f2b6a682f133852f6798a09c465da95921460cefb38474024989061049390600190611de6565b60405180910390a15b5050505050565b60665460405163299aee5160e11b81526000916001600160a01b031690635335dca2906104d4908590600401611e4e565b60206040518083038186803b1580156104ec57600080fd5b505afa158015610500573d6000803e3d6000fd5b505050506040513d601f19601f820116820180604052508101906105249190611e6a565b92915050565b6033546001600160a01b031633146105545760405162461bcd60e51b81526004016103b490611ec0565b61055d81610ab7565b50565b6033546001600160a01b0316331461058a5760405162461bcd60e51b81526004016103b490611ec0565b6040516000906001600160a01b0384169083156108fc0290849084818181858888f193505050509050806105d05760405162461bcd60e51b81526004016103b490611f1c565b7f2c876ecb97b3c6854f2488d373403f903eacb800e51c159a5c0c7a9c857e48278383604051610601929190611f40565b60405180910390a1505050565b6033546001600160a01b031633146106385760405162461bcd60e51b81526004016103b490611ec0565b6106426000610a65565b565b6033546001600160a01b0316331461066e5760405162461bcd60e51b81526004016103b490611ec0565b61055d81610b03565b6065546001600160a01b031633146106a15760405162461bcd60e51b81526004016103b490611fa5565b6067546066546106d2916001600160a01b0380821692600160a01b9092046001600160401b03169185911634610ba3565b6067546040517fbbb476e98b9b7845d6cfd4e37a62d14480243e3fe95454791d9eb9a6ca748e32916107259130916001600160a01b038116914691600160a01b90046001600160401b0316908790611fb5565b60405180910390a150565b6033546001600160a01b0316331461075a5760405162461bcd60e51b81526004016103b490611ec0565b61076e6001600160a01b0384168383610c0e565b7f2717ead6b9200dd235aad468c9809ea400fe33ac69b5bfaa6d3e90fc922b639883838360405161060193929190611ffc565b600060016107b26020870187611aa9565b6107c26040880160208901611aa9565b6107d26060890160408a01611c15565b88606001358888886040516020016107f19897969594939291906120bf565b6040516020818303038152906040528051906020012090505b949350505050565b6033546001600160a01b0316331461083c5760405162461bcd60e51b81526004016103b490611ec0565b61055d81610c69565b6033546001600160a01b0316331461086f5760405162461bcd60e51b81526004016103b490611ec0565b61055d81610b4e565b6033546001600160a01b031633146108a25760405162461bcd60e51b81526004016103b490611ec0565b6001600160a01b0381166108c85760405162461bcd60e51b81526004016103b49061216f565b61055d81610a65565b6065546000906001600160a01b031633146108fe5760405162461bcd60e51b81526004016103b490611fa5565b6040516323b872dd60e01b81526001600160a01b038816906323b872dd9061092e90339030908b9060040161217f565b602060405180830381600087803b15801561094857600080fd5b505af115801561095c573d6000803e3d6000fd5b505050506040513d601f19601f8201168201806040525081019061098091906121a0565b506067546066546109bc916001600160a01b03808216928b928b92600160a01b9091046001600160401b0316918b918b918b918b911634610cb4565b90505b9695505050505050565b6001600160a01b03163b151590565b60008054610100900460ff1615610a1f578160ff1660011480156109fb5750303b155b610a175760405162461bcd60e51b81526004016103b49061220c565b506000919050565b60005460ff808416911610610a465760405162461bcd60e51b81526004016103b49061220c565b506000805460ff191660ff92909216919091179055600190565b919050565b603380546001600160a01b038381166001600160a01b0319831681179093556040519116919082907f8be0079c531659141344cd1fd0a4f28419497f9722a3daafe3b4186f6b6457e090600090a35050565b606680546001600160a01b0319166001600160a01b0383169081179091556040517f3f8223bcd8b3b875473e9f9e14e1ad075451a2b5ffd31591655da9a01516bf5e9161072591611b10565b606780546001600160a01b0319166001600160a01b0383161790556040517f75fd3aa5d9b6e2a8a9d8894008c9263200713f4b1fa9113665e09ceac002774690610725908390611b10565b6067805467ffffffffffffffff60a01b1916600160a01b6001600160401b038416021790556040517fb21f4918f3e7b110065f3bf18a09b38074a4553144258ccfc30b57a76211e929906107259083906118db565b604051634f9e72ad60e11b81526001600160a01b03831690639f3ce55a908390610bd59089908990899060040161223a565b6000604051808303818588803b158015610bee57600080fd5b505af1158015610c02573d6000803e3d6000fd5b50505050505050505050565b610c648363a9059cbb60e01b8484604051602401610c2d929190612267565b60408051601f198184030181529190526020810180516001600160e01b03166001600160e01b031990931692909217909152610d9c565b505050565b606580546001600160a01b0319166001600160a01b0383161790556040517faf4cc7de2dd4900af1750e9a7af95c24ca2096d76903102700c90a6abaa819a290610725908390611b10565b60006001846006811115610cca57610cca611874565b1415610ce857610ce18b8b8b8b8b8b8b8a8a610e2b565b9050610d8e565b6002846006811115610cfc57610cfc611874565b1480610d1957506004846006811115610d1757610d17611874565b145b15610d2f57610ce1848c8c8c8c8c8b8a8a610fcb565b6003846006811115610d4357610d43611874565b1480610d6057506005846006811115610d5e57610d5e611874565b145b15610d7657610ce1848c8c8c8c8c8b8a8a611263565b60405162461bcd60e51b81526004016103b4906122a9565b9a9950505050505050505050565b6000610df1826040518060400160405280602081526020017f5361666545524332303a206c6f772d6c6576656c2063616c6c206661696c6564815250856001600160a01b03166114d69092919063ffffffff16565b805190915015610c645780806020019051810190610e0f91906121a0565b610c645760405162461bcd60e51b81526004016103b490612300565b600080836001600160a01b03166382980dc46040518163ffffffff1660e01b815260040160206040518083038186803b158015610e6757600080fd5b505afa158015610e7b573d6000803e3d6000fd5b505050506040513d601f19601f82011682018060405250810190610e9f919061231b565b9050610eb56001600160a01b038b16828b6114ef565b60405163a5977fbb60e01b81526001600160a01b0382169063a5977fbb90610eeb908e908e908e908e908e908e90600401612348565b600060405180830381600087803b158015610f0557600080fd5b505af1158015610f19573d6000803e3d6000fd5b505050506000308c8c8c8c8c46604051602001610f3c9796959493929190612397565b604051602081830303815290604052805190602001209050846001600160a01b0316634289fbb3858e8c86868c6040518763ffffffff1660e01b8152600401610f89959493929190612412565b6000604051808303818588803b158015610fa257600080fd5b505af1158015610fb6573d6000803e3d6000fd5b50939f9e505050505050505050505050505050565b60008060028b6006811115610fe257610fe2611874565b141561106057836001600160a01b031663d8257d176040518163ffffffff1660e01b815260040160206040518083038186803b15801561102157600080fd5b505afa158015611035573d6000803e3d6000fd5b505050506040513d601f19601f82011682018060405250810190611059919061231b565b90506110d4565b836001600160a01b031663c66a9c5a6040518163ffffffff1660e01b815260040160206040518083038186803b15801561109957600080fd5b505afa1580156110ad573d6000803e3d6000fd5b505050506040513d601f19601f820116820180604052508101906110d1919061231b565b90505b6110e86001600160a01b038a16828a6114ef565b600060028c60068111156110fe576110fe611874565b14156111a457816001600160a01b031663234636248b8b8b8f8c6040518663ffffffff1660e01b8152600401611138959493929190612447565b600060405180830381600087803b15801561115257600080fd5b505af1158015611166573d6000803e3d6000fd5b50505050308a8a8a8e8b466040516020016111879796959493929190612489565b60405160208183030381529060405280519060200120905061122d565b816001600160a01b031663234636248b8b8b8f8c6040518663ffffffff1660e01b81526004016111d8959493929190612447565b602060405180830381600087803b1580156111f257600080fd5b505af1158015611206573d6000803e3d6000fd5b505050506040513d601f19601f8201168201806040525081019061122a9190611e6a565b90505b604051634289fbb360e01b81526001600160a01b03861690634289fbb3908690610f89908f908d90889088908e90600401612412565b60008060038b600681111561127a5761127a611874565b14156112f857836001600160a01b031663dfa2dbaf6040518163ffffffff1660e01b815260040160206040518083038186803b1580156112b957600080fd5b505afa1580156112cd573d6000803e3d6000fd5b505050506040513d601f19601f820116820180604052508101906112f1919061231b565b905061136c565b836001600160a01b03166395b12c276040518163ffffffff1660e01b815260040160206040518083038186803b15801561133157600080fd5b505afa158015611345573d6000803e3d6000fd5b505050506040513d601f19601f82011682018060405250810190611369919061231b565b90505b6113806001600160a01b038a16828a6114ef565b600060038c600681111561139657611396611874565b141561143857816001600160a01b031663de790c7e8b8b8e8b6040518563ffffffff1660e01b81526004016113ce94939291906124e5565b600060405180830381600087803b1580156113e857600080fd5b505af11580156113fc573d6000803e3d6000fd5b50505050308a8a8d8a4660405160200161141b9695949392919061251a565b6040516020818303038152906040528051906020012090506114c1565b816001600160a01b031663a00293018b8b8b8f8c6040518663ffffffff1660e01b815260040161146c959493929190612447565b602060405180830381600087803b15801561148657600080fd5b505af115801561149a573d6000803e3d6000fd5b505050506040513d601f19601f820116820180604052508101906114be9190611e6a565b90505b61122d6001600160a01b038b168360006115a1565b60606114e58484600085611664565b90505b9392505050565b600081846001600160a01b031663dd62ed3e30866040518363ffffffff1660e01b8152600401611520929190612584565b60206040518083038186803b15801561153857600080fd5b505afa15801561154c573d6000803e3d6000fd5b505050506040513d601f19601f820116820180604052508101906115709190611e6a565b61157a91906125b5565b905061159b8463095ea7b360e01b8584604051602401610c2d929190612267565b50505050565b8015806116295750604051636eb1769f60e11b81526001600160a01b0384169063dd62ed3e906115d79030908690600401612584565b60206040518083038186803b1580156115ef57600080fd5b505afa158015611603573d6000803e3d6000fd5b505050506040513d601f19601f820116820180604052508101906116279190611e6a565b155b6116455760405162461bcd60e51b81526004016103b490612620565b610c648363095ea7b360e01b8484604051602401610c2d929190612267565b6060824710156116865760405162461bcd60e51b81526004016103b490612673565b6001600160a01b0385163b6116ad5760405162461bcd60e51b81526004016103b4906126b7565b600080866001600160a01b031685876040516116c991906126e9565b60006040518083038185875af1925050503d8060008114611706576040519150601f19603f3d011682016040523d82523d6000602084013e61170b565b606091505b509150915061171b828286611726565b979650505050505050565b606083156117355750816114e8565b8251156117455782518084602001fd5b8160405162461bcd60e51b81526004016103b49190611e4e565b60006001600160a01b038216610524565b6117798161175f565b811461055d57600080fd5b803561052481611770565b80611779565b80356105248161178f565b60008083601f8401126117b5576117b5600080fd5b5081356001600160401b038111156117cf576117cf600080fd5b6020830191508360018202830111156117ea576117ea600080fd5b9250929050565b60008060008060006080868803121561180c5761180c600080fd5b60006118188888611784565b955050602061182988828901611795565b94505060408601356001600160401b0381111561184857611848600080fd5b611854888289016117a0565b9350935050606061186788828901611784565b9150509295509295909350565b634e487b7160e01b600052602160045260246000fd5b6003811061055d5761055d611874565b80610a608161188a565b60006105248261189a565b6118b8816118a4565b82525050565b6020810161052482846118af565b6001600160401b0381166118b8565b6020810161052482846118cc565b6001600160401b038116611779565b8035610524816118e9565b6000806000806080858703121561191c5761191c600080fd5b60006119288787611784565b945050602061193987828801611784565b935050604061194a87828801611784565b925050606061195b878288016118f8565b91505092959194509250565b634e487b7160e01b600052604160045260246000fd5b601f19601f83011681018181106001600160401b03821117156119a2576119a2611967565b6040525050565b60006119b460405190565b9050610a60828261197d565b60006001600160401b038211156119d9576119d9611967565b601f19601f83011660200192915050565b82818337506000910152565b6000611a09611a04846119c0565b6119a9565b905082815260208101848484011115611a2457611a24600080fd5b611a2f8482856119ea565b509392505050565b600082601f830112611a4b57611a4b600080fd5b813561080a8482602086016119f6565b600060208284031215611a7057611a70600080fd5b81356001600160401b03811115611a8957611a89600080fd5b61080a84828501611a37565b806118b8565b602081016105248284611a95565b600060208284031215611abe57611abe600080fd5b600061080a8484611784565b60008060408385031215611ae057611ae0600080fd5b6000611aec8585611784565b9250506020611afd85828601611795565b9150509250929050565b6118b88161175f565b602081016105248284611b07565b60006105248261175f565b61177981611b1e565b803561052481611b29565b600080600060608486031215611b5557611b55600080fd5b6000611b618686611b32565b9350506020611b7286828701611784565b9250506040611b8386828701611795565b9150509250925092565b600060808284031215611ba257611ba2600080fd5b50919050565b60008060008060c08587031215611bc157611bc1600080fd5b6000611bcd8787611b8d565b9450506080611bde878288016118f8565b93505060a08501356001600160401b03811115611bfd57611bfd600080fd5b611c09878288016117a0565b95989497509550505050565b600060208284031215611c2a57611c2a600080fd5b600061080a84846118f8565b63ffffffff8116611779565b803561052481611c36565b6007811061055d57600080fd5b803561052481611c4d565b60008060008060008060c08789031215611c8157611c81600080fd5b6000611c8d8989611784565b9650506020611c9e89828a01611795565b9550506040611caf89828a016118f8565b9450506060611cc089828a01611c42565b93505060808701356001600160401b03811115611cdf57611cdf600080fd5b611ceb89828a01611a37565b92505060a0611cfc89828a01611c5a565b9150509295509295509295565b602a81526000602082017f4d65737361676552656365697665723a2063616c6c6572206973206e6f74206d8152696573736167652062757360b01b602082015291505b5060400190565b6020808252810161052481611d09565b8183526000602084019350611d798385846119ea565b601f19601f8401165b9093019392505050565b60808101611d9a8288611b07565b611da76020830187611a95565b8181036040830152611dba818587611d63565b90506109bf6060830184611b07565b600061052482611dd7565b90565b60ff1690565b6118b881611dc9565b602081016105248284611ddd565b60005b83811015611e0f578181015183820152602001611df7565b8381111561159b5750506000910152565b6000611e2a825190565b808452602084019350611e41818560208601611df4565b601f19601f820116611d82565b602080825281016114e88184611e20565b80516105248161178f565b600060208284031215611e7f57611e7f600080fd5b600061080a8484611e5f565b60208082527f4f776e61626c653a2063616c6c6572206973206e6f7420746865206f776e6572910190815260005b5060200190565b6020808252810161052481611e8b565b602f81526000602082017f4f776e6572576974686472617761626c653a207769746864726177206e61746981526e1d99481d1bdad95b8819985a5b1959608a1b60208201529150611d4c565b6020808252810161052481611ed0565b600061052482611b1e565b6118b881611f2c565b60408101611f4e8285611f37565b6114e86020830184611a95565b602d81526000602082017f4d65737361676553656e6465723a2063616c6c6572206973206e6f742070617981526c1b595b9d0818dbdb9d1c9858dd609a1b60208201529150611d4c565b6020808252810161052481611f5b565b60a08101611fc38288611b07565b611fd06020830187611b07565b611fdd60408301866118cc565b611fea60608301856118cc565b81810360808301526109bc8184611e20565b6060810161200a8286611f37565b6120176020830185611b07565b61080a6040830184611a95565b6002811061055d5761055d611874565b80610a6081612024565b600061052482612034565b60006105248260f81b90565b6118b86120618261203e565b612049565b60006105248260601b90565b600061052482612066565b6118b86120898261175f565b612072565b60006105248260c01b90565b6118b86001600160401b03821661208e565b60006120b98385846119ea565b50500190565b60006120cb828b612055565b6001820191506120db828a61207d565b6014820191506120eb828961207d565b6014820191506120fb828861209a565b60088201915061210b8287611a95565b60208201915061211b828661209a565b600882019150610d8e8284866120ac565b602681526000602082017f4f776e61626c653a206e6577206f776e657220697320746865207a65726f206181526564647265737360d01b60208201529150611d4c565b602080825281016105248161212c565b6060810161200a8286611b07565b801515611779565b80516105248161218d565b6000602082840312156121b5576121b5600080fd5b600061080a8484612195565b602e81526000602082017f496e697469616c697a61626c653a20636f6e747261637420697320616c72656181526d191e481a5b9a5d1a585b1a5e995960921b60208201529150611d4c565b60208082528101610524816121c1565b6000610524611dd46001600160401b03841681565b6118b88161221c565b606081016122488286611b07565b6122556020830185612231565b81810360408301526104008184611e20565b60408101611f4e8285611b07565b601981526000602082017f6272696467652074797065206e6f7420737570706f727465640000000000000081529150611eb9565b6020808252810161052481612275565b602a81526000602082017f5361666545524332303a204552433230206f7065726174696f6e20646964206e8152691bdd081cdd58d8d9595960b21b60208201529150611d4c565b60208082528101610524816122b9565b805161052481611770565b60006020828403121561233057612330600080fd5b600061080a8484612310565b63ffffffff81166118b8565b60c081016123568289611b07565b6123636020830188611b07565b6123706040830187611a95565b61237d60608301866118cc565b61238a60808301856118cc565b61171b60a083018461233c565b60006123a3828a61207d565b6014820191506123b3828961207d565b6014820191506123c3828861207d565b6014820191506123d38287611a95565b6020820191506123e3828661209a565b6008820191506123f3828561209a565b600882019150612403828461209a565b50600801979650505050505050565b60a081016124208288611b07565b61242d6020830187612231565b61243a6040830186611b07565b611fea6060830185611a95565b60a081016124558288611b07565b6124626020830187611a95565b61246f60408301866118cc565b61247c6060830185611b07565b6109bf60808301846118cc565b6000612495828a61207d565b6014820191506124a5828961207d565b6014820191506124b58288611a95565b6020820191506124c5828761209a565b6008820191506124d5828661207d565b6014820191506123f3828561209a565b608081016124f38287611b07565b6125006020830186611a95565b61250d6040830185611b07565b61040060608301846118cc565b6000612526828961207d565b601482019150612536828861207d565b6014820191506125468287611a95565b602082019150612556828661207d565b601482019150612566828561209a565b600882019150612576828461209a565b506008019695505050505050565b604081016125928285611b07565b6114e86020830184611b07565b634e487b7160e01b600052601160045260246000fd5b600082198211156125c8576125c861259f565b500190565b603681526000602082017f5361666545524332303a20617070726f76652066726f6d206e6f6e2d7a65726f81527520746f206e6f6e2d7a65726f20616c6c6f77616e636560501b60208201529150611d4c565b60208082528101610524816125cd565b602681526000602082017f416464726573733a20696e73756666696369656e742062616c616e636520666f8152651c8818d85b1b60d21b60208201529150611d4c565b6020808252810161052481612630565b601d81526000602082017f416464726573733a2063616c6c20746f206e6f6e2d636f6e747261637400000081529150611eb9565b6020808252810161052481612683565b60006126d1825190565b6126df818560208601611df4565b9290920192915050565b60006114e882846126c756fea26469706673582212202e9083543534357de16e65f02264c5beca81493aaaa7175fd1987130c4f7b35764736f6c63430008090033",
  "devdoc": {
    "author": "Alexandas",
    "details": "Celer SGN source chain sender contract",
    "kind": "dev",
    "methods": {
      "calcFee(bytes)": {
        "details": "calculate message fee",
        "params": {
          "message": "message bytes"
        },
        "returns": {
          "_0": "fee"
        }
      },
      "executeMessageWithTransferRefund(address,uint256,bytes,address)": {
        "details": "call when cBridge transfer failed",
        "params": {
          "_amount": "token amount",
          "_message": "message",
          "_token": "token address",
          "executor": "exector address"
        }
      },
      "initialize(address,address,address,uint64)": {
        "details": "proxy initialize function",
        "params": {
          "_dstChainId": "dst chain chainId",
          "_messageBus": "src chain messageBus",
          "_receiver": "dst chain receiver",
          "owner": "contract owner"
        }
      },
      "messageId((address,address,uint64,bytes32),uint64,bytes)": {
        "details": "messageId for message bus",
        "params": {
          "dstChainId": "message route info",
          "message": "message bytes",
          "route": "message route info"
        }
      },
      "owner()": {
        "details": "Returns the address of the current owner."
      },
      "ownerWithdrawERC20(address,address,uint256)": {
        "details": "withdraw token",
        "params": {
          "to": "receiver address",
          "token": "token address",
          "value": "token value"
        }
      },
      "ownerWithdrawNative(address,uint256)": {
        "details": "withdraw ETH",
        "params": {
          "to": "receiver address",
          "value": "token value"
        }
      },
      "renounceOwnership()": {
        "details": "Leaves the contract without owner. It will not be possible to call `onlyOwner` functions anymore. Can only be called by the current owner. NOTE: Renouncing ownership will leave the contract without an owner, thereby removing any functionality that is only available to the owner."
      },
      "sendMessage(bytes)": {
        "details": "sendMessage to dst chain",
        "params": {
          "message": "message to dst chain"
        }
      },
      "sendMessageWithTransfer(address,uint256,uint64,uint32,bytes,uint8)": {
        "details": "sendMessageWithTransfer to dst chain",
        "params": {
          "amount": "token amount",
          "bridgeSendType": "bridge send type for sgn cBridge",
          "maxSlippage": "maxSlippage for sgn cBridge",
          "message": "message to dst chain",
          "nonce": "nonce",
          "token": "src payment token address"
        }
      },
      "setDstChainId(uint64)": {
        "details": "set dst chain chainId",
        "params": {
          "dstChainId": "dst chainId"
        }
      },
      "setMessageBus(address)": {
        "details": "update message bus",
        "params": {
          "messageBus": "message bus address"
        }
      },
      "setReceiver(address)": {
        "details": "set dst chain receiver",
        "params": {
          "_receiver": "dst chain receiver"
        }
      },
      "setSrcChainPayment(address)": {
        "details": "set src chain payment",
        "params": {
          "_payment": "src chain payment address"
        }
      },
      "transferOwnership(address)": {
        "details": "Transfers ownership of the contract to a new account (`newOwner`). Can only be called by the current owner."
      }
    },
    "stateVariables": {
      "dstChainId": {
        "details": "dst chainId"
      },
      "messageBus": {
        "details": "src chain messageBus address"
      },
      "receiver": {
        "details": "dst chain receiver address"
      },
      "srcChainPayment": {
        "details": "src chain payment address"
      }
    },
    "version": 1
  },
  "userdoc": {
    "kind": "user",
    "methods": {},
    "version": 1
  },
  "storageLayout": {
    "storage": [
      {
        "astId": 147,
        "contract": "contracts/messages/MessageSender.sol:MessageSender",
        "label": "_initialized",
        "offset": 0,
        "slot": "0",
        "type": "t_uint8"
      },
      {
        "astId": 150,
        "contract": "contracts/messages/MessageSender.sol:MessageSender",
        "label": "_initializing",
        "offset": 1,
        "slot": "0",
        "type": "t_bool"
      },
      {
        "astId": 1038,
        "contract": "contracts/messages/MessageSender.sol:MessageSender",
        "label": "__gap",
        "offset": 0,
        "slot": "1",
        "type": "t_array(t_uint256)50_storage"
      },
      {
        "astId": 10,
        "contract": "contracts/messages/MessageSender.sol:MessageSender",
        "label": "_owner",
        "offset": 0,
        "slot": "51",
        "type": "t_address"
      },
      {
        "astId": 122,
        "contract": "contracts/messages/MessageSender.sol:MessageSender",
        "label": "__gap",
        "offset": 0,
        "slot": "52",
        "type": "t_array(t_uint256)49_storage"
      },
      {
        "astId": 8143,
        "contract": "contracts/messages/MessageSender.sol:MessageSender",
        "label": "srcChainPayment",
        "offset": 0,
        "slot": "101",
        "type": "t_address"
      },
      {
        "astId": 8146,
        "contract": "contracts/messages/MessageSender.sol:MessageSender",
        "label": "messageBus",
        "offset": 0,
        "slot": "102",
        "type": "t_address"
      },
      {
        "astId": 8150,
        "contract": "contracts/messages/MessageSender.sol:MessageSender",
        "label": "receiver",
        "offset": 0,
        "slot": "103",
        "type": "t_address"
      },
      {
        "astId": 8154,
        "contract": "contracts/messages/MessageSender.sol:MessageSender",
        "label": "dstChainId",
        "offset": 20,
        "slot": "103",
        "type": "t_uint64"
      }
    ],
    "types": {
      "t_address": {
        "encoding": "inplace",
        "label": "address",
        "numberOfBytes": "20"
      },
      "t_array(t_uint256)49_storage": {
        "base": "t_uint256",
        "encoding": "inplace",
        "label": "uint256[49]",
        "numberOfBytes": "1568"
      },
      "t_array(t_uint256)50_storage": {
        "base": "t_uint256",
        "encoding": "inplace",
        "label": "uint256[50]",
        "numberOfBytes": "1600"
      },
      "t_bool": {
        "encoding": "inplace",
        "label": "bool",
        "numberOfBytes": "1"
      },
      "t_uint256": {
        "encoding": "inplace",
        "label": "uint256",
        "numberOfBytes": "32"
      },
      "t_uint64": {
        "encoding": "inplace",
        "label": "uint64",
        "numberOfBytes": "8"
      },
      "t_uint8": {
        "encoding": "inplace",
        "label": "uint8",
        "numberOfBytes": "1"
      }
    }
  }
}