{
  "address": "0xdaFc0fD743768b388Ae44D3B0477dA486A0bd28b",
  "abi": [
    {
      "anonymous": false,
      "inputs": [
        {
          "indexed": false,
          "internalType": "address",
          "name": "provider",
          "type": "address"
        },
        {
          "indexed": false,
          "internalType": "uint256",
          "name": "nonce",
          "type": "uint256"
        },
        {
          "components": [
            {
              "internalType": "enum ResourceData.ResourceType",
              "name": "resourceType",
              "type": "uint8"
            },
            {
              "internalType": "uint256[]",
              "name": "amounts",
              "type": "uint256[]"
            }
          ],
          "indexed": false,
          "internalType": "struct ResourceData.AmountPayload[]",
          "name": "payload",
          "type": "tuple[]"
        }
      ],
      "name": "Drip",
      "type": "event"
    },
    {
      "anonymous": false,
      "inputs": [
        {
          "indexed": false,
          "internalType": "uint8",
          "name": "version",
          "type": "uint8"
        }
      ],
      "name": "Initialized",
      "type": "event"
    },
    {
      "anonymous": false,
      "inputs": [
        {
          "indexed": false,
          "internalType": "contract IRouter",
          "name": "router",
          "type": "address"
        }
      ],
      "name": "RouterUpdated",
      "type": "event"
    },
    {
      "inputs": [
        {
          "internalType": "contract IRouter",
          "name": "router",
          "type": "address"
        }
      ],
      "name": "initialize",
      "outputs": [],
      "stateMutability": "nonpayable",
      "type": "function"
    },
    {
      "inputs": [
        {
          "internalType": "uint256",
          "name": "",
          "type": "uint256"
        }
      ],
      "name": "nonces",
      "outputs": [
        {
          "internalType": "bool",
          "name": "",
          "type": "bool"
        }
      ],
      "stateMutability": "view",
      "type": "function"
    },
    {
      "inputs": [],
      "name": "router",
      "outputs": [
        {
          "internalType": "contract IRouter",
          "name": "",
          "type": "address"
        }
      ],
      "stateMutability": "view",
      "type": "function"
    },
    {
      "inputs": [
        {
          "internalType": "uint256",
          "name": "nonce",
          "type": "uint256"
        },
        {
          "components": [
            {
              "internalType": "enum ResourceData.ResourceType",
              "name": "resourceType",
              "type": "uint8"
            },
            {
              "internalType": "uint256[]",
              "name": "amounts",
              "type": "uint256[]"
            }
          ],
          "internalType": "struct ResourceData.AmountPayload[]",
          "name": "payload",
          "type": "tuple[]"
        }
      ],
      "name": "send",
      "outputs": [],
      "stateMutability": "nonpayable",
      "type": "function"
    }
  ],
  "transactionHash": "0xeb334f2d3bdc5177efd146f0309c2ad90ba1ccfabb1379e2add1b82df584cf1f",
  "args": [],
  "numDeployments": 2,
  "solcInputHash": "5ef3f0f3d4aeac54d721d0dcc8863c42",
  "bytecode": "0x608060405234801561001057600080fd5b50610d78806100206000396000f3fe608060405234801561001057600080fd5b506004361061004c5760003560e01c8063141a468c1461005157806390bea3b91461008a578063c4d66de81461009f578063f887ea40146100b2575b600080fd5b61007461005f36600461059a565b60016020526000908152604090205460ff1681565b60405161008191906105cd565b60405180910390f35b61009d6100983660046107ec565b6100d8565b005b61009d6100ad366004610874565b6103bd565b6000546100cb906201000090046001600160a01b031681565b60405161008191906108a9565b60008060029054906101000a90046001600160a01b03166001600160a01b031663a5a3f6c86040518163ffffffff1660e01b815260040160206040518083038186803b15801561012757600080fd5b505afa15801561013b573d6000803e3d6000fd5b505050506040513d601f19601f8201168201806040525081019061015f91906108c2565b604051636b074a0760e01b81529091506001600160a01b03821690636b074a079061018e9033906004016108ec565b60206040518083038186803b1580156101a657600080fd5b505afa1580156101ba573d6000803e3d6000fd5b505050506040513d601f19601f820116820180604052508101906101de919061090d565b6102035760405162461bcd60e51b81526004016101fa90610977565b60405180910390fd5b60008381526001602052604090205460ff16156102325760405162461bcd60e51b81526004016101fa906109be565b60008251116102535760405162461bcd60e51b81526004016101fa90610a0c565b60005b825181101561036057600083828151811061027357610273610a1c565b602002602001015190506001600481111561029057610290610a32565b815160048111156102a3576102a3610a32565b14806102c157506002815160048111156102bf576102bf610a32565b145b806102de57506003815160048111156102dc576102dc610a32565b145b1561030d578060200151516001146103085760405162461bcd60e51b81526004016101fa90610a7c565b61034d565b60048151600481111561032257610322610a32565b141561034d5780602001515160021461034d5760405162461bcd60e51b81526004016101fa90610a7c565b508061035881610aa2565b915050610256565b50600083815260016020819052604091829020805460ff19169091179055517f020ded4629fe02568c9ea2afece21cc2c122cd1c6495b39f88bea43dd4c2ed99906103b090339086908690610bfc565b60405180910390a1505050565b60006103c96001610439565b905080156103e1576000805461ff0019166101001790555b6103ea826104c6565b8015610435576000805461ff00191690556040517f7f26b83ff96e1f2b6a682f133852f6798a09c465da95921460cefb38474024989061042c90600190610c3d565b60405180910390a15b5050565b60008054610100900460ff1615610480578160ff16600114801561045c5750303b155b6104785760405162461bcd60e51b81526004016101fa90610c96565b506000919050565b60005460ff8084169116106104a75760405162461bcd60e51b81526004016101fa90610c96565b506000805460ff191660ff92909216919091179055600190565b919050565b600054610100900460ff166104ed5760405162461bcd60e51b81526004016101fa90610cee565b6104f6816104f9565b50565b6001600160a01b03811661051f5760405162461bcd60e51b81526004016101fa90610d32565b6000805462010000600160b01b031916620100006001600160a01b038416021790556040517f7aed1d3e8155a07ccf395e44ea3109a0e2d6c9b29bbbe9f142d9790596f4dc80906105719083906108a9565b60405180910390a150565b805b81146104f657600080fd5b80356105948161057c565b92915050565b6000602082840312156105af576105af600080fd5b60006105bb8484610589565b949350505050565b8015155b82525050565b6020810161059482846105c3565b634e487b7160e01b600052604160045260246000fd5b601f19601f830116810181811067ffffffffffffffff82111715610617576106176105db565b6040525050565b600061062960405190565b90506104c182826105f1565b600067ffffffffffffffff82111561064f5761064f6105db565b5060209081020190565b600581106104f657600080fd5b803561059481610659565b600061068461067f84610635565b61061e565b838152905060208082019084028301858111156106a3576106a3600080fd5b835b818110156106c757806106b88882610589565b845250602092830192016106a5565b5050509392505050565b600082601f8301126106e5576106e5600080fd5b81356105bb848260208601610671565b60006040828403121561070a5761070a600080fd5b610714604061061e565b905060006107228484610666565b825250602082013567ffffffffffffffff81111561074257610742600080fd5b61074e848285016106d1565b60208301525092915050565b600061076861067f84610635565b8381529050602080820190840283018581111561078757610787600080fd5b835b818110156106c757803567ffffffffffffffff8111156107ab576107ab600080fd5b8086016107b889826106f5565b8552505060209283019201610789565b600082601f8301126107dc576107dc600080fd5b81356105bb84826020860161075a565b6000806040838503121561080257610802600080fd5b600061080e8585610589565b925050602083013567ffffffffffffffff81111561082e5761082e600080fd5b61083a858286016107c8565b9150509250929050565b60006001600160a01b038216610594565b600061059482610844565b61057e81610855565b803561059481610860565b60006020828403121561088957610889600080fd5b60006105bb8484610869565b600061059482610855565b6105c781610895565b6020810161059482846108a0565b805161059481610860565b6000602082840312156108d7576108d7600080fd5b60006105bb84846108b7565b6105c781610844565b6020810161059482846108e3565b80151561057e565b8051610594816108fa565b60006020828403121561092257610922600080fd5b60006105bb8484610902565b602981526000602082017f526f75746572577261707065723a2063616c6c6572206973206e6f742074686581526810383937bb34b232b960b91b602082015291505b5060400190565b602080825281016105948161092e565b601781526000602082017f416e616c79746963733a206e6f6e636520657869737473000000000000000000815291505b5060200190565b6020808252810161059481610987565b602181526000602082017f416e616c79746963733a20696e76616c6964207061796c6f6164206c656e67748152600d60fb1b60208201529150610970565b60208082528101610594816109ce565b634e487b7160e01b600052603260045260246000fd5b634e487b7160e01b600052602160045260246000fd5b601a81526000602082017f416e616c79746963733a20696e76616c6964207061796c6f6164000000000000815291506109b7565b6020808252810161059481610a48565b634e487b7160e01b600052601160045260246000fd5b6000600019821415610ab657610ab6610a8c565b5060010190565b806105c7565b600581106104f6576104f6610a32565b806104c181610ac3565b600061059482610ad3565b6105c781610add565b6000610afd8383610abd565b505060200190565b6000610b0f825190565b80845260209384019383018060005b83811015610b43578151610b328882610af1565b975060208301925050600101610b1e565b509495945050505050565b80516000906040840190610b628582610ae8565b5060208301518482036020860152610b7a8282610b05565b95945050505050565b6000610b8f8383610b4e565b9392505050565b6000610ba0825190565b80845260208401935083602082028501610bba8560200190565b8060005b85811015610bef5784840389528151610bd78582610b83565b94506020830160209a909a0199925050600101610bbe565b5091979650505050505050565b60608101610c0a82866108e3565b610c176020830185610abd565b8181036040830152610b7a8184610b96565b600060ff8216610594565b6105c781610c29565b602081016105948284610c34565b602e81526000602082017f496e697469616c697a61626c653a20636f6e747261637420697320616c72656181526d191e481a5b9a5d1a585b1a5e995960921b60208201529150610970565b6020808252810161059481610c4b565b602b81526000602082017f496e697469616c697a61626c653a20636f6e7472616374206973206e6f74206981526a6e697469616c697a696e6760a81b60208201529150610970565b6020808252810161059481610ca6565b601b81526000602082017f526f75746572577261707065723a207a65726f20616464726573730000000000815291506109b7565b6020808252810161059481610cfe56fea2646970667358221220ae561d398f0497ef4290bb08347735d2e8885512fc2a4ed75720695c30bdd32064736f6c63430008090033",
  "devdoc": {
    "author": "Alexandas",
    "details": "send provider analytic data, will be removed in the future",
    "kind": "dev",
    "methods": {},
    "version": 1
  },
  "userdoc": {
    "kind": "user",
    "methods": {},
    "version": 1
  },
  "storageLayout": {
    "storage": [
      {
        "astId": 147,
        "contract": "contracts/resources/Analytics.sol:Analytics",
        "label": "_initialized",
        "offset": 0,
        "slot": "0",
        "type": "t_uint8"
      },
      {
        "astId": 150,
        "contract": "contracts/resources/Analytics.sol:Analytics",
        "label": "_initializing",
        "offset": 1,
        "slot": "0",
        "type": "t_bool"
      },
      {
        "astId": 6477,
        "contract": "contracts/resources/Analytics.sol:Analytics",
        "label": "router",
        "offset": 2,
        "slot": "0",
        "type": "t_contract(IRouter)7712"
      },
      {
        "astId": 11803,
        "contract": "contracts/resources/Analytics.sol:Analytics",
        "label": "nonces",
        "offset": 0,
        "slot": "1",
        "type": "t_mapping(t_uint256,t_bool)"
      }
    ],
    "types": {
      "t_bool": {
        "encoding": "inplace",
        "label": "bool",
        "numberOfBytes": "1"
      },
      "t_contract(IRouter)7712": {
        "encoding": "inplace",
        "label": "contract IRouter",
        "numberOfBytes": "20"
      },
      "t_mapping(t_uint256,t_bool)": {
        "encoding": "mapping",
        "key": "t_uint256",
        "label": "mapping(uint256 => bool)",
        "numberOfBytes": "32",
        "value": "t_bool"
      },
      "t_uint256": {
        "encoding": "inplace",
        "label": "uint256",
        "numberOfBytes": "32"
      },
      "t_uint8": {
        "encoding": "inplace",
        "label": "uint8",
        "numberOfBytes": "1"
      }
    }
  }
}