{
  "address": "0x99B6250966BDEbeeEDdF3Ac1cA7fEe54553B74a3",
  "abi": [
    {
      "anonymous": false,
      "inputs": [
        {
          "indexed": false,
          "internalType": "uint8",
          "name": "version",
          "type": "uint8"
        }
      ],
      "name": "Initialized",
      "type": "event"
    },
    {
      "anonymous": false,
      "inputs": [
        {
          "indexed": false,
          "internalType": "address",
          "name": "to",
          "type": "address"
        },
        {
          "indexed": false,
          "internalType": "uint256",
          "name": "value",
          "type": "uint256"
        }
      ],
      "name": "NativeWithdrawal",
      "type": "event"
    },
    {
      "anonymous": false,
      "inputs": [
        {
          "indexed": true,
          "internalType": "address",
          "name": "previousOwner",
          "type": "address"
        },
        {
          "indexed": true,
          "internalType": "address",
          "name": "newOwner",
          "type": "address"
        }
      ],
      "name": "OwnershipTransferred",
      "type": "event"
    },
    {
      "anonymous": false,
      "inputs": [
        {
          "indexed": false,
          "internalType": "address",
          "name": "provider",
          "type": "address"
        },
        {
          "indexed": false,
          "internalType": "bytes32",
          "name": "account",
          "type": "bytes32"
        },
        {
          "components": [
            {
              "internalType": "enum ResourceData.ResourceType",
              "name": "resourceType",
              "type": "uint8"
            },
            {
              "internalType": "uint256[]",
              "name": "values",
              "type": "uint256[]"
            }
          ],
          "indexed": false,
          "internalType": "struct ResourceData.ValuePayload[]",
          "name": "payloads",
          "type": "tuple[]"
        },
        {
          "indexed": false,
          "internalType": "uint256",
          "name": "value",
          "type": "uint256"
        },
        {
          "indexed": false,
          "internalType": "uint256",
          "name": "nonce",
          "type": "uint256"
        },
        {
          "indexed": false,
          "internalType": "uint256",
          "name": "amount",
          "type": "uint256"
        }
      ],
      "name": "Paid",
      "type": "event"
    },
    {
      "anonymous": false,
      "inputs": [
        {
          "indexed": false,
          "internalType": "uint64",
          "name": "srcChainId",
          "type": "uint64"
        },
        {
          "indexed": false,
          "internalType": "bytes32",
          "name": "srcTxHash",
          "type": "bytes32"
        },
        {
          "indexed": false,
          "internalType": "address",
          "name": "provider",
          "type": "address"
        },
        {
          "indexed": false,
          "internalType": "bytes32",
          "name": "account",
          "type": "bytes32"
        },
        {
          "components": [
            {
              "internalType": "enum ResourceData.ResourceType",
              "name": "resourceType",
              "type": "uint8"
            },
            {
              "internalType": "uint256[]",
              "name": "values",
              "type": "uint256[]"
            }
          ],
          "indexed": false,
          "internalType": "struct ResourceData.ValuePayload[]",
          "name": "payloads",
          "type": "tuple[]"
        },
        {
          "indexed": false,
          "internalType": "uint256",
          "name": "value",
          "type": "uint256"
        },
        {
          "indexed": false,
          "internalType": "uint256",
          "name": "nonce",
          "type": "uint256"
        },
        {
          "indexed": false,
          "internalType": "uint256",
          "name": "amount",
          "type": "uint256"
        }
      ],
      "name": "PaidSrc",
      "type": "event"
    },
    {
      "anonymous": false,
      "inputs": [
        {
          "indexed": false,
          "internalType": "address",
          "name": "account",
          "type": "address"
        }
      ],
      "name": "Paused",
      "type": "event"
    },
    {
      "anonymous": false,
      "inputs": [
        {
          "indexed": false,
          "internalType": "address",
          "name": "account",
          "type": "address"
        }
      ],
      "name": "PauserAdded",
      "type": "event"
    },
    {
      "anonymous": false,
      "inputs": [
        {
          "indexed": false,
          "internalType": "address",
          "name": "account",
          "type": "address"
        }
      ],
      "name": "PauserRemoved",
      "type": "event"
    },
    {
      "anonymous": false,
      "inputs": [
        {
          "indexed": false,
          "internalType": "contract IRouter",
          "name": "router",
          "type": "address"
        }
      ],
      "name": "RouterUpdated",
      "type": "event"
    },
    {
      "anonymous": false,
      "inputs": [
        {
          "indexed": false,
          "internalType": "address",
          "name": "account",
          "type": "address"
        }
      ],
      "name": "Unpaused",
      "type": "event"
    },
    {
      "anonymous": false,
      "inputs": [
        {
          "indexed": false,
          "internalType": "contract IERC20Upgradeable",
          "name": "token",
          "type": "address"
        },
        {
          "indexed": false,
          "internalType": "address",
          "name": "to",
          "type": "address"
        },
        {
          "indexed": false,
          "internalType": "uint256",
          "name": "value",
          "type": "uint256"
        }
      ],
      "name": "Withdrawal",
      "type": "event"
    },
    {
      "inputs": [
        {
          "internalType": "address",
          "name": "account",
          "type": "address"
        }
      ],
      "name": "addPauser",
      "outputs": [],
      "stateMutability": "nonpayable",
      "type": "function"
    },
    {
      "inputs": [
        {
          "internalType": "address",
          "name": "provider",
          "type": "address"
        }
      ],
      "name": "balanceOf",
      "outputs": [
        {
          "internalType": "uint256",
          "name": "",
          "type": "uint256"
        }
      ],
      "stateMutability": "view",
      "type": "function"
    },
    {
      "inputs": [
        {
          "internalType": "bytes",
          "name": "message",
          "type": "bytes"
        }
      ],
      "name": "celerExec",
      "outputs": [],
      "stateMutability": "nonpayable",
      "type": "function"
    },
    {
      "inputs": [
        {
          "internalType": "bytes",
          "name": "message",
          "type": "bytes"
        }
      ],
      "name": "decodeMessage",
      "outputs": [
        {
          "internalType": "address",
          "name": "provider",
          "type": "address"
        },
        {
          "internalType": "bytes32",
          "name": "account",
          "type": "bytes32"
        },
        {
          "components": [
            {
              "internalType": "enum ResourceData.ResourceType",
              "name": "resourceType",
              "type": "uint8"
            },
            {
              "internalType": "uint256[]",
              "name": "values",
              "type": "uint256[]"
            }
          ],
          "internalType": "struct ResourceData.ValuePayload[]",
          "name": "payloads",
          "type": "tuple[]"
        },
        {
          "internalType": "uint256",
          "name": "nonce",
          "type": "uint256"
        },
        {
          "internalType": "uint256",
          "name": "amount",
          "type": "uint256"
        },
        {
          "internalType": "bytes",
          "name": "signature",
          "type": "bytes"
        }
      ],
      "stateMutability": "pure",
      "type": "function"
    },
    {
      "inputs": [
        {
          "internalType": "address",
          "name": "provider",
          "type": "address"
        },
        {
          "internalType": "bytes32",
          "name": "account",
          "type": "bytes32"
        }
      ],
      "name": "fee",
      "outputs": [
        {
          "internalType": "uint256",
          "name": "",
          "type": "uint256"
        }
      ],
      "stateMutability": "view",
      "type": "function"
    },
    {
      "inputs": [
        {
          "internalType": "address",
          "name": "provider",
          "type": "address"
        },
        {
          "internalType": "enum ResourceData.ResourceType",
          "name": "resourceType",
          "type": "uint8"
        },
        {
          "internalType": "uint256",
          "name": "value",
          "type": "uint256"
        }
      ],
      "name": "getAmountOf",
      "outputs": [
        {
          "internalType": "uint256",
          "name": "",
          "type": "uint256"
        }
      ],
      "stateMutability": "view",
      "type": "function"
    },
    {
      "inputs": [
        {
          "internalType": "address",
          "name": "provider",
          "type": "address"
        },
        {
          "internalType": "enum ResourceData.ResourceType",
          "name": "resourceType",
          "type": "uint8"
        },
        {
          "internalType": "uint256",
          "name": "amount",
          "type": "uint256"
        }
      ],
      "name": "getValueOf",
      "outputs": [
        {
          "internalType": "uint256",
          "name": "",
          "type": "uint256"
        }
      ],
      "stateMutability": "view",
      "type": "function"
    },
    {
      "inputs": [
        {
          "internalType": "address",
          "name": "provider",
          "type": "address"
        },
        {
          "internalType": "bytes32",
          "name": "account",
          "type": "bytes32"
        },
        {
          "internalType": "uint256",
          "name": "nonce",
          "type": "uint256"
        },
        {
          "internalType": "uint256",
          "name": "amount",
          "type": "uint256"
        }
      ],
      "name": "hashTypedDataV4ForVoucher",
      "outputs": [
        {
          "internalType": "bytes32",
          "name": "",
          "type": "bytes32"
        }
      ],
      "stateMutability": "view",
      "type": "function"
    },
    {
      "inputs": [
        {
          "internalType": "address",
          "name": "provider",
          "type": "address"
        },
        {
          "internalType": "bytes32",
          "name": "account",
          "type": "bytes32"
        },
        {
          "internalType": "uint256",
          "name": "nonce",
          "type": "uint256"
        },
        {
          "internalType": "uint256",
          "name": "amount",
          "type": "uint256"
        }
      ],
      "name": "hashVoucherTypes",
      "outputs": [
        {
          "internalType": "bytes32",
          "name": "",
          "type": "bytes32"
        }
      ],
      "stateMutability": "view",
      "type": "function"
    },
    {
      "inputs": [
        {
          "internalType": "string",
          "name": "name",
          "type": "string"
        },
        {
          "internalType": "string",
          "name": "version",
          "type": "string"
        },
        {
          "internalType": "string",
          "name": "types",
          "type": "string"
        }
      ],
      "name": "initializeEIP712",
      "outputs": [],
      "stateMutability": "nonpayable",
      "type": "function"
    },
    {
      "inputs": [
        {
          "internalType": "address",
          "name": "provider",
          "type": "address"
        },
        {
          "internalType": "bytes32",
          "name": "account",
          "type": "bytes32"
        },
        {
          "internalType": "uint256",
          "name": "storageFee",
          "type": "uint256"
        },
        {
          "internalType": "uint256",
          "name": "expirationFee",
          "type": "uint256"
        }
      ],
      "name": "ipfsAllocations",
      "outputs": [
        {
          "internalType": "uint256",
          "name": "amount",
          "type": "uint256"
        },
        {
          "internalType": "uint256",
          "name": "expiration",
          "type": "uint256"
        }
      ],
      "stateMutability": "view",
      "type": "function"
    },
    {
      "inputs": [
        {
          "internalType": "address",
          "name": "provider",
          "type": "address"
        },
        {
          "internalType": "bytes32",
          "name": "account",
          "type": "bytes32"
        },
        {
          "internalType": "uint256",
          "name": "amount",
          "type": "uint256"
        },
        {
          "internalType": "uint256",
          "name": "expiration",
          "type": "uint256"
        }
      ],
      "name": "ipfsAlloctionsFee",
      "outputs": [
        {
          "internalType": "uint256",
          "name": "storageFee",
          "type": "uint256"
        },
        {
          "internalType": "uint256",
          "name": "expirationFee",
          "type": "uint256"
        }
      ],
      "stateMutability": "view",
      "type": "function"
    },
    {
      "inputs": [
        {
          "internalType": "address",
          "name": "account",
          "type": "address"
        }
      ],
      "name": "isPauser",
      "outputs": [
        {
          "internalType": "bool",
          "name": "",
          "type": "bool"
        }
      ],
      "stateMutability": "view",
      "type": "function"
    },
    {
      "inputs": [],
      "name": "owner",
      "outputs": [
        {
          "internalType": "address",
          "name": "",
          "type": "address"
        }
      ],
      "stateMutability": "view",
      "type": "function"
    },
    {
      "inputs": [
        {
          "internalType": "contract IERC20Upgradeable",
          "name": "token",
          "type": "address"
        },
        {
          "internalType": "address",
          "name": "to",
          "type": "address"
        },
        {
          "internalType": "uint256",
          "name": "value",
          "type": "uint256"
        }
      ],
      "name": "ownerWithdrawERC20",
      "outputs": [],
      "stateMutability": "nonpayable",
      "type": "function"
    },
    {
      "inputs": [
        {
          "internalType": "address payable",
          "name": "to",
          "type": "address"
        },
        {
          "internalType": "uint256",
          "name": "value",
          "type": "uint256"
        }
      ],
      "name": "ownerWithdrawNative",
      "outputs": [],
      "stateMutability": "nonpayable",
      "type": "function"
    },
    {
      "inputs": [],
      "name": "pause",
      "outputs": [],
      "stateMutability": "nonpayable",
      "type": "function"
    },
    {
      "inputs": [],
      "name": "paused",
      "outputs": [
        {
          "internalType": "bool",
          "name": "",
          "type": "bool"
        }
      ],
      "stateMutability": "view",
      "type": "function"
    },
    {
      "inputs": [
        {
          "internalType": "address",
          "name": "",
          "type": "address"
        }
      ],
      "name": "pausers",
      "outputs": [
        {
          "internalType": "bool",
          "name": "",
          "type": "bool"
        }
      ],
      "stateMutability": "view",
      "type": "function"
    },
    {
      "inputs": [
        {
          "internalType": "address",
          "name": "provider",
          "type": "address"
        },
        {
          "internalType": "bytes32",
          "name": "account",
          "type": "bytes32"
        },
        {
          "components": [
            {
              "internalType": "enum ResourceData.ResourceType",
              "name": "resourceType",
              "type": "uint8"
            },
            {
              "internalType": "uint256[]",
              "name": "values",
              "type": "uint256[]"
            }
          ],
          "internalType": "struct ResourceData.ValuePayload[]",
          "name": "payloads",
          "type": "tuple[]"
        },
        {
          "internalType": "uint256",
          "name": "nonce",
          "type": "uint256"
        },
        {
          "internalType": "uint256",
          "name": "amount",
          "type": "uint256"
        },
        {
          "internalType": "bytes",
          "name": "signature",
          "type": "bytes"
        }
      ],
      "name": "pay",
      "outputs": [
        {
          "internalType": "uint256",
          "name": "value",
          "type": "uint256"
        }
      ],
      "stateMutability": "nonpayable",
      "type": "function"
    },
    {
      "inputs": [
        {
          "internalType": "uint64",
          "name": "srcChainId",
          "type": "uint64"
        },
        {
          "internalType": "bytes32",
          "name": "srcTxHash",
          "type": "bytes32"
        },
        {
          "internalType": "bytes32",
          "name": "account",
          "type": "bytes32"
        },
        {
          "components": [
            {
              "internalType": "enum ResourceData.ResourceType",
              "name": "resourceType",
              "type": "uint8"
            },
            {
              "internalType": "uint256[]",
              "name": "values",
              "type": "uint256[]"
            }
          ],
          "internalType": "struct ResourceData.ValuePayload[]",
          "name": "payloads",
          "type": "tuple[]"
        },
        {
          "internalType": "uint256",
          "name": "nonce",
          "type": "uint256"
        },
        {
          "internalType": "uint256",
          "name": "amount",
          "type": "uint256"
        },
        {
          "internalType": "bytes",
          "name": "voucherSig",
          "type": "bytes"
        }
      ],
      "name": "paySrc",
      "outputs": [
        {
          "internalType": "uint256",
          "name": "value",
          "type": "uint256"
        }
      ],
      "stateMutability": "nonpayable",
      "type": "function"
    },
    {
      "inputs": [
        {
          "internalType": "address",
          "name": "provider",
          "type": "address"
        },
        {
          "internalType": "bytes32",
          "name": "account",
          "type": "bytes32"
        },
        {
          "components": [
            {
              "internalType": "enum ResourceData.ResourceType",
              "name": "resourceType",
              "type": "uint8"
            },
            {
              "internalType": "uint256[]",
              "name": "values",
              "type": "uint256[]"
            }
          ],
          "internalType": "struct ResourceData.ValuePayload[]",
          "name": "payloads",
          "type": "tuple[]"
        },
        {
          "internalType": "uint256",
          "name": "nonce",
          "type": "uint256"
        },
        {
          "internalType": "uint256",
          "name": "amount",
          "type": "uint256"
        },
        {
          "internalType": "bytes",
          "name": "voucherSig",
          "type": "bytes"
        },
        {
          "internalType": "bytes",
          "name": "registrationSig",
          "type": "bytes"
        }
      ],
      "name": "payWithRegistration",
      "outputs": [
        {
          "internalType": "uint256",
          "name": "value",
          "type": "uint256"
        }
      ],
      "stateMutability": "nonpayable",
      "type": "function"
    },
    {
      "inputs": [
        {
          "internalType": "address",
          "name": "provider",
          "type": "address"
        },
        {
          "internalType": "enum ResourceData.ResourceType",
          "name": "resourceType",
          "type": "uint8"
        }
      ],
      "name": "priceOf",
      "outputs": [
        {
          "internalType": "uint256",
          "name": "",
          "type": "uint256"
        }
      ],
      "stateMutability": "view",
      "type": "function"
    },
    {
      "inputs": [
        {
          "internalType": "address",
          "name": "provider",
          "type": "address"
        }
      ],
      "name": "providerBalance",
      "outputs": [
        {
          "internalType": "uint256",
          "name": "",
          "type": "uint256"
        }
      ],
      "stateMutability": "view",
      "type": "function"
    },
    {
      "inputs": [
        {
          "internalType": "address",
          "name": "account",
          "type": "address"
        }
      ],
      "name": "removePauser",
      "outputs": [],
      "stateMutability": "nonpayable",
      "type": "function"
    },
    {
      "inputs": [],
      "name": "renounceOwnership",
      "outputs": [],
      "stateMutability": "nonpayable",
      "type": "function"
    },
    {
      "inputs": [],
      "name": "renouncePauser",
      "outputs": [],
      "stateMutability": "nonpayable",
      "type": "function"
    },
    {
      "inputs": [],
      "name": "router",
      "outputs": [
        {
          "internalType": "contract IRouter",
          "name": "",
          "type": "address"
        }
      ],
      "stateMutability": "view",
      "type": "function"
    },
    {
      "inputs": [
        {
          "internalType": "address",
          "name": "newOwner",
          "type": "address"
        }
      ],
      "name": "transferOwnership",
      "outputs": [],
      "stateMutability": "nonpayable",
      "type": "function"
    },
    {
      "inputs": [],
      "name": "unpause",
      "outputs": [],
      "stateMutability": "nonpayable",
      "type": "function"
    },
    {
      "inputs": [],
      "name": "voucherTypedHash",
      "outputs": [
        {
          "internalType": "bytes32",
          "name": "",
          "type": "bytes32"
        }
      ],
      "stateMutability": "view",
      "type": "function"
    },
    {
      "inputs": [
        {
          "internalType": "address",
          "name": "",
          "type": "address"
        },
        {
          "internalType": "uint256",
          "name": "",
          "type": "uint256"
        }
      ],
      "name": "vouchers",
      "outputs": [
        {
          "internalType": "uint256",
          "name": "",
          "type": "uint256"
        }
      ],
      "stateMutability": "view",
      "type": "function"
    }
  ],
  "transactionHash": "0x12cf0da664c8d87721c8e386d2185bb83a2e86adbfde25d79b889e8ef6873778",
  "args": [],
  "numDeployments": 1,
  "solcInputHash": "c2fdf920a40f48ac1aee7f7f3bc38378",
  "bytecode": "0x608060405234801561001057600080fd5b50614557806100206000396000f3fe608060405234801561001057600080fd5b50600436106101f05760003560e01c8063827fbd1d1161010f578063a322c81d116100a2578063eec9a00d11610071578063eec9a00d14610460578063f2fde38b14610473578063f887ea4014610486578063f8eb6624146104a657600080fd5b8063a322c81d146103db578063b76bfac214610411578063ce841dd21461043a578063e1e382d91461044d57600080fd5b806393563a95116100de57806393563a95146103815780639412cbe51461039457806394e48f89146103a7578063989af305146103c857600080fd5b8063827fbd1d1461034357806382dc1ec41461034d5780638456cb59146103605780638da5cb5b1461036857600080fd5b8063634d45b2116101875780636ef8d66d116101565780636ef8d66d146102fd57806370a0823114610305578063715018a61461031857806380f51c121461032057600080fd5b8063634d45b21461029f57806365d6b40c146102c4578063699256f4146102d75780636b2c0f55146102ea57600080fd5b806346fbf68e116101c357806346fbf68e1461024e5780635c975abb1461026e5780635e1a544c146102795780636267834e1461028c57600080fd5b806309d629ef146101f557806335da9b231461021e5780633f4ba83a1461023157806342747d901461023b575b600080fd5b610208610203366004612998565b6104d2565b6040516102159190612a04565b60405180910390f35b61020861022c366004612a2a565b610511565b610239610628565b005b610208610249366004612998565b610660565b61026161025c366004612a7a565b61067f565b6040516102159190612aa3565b60975460ff16610261565b610208610287366004612ab1565b61069d565b61023961029a366004612b3f565b6107b1565b6102b26102ad366004612c7f565b61099f565b60405161021596959493929190612e5f565b6102086102d2366004612a2a565b6109d1565b6102396102e5366004612ec6565b610a8d565b6102396102f8366004612a7a565b610b19565b610239610b2d565b610208610313366004612a7a565b610b36565b610239610c66565b61026161032e366004612a7a565b60c96020526000908152604090205460ff1681565b6102086101015481565b61023961035b366004612a7a565b610c78565b610239610c89565b6065546001600160a01b03166040516102159190612ef9565b61023961038f366004612f26565b610cb6565b6102396103a2366004612f5b565b610d05565b6103ba6103b5366004612998565b610dfe565b604051610215929190612fee565b6102086103d63660046131ba565b6110be565b6102086103e9366004612ec6565b6001600160a01b0391909116600090815260cc60209081526040808320938352929052205490565b61020861041f366004612a7a565b6001600160a01b0316600090815260cb602052604090205490565b6103ba610448366004612998565b6112d3565b61020861045b36600461328d565b6114d9565b61020861046e36600461334b565b6115eb565b610239610481366004612a7a565b6117ce565b60ca54610499906001600160a01b031681565b6040516102159190613412565b6102086104b4366004612ec6565b61010260209081526000928352604080842090915290825290205481565b600061010154858585856040516020016104f0959493929190613420565b6040516020818303038152906040528051906020012090505b949350505050565b60008060ca60009054906101000a90046001600160a01b03166001600160a01b03166337187fc36040518163ffffffff1660e01b815260040160206040518083038186803b15801561056257600080fd5b505afa158015610576573d6000803e3d6000fd5b505050506040513d601f19601f8201168201806040525081019061059a919061346d565b6040516335da9b2360e01b81529091506001600160a01b038216906335da9b23906105cd9088908890889060040161348e565b60206040518083038186803b1580156105e557600080fd5b505afa1580156105f9573d6000803e3d6000fd5b505050506040513d601f19601f8201168201806040525081019061061d91906134c1565b9150505b9392505050565b6106313361067f565b6106565760405162461bcd60e51b815260040161064d90613517565b60405180910390fd5b61065e611805565b565b6000610676610671868686866104d2565b611851565b95945050505050565b6001600160a01b0316600090815260c9602052604090205460ff1690565b60008060ca60009054906101000a90046001600160a01b03166001600160a01b03166337187fc36040518163ffffffff1660e01b815260040160206040518083038186803b1580156106ee57600080fd5b505afa158015610702573d6000803e3d6000fd5b505050506040513d601f19601f82011682018060405250810190610726919061346d565b604051631786951360e21b81529091506001600160a01b03821690635e1a544c906107579087908790600401613527565b60206040518083038186803b15801561076f57600080fd5b505afa158015610783573d6000803e3d6000fd5b505050506040513d601f19601f820116820180604052508101906107a791906134c1565b9150505b92915050565b60ca54604080516303bf7e6b60e21b815290516000926001600160a01b031691630efdf9ac916004808301926020929190829003018186803b1580156107f657600080fd5b505afa15801561080a573d6000803e3d6000fd5b505050506040513d601f19601f8201168201806040525081019061082e919061354d565b9050336001600160a01b038216146108585760405162461bcd60e51b815260040161064d906135bb565b610860611864565b6000806000806000806108a889898080601f01602080910402602001604051908101604052809392919081815260200183838082843760009201919091525061099f92505050565b955095509550955095509550600060ca60009054906101000a90046001600160a01b03166001600160a01b031663c24126766040518163ffffffff1660e01b815260040160206040518083038186803b15801561090457600080fd5b505afa158015610918573d6000803e3d6000fd5b505050506040513d601f19601f8201168201806040525081019061093c919061346d565b9050600061094f82898989898989611887565b90507fd69233c4d4c07911a44762fb49e793100eb94db44cf846ddcec7f6210e9c143a88888884898960405161098a969594939291906135cb565b60405180910390a15050505050505050505050565b60008060606000806060868060200190518101906109bd91906137e2565b949c939b5091995097509550909350915050565b60008060ca60009054906101000a90046001600160a01b03166001600160a01b03166337187fc36040518163ffffffff1660e01b815260040160206040518083038186803b158015610a2257600080fd5b505afa158015610a36573d6000803e3d6000fd5b505050506040513d601f19601f82011682018060405250810190610a5a919061346d565b604051631975ad0360e21b81529091506001600160a01b038216906365d6b40c906105cd9088908890889060040161348e565b610a95611c0a565b6040516000906001600160a01b0384169083156108fc0290849084818181858888f19350505050905080610adb5760405162461bcd60e51b815260040161064d906138df565b7f2c876ecb97b3c6854f2488d373403f903eacb800e51c159a5c0c7a9c857e48278383604051610b0c9291906138ef565b60405180910390a1505050565b610b21611c0a565b610b2a81611c34565b50565b61065e33611c34565b60ca54604080516314b47ed960e31b815290516000926001600160a01b03169163a5a3f6c8916004808301926020929190829003018186803b158015610b7b57600080fd5b505afa158015610b8f573d6000803e3d6000fd5b505050506040513d601f19601f82011682018060405250810190610bb3919061346d565b6001600160a01b0316636b074a07836040518263ffffffff1660e01b8152600401610bde9190612ef9565b60206040518083038186803b158015610bf657600080fd5b505afa158015610c0a573d6000803e3d6000fd5b505050506040513d601f19601f82011682018060405250810190610c2e9190613910565b610c4a5760405162461bcd60e51b815260040161064d90613973565b506001600160a01b0316600090815260cb602052604090205490565b610c6e611c0a565b61065e6000611cb4565b610c80611c0a565b610b2a81611d06565b610c923361067f565b610cae5760405162461bcd60e51b815260040161064d90613517565b61065e611d7f565b610cbe611c0a565b610cd26001600160a01b0384168383611dbc565b7f2717ead6b9200dd235aad468c9809ea400fe33ac69b5bfaa6d3e90fc922b6398838383604051610b0c93929190613983565b7fb53127684a568b3173ae13b9f8a6016e243e63b6e8ee1178d6a717850b5d6103546001600160a01b03163314610d4e5760405162461bcd60e51b815260040161064d906139e0565b600054600290610100900460ff16158015610d70575060005460ff8083169116105b610d8c5760405162461bcd60e51b815260040161064d90613a3b565b6000805461ffff191660ff831617610100179055610daa8484611e17565b81516020830120610101556000805461ff00191690556040517f7f26b83ff96e1f2b6a682f133852f6798a09c465da95921460cefb384740249890610df0908390613a54565b60405180910390a150505050565b600080600060ca60009054906101000a90046001600160a01b03166001600160a01b031663740e80616040518163ffffffff1660e01b815260040160206040518083038186803b158015610e5157600080fd5b505afa158015610e65573d6000803e3d6000fd5b505050506040513d601f19601f82011682018060405250810190610e89919061346d565b60405162f304db60e01b8152909150879087906001600160a01b0384169062f304db90610ebc9085908590600401613a62565b60206040518083038186803b158015610ed457600080fd5b505afa158015610ee8573d6000803e3d6000fd5b505050506040513d601f19601f82011682018060405250810190610f0c9190613910565b15610f5c57600087118015610f215750600086115b610f3d5760405162461bcd60e51b815260040161064d90613ac0565b610f4982600489610511565b9450610f558587611e4c565b93506110b2565b6000871180610f6b5750600086115b610f875760405162461bcd60e51b815260040161064d90613b04565b61101561100e836004866001600160a01b0316633a01873287876040518363ffffffff1660e01b8152600401610fbe929190613a62565b60206040518083038186803b158015610fd657600080fd5b505afa158015610fea573d6000803e3d6000fd5b505050506040513d601f19601f8201168201806040525081019061022c91906134c1565b8890611e4c565b94506110af6110a883600461022c8b886001600160a01b0316634d30b6be89896040518363ffffffff1660e01b8152600401611052929190613a62565b60206040518083038186803b15801561106a57600080fd5b505afa15801561107e573d6000803e3d6000fd5b505050506040513d601f19601f820116820180604052508101906110a291906134c1565b90611e58565b8790611e4c565b93505b50505094509492505050565b60006110c8611864565b6110d0611e64565b60ca54604080516314b47ed960e31b815290516000926001600160a01b03169163a5a3f6c8916004808301926020929190829003018186803b15801561111557600080fd5b505afa158015611129573d6000803e3d6000fd5b505050506040513d601f19601f8201168201806040525081019061114d919061346d565b604051636b074a0760e01b81529091506001600160a01b03821690636b074a079061117c903390600401612ef9565b60206040518083038186803b15801561119457600080fd5b505afa1580156111a8573d6000803e3d6000fd5b505050506040513d601f19601f820116820180604052508101906111cc9190613910565b6111e85760405162461bcd60e51b815260040161064d90613b5a565b60ca5460408051636120933b60e11b815290513392611276926001600160a01b039091169163c241267691600480820192602092909190829003018186803b15801561123357600080fd5b505afa158015611247573d6000803e3d6000fd5b505050506040513d601f19601f8201168201806040525081019061126b919061346d565b828a8a8a8a8a611887565b92507f59d0291ceb1707ba532c277302a636530a2ad63da15d20cf5e4ad71c940046ae8a8a838b8b888c8c6040516112b5989796959493929190613b79565b60405180910390a150506112c860018055565b979650505050505050565b600080600060ca60009054906101000a90046001600160a01b03166001600160a01b031663740e80616040518163ffffffff1660e01b815260040160206040518083038186803b15801561132657600080fd5b505afa15801561133a573d6000803e3d6000fd5b505050506040513d601f19601f8201168201806040525081019061135e919061346d565b60405162f304db60e01b8152909150879087906001600160a01b0384169062f304db906113919085908590600401613a62565b60206040518083038186803b1580156113a957600080fd5b505afa1580156113bd573d6000803e3d6000fd5b505050506040513d601f19601f820116820180604052508101906113e19190613910565b15611433576000871180156113f65750600086115b6114125760405162461bcd60e51b815260040161064d90613ac0565b61142761142083600461069d565b8890611e8e565b9450610f558688611e8e565b60008711806114425750600086115b61145e5760405162461bcd60e51b815260040161064d90613b04565b611495611420836004866001600160a01b0316633a01873287876040518363ffffffff1660e01b8152600401610fbe929190613a62565b94506110af6114d283600461022c89886001600160a01b0316634d30b6be89896040518363ffffffff1660e01b8152600401611052929190613a62565b8790611e8e565b60006114e3611864565b6114eb611e64565b60ca5460408051636120933b60e11b815290516000926001600160a01b03169163c2412676916004808301926020929190829003018186803b15801561153057600080fd5b505afa158015611544573d6000803e3d6000fd5b505050506040513d601f19601f82011682018060405250810190611568919061346d565b905061157981898989898989611887565b91508115611596576115966001600160a01b038216333085611e9a565b7fd69233c4d4c07911a44762fb49e793100eb94db44cf846ddcec7f6210e9c143a8888888589896040516115cf969594939291906135cb565b60405180910390a1506115e160018055565b9695505050505050565b60006115f5611864565b6115fd611e64565b60ca54604080516350e420e560e11b815290516000926001600160a01b03169163a1c841ca916004808301926020929190829003018186803b15801561164257600080fd5b505afa158015611656573d6000803e3d6000fd5b505050506040513d601f19601f8201168201806040525081019061167a919061346d565b6040516382f19cf760e01b81529091506001600160a01b038216906382f19cf7906116ad908c908c908890600401613bf7565b600060405180830381600087803b1580156116c757600080fd5b505af11580156116db573d6000803e3d6000fd5b50505050600060ca60009054906101000a90046001600160a01b03166001600160a01b031663c24126766040518163ffffffff1660e01b815260040160206040518083038186803b15801561172f57600080fd5b505afa158015611743573d6000803e3d6000fd5b505050506040513d601f19601f82011682018060405250810190611767919061346d565b9050611778818b8b8b8b8b8b611887565b92508215611795576117956001600160a01b038216333086611e9a565b7fd69233c4d4c07911a44762fb49e793100eb94db44cf846ddcec7f6210e9c143a8a8a8a868b8b6040516112b5969594939291906135cb565b6117d6611c0a565b6001600160a01b0381166117fc5760405162461bcd60e51b815260040161064d90613c67565b610b2a81611cb4565b61180d611ec1565b6097805460ff191690557f5db9ee0a495bf2e6ff9c91a7834c1ba4fdd244a5e8aa4e537bd38aeae4b073aa335b6040516118479190612ef9565b60405180910390a1565b60006107ab61185e611ee3565b83611f1f565b60975460ff161561065e5760405162461bcd60e51b815260040161064d90613c9e565b60ca54604080516350e420e560e11b815290516000926001600160a01b03169163a1c841ca916004808301926020929190829003018186803b1580156118cc57600080fd5b505afa1580156118e0573d6000803e3d6000fd5b505050506040513d601f19601f82011682018060405250810190611904919061346d565b6001600160a01b0316632d52976488886040518363ffffffff1660e01b8152600401611931929190613a62565b60206040518083038186803b15801561194957600080fd5b505afa15801561195d573d6000803e3d6000fd5b505050506040513d601f19601f820116820180604052508101906119819190613910565b61199d5760405162461bcd60e51b815260040161064d90613cef565b6119a8878787611f52565b90508215611b6c576001600160a01b038716600090815261010260209081526040808320878452909152902054156119f25760405162461bcd60e51b815260040161064d90613d33565b6000611a0088888787610660565b905060ca60009054906101000a90046001600160a01b03166001600160a01b031663a5a3f6c86040518163ffffffff1660e01b815260040160206040518083038186803b158015611a5057600080fd5b505afa158015611a64573d6000803e3d6000fd5b505050506040513d601f19601f82011682018060405250810190611a88919061346d565b6001600160a01b031663238a4d1e8983866040518463ffffffff1660e01b8152600401611ab793929190613bf7565b602060405180830381600087803b158015611ad157600080fd5b505af1158015611ae5573d6000803e3d6000fd5b505050506040513d601f19601f82011682018060405250810190611b099190613910565b611b255760405162461bcd60e51b815260040161064d90613d82565b83821115611b3e57611b378483613da8565b9150611b43565b600091505b506001600160a01b03871660009081526101026020908152604080832087845290915290208390555b80156112c857611b7c8882612672565b6001600160a01b038816600090815260cb6020526040902054909150611ba3908290613dbf565b6001600160a01b038816600090815260cb602090815260408083209390935560cc815282822089835290522054611bdb908290613dbf565b6001600160a01b038816600090815260cc602090815260408083208a8452909152902055979650505050505050565b6065546001600160a01b0316331461065e5760405162461bcd60e51b815260040161064d90613e09565b611c3d8161067f565b611c595760405162461bcd60e51b815260040161064d90613e4d565b6001600160a01b038116600090815260c9602052604090819020805460ff19169055517fcd265ebaf09df2871cc7bd4133404a235ba12eff2041bb89d9c714a2621c7c7e90611ca9908390612ef9565b60405180910390a150565b606580546001600160a01b038381166001600160a01b0319831681179093556040519116919082907f8be0079c531659141344cd1fd0a4f28419497f9722a3daafe3b4186f6b6457e090600090a35050565b611d0f8161067f565b15611d2c5760405162461bcd60e51b815260040161064d90613e9b565b6001600160a01b038116600090815260c9602052604090819020805460ff19166001179055517f6719d08c1888103bea251a4ed56406bd0c3e69723c8a1686e017e7bbe159b6f890611ca9908390612ef9565b611d87611864565b6097805460ff191660011790557f62e78cea01bee320cd4e420270b5ea74000d11b0c9f74754ebdbfc544b05a25861183a3390565b611e128363a9059cbb60e01b8484604051602401611ddb929190613a62565b60408051601f198184030181529190526020810180516001600160e01b03166001600160e01b0319909316929092179091526126d0565b505050565b600054610100900460ff16611e3e5760405162461bcd60e51b815260040161064d90613ef3565b611e48828261275f565b5050565b60006106218284613f03565b60006106218284613dbf565b60026001541415611e875760405162461bcd60e51b815260040161064d90613f56565b6002600155565b60006106218284613f7c565b611ebb846323b872dd60e01b858585604051602401611ddb93929190613f90565b50505050565b60975460ff1661065e5760405162461bcd60e51b815260040161064d90613fc9565b6000611f1a7f8b73c3c69bb8fe3d512ecc4cf759cc79239f7b179b0ffacaa9a75d522b39400f611f1260cd5490565b60ce546127a0565b905090565b60008282604051602001611f34929190613fdf565b60405160208183030381529060405280519060200120905092915050565b600080825111611f745760405162461bcd60e51b815260040161064d9061404e565b60ca54604080516337187fc360e01b815290516000926001600160a01b0316916337187fc3916004808301926020929190829003018186803b158015611fb957600080fd5b505afa158015611fcd573d6000803e3d6000fd5b505050506040513d601f19601f82011682018060405250810190611ff1919061346d565b905060005b83518110156126695760008482815181106120135761201361405e565b602002602001015190506001600481111561203057612030612cc2565b8151600481111561204357612043612cc2565b14156122015780602001515160011461206e5760405162461bcd60e51b815260040161064d906140b5565b6000836001600160a01b03166365d6b40c898460000151856020015160008151811061209c5761209c61405e565b60200260200101516040518463ffffffff1660e01b81526004016120c29392919061348e565b60206040518083038186803b1580156120da57600080fd5b505afa1580156120ee573d6000803e3d6000fd5b505050506040513d601f19601f8201168201806040525081019061211291906134c1565b905060ca60009054906101000a90046001600160a01b03166001600160a01b03166322b31aba6040518163ffffffff1660e01b815260040160206040518083038186803b15801561216257600080fd5b505afa158015612176573d6000803e3d6000fd5b505050506040513d601f19601f8201168201806040525081019061219a919061346d565b6001600160a01b0316630de482878989846040518463ffffffff1660e01b81526004016121c9939291906140c5565b600060405180830381600087803b1580156121e357600080fd5b505af11580156121f7573d6000803e3d6000fd5b5050505050612600565b60038151600481111561221657612216612cc2565b1415612335578060200151516001146122415760405162461bcd60e51b815260040161064d9061411e565b6000836001600160a01b03166365d6b40c898460000151856020015160008151811061226f5761226f61405e565b60200260200101516040518463ffffffff1660e01b81526004016122959392919061348e565b60206040518083038186803b1580156122ad57600080fd5b505afa1580156122c1573d6000803e3d6000fd5b505050506040513d601f19601f820116820180604052508101906122e591906134c1565b905060ca60009054906101000a90046001600160a01b03166001600160a01b031663a2d2f2db6040518163ffffffff1660e01b815260040160206040518083038186803b15801561216257600080fd5b60028151600481111561234a5761234a612cc2565b1415612469578060200151516001146123755760405162461bcd60e51b815260040161064d9061416c565b6000836001600160a01b03166365d6b40c89846000015185602001516000815181106123a3576123a361405e565b60200260200101516040518463ffffffff1660e01b81526004016123c99392919061348e565b60206040518083038186803b1580156123e157600080fd5b505afa1580156123f5573d6000803e3d6000fd5b505050506040513d601f19601f8201168201806040525081019061241991906134c1565b905060ca60009054906101000a90046001600160a01b03166001600160a01b031663f931ca566040518163ffffffff1660e01b815260040160206040518083038186803b15801561216257600080fd5b60048151600481111561247e5761247e612cc2565b14156125e8578060200151516002146124a95760405162461bcd60e51b815260040161064d906141bc565b6000806124f4898985602001516000815181106124c8576124c861405e565b602002602001015186602001516001815181106124e7576124e761405e565b60200260200101516112d3565b9150915060ca60009054906101000a90046001600160a01b03166001600160a01b031663740e80616040518163ffffffff1660e01b815260040160206040518083038186803b15801561254657600080fd5b505afa15801561255a573d6000803e3d6000fd5b505050506040513d601f19601f8201168201806040525081019061257e919061346d565b6001600160a01b031663a5a2d6178a8a85856040518563ffffffff1660e01b81526004016125af94939291906141cc565b600060405180830381600087803b1580156125c957600080fd5b505af11580156125dd573d6000803e3d6000fd5b505050505050612600565b60405162461bcd60e51b815260040161064d90614244565b60005b81602001515181101561265457612640826020015182815181106126295761262961405e565b602002602001015186611e5890919063ffffffff16565b94508061264c81614254565b915050612603565b5050808061266190614254565b915050611ff6565b50509392505050565b60008061267e846127da565b905060128082116126b1576126a8612696828461286b565b6126a190600a61437d565b8590611e8e565b925050506107ab565b6106766126be838361286b565b6126c990600a61437d565b8590611e4c565b6000612725826040518060400160405280602081526020017f5361666545524332303a206c6f772d6c6576656c2063616c6c206661696c6564815250856001600160a01b03166128779092919063ffffffff16565b805190915015611e1257808060200190518101906127439190613910565b611e125760405162461bcd60e51b815260040161064d906143d3565b600054610100900460ff166127865760405162461bcd60e51b815260040161064d90613ef3565b81516020928301208151919092012060cd9190915560ce55565b600083838346306040516020016127bb9594939291906143e3565b6040516020818303038152906040528051906020012090509392505050565b6000806000836001600160a01b03166040516127f590614425565b600060405180830381855afa9150503d8060008114612830576040519150601f19603f3d011682016040523d82523d6000602084013e612835565b606091505b5091509150816128575760405162461bcd60e51b815260040161064d9061446e565b8080602001905181019061050991906134c1565b60006106218284613da8565b6060610509848460008585600080866001600160a01b0316858760405161289e91906144a0565b60006040518083038185875af1925050503d80600081146128db576040519150601f19603f3d011682016040523d82523d6000602084013e6128e0565b606091505b50915091506112c88783838760608315612928578251612921576001600160a01b0385163b6129215760405162461bcd60e51b815260040161064d906144e0565b5081610509565b610509838381511561293d5781518083602001fd5b8060405162461bcd60e51b815260040161064d91906144f0565b60006001600160a01b0382166107ab565b61297181612957565b8114610b2a57600080fd5b80356107ab81612968565b80612971565b80356107ab81612987565b600080600080608085870312156129b1576129b1600080fd5b60006129bd878761297c565b94505060206129ce8782880161298d565b93505060406129df8782880161298d565b92505060606129f08782880161298d565b91505092959194509250565b805b82525050565b602081016107ab82846129fc565b60058110610b2a57600080fd5b80356107ab81612a12565b600080600060608486031215612a4257612a42600080fd5b6000612a4e868661297c565b9350506020612a5f86828701612a1f565b9250506040612a708682870161298d565b9150509250925092565b600060208284031215612a8f57612a8f600080fd5b60006107a7848461297c565b8015156129fe565b602081016107ab8284612a9b565b60008060408385031215612ac757612ac7600080fd5b6000612ad3858561297c565b9250506020612ae485828601612a1f565b9150509250929050565b60008083601f840112612b0357612b03600080fd5b5081356001600160401b03811115612b1d57612b1d600080fd5b602083019150836001820283011115612b3857612b38600080fd5b9250929050565b60008060208385031215612b5557612b55600080fd5b82356001600160401b03811115612b6e57612b6e600080fd5b612b7a85828601612aee565b92509250509250929050565b634e487b7160e01b600052604160045260246000fd5b601f19601f83011681018181106001600160401b0382111715612bc157612bc1612b86565b6040525050565b6000612bd360405190565b9050612bdf8282612b9c565b919050565b60006001600160401b03821115612bfd57612bfd612b86565b601f19601f83011660200192915050565b82818337506000910152565b6000612c2d612c2884612be4565b612bc8565b905082815260208101848484011115612c4857612c48600080fd5b612c53848285612c0e565b509392505050565b600082601f830112612c6f57612c6f600080fd5b81356107a7848260208601612c1a565b600060208284031215612c9457612c94600080fd5b81356001600160401b03811115612cad57612cad600080fd5b6107a784828501612c5b565b6129fe81612957565b634e487b7160e01b600052602160045260246000fd5b60058110610b2a57610b2a612cc2565b80612bdf81612cd8565b60006107ab82612ce8565b6129fe81612cf2565b6000612d1283836129fc565b505060200190565b6000612d24825190565b80845260209384019383018060005b83811015612d58578151612d478882612d06565b975060208301925050600101612d33565b509495945050505050565b80516000906040840190612d778582612cfd565b50602083015184820360208601526106768282612d1a565b60006106218383612d63565b6000612da5825190565b80845260208401935083602082028501612dbf8560200190565b8060005b85811015612df45784840389528151612ddc8582612d8f565b94506020830160209a909a0199925050600101612dc3565b5091979650505050505050565b60005b83811015612e1c578181015183820152602001612e04565b83811115611ebb5750506000910152565b6000612e37825190565b808452602084019350612e4e818560208601612e01565b601f01601f19169290920192915050565b60c08101612e6d8289612cb9565b612e7a60208301886129fc565b8181036040830152612e8c8187612d9b565b9050612e9b60608301866129fc565b612ea860808301856129fc565b81810360a0830152612eba8184612e2d565b98975050505050505050565b60008060408385031215612edc57612edc600080fd5b6000612ee8858561297c565b9250506020612ae48582860161298d565b602081016107ab8284612cb9565b60006107ab82612957565b61297181612f07565b80356107ab81612f12565b600080600060608486031215612f3e57612f3e600080fd5b6000612f4a8686612f1b565b9350506020612a5f8682870161297c565b600080600060608486031215612f7357612f73600080fd5b83356001600160401b03811115612f8c57612f8c600080fd5b612f9886828701612c5b565b93505060208401356001600160401b03811115612fb757612fb7600080fd5b612fc386828701612c5b565b92505060408401356001600160401b03811115612fe257612fe2600080fd5b612a7086828701612c5b565b60408101612ffc82856129fc565b61062160208301846129fc565b6001600160401b038116612971565b80356107ab81613009565b60006001600160401b0382111561303c5761303c612b86565b5060209081020190565b6000613054612c2884613023565b8381529050602080820190840283018581111561307357613073600080fd5b835b818110156130975780613088888261298d565b84525060209283019201613075565b5050509392505050565b600082601f8301126130b5576130b5600080fd5b81356107a7848260208601613046565b6000604082840312156130da576130da600080fd5b6130e46040612bc8565b905060006130f28484612a1f565b82525060208201356001600160401b0381111561311157613111600080fd5b61311d848285016130a1565b60208301525092915050565b6000613137612c2884613023565b8381529050602080820190840283018581111561315657613156600080fd5b835b818110156130975780356001600160401b0381111561317957613179600080fd5b80860161318689826130c5565b8552505060209283019201613158565b600082601f8301126131aa576131aa600080fd5b81356107a7848260208601613129565b600080600080600080600060e0888a0312156131d8576131d8600080fd5b60006131e48a8a613018565b97505060206131f58a828b0161298d565b96505060406132068a828b0161298d565b95505060608801356001600160401b0381111561322557613225600080fd5b6132318a828b01613196565b94505060806132428a828b0161298d565b93505060a06132538a828b0161298d565b92505060c08801356001600160401b0381111561327257613272600080fd5b61327e8a828b01612c5b565b91505092959891949750929550565b60008060008060008060c087890312156132a9576132a9600080fd5b60006132b5898961297c565b96505060206132c689828a0161298d565b95505060408701356001600160401b038111156132e5576132e5600080fd5b6132f189828a01613196565b945050606061330289828a0161298d565b935050608061331389828a0161298d565b92505060a08701356001600160401b0381111561333257613332600080fd5b61333e89828a01612c5b565b9150509295509295509295565b600080600080600080600060e0888a03121561336957613369600080fd5b60006133758a8a61297c565b97505060206133868a828b0161298d565b96505060408801356001600160401b038111156133a5576133a5600080fd5b6133b18a828b01613196565b95505060606133c28a828b0161298d565b94505060806133d38a828b0161298d565b93505060a08801356001600160401b038111156133f2576133f2600080fd5b6132538a828b01612c5b565b60006107ab82612f07565b6129fe816133fe565b602081016107ab8284613409565b60a0810161342e82886129fc565b61343b6020830187612cb9565b61344860408301866129fc565b61345560608301856129fc565b6115e160808301846129fc565b80516107ab81612f12565b60006020828403121561348257613482600080fd5b60006107a78484613462565b6060810161349c8286612cb9565b6134a96020830185612cfd565b61050960408301846129fc565b80516107ab81612987565b6000602082840312156134d6576134d6600080fd5b60006107a784846134b6565b60208082527f5061757365723a2063616c6c6572206973206e6f742074686520706175736572910190815260005b5060200190565b602080825281016107ab816134e2565b604081016135358285612cb9565b6106216020830184612cfd565b80516107ab81612968565b60006020828403121561356257613562600080fd5b60006107a78484613542565b602d81526000602082017f526f75746572577261707065723a2063616c6c6572206973206e6f74206d657381526c39b0b3b2903932b1b2b4bb32b960991b602082015291505b5060400190565b602080825281016107ab8161356e565b60c081016135d98289612cb9565b6135e660208301886129fc565b81810360408301526135f88187612d9b565b905061360760608301866129fc565b61361460808301856129fc565b6112c860a08301846129fc565b80516107ab81612a12565b600061363a612c2884613023565b8381529050602080820190840283018581111561365957613659600080fd5b835b81811015613097578061366e88826134b6565b8452506020928301920161365b565b600082601f83011261369157613691600080fd5b81516107a784826020860161362c565b6000604082840312156136b6576136b6600080fd5b6136c06040612bc8565b905060006136ce8484613621565b82525060208201516001600160401b038111156136ed576136ed600080fd5b61311d8482850161367d565b6000613707612c2884613023565b8381529050602080820190840283018581111561372657613726600080fd5b835b818110156130975780516001600160401b0381111561374957613749600080fd5b80860161375689826136a1565b8552505060209283019201613728565b600082601f83011261377a5761377a600080fd5b81516107a78482602086016136f9565b6000613798612c2884612be4565b9050828152602081018484840111156137b3576137b3600080fd5b612c53848285612e01565b600082601f8301126137d2576137d2600080fd5b81516107a784826020860161378a565b60008060008060008060c087890312156137fe576137fe600080fd5b600061380a8989613542565b965050602061381b89828a016134b6565b95505060408701516001600160401b0381111561383a5761383a600080fd5b61384689828a01613766565b945050606061385789828a016134b6565b935050608061386889828a016134b6565b92505060a08701516001600160401b0381111561388757613887600080fd5b61333e89828a016137be565b602f81526000602082017f4f776e6572576974686472617761626c653a207769746864726177206e61746981526e1d99481d1bdad95b8819985a5b1959608a1b602082015291506135b4565b602080825281016107ab81613893565b60408101612ffc8285613409565b801515612971565b80516107ab816138fd565b60006020828403121561392557613925600080fd5b60006107a78484613905565b602581526000602082017f447374436861696e5061796d656e743a206e6f6e6578697374656e742070726f8152643b34b232b960d91b602082015291506135b4565b602080825281016107ab81613931565b606081016139918286613409565b6134a96020830185612cb9565b602581526000602082017f41646d696e577261707065723a2063616c6c6572206973206e6f74207468652081526430b236b4b760d91b602082015291506135b4565b602080825281016107ab8161399e565b602e81526000602082017f496e697469616c697a61626c653a20636f6e747261637420697320616c72656181526d191e481a5b9a5d1a585b1a5e995960921b602082015291506135b4565b602080825281016107ab816139f0565b60ff81166129fe565b602081016107ab8284613a4b565b60408101612ffc8285612cb9565b603381526000602082017f447374436861696e5061796d656e743a20696e76616c696420706172616d7320815272199bdc88195e1c1a5c9959081858d8dbdd5b9d606a1b602082015291506135b4565b602080825281016107ab81613a70565b601f81526000602082017f447374436861696e5061796d656e743a20696e76616c696420706172616d730081529150613510565b602080825281016107ab81613ad0565b602981526000602082017f526f75746572577261707065723a2063616c6c6572206973206e6f742074686581526810383937bb34b232b960b91b602082015291506135b4565b602080825281016107ab81613b14565b6001600160401b0381166129fe565b6101008101613b88828b613b6a565b613b95602083018a6129fc565b613ba26040830189612cb9565b613baf60608301886129fc565b8181036080830152613bc18187612d9b565b9050613bd060a08301866129fc565b613bdd60c08301856129fc565b613bea60e08301846129fc565b9998505050505050505050565b60608101613c058286612cb9565b613c1260208301856129fc565b81810360408301526106768184612e2d565b602681526000602082017f4f776e61626c653a206e6577206f776e657220697320746865207a65726f206181526564647265737360d01b602082015291506135b4565b602080825281016107ab81613c24565b601081526000602082016f14185d5cd8589b194e881c185d5cd95960821b81529150613510565b602080825281016107ab81613c77565b602481526000602082017f447374436861696e5061796d656e743a206e6f6e6578697374656e74206163638152631bdd5b9d60e21b602082015291506135b4565b602080825281016107ab81613cae565b601d81526000602082017f447374436861696e5061796d656e743a206e6f6e63652065786973747300000081529150613510565b602080825281016107ab81613cff565b602281526000602082017f447374436861696e5061796d656e743a20696e76616c6964207369676e617475815261726560f01b602082015291506135b4565b602080825281016107ab81613d43565b634e487b7160e01b600052601160045260246000fd5b600082821015613dba57613dba613d92565b500390565b60008219821115613dd257613dd2613d92565b500190565b60208082527f4f776e61626c653a2063616c6c6572206973206e6f7420746865206f776e657291019081526000613510565b602080825281016107ab81613dd7565b601d81526000602082017f5061757365723a206163636f756e74206973206e6f742070617573657200000081529150613510565b602080825281016107ab81613e19565b602181526000602082017f5061757365723a206163636f756e7420697320616c72656164792070617573658152603960f91b602082015291506135b4565b602080825281016107ab81613e5d565b602b81526000602082017f496e697469616c697a61626c653a20636f6e7472616374206973206e6f74206981526a6e697469616c697a696e6760a81b602082015291506135b4565b602080825281016107ab81613eab565b6000816000190483118215151615613f1d57613f1d613d92565b500290565b601f81526000602082017f5265656e7472616e637947756172643a207265656e7472616e742063616c6c0081529150613510565b602080825281016107ab81613f22565b634e487b7160e01b600052601260045260246000fd5b600082613f8b57613f8b613f66565b500490565b606081016139918286612cb9565b601481526000602082017314185d5cd8589b194e881b9bdd081c185d5cd95960621b81529150613510565b602080825281016107ab81613f9e565b806129fe565b61190160f01b81526002016000613ff68285613fd9565b6020820191506140068284613fd9565b5060200192915050565b602181526000602082017f447374436861696e5061796d656e743a20696e76616c6964207061796c6f61648152607360f81b602082015291506135b4565b602080825281016107ab81614010565b634e487b7160e01b600052603260045260246000fd5b60368152600060208201600080516020614502833981519152815275656e67746820666f72204275696c64696e6754696d6560501b602082015291506135b4565b602080825281016107ab81614074565b606081016140d38286612cb9565b6134a960208301856129fc565b60338152600060208201600080516020614502833981519152815272656e67746820666f7220415253746f7261676560681b602082015291506135b4565b602080825281016107ab816140e0565b603381526000602082016000805160206145028339815191528152720cadccee8d040ccdee44084c2dcc8eed2c8e8d606b1b602082015291506135b4565b602080825281016107ab8161412e565b60358152600060208201600080516020614502833981519152815274656e67746820666f72204950465353746f7261676560581b602082015291506135b4565b602080825281016107ab8161417c565b608081016141da8287612cb9565b6141e760208301866129fc565b6141f460408301856129fc565b61067660608301846129fc565b602681526000602082017f447374436861696e5061796d656e743a20756e6b6e6f776e207265736f75726381526565207479706560d01b602082015291506135b4565b602080825281016107ab81614201565b600060001982141561426857614268613d92565b5060010190565b80825b60018511156142ae5780860481111561428d5761428d613d92565b600185161561429b57908102905b80026142a78560011c90565b9450614272565b94509492505050565b6000826142c657506001610621565b816142d357506000610621565b81600181146142e957600281146142f357614320565b6001915050610621565b60ff84111561430457614304613d92565b8360020a91508482111561431a5761431a613d92565b50610621565b5060208310610133831016604e8410600b8410161715614353575081810a8381111561434e5761434e613d92565b610621565b614360848484600161426f565b9250905081840481111561437657614376613d92565b0292915050565b600061062160001984846142b7565b602a81526000602082017f5361666545524332303a204552433230206f7065726174696f6e20646964206e8152691bdd081cdd58d8d9595960b21b602082015291506135b4565b602080825281016107ab8161438c565b60a081016143f182886129fc565b6143fe60208301876129fc565b61440b60408301866129fc565b61441860608301856129fc565b6115e16080830184612cb9565b63313ce56760e01b81526000600482016107ab565b601b81526000602082017f5265736f75726365446174613a20696e76616c696420746f6b656e000000000081529150613510565b602080825281016107ab8161443a565b6000614488825190565b614496818560208601612e01565b9290920192915050565b6000610621828461447e565b601d81526000602082017f416464726573733a2063616c6c20746f206e6f6e2d636f6e747261637400000081529150613510565b602080825281016107ab816144ac565b602080825281016106218184612e2d56fe447374436861696e5061796d656e743a20696e76616c69642076616c7565206ca2646970667358221220153993495247373821007d91d164e791513901898c31c73e3d0b00033decce0664736f6c63430008090033",
  "devdoc": {
    "kind": "dev",
    "methods": {
      "addPauser(address)": {
        "details": "add a pauser for the contract",
        "params": {
          "account": "address"
        }
      },
      "balanceOf(address)": {
        "details": "return balance of provider",
        "params": {
          "provider": "provider address"
        },
        "returns": {
          "_0": "balance of provider"
        }
      },
      "celerExec(bytes)": {
        "details": "pay from source chain only called by message receiver",
        "params": {
          "message": "payment payload message bytes"
        }
      },
      "getAmountOf(address,uint8,uint256)": {
        "details": "return resource amount with value",
        "params": {
          "provider": "provider address",
          "resourceType": "resource type",
          "value": "token value"
        },
        "returns": {
          "_0": "resource amount"
        }
      },
      "getValueOf(address,uint8,uint256)": {
        "details": "return value of amount resource",
        "params": {
          "amount": "resource amount",
          "provider": "provider address",
          "resourceType": "resource type"
        },
        "returns": {
          "_0": "token value"
        }
      },
      "ipfsAllocations(address,bytes32,uint256,uint256)": {
        "details": "calculate ipfs storage and expiration with storage fee and expiration fee",
        "params": {
          "account": "user account",
          "expirationFee": "expiration fee",
          "provider": "provider address",
          "storageFee": "storage fee"
        },
        "returns": {
          "amount": "ipfs storage amount",
          "expiration": "ipfs expiration(in seconds)"
        }
      },
      "ipfsAlloctionsFee(address,bytes32,uint256,uint256)": {
        "details": "calculate fee for ipfs storage and expiration",
        "params": {
          "account": "user account",
          "amount": "ipfs storage amount",
          "expiration": "ipfs expiration(in seconds)",
          "provider": "provider address"
        },
        "returns": {
          "expirationFee": "ipfs expiration fee",
          "storageFee": "ipfs storage fee"
        }
      },
      "isPauser(address)": {
        "details": "whether the account is the contract pauser",
        "params": {
          "account": "address"
        },
        "returns": {
          "_0": "whether account is a pauser"
        }
      },
      "owner()": {
        "details": "Returns the address of the current owner."
      },
      "ownerWithdrawERC20(address,address,uint256)": {
        "details": "withdraw token",
        "params": {
          "to": "receiver address",
          "token": "token address",
          "value": "token value"
        }
      },
      "ownerWithdrawNative(address,uint256)": {
        "details": "withdraw ETH",
        "params": {
          "to": "receiver address",
          "value": "token value"
        }
      },
      "pause()": {
        "details": "pause the contract"
      },
      "paused()": {
        "details": "Returns true if the contract is paused, and false otherwise."
      },
      "pay(address,bytes32,(uint8,uint256[])[],uint256,uint256,bytes)": {
        "details": "pay on dst chain",
        "params": {
          "account": "user account",
          "amount": "voucher amount",
          "nonce": "voucher nonce",
          "payloads": "payment payloads",
          "provider": "provider address",
          "signature": "vourcher signature for provider"
        },
        "returns": {
          "value": "total token value"
        }
      },
      "priceOf(address,uint8)": {
        "details": "return resource price",
        "params": {
          "provider": "provider address",
          "resourceType": "resource type"
        },
        "returns": {
          "_0": "resource price"
        }
      },
      "removePauser(address)": {
        "details": "remove a pauser for the contract",
        "params": {
          "account": "address"
        }
      },
      "renounceOwnership()": {
        "details": "Leaves the contract without owner. It will not be possible to call `onlyOwner` functions anymore. Can only be called by the current owner. NOTE: Renouncing ownership will leave the contract without an owner, thereby removing any functionality that is only available to the owner."
      },
      "renouncePauser()": {
        "details": "remove a pauser for the contract"
      },
      "transferOwnership(address)": {
        "details": "Transfers ownership of the contract to a new account (`newOwner`). Can only be called by the current owner."
      },
      "unpause()": {
        "details": "unpause the contract"
      }
    },
    "version": 1
  },
  "userdoc": {
    "kind": "user",
    "methods": {},
    "version": 1
  },
  "storageLayout": {
    "storage": [
      {
        "astId": 155,
        "contract": "contracts/payments/DstChainPaymentV2Src.sol:DstChainPaymentV2Src",
        "label": "_initialized",
        "offset": 0,
        "slot": "0",
        "type": "t_uint8"
      },
      {
        "astId": 158,
        "contract": "contracts/payments/DstChainPaymentV2Src.sol:DstChainPaymentV2Src",
        "label": "_initializing",
        "offset": 1,
        "slot": "0",
        "type": "t_bool"
      },
      {
        "astId": 458,
        "contract": "contracts/payments/DstChainPaymentV2Src.sol:DstChainPaymentV2Src",
        "label": "_status",
        "offset": 0,
        "slot": "1",
        "type": "t_uint256"
      },
      {
        "astId": 516,
        "contract": "contracts/payments/DstChainPaymentV2Src.sol:DstChainPaymentV2Src",
        "label": "__gap",
        "offset": 0,
        "slot": "2",
        "type": "t_array(t_uint256)49_storage"
      },
      {
        "astId": 1237,
        "contract": "contracts/payments/DstChainPaymentV2Src.sol:DstChainPaymentV2Src",
        "label": "__gap",
        "offset": 0,
        "slot": "51",
        "type": "t_array(t_uint256)50_storage"
      },
      {
        "astId": 10,
        "contract": "contracts/payments/DstChainPaymentV2Src.sol:DstChainPaymentV2Src",
        "label": "_owner",
        "offset": 0,
        "slot": "101",
        "type": "t_address"
      },
      {
        "astId": 130,
        "contract": "contracts/payments/DstChainPaymentV2Src.sol:DstChainPaymentV2Src",
        "label": "__gap",
        "offset": 0,
        "slot": "102",
        "type": "t_array(t_uint256)49_storage"
      },
      {
        "astId": 338,
        "contract": "contracts/payments/DstChainPaymentV2Src.sol:DstChainPaymentV2Src",
        "label": "_paused",
        "offset": 0,
        "slot": "151",
        "type": "t_bool"
      },
      {
        "astId": 443,
        "contract": "contracts/payments/DstChainPaymentV2Src.sol:DstChainPaymentV2Src",
        "label": "__gap",
        "offset": 0,
        "slot": "152",
        "type": "t_array(t_uint256)49_storage"
      },
      {
        "astId": 5099,
        "contract": "contracts/payments/DstChainPaymentV2Src.sol:DstChainPaymentV2Src",
        "label": "pausers",
        "offset": 0,
        "slot": "201",
        "type": "t_mapping(t_address,t_bool)"
      },
      {
        "astId": 7759,
        "contract": "contracts/payments/DstChainPaymentV2Src.sol:DstChainPaymentV2Src",
        "label": "router",
        "offset": 0,
        "slot": "202",
        "type": "t_contract(IRouter)8994"
      },
      {
        "astId": 10346,
        "contract": "contracts/payments/DstChainPaymentV2Src.sol:DstChainPaymentV2Src",
        "label": "providerBalances",
        "offset": 0,
        "slot": "203",
        "type": "t_mapping(t_address,t_uint256)"
      },
      {
        "astId": 10352,
        "contract": "contracts/payments/DstChainPaymentV2Src.sol:DstChainPaymentV2Src",
        "label": "fees",
        "offset": 0,
        "slot": "204",
        "type": "t_mapping(t_address,t_mapping(t_bytes32,t_uint256))"
      },
      {
        "astId": 1783,
        "contract": "contracts/payments/DstChainPaymentV2Src.sol:DstChainPaymentV2Src",
        "label": "_HASHED_NAME",
        "offset": 0,
        "slot": "205",
        "type": "t_bytes32"
      },
      {
        "astId": 1785,
        "contract": "contracts/payments/DstChainPaymentV2Src.sol:DstChainPaymentV2Src",
        "label": "_HASHED_VERSION",
        "offset": 0,
        "slot": "206",
        "type": "t_bytes32"
      },
      {
        "astId": 1923,
        "contract": "contracts/payments/DstChainPaymentV2Src.sol:DstChainPaymentV2Src",
        "label": "__gap",
        "offset": 0,
        "slot": "207",
        "type": "t_array(t_uint256)50_storage"
      },
      {
        "astId": 10377,
        "contract": "contracts/payments/DstChainPaymentV2Src.sol:DstChainPaymentV2Src",
        "label": "voucherTypedHash",
        "offset": 0,
        "slot": "257",
        "type": "t_bytes32"
      },
      {
        "astId": 10383,
        "contract": "contracts/payments/DstChainPaymentV2Src.sol:DstChainPaymentV2Src",
        "label": "vouchers",
        "offset": 0,
        "slot": "258",
        "type": "t_mapping(t_address,t_mapping(t_uint256,t_uint256))"
      }
    ],
    "types": {
      "t_address": {
        "encoding": "inplace",
        "label": "address",
        "numberOfBytes": "20"
      },
      "t_array(t_uint256)49_storage": {
        "base": "t_uint256",
        "encoding": "inplace",
        "label": "uint256[49]",
        "numberOfBytes": "1568"
      },
      "t_array(t_uint256)50_storage": {
        "base": "t_uint256",
        "encoding": "inplace",
        "label": "uint256[50]",
        "numberOfBytes": "1600"
      },
      "t_bool": {
        "encoding": "inplace",
        "label": "bool",
        "numberOfBytes": "1"
      },
      "t_bytes32": {
        "encoding": "inplace",
        "label": "bytes32",
        "numberOfBytes": "32"
      },
      "t_contract(IRouter)8994": {
        "encoding": "inplace",
        "label": "contract IRouter",
        "numberOfBytes": "20"
      },
      "t_mapping(t_address,t_bool)": {
        "encoding": "mapping",
        "key": "t_address",
        "label": "mapping(address => bool)",
        "numberOfBytes": "32",
        "value": "t_bool"
      },
      "t_mapping(t_address,t_mapping(t_bytes32,t_uint256))": {
        "encoding": "mapping",
        "key": "t_address",
        "label": "mapping(address => mapping(bytes32 => uint256))",
        "numberOfBytes": "32",
        "value": "t_mapping(t_bytes32,t_uint256)"
      },
      "t_mapping(t_address,t_mapping(t_uint256,t_uint256))": {
        "encoding": "mapping",
        "key": "t_address",
        "label": "mapping(address => mapping(uint256 => uint256))",
        "numberOfBytes": "32",
        "value": "t_mapping(t_uint256,t_uint256)"
      },
      "t_mapping(t_address,t_uint256)": {
        "encoding": "mapping",
        "key": "t_address",
        "label": "mapping(address => uint256)",
        "numberOfBytes": "32",
        "value": "t_uint256"
      },
      "t_mapping(t_bytes32,t_uint256)": {
        "encoding": "mapping",
        "key": "t_bytes32",
        "label": "mapping(bytes32 => uint256)",
        "numberOfBytes": "32",
        "value": "t_uint256"
      },
      "t_mapping(t_uint256,t_uint256)": {
        "encoding": "mapping",
        "key": "t_uint256",
        "label": "mapping(uint256 => uint256)",
        "numberOfBytes": "32",
        "value": "t_uint256"
      },
      "t_uint256": {
        "encoding": "inplace",
        "label": "uint256",
        "numberOfBytes": "32"
      },
      "t_uint8": {
        "encoding": "inplace",
        "label": "uint8",
        "numberOfBytes": "1"
      }
    }
  }
}