{
  "address": "0x8f8c4b205468F1E3DcF58faA72D5aBE41009F4f3",
  "abi": [
    {
      "inputs": [],
      "stateMutability": "nonpayable",
      "type": "constructor"
    },
    {
      "anonymous": false,
      "inputs": [
        {
          "indexed": false,
          "internalType": "uint8",
          "name": "version",
          "type": "uint8"
        }
      ],
      "name": "Initialized",
      "type": "event"
    },
    {
      "anonymous": false,
      "inputs": [
        {
          "indexed": false,
          "internalType": "address",
          "name": "to",
          "type": "address"
        },
        {
          "indexed": false,
          "internalType": "uint256",
          "name": "value",
          "type": "uint256"
        }
      ],
      "name": "NativeWithdrawal",
      "type": "event"
    },
    {
      "anonymous": false,
      "inputs": [
        {
          "indexed": true,
          "internalType": "address",
          "name": "previousOwner",
          "type": "address"
        },
        {
          "indexed": true,
          "internalType": "address",
          "name": "newOwner",
          "type": "address"
        }
      ],
      "name": "OwnershipTransferred",
      "type": "event"
    },
    {
      "anonymous": false,
      "inputs": [
        {
          "indexed": false,
          "internalType": "address",
          "name": "account",
          "type": "address"
        }
      ],
      "name": "Paused",
      "type": "event"
    },
    {
      "anonymous": false,
      "inputs": [
        {
          "indexed": false,
          "internalType": "address",
          "name": "account",
          "type": "address"
        }
      ],
      "name": "PauserAdded",
      "type": "event"
    },
    {
      "anonymous": false,
      "inputs": [
        {
          "indexed": false,
          "internalType": "address",
          "name": "account",
          "type": "address"
        }
      ],
      "name": "PauserRemoved",
      "type": "event"
    },
    {
      "anonymous": false,
      "inputs": [
        {
          "indexed": false,
          "internalType": "address",
          "name": "provider",
          "type": "address"
        },
        {
          "indexed": false,
          "internalType": "bytes32",
          "name": "account",
          "type": "bytes32"
        },
        {
          "indexed": false,
          "internalType": "uint256",
          "name": "amount",
          "type": "uint256"
        }
      ],
      "name": "Recharged",
      "type": "event"
    },
    {
      "anonymous": false,
      "inputs": [
        {
          "indexed": false,
          "internalType": "contract IRouter",
          "name": "router",
          "type": "address"
        }
      ],
      "name": "RouterUpdated",
      "type": "event"
    },
    {
      "anonymous": false,
      "inputs": [
        {
          "indexed": false,
          "internalType": "address",
          "name": "provider",
          "type": "address"
        },
        {
          "indexed": false,
          "internalType": "bytes32",
          "name": "account",
          "type": "bytes32"
        },
        {
          "indexed": false,
          "internalType": "uint256",
          "name": "amount",
          "type": "uint256"
        }
      ],
      "name": "Spent",
      "type": "event"
    },
    {
      "anonymous": false,
      "inputs": [
        {
          "indexed": false,
          "internalType": "address",
          "name": "account",
          "type": "address"
        }
      ],
      "name": "Unpaused",
      "type": "event"
    },
    {
      "anonymous": false,
      "inputs": [
        {
          "indexed": false,
          "internalType": "contract IERC20Upgradeable",
          "name": "token",
          "type": "address"
        },
        {
          "indexed": false,
          "internalType": "address",
          "name": "to",
          "type": "address"
        },
        {
          "indexed": false,
          "internalType": "uint256",
          "name": "value",
          "type": "uint256"
        }
      ],
      "name": "Withdrawal",
      "type": "event"
    },
    {
      "anonymous": false,
      "inputs": [
        {
          "indexed": false,
          "internalType": "address",
          "name": "provider",
          "type": "address"
        },
        {
          "indexed": false,
          "internalType": "bytes32",
          "name": "account",
          "type": "bytes32"
        },
        {
          "indexed": false,
          "internalType": "address",
          "name": "to",
          "type": "address"
        },
        {
          "indexed": false,
          "internalType": "uint256",
          "name": "amount",
          "type": "uint256"
        }
      ],
      "name": "Withdrawn",
      "type": "event"
    },
    {
      "inputs": [
        {
          "internalType": "address",
          "name": "account",
          "type": "address"
        }
      ],
      "name": "addPauser",
      "outputs": [],
      "stateMutability": "nonpayable",
      "type": "function"
    },
    {
      "inputs": [
        {
          "internalType": "address",
          "name": "provider",
          "type": "address"
        },
        {
          "internalType": "bytes32",
          "name": "account",
          "type": "bytes32"
        }
      ],
      "name": "balanceOf",
      "outputs": [
        {
          "internalType": "uint256",
          "name": "",
          "type": "uint256"
        }
      ],
      "stateMutability": "view",
      "type": "function"
    },
    {
      "inputs": [
        {
          "internalType": "address",
          "name": "provider",
          "type": "address"
        },
        {
          "internalType": "bytes32",
          "name": "account",
          "type": "bytes32"
        },
        {
          "internalType": "bytes",
          "name": "walletSig",
          "type": "bytes"
        },
        {
          "internalType": "bytes",
          "name": "bills",
          "type": "bytes"
        },
        {
          "internalType": "uint256",
          "name": "timeout",
          "type": "uint256"
        },
        {
          "internalType": "uint64",
          "name": "nonce",
          "type": "uint64"
        },
        {
          "internalType": "bytes",
          "name": "billSig",
          "type": "bytes"
        },
        {
          "internalType": "address",
          "name": "to",
          "type": "address"
        },
        {
          "internalType": "uint256",
          "name": "amount",
          "type": "uint256"
        }
      ],
      "name": "initWalletAndWithdraw",
      "outputs": [
        {
          "internalType": "uint256",
          "name": "fee",
          "type": "uint256"
        }
      ],
      "stateMutability": "nonpayable",
      "type": "function"
    },
    {
      "inputs": [
        {
          "internalType": "address",
          "name": "owner",
          "type": "address"
        },
        {
          "internalType": "address",
          "name": "pauser",
          "type": "address"
        },
        {
          "internalType": "contract IRouter",
          "name": "router",
          "type": "address"
        }
      ],
      "name": "initialize",
      "outputs": [],
      "stateMutability": "nonpayable",
      "type": "function"
    },
    {
      "inputs": [
        {
          "internalType": "address",
          "name": "account",
          "type": "address"
        }
      ],
      "name": "isPauser",
      "outputs": [
        {
          "internalType": "bool",
          "name": "",
          "type": "bool"
        }
      ],
      "stateMutability": "view",
      "type": "function"
    },
    {
      "inputs": [],
      "name": "owner",
      "outputs": [
        {
          "internalType": "address",
          "name": "",
          "type": "address"
        }
      ],
      "stateMutability": "view",
      "type": "function"
    },
    {
      "inputs": [
        {
          "internalType": "contract IERC20Upgradeable",
          "name": "token",
          "type": "address"
        },
        {
          "internalType": "address",
          "name": "to",
          "type": "address"
        },
        {
          "internalType": "uint256",
          "name": "value",
          "type": "uint256"
        }
      ],
      "name": "ownerWithdrawERC20",
      "outputs": [],
      "stateMutability": "nonpayable",
      "type": "function"
    },
    {
      "inputs": [
        {
          "internalType": "address payable",
          "name": "to",
          "type": "address"
        },
        {
          "internalType": "uint256",
          "name": "value",
          "type": "uint256"
        }
      ],
      "name": "ownerWithdrawNative",
      "outputs": [],
      "stateMutability": "nonpayable",
      "type": "function"
    },
    {
      "inputs": [],
      "name": "pause",
      "outputs": [],
      "stateMutability": "nonpayable",
      "type": "function"
    },
    {
      "inputs": [],
      "name": "paused",
      "outputs": [
        {
          "internalType": "bool",
          "name": "",
          "type": "bool"
        }
      ],
      "stateMutability": "view",
      "type": "function"
    },
    {
      "inputs": [
        {
          "internalType": "address",
          "name": "",
          "type": "address"
        }
      ],
      "name": "pausers",
      "outputs": [
        {
          "internalType": "bool",
          "name": "",
          "type": "bool"
        }
      ],
      "stateMutability": "view",
      "type": "function"
    },
    {
      "inputs": [
        {
          "internalType": "address",
          "name": "provider",
          "type": "address"
        },
        {
          "internalType": "bytes32",
          "name": "account",
          "type": "bytes32"
        },
        {
          "internalType": "uint256",
          "name": "amount",
          "type": "uint256"
        }
      ],
      "name": "recharge",
      "outputs": [],
      "stateMutability": "nonpayable",
      "type": "function"
    },
    {
      "inputs": [
        {
          "internalType": "address",
          "name": "account",
          "type": "address"
        }
      ],
      "name": "removePauser",
      "outputs": [],
      "stateMutability": "nonpayable",
      "type": "function"
    },
    {
      "inputs": [],
      "name": "renounceOwnership",
      "outputs": [],
      "stateMutability": "nonpayable",
      "type": "function"
    },
    {
      "inputs": [],
      "name": "renouncePauser",
      "outputs": [],
      "stateMutability": "nonpayable",
      "type": "function"
    },
    {
      "inputs": [],
      "name": "router",
      "outputs": [
        {
          "internalType": "contract IRouter",
          "name": "",
          "type": "address"
        }
      ],
      "stateMutability": "view",
      "type": "function"
    },
    {
      "inputs": [
        {
          "internalType": "address",
          "name": "provider",
          "type": "address"
        },
        {
          "internalType": "bytes32",
          "name": "account",
          "type": "bytes32"
        },
        {
          "internalType": "bytes",
          "name": "bills",
          "type": "bytes"
        },
        {
          "internalType": "uint256",
          "name": "timeout",
          "type": "uint256"
        },
        {
          "internalType": "uint64",
          "name": "nonce",
          "type": "uint64"
        },
        {
          "internalType": "bytes",
          "name": "signature",
          "type": "bytes"
        }
      ],
      "name": "spend",
      "outputs": [
        {
          "internalType": "uint256",
          "name": "fee",
          "type": "uint256"
        }
      ],
      "stateMutability": "nonpayable",
      "type": "function"
    },
    {
      "inputs": [
        {
          "internalType": "address",
          "name": "newOwner",
          "type": "address"
        }
      ],
      "name": "transferOwnership",
      "outputs": [],
      "stateMutability": "nonpayable",
      "type": "function"
    },
    {
      "inputs": [],
      "name": "unpause",
      "outputs": [],
      "stateMutability": "nonpayable",
      "type": "function"
    },
    {
      "inputs": [
        {
          "internalType": "address",
          "name": "provider",
          "type": "address"
        },
        {
          "internalType": "bytes32",
          "name": "account",
          "type": "bytes32"
        }
      ],
      "name": "walletOf",
      "outputs": [
        {
          "internalType": "address",
          "name": "",
          "type": "address"
        }
      ],
      "stateMutability": "view",
      "type": "function"
    },
    {
      "inputs": [
        {
          "internalType": "address",
          "name": "provider",
          "type": "address"
        },
        {
          "internalType": "bytes32",
          "name": "account",
          "type": "bytes32"
        },
        {
          "internalType": "bytes",
          "name": "bills",
          "type": "bytes"
        },
        {
          "internalType": "uint256",
          "name": "timeout",
          "type": "uint256"
        },
        {
          "internalType": "uint64",
          "name": "nonce",
          "type": "uint64"
        },
        {
          "internalType": "bytes",
          "name": "signature",
          "type": "bytes"
        },
        {
          "internalType": "address",
          "name": "to",
          "type": "address"
        },
        {
          "internalType": "uint256",
          "name": "amount",
          "type": "uint256"
        }
      ],
      "name": "withdraw",
      "outputs": [
        {
          "internalType": "uint256",
          "name": "fee",
          "type": "uint256"
        }
      ],
      "stateMutability": "nonpayable",
      "type": "function"
    }
  ],
  "transactionHash": "0x26c42dc222739831977a85d5f71c04a36b7bb5395b513ece355d096b0fd97628",
  "args": [],
  "numDeployments": 3,
  "solcInputHash": "c3b0da766a55c25c4426257602570d14",
  "bytecode": "0x60806040523480156200001157600080fd5b5060006200002060016200008e565b9050801562000039576000805461ff0019166101001790555b801562000087576000805461ff00191690556040517f7f26b83ff96e1f2b6a682f133852f6798a09c465da95921460cefb3847402498906200007e9060019062000168565b60405180910390a15b50620001cb565b60008054610100900460ff1615620000f7578160ff166001148015620000c75750620000c5306200013b60201b62000e801760201c565b155b620000ef5760405162461bcd60e51b8152600401620000e69062000178565b60405180910390fd5b506000919050565b60005460ff808416911610620001215760405162461bcd60e51b8152600401620000e69062000178565b506000805460ff191660ff92909216919091179055600190565b6001600160a01b03163b151590565b600060ff82165b92915050565b62000162816200014a565b82525050565b6020810162000151828462000157565b602080825281016200015181602e81527f496e697469616c697a61626c653a20636f6e747261637420697320616c72656160208201526d191e481a5b9a5d1a585b1a5e995960921b604082015260600190565b6127d580620001db6000396000f3fe608060405234801561001057600080fd5b50600436106101375760003560e01c806372d9e80e116100b85780638de479f61161007c5780638de479f61461026557806393563a9514610278578063c0c53b8b1461028b578063cf5f1d0e1461029e578063f2fde38b146102b1578063f887ea40146102c457600080fd5b806372d9e80e146101f657806380f51c121461021657806382dc1ec4146102395780638456cb591461024c5780638da5cb5b1461025457600080fd5b80635db17930116100ff5780635db17930146101ad578063699256f4146101c05780636b2c0f55146101d35780636ef8d66d146101e6578063715018a6146101ee57600080fd5b806317a6020b1461013c5780633f4ba83a1461016557806346fbf68e1461016f5780634d30b6be1461018f5780635c975abb146101a2575b600080fd5b61014f61014a366004611a08565b6102e4565b60405161015c9190611ad0565b60405180910390f35b61016d610474565b005b61018261017d366004611ade565b6104a3565b60405161015c9190611b07565b61014f61019d366004611b15565b6104c1565b60655460ff16610182565b61016d6101bb366004611b52565b610603565b61016d6101ce366004611b15565b61079f565b61016d6101e1366004611ade565b61084d565b61016d610883565b61016d61088c565b610209610204366004611b15565b6108c0565b60405161015c9190611bab565b610182610224366004611ade565b60976020526000908152604090205460ff1681565b61016d610247366004611ade565b6109c1565b61016d6109f4565b6033546001600160a01b0316610209565b61014f610273366004611bb9565b610a21565b61016d610286366004611cf0565b610b9d565b61016d610299366004611d25565b610c0e565b61014f6102ac366004611d6b565b610c9e565b61016d6102bf366004611ade565b610e27565b60ca546102d7906001600160a01b031681565b60405161015c9190611e68565b60006102f260655460ff1690565b156103185760405162461bcd60e51b815260040161030f90611ea0565b60405180910390fd5b6002609854141561033b5760405162461bcd60e51b815260040161030f90611ee4565b600260985560ca54604080516350e420e560e11b815290516001600160a01b039092169163a1c841ca91600480820192602092909190829003018186803b15801561038557600080fd5b505afa158015610399573d6000803e3d6000fd5b505050506040513d601f19601f820116820180604052508101906103bd9190611eff565b6001600160a01b0316632d52976488886040518363ffffffff1660e01b81526004016103ea929190611f20565b60206040518083038186803b15801561040257600080fd5b505afa158015610416573d6000803e3d6000fd5b505050506040513d601f19601f8201168201806040525081019061043a9190611f4e565b6104565760405162461bcd60e51b815260040161030f90611fa3565b610464878787878787610e8f565b6001609855979650505050505050565b61047d336104a3565b6104995760405162461bcd60e51b815260040161030f90611fe5565b6104a16110f6565b565b6001600160a01b031660009081526097602052604090205460ff1690565b60ca54604080516350e420e560e11b815290516000926001600160a01b03169163a1c841ca916004808301926020929190829003018186803b15801561050657600080fd5b505afa15801561051a573d6000803e3d6000fd5b505050506040513d601f19601f8201168201806040525081019061053e9190611eff565b6001600160a01b0316632d52976484846040518363ffffffff1660e01b815260040161056b929190611f20565b60206040518083038186803b15801561058357600080fd5b505afa158015610597573d6000803e3d6000fd5b505050506040513d601f19601f820116820180604052508101906105bb9190611f4e565b6105d75760405162461bcd60e51b815260040161030f90611fa3565b506001600160a01b038216600090815260cb602090815260408083208484529091529020545b92915050565b60655460ff16156106265760405162461bcd60e51b815260040161030f90611ea0565b600260985414156106495760405162461bcd60e51b815260040161030f90611ee4565b60026098558061066b5760405162461bcd60e51b815260040161030f90612021565b60ca60009054906101000a90046001600160a01b03166001600160a01b031663a1c841ca6040518163ffffffff1660e01b815260040160206040518083038186803b1580156106b957600080fd5b505afa1580156106cd573d6000803e3d6000fd5b505050506040513d601f19601f820116820180604052508101906106f19190611eff565b6001600160a01b0316632d52976484846040518363ffffffff1660e01b815260040161071e929190611f20565b60206040518083038186803b15801561073657600080fd5b505afa15801561074a573d6000803e3d6000fd5b505050506040513d601f19601f8201168201806040525081019061076e9190611f4e565b61078a5760405162461bcd60e51b815260040161030f90611fa3565b61079583838361115c565b5050600160985550565b6033546001600160a01b031633146107c95760405162461bcd60e51b815260040161030f90612063565b6040516000906001600160a01b0384169083156108fc0290849084818181858888f1935050505090508061080f5760405162461bcd60e51b815260040161030f906120c2565b7f2c876ecb97b3c6854f2488d373403f903eacb800e51c159a5c0c7a9c857e482783836040516108409291906120d2565b60405180910390a1505050565b6033546001600160a01b031633146108775760405162461bcd60e51b815260040161030f90612063565b61088081611271565b50565b6104a133611271565b6033546001600160a01b031633146108b65760405162461bcd60e51b815260040161030f90612063565b6104a160006112f1565b60ca54604080516350e420e560e11b815290516000926001600160a01b03169163a1c841ca916004808301926020929190829003018186803b15801561090557600080fd5b505afa158015610919573d6000803e3d6000fd5b505050506040513d601f19601f8201168201806040525081019061093d9190611eff565b6001600160a01b03166372d9e80e84846040518363ffffffff1660e01b815260040161096a929190611f20565b60206040518083038186803b15801561098257600080fd5b505afa158015610996573d6000803e3d6000fd5b505050506040513d601f19601f820116820180604052508101906109ba91906120eb565b9392505050565b6033546001600160a01b031633146109eb5760405162461bcd60e51b815260040161030f90612063565b61088081611343565b6109fd336104a3565b610a195760405162461bcd60e51b815260040161030f90611fe5565b6104a16113bc565b6000610a2f60655460ff1690565b15610a4c5760405162461bcd60e51b815260040161030f90611ea0565b60026098541415610a6f5760405162461bcd60e51b815260040161030f90611ee4565b600260985581610a915760405162461bcd60e51b815260040161030f90612021565b60ca60009054906101000a90046001600160a01b03166001600160a01b031663a1c841ca6040518163ffffffff1660e01b815260040160206040518083038186803b158015610adf57600080fd5b505afa158015610af3573d6000803e3d6000fd5b505050506040513d601f19601f82011682018060405250810190610b179190611eff565b6001600160a01b0316635db568a88b8b338c6040518563ffffffff1660e01b8152600401610b48949392919061216a565b600060405180830381600087803b158015610b6257600080fd5b505af1158015610b76573d6000803e3d6000fd5b50505050610b8a8a8a898989898989611414565b60016098559a9950505050505050505050565b6033546001600160a01b03163314610bc75760405162461bcd60e51b815260040161030f90612063565b610bdb6001600160a01b038416838361152c565b7f2717ead6b9200dd235aad468c9809ea400fe33ac69b5bfaa6d3e90fc922b6398838383604051610840939291906121ae565b6000610c1a6001611587565b90508015610c32576000805461ff0019166101001790555b610c3b846112f1565b610c4483611614565b610c4d8261163b565b8015610c98576000805461ff00191690556040517f7f26b83ff96e1f2b6a682f133852f6798a09c465da95921460cefb384740249890610c8f906001906121ea565b60405180910390a15b50505050565b6000610cac60655460ff1690565b15610cc95760405162461bcd60e51b815260040161030f90611ea0565b60026098541415610cec5760405162461bcd60e51b815260040161030f90611ee4565b600260985560ca54604080516350e420e560e11b815290516000926001600160a01b03169163a1c841ca916004808301926020929190829003018186803b158015610d3657600080fd5b505afa158015610d4a573d6000803e3d6000fd5b505050506040513d601f19601f82011682018060405250810190610d6e9190611eff565b60405163396cf40760e11b815290915033906001600160a01b038316906372d9e80e90610da1908e908e90600401611f20565b60206040518083038186803b158015610db957600080fd5b505afa158015610dcd573d6000803e3d6000fd5b505050506040513d601f19601f82011682018060405250810190610df191906120eb565b6001600160a01b031614610e175760405162461bcd60e51b815260040161030f90612247565b610b8a8a8a8a8a8a8a8a8a611414565b6033546001600160a01b03163314610e515760405162461bcd60e51b815260040161030f90612063565b6001600160a01b038116610e775760405162461bcd60e51b815260040161030f9061229a565b610880816112f1565b6001600160a01b03163b151590565b60008060ca60009054906101000a90046001600160a01b03166001600160a01b031663e20ce6eb6040518163ffffffff1660e01b815260040160206040518083038186803b158015610ee057600080fd5b505afa158015610ef4573d6000803e3d6000fd5b505050506040513d601f19601f82011682018060405250810190610f189190611eff565b6040516317a6020b60e01b81529091506001600160a01b038216906317a6020b90610f51908b908b908b908b908b908b906004016122ba565b602060405180830381600087803b158015610f6b57600080fd5b505af1158015610f7f573d6000803e3d6000fd5b505050506040513d601f19601f82011682018060405250810190610fa3919061232c565b91506000610fb189896104c1565b905082811015610fd35760405162461bcd60e51b815260040161030f90612398565b6001600160a01b038916600090815260cb602090815260408083208b8452909152902054611001908461166b565b6001600160a01b03808b16600090815260cb602090815260408083208d84528252918290209390935560ca548151636120933b60e11b815291516110af948794899493169263c24126769260048083019392829003018186803b15801561106757600080fd5b505afa15801561107b573d6000803e3d6000fd5b505050506040513d601f19601f8201168201806040525081019061109f9190611eff565b6001600160a01b0316919061152c565b7fde367c913aaac6425f1138a69a4532650f465e49bda8eb976383904cb3d413e08989856040516110e2939291906123a8565b60405180910390a150509695505050505050565b60655460ff166111185760405162461bcd60e51b815260040161030f906123ee565b6065805460ff191690557f5db9ee0a495bf2e6ff9c91a7834c1ba4fdd244a5e8aa4e537bd38aeae4b073aa335b6040516111529190611bab565b60405180910390a1565b6001600160a01b038316600090815260cb6020908152604080832085845290915290205461118a9082611677565b6001600160a01b03808516600090815260cb602090815260408083208784528252918290209390935560ca548151636120933b60e11b8152915161123e943394309488949091169263c241267692600480840193919291829003018186803b1580156111f557600080fd5b505afa158015611209573d6000803e3d6000fd5b505050506040513d601f19601f8201168201806040525081019061122d9190611eff565b6001600160a01b0316929190611683565b7fbb749947730256b87847d720594722a899da4c323db1ce06aa30fb53cf56edf6838383604051610840939291906123a8565b61127a816104a3565b6112965760405162461bcd60e51b815260040161030f90612432565b6001600160a01b03811660009081526097602052604090819020805460ff19169055517fcd265ebaf09df2871cc7bd4133404a235ba12eff2041bb89d9c714a2621c7c7e906112e6908390611bab565b60405180910390a150565b603380546001600160a01b038381166001600160a01b0319831681179093556040519116919082907f8be0079c531659141344cd1fd0a4f28419497f9722a3daafe3b4186f6b6457e090600090a35050565b61134c816104a3565b156113695760405162461bcd60e51b815260040161030f90612480565b6001600160a01b03811660009081526097602052604090819020805460ff19166001179055517f6719d08c1888103bea251a4ed56406bd0c3e69723c8a1686e017e7bbe159b6f8906112e6908390611bab565b60655460ff16156113df5760405162461bcd60e51b815260040161030f90611ea0565b6065805460ff191660011790557f62e78cea01bee320cd4e420270b5ea74000d11b0c9f74754ebdbfc544b05a2586111453390565b6000611424898989898989610e8f565b9050816114318a8a6104c1565b101561144f5760405162461bcd60e51b815260040161030f906124da565b6001600160a01b038916600090815260cb602090815260408083208b845290915290205461147d908361166b565b6001600160a01b03808b16600090815260cb602090815260408083208d84528252918290209390935560ca548151636120933b60e11b815291516114e3948894889493169263c24126769260048083019392829003018186803b15801561106757600080fd5b7f1b0a089ddd8413135f08a33d7e2918568fc526e7725ad4d10b1f0e38e202e43f8989858560405161151894939291906124ea565b60405180910390a198975050505050505050565b6115828363a9059cbb60e01b848460405160240161154b929190611f20565b60408051601f198184030181529190526020810180516001600160e01b03166001600160e01b0319909316929092179091526116a4565b505050565b60008054610100900460ff16156115ce578160ff1660011480156115aa5750303b155b6115c65760405162461bcd60e51b815260040161030f90612573565b506000919050565b60005460ff8084169116106115f55760405162461bcd60e51b815260040161030f90612573565b506000805460ff191660ff92909216919091179055600190565b919050565b600054610100900460ff166109eb5760405162461bcd60e51b815260040161030f906125cb565b600054610100900460ff166116625760405162461bcd60e51b815260040161030f906125cb565b61088081611733565b60006109ba82846125f1565b60006109ba8284612608565b610c98846323b872dd60e01b85858560405160240161154b93929190612620565b60006116f9826040518060400160405280602081526020017f5361666545524332303a206c6f772d6c6576656c2063616c6c206661696c6564815250856001600160a01b03166117a49092919063ffffffff16565b80519091501561158257808060200190518101906117179190611f4e565b6115825760405162461bcd60e51b815260040161030f90612675565b6001600160a01b0381166117595760405162461bcd60e51b815260040161030f906126b9565b60ca80546001600160a01b0319166001600160a01b0383161790556040517f7aed1d3e8155a07ccf395e44ea3109a0e2d6c9b29bbbe9f142d9790596f4dc80906112e6908390611e68565b60606117b384846000856117bb565b949350505050565b6060824710156117dd5760405162461bcd60e51b815260040161030f9061270c565b6001600160a01b0385163b6118045760405162461bcd60e51b815260040161030f90612750565b600080866001600160a01b031685876040516118209190612782565b60006040518083038185875af1925050503d806000811461185d576040519150601f19603f3d011682016040523d82523d6000602084013e611862565b606091505b509150915061187282828661187d565b979650505050505050565b6060831561188c5750816109ba565b82511561189c5782518084602001fd5b8160405162461bcd60e51b815260040161030f919061278e565b60006001600160a01b0382166105fd565b6118d0816118b6565b811461088057600080fd5b80356105fd816118c7565b806118d0565b80356105fd816118e6565b634e487b7160e01b600052604160045260246000fd5b601f19601f830116810181811067ffffffffffffffff82111715611933576119336118f7565b6040525050565b600061194560405190565b905061160f828261190d565b600067ffffffffffffffff82111561196b5761196b6118f7565b601f19601f83011660200192915050565b82818337506000910152565b600061199b61199684611951565b61193a565b9050828152602081018484840111156119b6576119b6600080fd5b6119c184828561197c565b509392505050565b600082601f8301126119dd576119dd600080fd5b81356117b3848260208601611988565b67ffffffffffffffff81166118d0565b80356105fd816119ed565b60008060008060008060c08789031215611a2457611a24600080fd5b6000611a3089896118db565b9650506020611a4189828a016118ec565b955050604087013567ffffffffffffffff811115611a6157611a61600080fd5b611a6d89828a016119c9565b9450506060611a7e89828a016118ec565b9350506080611a8f89828a016119fd565b92505060a087013567ffffffffffffffff811115611aaf57611aaf600080fd5b611abb89828a016119c9565b9150509295509295509295565b805b82525050565b602081016105fd8284611ac8565b600060208284031215611af357611af3600080fd5b60006117b384846118db565b801515611aca565b602081016105fd8284611aff565b60008060408385031215611b2b57611b2b600080fd5b6000611b3785856118db565b9250506020611b48858286016118ec565b9150509250929050565b600080600060608486031215611b6a57611b6a600080fd5b6000611b7686866118db565b9350506020611b87868287016118ec565b9250506040611b98868287016118ec565b9150509250925092565b611aca816118b6565b602081016105fd8284611ba2565b60008060008060008060008060006101208a8c031215611bdb57611bdb600080fd5b6000611be78c8c6118db565b9950506020611bf88c828d016118ec565b98505060408a013567ffffffffffffffff811115611c1857611c18600080fd5b611c248c828d016119c9565b97505060608a013567ffffffffffffffff811115611c4457611c44600080fd5b611c508c828d016119c9565b9650506080611c618c828d016118ec565b95505060a0611c728c828d016119fd565b94505060c08a013567ffffffffffffffff811115611c9257611c92600080fd5b611c9e8c828d016119c9565b93505060e0611caf8c828d016118db565b925050610100611cc18c828d016118ec565b9150509295985092959850929598565b60006105fd826118b6565b6118d081611cd1565b80356105fd81611cdc565b600080600060608486031215611d0857611d08600080fd5b6000611d148686611ce5565b9350506020611b87868287016118db565b600080600060608486031215611d3d57611d3d600080fd5b6000611d4986866118db565b9350506020611d5a868287016118db565b9250506040611b9886828701611ce5565b600080600080600080600080610100898b031215611d8b57611d8b600080fd5b6000611d978b8b6118db565b9850506020611da88b828c016118ec565b975050604089013567ffffffffffffffff811115611dc857611dc8600080fd5b611dd48b828c016119c9565b9650506060611de58b828c016118ec565b9550506080611df68b828c016119fd565b94505060a089013567ffffffffffffffff811115611e1657611e16600080fd5b611e228b828c016119c9565b93505060c0611e338b828c016118db565b92505060e0611e448b828c016118ec565b9150509295985092959890939650565b60006105fd82611cd1565b611aca81611e54565b602081016105fd8284611e5f565b601081526000602082016f14185d5cd8589b194e881c185d5cd95960821b815291505b5060200190565b602080825281016105fd81611e76565b601f81526000602082017f5265656e7472616e637947756172643a207265656e7472616e742063616c6c0081529150611e99565b602080825281016105fd81611eb0565b80516105fd81611cdc565b600060208284031215611f1457611f14600080fd5b60006117b38484611ef4565b60408101611f2e8285611ba2565b6109ba6020830184611ac8565b8015156118d0565b80516105fd81611f3b565b600060208284031215611f6357611f63600080fd5b60006117b38484611f43565b601d81526000602082017f46756e64506f6f6c3a206e6f6e6578697374656e74206163636f756e7400000081529150611e99565b602080825281016105fd81611f6f565b60208082527f5061757365723a2063616c6c6572206973206e6f74207468652070617573657291019081526000611e99565b602080825281016105fd81611fb3565b6015815260006020820174119d5b99141bdbdb0e881e995c9bc8185b5bdd5b9d605a1b81529150611e99565b602080825281016105fd81611ff5565b60208082527f4f776e61626c653a2063616c6c6572206973206e6f7420746865206f776e657291019081526000611e99565b602080825281016105fd81612031565b602f81526000602082017f4f776e6572576974686472617761626c653a207769746864726177206e61746981526e1d99481d1bdad95b8819985a5b1959608a1b602082015291505b5060400190565b602080825281016105fd81612073565b60408101611f2e8285611e5f565b80516105fd816118c7565b60006020828403121561210057612100600080fd5b60006117b384846120e0565b60005b8381101561212757818101518382015260200161210f565b83811115610c985750506000910152565b6000612142825190565b80845260208401935061215981856020860161210c565b601f01601f19169290920192915050565b608081016121788287611ba2565b6121856020830186611ac8565b6121926040830185611ba2565b81810360608301526121a48184612138565b9695505050505050565b606081016121bc8286611e5f565b6121c96020830185611ba2565b6117b36040830184611ac8565b600060ff82166105fd565b611aca816121d6565b602081016105fd82846121e1565b603281526000602082017f46756e64506f6f6c3a2063616c6c6572206973206e6f74207468652077616c6c815271195d08199bdc881d1a19481858d8dbdd5b9d60721b602082015291506120bb565b602080825281016105fd816121f8565b602681526000602082017f4f776e61626c653a206e6577206f776e657220697320746865207a65726f206181526564647265737360d01b602082015291506120bb565b602080825281016105fd81612257565b67ffffffffffffffff8116611aca565b60c081016122c88289611ba2565b6122d56020830188611ac8565b81810360408301526122e78187612138565b90506122f66060830186611ac8565b61230360808301856122aa565b81810360a08301526123158184612138565b98975050505050505050565b80516105fd816118e6565b60006020828403121561234157612341600080fd5b60006117b38484612321565b602e81526000602082017f46756e64506f6f6c3a20696e73756666696369656e742062616c616e6365206681526d6f722062696c6c696e672066656560901b602082015291506120bb565b602080825281016105fd8161234d565b606081016123b68286611ba2565b6121c96020830185611ac8565b601481526000602082017314185d5cd8589b194e881b9bdd081c185d5cd95960621b81529150611e99565b602080825281016105fd816123c3565b601d81526000602082017f5061757365723a206163636f756e74206973206e6f742070617573657200000081529150611e99565b602080825281016105fd816123fe565b602181526000602082017f5061757365723a206163636f756e7420697320616c72656164792070617573658152603960f91b602082015291506120bb565b602080825281016105fd81612442565b602d81526000602082017f46756e64506f6f6c3a20696e73756666696369656e742062616c616e6365206681526c1bdc881dda5d1a191c985dd85b609a1b602082015291506120bb565b602080825281016105fd81612490565b608081016124f88287611ba2565b6125056020830186611ac8565b6125126040830185611ba2565b61251f6060830184611ac8565b95945050505050565b602e81526000602082017f496e697469616c697a61626c653a20636f6e747261637420697320616c72656181526d191e481a5b9a5d1a585b1a5e995960921b602082015291506120bb565b602080825281016105fd81612528565b602b81526000602082017f496e697469616c697a61626c653a20636f6e7472616374206973206e6f74206981526a6e697469616c697a696e6760a81b602082015291506120bb565b602080825281016105fd81612583565b634e487b7160e01b600052601160045260246000fd5b600082821015612603576126036125db565b500390565b6000821982111561261b5761261b6125db565b500190565b606081016121bc8286611ba2565b602a81526000602082017f5361666545524332303a204552433230206f7065726174696f6e20646964206e8152691bdd081cdd58d8d9595960b21b602082015291506120bb565b602080825281016105fd8161262e565b601b81526000602082017f526f75746572577261707065723a207a65726f2061646472657373000000000081529150611e99565b602080825281016105fd81612685565b602681526000602082017f416464726573733a20696e73756666696369656e742062616c616e636520666f8152651c8818d85b1b60d21b602082015291506120bb565b602080825281016105fd816126c9565b601d81526000602082017f416464726573733a2063616c6c20746f206e6f6e2d636f6e747261637400000081529150611e99565b602080825281016105fd8161271c565b600061276a825190565b61277881856020860161210c565b9290920192915050565b60006109ba8284612760565b602080825281016109ba818461213856fea2646970667358221220fa04d775057b5576de061b56d874c7a627f872b4d6125cc64f501ca4fe3108a864736f6c63430008090033",
  "devdoc": {
    "author": "Alexandas",
    "details": "FundPool contract",
    "kind": "dev",
    "methods": {
      "addPauser(address)": {
        "details": "add a pauser for the contract",
        "params": {
          "account": "address"
        }
      },
      "balanceOf(address,bytes32)": {
        "details": "return balance of account",
        "params": {
          "account": "user account",
          "provider": "provider address"
        },
        "returns": {
          "_0": "balance of account account"
        }
      },
      "initWalletAndWithdraw(address,bytes32,bytes,bytes,uint256,uint64,bytes,address,uint256)": {
        "details": "initialize wallet and recharge for account",
        "params": {
          "account": "user account",
          "amount": "token amount",
          "billSig": "bill signature",
          "bills": "billing data",
          "nonce": "billing nonce",
          "provider": "provider address",
          "timeout": "tx timeout",
          "to": "token receiver",
          "walletSig": "wallet signature"
        },
        "returns": {
          "fee": "bill fee"
        }
      },
      "initialize(address,address,address)": {
        "details": "proxy initialize function",
        "params": {
          "owner": "contract owner",
          "pauser": "contract pauser",
          "router": "router contract address"
        }
      },
      "isPauser(address)": {
        "details": "whether the account is the contract pauser",
        "params": {
          "account": "address"
        },
        "returns": {
          "_0": "whether account is a pauser"
        }
      },
      "owner()": {
        "details": "Returns the address of the current owner."
      },
      "ownerWithdrawERC20(address,address,uint256)": {
        "details": "withdraw token",
        "params": {
          "to": "receiver address",
          "token": "token address",
          "value": "token value"
        }
      },
      "ownerWithdrawNative(address,uint256)": {
        "details": "withdraw ETH",
        "params": {
          "to": "receiver address",
          "value": "token value"
        }
      },
      "pause()": {
        "details": "pause the contract"
      },
      "paused()": {
        "details": "Returns true if the contract is paused, and false otherwise."
      },
      "recharge(address,bytes32,uint256)": {
        "details": "recharge for account",
        "params": {
          "account": "user account",
          "amount": "token amount",
          "provider": "provider address"
        }
      },
      "removePauser(address)": {
        "details": "remove a pauser for the contract",
        "params": {
          "account": "address"
        }
      },
      "renounceOwnership()": {
        "details": "Leaves the contract without owner. It will not be possible to call `onlyOwner` functions anymore. Can only be called by the current owner. NOTE: Renouncing ownership will leave the contract without an owner, thereby removing any functionality that is only available to the owner."
      },
      "renouncePauser()": {
        "details": "remove a pauser for the contract"
      },
      "spend(address,bytes32,bytes,uint256,uint64,bytes)": {
        "details": "spend bills for account",
        "params": {
          "account": "user account",
          "bills": "billing data",
          "nonce": "billing nonce",
          "provider": "provider address",
          "signature": "provider signature",
          "timeout": "tx timeout"
        },
        "returns": {
          "fee": "bills fee"
        }
      },
      "transferOwnership(address)": {
        "details": "Transfers ownership of the contract to a new account (`newOwner`). Can only be called by the current owner."
      },
      "unpause()": {
        "details": "unpause the contract"
      },
      "walletOf(address,bytes32)": {
        "details": "return wallet of the account",
        "params": {
          "account": "user account",
          "provider": "provider address"
        },
        "returns": {
          "_0": "wallet of the account"
        }
      },
      "withdraw(address,bytes32,bytes,uint256,uint64,bytes,address,uint256)": {
        "details": "withdraw token for account",
        "params": {
          "account": "user account",
          "amount": "token amount",
          "bills": "billing data",
          "nonce": "billing nonce",
          "provider": "provider address",
          "signature": "provider signature",
          "timeout": "tx timeout",
          "to": "token receiver"
        },
        "returns": {
          "fee": "bill fee"
        }
      }
    },
    "stateVariables": {
      "balances": {
        "details": "account balances"
      }
    },
    "version": 1
  },
  "userdoc": {
    "kind": "user",
    "methods": {},
    "version": 1
  },
  "storageLayout": {
    "storage": [
      {
        "astId": 147,
        "contract": "contracts/wallets/FundPool.sol:FundPool",
        "label": "_initialized",
        "offset": 0,
        "slot": "0",
        "type": "t_uint8"
      },
      {
        "astId": 150,
        "contract": "contracts/wallets/FundPool.sol:FundPool",
        "label": "_initializing",
        "offset": 1,
        "slot": "0",
        "type": "t_bool"
      },
      {
        "astId": 1038,
        "contract": "contracts/wallets/FundPool.sol:FundPool",
        "label": "__gap",
        "offset": 0,
        "slot": "1",
        "type": "t_array(t_uint256)50_storage"
      },
      {
        "astId": 10,
        "contract": "contracts/wallets/FundPool.sol:FundPool",
        "label": "_owner",
        "offset": 0,
        "slot": "51",
        "type": "t_address"
      },
      {
        "astId": 122,
        "contract": "contracts/wallets/FundPool.sol:FundPool",
        "label": "__gap",
        "offset": 0,
        "slot": "52",
        "type": "t_array(t_uint256)49_storage"
      },
      {
        "astId": 303,
        "contract": "contracts/wallets/FundPool.sol:FundPool",
        "label": "_paused",
        "offset": 0,
        "slot": "101",
        "type": "t_bool"
      },
      {
        "astId": 392,
        "contract": "contracts/wallets/FundPool.sol:FundPool",
        "label": "__gap",
        "offset": 0,
        "slot": "102",
        "type": "t_array(t_uint256)49_storage"
      },
      {
        "astId": 3817,
        "contract": "contracts/wallets/FundPool.sol:FundPool",
        "label": "pausers",
        "offset": 0,
        "slot": "151",
        "type": "t_mapping(t_address,t_bool)"
      },
      {
        "astId": 407,
        "contract": "contracts/wallets/FundPool.sol:FundPool",
        "label": "_status",
        "offset": 0,
        "slot": "152",
        "type": "t_uint256"
      },
      {
        "astId": 451,
        "contract": "contracts/wallets/FundPool.sol:FundPool",
        "label": "__gap",
        "offset": 0,
        "slot": "153",
        "type": "t_array(t_uint256)49_storage"
      },
      {
        "astId": 5940,
        "contract": "contracts/wallets/FundPool.sol:FundPool",
        "label": "router",
        "offset": 0,
        "slot": "202",
        "type": "t_contract(IRouter)6976"
      },
      {
        "astId": 11812,
        "contract": "contracts/wallets/FundPool.sol:FundPool",
        "label": "balances",
        "offset": 0,
        "slot": "203",
        "type": "t_mapping(t_address,t_mapping(t_bytes32,t_uint256))"
      }
    ],
    "types": {
      "t_address": {
        "encoding": "inplace",
        "label": "address",
        "numberOfBytes": "20"
      },
      "t_array(t_uint256)49_storage": {
        "base": "t_uint256",
        "encoding": "inplace",
        "label": "uint256[49]",
        "numberOfBytes": "1568"
      },
      "t_array(t_uint256)50_storage": {
        "base": "t_uint256",
        "encoding": "inplace",
        "label": "uint256[50]",
        "numberOfBytes": "1600"
      },
      "t_bool": {
        "encoding": "inplace",
        "label": "bool",
        "numberOfBytes": "1"
      },
      "t_bytes32": {
        "encoding": "inplace",
        "label": "bytes32",
        "numberOfBytes": "32"
      },
      "t_contract(IRouter)6976": {
        "encoding": "inplace",
        "label": "contract IRouter",
        "numberOfBytes": "20"
      },
      "t_mapping(t_address,t_bool)": {
        "encoding": "mapping",
        "key": "t_address",
        "label": "mapping(address => bool)",
        "numberOfBytes": "32",
        "value": "t_bool"
      },
      "t_mapping(t_address,t_mapping(t_bytes32,t_uint256))": {
        "encoding": "mapping",
        "key": "t_address",
        "label": "mapping(address => mapping(bytes32 => uint256))",
        "numberOfBytes": "32",
        "value": "t_mapping(t_bytes32,t_uint256)"
      },
      "t_mapping(t_bytes32,t_uint256)": {
        "encoding": "mapping",
        "key": "t_bytes32",
        "label": "mapping(bytes32 => uint256)",
        "numberOfBytes": "32",
        "value": "t_uint256"
      },
      "t_uint256": {
        "encoding": "inplace",
        "label": "uint256",
        "numberOfBytes": "32"
      },
      "t_uint8": {
        "encoding": "inplace",
        "label": "uint8",
        "numberOfBytes": "1"
      }
    }
  }
}