{
  "address": "0x665462d8c0371EB62d976917148C60Dd1Ff31328",
  "abi": [
    {
      "inputs": [],
      "stateMutability": "nonpayable",
      "type": "constructor"
    },
    {
      "anonymous": false,
      "inputs": [
        {
          "indexed": false,
          "internalType": "address",
          "name": "provider",
          "type": "address"
        },
        {
          "indexed": false,
          "internalType": "bytes32",
          "name": "account",
          "type": "bytes32"
        },
        {
          "indexed": false,
          "internalType": "uint256",
          "name": "amount",
          "type": "uint256"
        },
        {
          "indexed": false,
          "internalType": "uint256",
          "name": "expiration",
          "type": "uint256"
        }
      ],
      "name": "AccountAllocated",
      "type": "event"
    },
    {
      "anonymous": false,
      "inputs": [
        {
          "indexed": false,
          "internalType": "uint8",
          "name": "version",
          "type": "uint8"
        }
      ],
      "name": "Initialized",
      "type": "event"
    },
    {
      "anonymous": false,
      "inputs": [
        {
          "indexed": true,
          "internalType": "address",
          "name": "previousOwner",
          "type": "address"
        },
        {
          "indexed": true,
          "internalType": "address",
          "name": "newOwner",
          "type": "address"
        }
      ],
      "name": "OwnershipTransferred",
      "type": "event"
    },
    {
      "anonymous": false,
      "inputs": [
        {
          "indexed": false,
          "internalType": "address",
          "name": "provider",
          "type": "address"
        },
        {
          "indexed": false,
          "internalType": "uint256",
          "name": "amount",
          "type": "uint256"
        },
        {
          "indexed": false,
          "internalType": "uint256",
          "name": "expiration",
          "type": "uint256"
        }
      ],
      "name": "ProviderAllocated",
      "type": "event"
    },
    {
      "anonymous": false,
      "inputs": [
        {
          "indexed": false,
          "internalType": "address",
          "name": "provider",
          "type": "address"
        },
        {
          "indexed": false,
          "internalType": "bytes32",
          "name": "account",
          "type": "bytes32"
        },
        {
          "indexed": false,
          "internalType": "uint256",
          "name": "amount",
          "type": "uint256"
        }
      ],
      "name": "ProviderRecovered",
      "type": "event"
    },
    {
      "anonymous": false,
      "inputs": [
        {
          "indexed": false,
          "internalType": "contract IRouter",
          "name": "router",
          "type": "address"
        }
      ],
      "name": "RouterUpdated",
      "type": "event"
    },
    {
      "inputs": [
        {
          "internalType": "address",
          "name": "provider",
          "type": "address"
        },
        {
          "internalType": "uint256",
          "name": "amount",
          "type": "uint256"
        },
        {
          "internalType": "uint256",
          "name": "expiration",
          "type": "uint256"
        }
      ],
      "name": "allocateProvider",
      "outputs": [],
      "stateMutability": "nonpayable",
      "type": "function"
    },
    {
      "inputs": [
        {
          "internalType": "address",
          "name": "provider",
          "type": "address"
        },
        {
          "internalType": "bytes32",
          "name": "account",
          "type": "bytes32"
        }
      ],
      "name": "availableExpiration",
      "outputs": [
        {
          "internalType": "uint256",
          "name": "",
          "type": "uint256"
        }
      ],
      "stateMutability": "view",
      "type": "function"
    },
    {
      "inputs": [
        {
          "internalType": "address",
          "name": "provider",
          "type": "address"
        },
        {
          "internalType": "bytes32",
          "name": "account",
          "type": "bytes32"
        }
      ],
      "name": "balanceOf",
      "outputs": [
        {
          "internalType": "uint256",
          "name": "",
          "type": "uint256"
        }
      ],
      "stateMutability": "view",
      "type": "function"
    },
    {
      "inputs": [
        {
          "internalType": "address",
          "name": "provider",
          "type": "address"
        },
        {
          "internalType": "bytes32",
          "name": "account",
          "type": "bytes32"
        },
        {
          "internalType": "uint256",
          "name": "amount",
          "type": "uint256"
        },
        {
          "internalType": "uint256",
          "name": "expiration",
          "type": "uint256"
        }
      ],
      "name": "drip",
      "outputs": [],
      "stateMutability": "nonpayable",
      "type": "function"
    },
    {
      "inputs": [
        {
          "internalType": "address",
          "name": "provider",
          "type": "address"
        },
        {
          "internalType": "bytes32",
          "name": "account",
          "type": "bytes32"
        }
      ],
      "name": "expiration",
      "outputs": [
        {
          "internalType": "uint256",
          "name": "",
          "type": "uint256"
        }
      ],
      "stateMutability": "view",
      "type": "function"
    },
    {
      "inputs": [
        {
          "internalType": "address",
          "name": "provider",
          "type": "address"
        },
        {
          "internalType": "bytes32",
          "name": "account",
          "type": "bytes32"
        }
      ],
      "name": "expiredAt",
      "outputs": [
        {
          "internalType": "uint256",
          "name": "",
          "type": "uint256"
        }
      ],
      "stateMutability": "view",
      "type": "function"
    },
    {
      "inputs": [
        {
          "internalType": "address",
          "name": "owner",
          "type": "address"
        },
        {
          "internalType": "contract IRouter",
          "name": "router",
          "type": "address"
        }
      ],
      "name": "initialize",
      "outputs": [],
      "stateMutability": "nonpayable",
      "type": "function"
    },
    {
      "inputs": [
        {
          "internalType": "address",
          "name": "provider",
          "type": "address"
        },
        {
          "internalType": "bytes32",
          "name": "account",
          "type": "bytes32"
        }
      ],
      "name": "isExpired",
      "outputs": [
        {
          "internalType": "bool",
          "name": "",
          "type": "bool"
        }
      ],
      "stateMutability": "view",
      "type": "function"
    },
    {
      "inputs": [
        {
          "internalType": "address",
          "name": "provider",
          "type": "address"
        }
      ],
      "name": "isProviderExpired",
      "outputs": [
        {
          "internalType": "bool",
          "name": "",
          "type": "bool"
        }
      ],
      "stateMutability": "view",
      "type": "function"
    },
    {
      "inputs": [],
      "name": "owner",
      "outputs": [
        {
          "internalType": "address",
          "name": "",
          "type": "address"
        }
      ],
      "stateMutability": "view",
      "type": "function"
    },
    {
      "inputs": [
        {
          "internalType": "address",
          "name": "provider",
          "type": "address"
        },
        {
          "internalType": "bytes32",
          "name": "account",
          "type": "bytes32"
        },
        {
          "internalType": "uint256",
          "name": "amount",
          "type": "uint256"
        },
        {
          "internalType": "uint256",
          "name": "expiration",
          "type": "uint256"
        }
      ],
      "name": "paymentAllocate",
      "outputs": [],
      "stateMutability": "nonpayable",
      "type": "function"
    },
    {
      "inputs": [
        {
          "internalType": "address",
          "name": "provider",
          "type": "address"
        }
      ],
      "name": "providerAvailableExpiration",
      "outputs": [
        {
          "internalType": "uint256",
          "name": "",
          "type": "uint256"
        }
      ],
      "stateMutability": "view",
      "type": "function"
    },
    {
      "inputs": [
        {
          "internalType": "address",
          "name": "provider",
          "type": "address"
        }
      ],
      "name": "providerBalanceOf",
      "outputs": [
        {
          "internalType": "uint256",
          "name": "",
          "type": "uint256"
        }
      ],
      "stateMutability": "view",
      "type": "function"
    },
    {
      "inputs": [
        {
          "internalType": "address",
          "name": "provider",
          "type": "address"
        }
      ],
      "name": "providerExpiration",
      "outputs": [
        {
          "internalType": "uint256",
          "name": "",
          "type": "uint256"
        }
      ],
      "stateMutability": "view",
      "type": "function"
    },
    {
      "inputs": [
        {
          "internalType": "address",
          "name": "provider",
          "type": "address"
        }
      ],
      "name": "providerExpiredAt",
      "outputs": [
        {
          "internalType": "uint256",
          "name": "",
          "type": "uint256"
        }
      ],
      "stateMutability": "view",
      "type": "function"
    },
    {
      "inputs": [
        {
          "internalType": "address",
          "name": "provider",
          "type": "address"
        }
      ],
      "name": "providerStartTime",
      "outputs": [
        {
          "internalType": "uint256",
          "name": "",
          "type": "uint256"
        }
      ],
      "stateMutability": "view",
      "type": "function"
    },
    {
      "inputs": [
        {
          "internalType": "address",
          "name": "provider",
          "type": "address"
        },
        {
          "internalType": "bytes32",
          "name": "account",
          "type": "bytes32"
        }
      ],
      "name": "recoverStorage",
      "outputs": [],
      "stateMutability": "nonpayable",
      "type": "function"
    },
    {
      "inputs": [],
      "name": "renounceOwnership",
      "outputs": [],
      "stateMutability": "nonpayable",
      "type": "function"
    },
    {
      "inputs": [],
      "name": "router",
      "outputs": [
        {
          "internalType": "contract IRouter",
          "name": "",
          "type": "address"
        }
      ],
      "stateMutability": "view",
      "type": "function"
    },
    {
      "inputs": [
        {
          "internalType": "address",
          "name": "provider",
          "type": "address"
        },
        {
          "internalType": "bytes32",
          "name": "account",
          "type": "bytes32"
        }
      ],
      "name": "startTime",
      "outputs": [
        {
          "internalType": "uint256",
          "name": "",
          "type": "uint256"
        }
      ],
      "stateMutability": "view",
      "type": "function"
    },
    {
      "inputs": [
        {
          "internalType": "address",
          "name": "newOwner",
          "type": "address"
        }
      ],
      "name": "transferOwnership",
      "outputs": [],
      "stateMutability": "nonpayable",
      "type": "function"
    }
  ],
  "transactionHash": "0xf4af747a600d9d8a72a97a5052cc6a849bfe836a746f8155ac8125a44895a5b3",
  "args": [],
  "numDeployments": 1,
  "solcInputHash": "f1d9f0874da35f3fb2217d83f7f7a52b",
  "bytecode": "0x60806040523480156200001157600080fd5b5060006200002060016200008e565b9050801562000039576000805461ff0019166101001790555b801562000087576000805461ff00191690556040517f7f26b83ff96e1f2b6a682f133852f6798a09c465da95921460cefb3847402498906200007e9060019062000168565b60405180910390a15b50620001cb565b60008054610100900460ff1615620000f7578160ff166001148015620000c75750620000c5306200013b60201b620008791760201c565b155b620000ef5760405162461bcd60e51b8152600401620000e69062000178565b60405180910390fd5b506000919050565b60005460ff808416911610620001215760405162461bcd60e51b8152600401620000e69062000178565b506000805460ff191660ff92909216919091179055600190565b6001600160a01b03163b151590565b600060ff82165b92915050565b62000162816200014a565b82525050565b6020810162000151828462000157565b602080825281016200015181602e81527f496e697469616c697a61626c653a20636f6e747261637420697320616c72656160208201526d191e481a5b9a5d1a585b1a5e995960921b604082015260600190565b6116c580620001db6000396000f3fe608060405234801561001057600080fd5b50600436106101365760003560e01c80638da5cb5b116100b8578063d8bbb1fe1161007c578063d8bbb1fe146102da578063db622423146102ed578063ed38118814610316578063f2fde38b14610329578063f5a55a691461033c578063f887ea401461034f57600080fd5b80638da5cb5b1461025c578063991b184014610275578063a5a2d617146102a1578063c2604191146102b4578063ce34d64f146102c757600080fd5b80633a018732116100ff5780633a018732146101e557806345a6dff8146101f8578063485cc9551461022e5780634d30b6be14610241578063715018a61461025457600080fd5b8062f304db1461013b578063171f506314610164578063241ae96c1461017957806328b214a4146101bf5780633671fdec146101d2575b600080fd5b61014e610149366004610ea4565b610375565b60405161015b9190610eeb565b60405180910390f35b610177610172366004610ea4565b61038c565b005b6101b2610187366004610ea4565b6001600160a01b03919091166000908152606660209081526040808320938352929052206001015490565b60405161015b9190610eff565b6101b26101cd366004610ea4565b61039a565b6101b26101e0366004610f0d565b6103d7565b6101b26101f3366004610ea4565b610400565b6101b2610206366004610ea4565b6001600160a01b03919091166000908152606660209081526040808320938352929052205490565b61017761023c366004610f55565b610446565b6101b261024f366004610ea4565b6104cc565b610177610521565b6033546001600160a01b031660405161015b9190610f91565b6101b2610283366004610f0d565b6001600160a01b031660009081526065602052604090206001015490565b6101776102af366004610f9f565b610557565b61014e6102c2366004610f0d565b61061b565b6101b26102d5366004610f0d565b61062e565b6101776102e8366004611003565b610675565b6101b26102fb366004610f0d565b6001600160a01b031660009081526065602052604090205490565b610177610324366004610f9f565b610737565b610177610337366004610f0d565b6107e8565b6101b261034a366004610f0d565b610844565b600054610368906201000090046001600160a01b031681565b60405161015b9190611067565b6000610381838361039a565b421190505b92915050565b6103968282610888565b5050565b6001600160a01b03821660009081526066602090815260408083208484529091528120600181015490546103d091905b906109a8565b9392505050565b6001600160a01b03811660009081526065602052604081206001810154905461038691906103ca565b600061040c8383610375565b156104325760405162461bcd60e51b8152600401610429906110bf565b60405180910390fd5b6103d042610440858561039a565b906109b4565b600061045260016109c0565b9050801561046a576000805461ff0019166101001790555b61047383610a48565b61047c82610a9a565b80156104c7576000805461ff00191690556040517f7f26b83ff96e1f2b6a682f133852f6798a09c465da95921460cefb3847402498906104be906001906110e3565b60405180910390a15b505050565b60006104d88383610375565b156104f55760405162461bcd60e51b8152600401610429906110bf565b506001600160a01b03919091166000908152606660209081526040808320938352929052206002015490565b6033546001600160a01b0316331461054b5760405162461bcd60e51b815260040161042990611126565b6105556000610a48565b565b60008060029054906101000a90046001600160a01b03166001600160a01b031663ed1f63d36040518163ffffffff1660e01b815260040160206040518083038186803b1580156105a657600080fd5b505afa1580156105ba573d6000803e3d6000fd5b505050506040513d601f19601f820116820180604052508101906105de9190611141565b9050336001600160a01b038216146106085760405162461bcd60e51b8152600401610429906111ad565b61061485858585610aca565b5050505050565b6000610626826103d7565b421192915050565b60006106398261061b565b156106565760405162461bcd60e51b815260040161042990611205565b506001600160a01b031660009081526065602052604090206002015490565b60008060029054906101000a90046001600160a01b03166001600160a01b031663945391126040518163ffffffff1660e01b815260040160206040518083038186803b1580156106c457600080fd5b505afa1580156106d8573d6000803e3d6000fd5b505050506040513d601f19601f820116820180604052508101906106fc9190611141565b9050336001600160a01b038216146107265760405162461bcd60e51b81526004016104299061125d565b610731848484610ce4565b50505050565b60008060029054906101000a90046001600160a01b03166001600160a01b031663a1c841ca6040518163ffffffff1660e01b815260040160206040518083038186803b15801561078657600080fd5b505afa15801561079a573d6000803e3d6000fd5b505050506040513d601f19601f820116820180604052508101906107be9190611141565b9050336001600160a01b038216146106085760405162461bcd60e51b8152600401610429906112be565b6033546001600160a01b031633146108125760405162461bcd60e51b815260040161042990611126565b6001600160a01b0381166108385760405162461bcd60e51b815260040161042990611311565b61084181610a48565b50565b600061084f8261061b565b1561086c5760405162461bcd60e51b815260040161042990611205565b61038642610440846103d7565b6001600160a01b03163b151590565b6108918261061b565b156108ae5760405162461bcd60e51b815260040161042990611365565b6108b88282610375565b6108d45760405162461bcd60e51b8152600401610429906113bf565b6001600160a01b0382166000908152606660209081526040808320848452909152902060020154806109185760405162461bcd60e51b81526004016104299061141b565b6001600160a01b03831660009081526065602052604090206002015461093e90826109a8565b6001600160a01b03841660009081526065602090815260408083206002908101949094556066825280832086845290915280822090920155517f2bad724ec7e7dea8286b0415ad8187b7f1188b37376f127a1f4ad93de16a6119906104be9085908590859061142b565b60006103d08284611469565b60006103d08284611481565b60008054610100900460ff1615610a07578160ff1660011480156109e35750303b155b6109ff5760405162461bcd60e51b8152600401610429906114e3565b506000919050565b60005460ff808416911610610a2e5760405162461bcd60e51b8152600401610429906114e3565b506000805460ff191660ff92909216919091179055600190565b603380546001600160a01b038381166001600160a01b0319831681179093556040519116919082907f8be0079c531659141344cd1fd0a4f28419497f9722a3daafe3b4186f6b6457e090600090a35050565b600054610100900460ff16610ac15760405162461bcd60e51b81526004016104299061153b565b61084181610de0565b610ad38461061b565b15610af05760405162461bcd60e51b815260040161042990611365565b81610afa8561062e565b1015610b185760405162461bcd60e51b8152600401610429906115a5565b610b228484610375565b15610b95576001600160a01b038416600090815260666020908152604080832086845290915290206002015415610b5d57610b5d8484610888565b6001600160a01b0384166000908152606660209081526040808320868452909152902042815560028101839055600101819055610c27565b6001600160a01b0384166000908152606660209081526040808320868452909152902060020154610bc690836109a8565b6001600160a01b03851660009081526066602090815260408083208784529091529020600281019190915560010154610bff90826109a8565b6001600160a01b03851660009081526066602090815260408083208784529091529020600101555b610c31848461039a565b610c3a856103d7565b1015610c585760405162461bcd60e51b8152600401610429906115fd565b8115610ca1576001600160a01b038416600090815260656020526040902060020154610c8490836109b4565b6001600160a01b0385166000908152606560205260409020600201555b7f3fe6b343b3a550959f98f0d60b3dd4f421f4b03b6ce356b401ac0e00dd0f776d84848484604051610cd6949392919061160d565b60405180910390a150505050565b610ced8361061b565b15610d3c576040805160608101825242815260208082018481528284018681526001600160a01b0388166000908152606590935293909120915182555160018201559051600290910155610dad565b6001600160a01b038316600090815260656020526040902060020154610d6290836109a8565b6001600160a01b0384166000908152606560205260409020600281019190915560010154610d9090826109a8565b6001600160a01b0384166000908152606560205260409020600101555b7f25c77fbc206cec768ec093914c97b0c820af6371ae1081f0cc8c9fa6fea7a70e8383836040516104be9392919061142b565b6001600160a01b038116610e065760405162461bcd60e51b81526004016104299061167f565b6000805462010000600160b01b031916620100006001600160a01b038416021790556040517f7aed1d3e8155a07ccf395e44ea3109a0e2d6c9b29bbbe9f142d9790596f4dc8090610e58908390611067565b60405180910390a150565b60006001600160a01b038216610386565b610e7d81610e63565b811461084157600080fd5b803561038681610e74565b80610e7d565b803561038681610e93565b60008060408385031215610eba57610eba600080fd5b6000610ec68585610e88565b9250506020610ed785828601610e99565b9150509250929050565b8015155b82525050565b602081016103868284610ee1565b80610ee5565b602081016103868284610ef9565b600060208284031215610f2257610f22600080fd5b6000610f2e8484610e88565b949350505050565b600061038682610e63565b610e7d81610f36565b803561038681610f41565b60008060408385031215610f6b57610f6b600080fd5b6000610f778585610e88565b9250506020610ed785828601610f4a565b610ee581610e63565b602081016103868284610f88565b60008060008060808587031215610fb857610fb8600080fd5b6000610fc48787610e88565b9450506020610fd587828801610e99565b9350506040610fe687828801610e99565b9250506060610ff787828801610e99565b91505092959194509250565b60008060006060848603121561101b5761101b600080fd5b60006110278686610e88565b935050602061103886828701610e99565b925050604061104986828701610e99565b9150509250925092565b600061038682610f36565b610ee581611053565b60208101610386828461105e565b602a81526000602082017f4950465353746f72616765436f6e74726f6c6c65723a206163636f756e742069815269399032bc3834b932b21760b11b602082015291505b5060400190565b6020808252810161038681611075565b600060ff8216610386565b610ee5816110cf565b6020810161038682846110da565b60208082527f4f776e61626c653a2063616c6c6572206973206e6f7420746865206f776e6572910190815260005b5060200190565b60208082528101610386816110f1565b805161038681610f41565b60006020828403121561115657611156600080fd5b6000610f2e8484611136565b602e81526000602082017f526f75746572577261707065723a2063616c6c6572206973206e6f742064737481526d0818da185a5b881c185e5b595b9d60921b602082015291506110b8565b6020808252810161038681611162565b602b81526000602082017f4950465353746f72616765436f6e74726f6c6c65723a2070726f76696465722081526a34b99032bc3834b932b21760a91b602082015291506110b8565b60208082528101610386816111bd565b602b81526000602082017f526f75746572577261707065723a2063616c6c6572206973206e6f742074686581526a20676f7665726e616e636560a81b602082015291506110b8565b6020808252810161038681611215565b603481526000602082017f526f75746572577261707065723a2063616c6c6572206973206e6f742074686581527310383937bb34b232b91031b7b73a3937b63632b960611b602082015291506110b8565b602080825281016103868161126d565b602681526000602082017f4f776e61626c653a206e6577206f776e657220697320746865207a65726f206181526564647265737360d01b602082015291506110b8565b60208082528101610386816112ce565b602781526000602082017f4950465353746f72616765436f6e74726f6c6c65723a2070726f766964657220815266195e1c1a5c995960ca1b602082015291506110b8565b6020808252810161038681611321565b602d81526000602082017f4950465353746f72616765436f6e74726f6c6c65723a206163636f756e74206981526c1cc81b9bdd08195e1c1a5c9959609a1b602082015291506110b8565b6020808252810161038681611375565b602f81526000602082017f4950465353746f72616765436f6e74726f6c6c65723a20656d7074792073746f81526e3930b3b2903a37903932b1b7bb32b960891b602082015291506110b8565b60208082528101610386816113cf565b606081016114398286610f88565b6114466020830185610ef9565b610f2e6040830184610ef9565b634e487b7160e01b600052601160045260246000fd5b6000821982111561147c5761147c611453565b500190565b60008282101561149357611493611453565b500390565b602e81526000602082017f496e697469616c697a61626c653a20636f6e747261637420697320616c72656181526d191e481a5b9a5d1a585b1a5e995960921b602082015291506110b8565b6020808252810161038681611498565b602b81526000602082017f496e697469616c697a61626c653a20636f6e7472616374206973206e6f74206981526a6e697469616c697a696e6760a81b602082015291506110b8565b60208082528101610386816114f3565b603c81526000602082017f4950465353746f72616765436f6e74726f6c6c65723a20696e7375666669636981527f656e742062616c616e636520666f72207468652070726f766964657200000000602082015291506110b8565b602080825281016103868161154b565b602b81526000602082017f4950465353746f72616765436f6e74726f6c6c65723a2065787069726174696f81526a6e206f766572666c6f777360a81b602082015291506110b8565b60208082528101610386816115b5565b6080810161161b8287610f88565b6116286020830186610ef9565b6116356040830185610ef9565b6116426060830184610ef9565b95945050505050565b601b81526000602082017f526f75746572577261707065723a207a65726f206164647265737300000000008152915061111f565b602080825281016103868161164b56fea26469706673582212203ed22c1dff6bb8a715b93f6934a082b6cc1773f50da0f249c8c7a9e074c1729e64736f6c63430008090033",
  "devdoc": {
    "author": "Alexandas",
    "details": "IPFS storage controller",
    "kind": "dev",
    "methods": {
      "allocateProvider(address,uint256,uint256)": {
        "details": "allocate user's normal resource balance",
        "params": {
          "amount": "resource amount",
          "expiration": "ipfs expiration",
          "provider": "provider address"
        }
      },
      "availableExpiration(address,bytes32)": {
        "details": "return available expiration time for the account",
        "params": {
          "account": "user account",
          "provider": "provider address"
        },
        "returns": {
          "_0": "available expiration time for the account"
        }
      },
      "balanceOf(address,bytes32)": {
        "details": "return ipfs storage amount for the account",
        "params": {
          "account": "user account",
          "provider": "provider address"
        },
        "returns": {
          "_0": "ipfs storage amount for the account"
        }
      },
      "drip(address,bytes32,uint256,uint256)": {
        "details": "provider drip resource to account directly",
        "params": {
          "account": "user account",
          "amount": "ipfs storage amount",
          "expiration": "ipfs expiration",
          "provider": "provider address"
        }
      },
      "expiration(address,bytes32)": {
        "details": "return total expiration time for the account",
        "params": {
          "account": "user account",
          "provider": "provider address"
        },
        "returns": {
          "_0": "total expiration time for the account"
        }
      },
      "expiredAt(address,bytes32)": {
        "details": "return when the account will expire",
        "params": {
          "account": "user account",
          "provider": "provider address"
        },
        "returns": {
          "_0": "when the account will expire"
        }
      },
      "initialize(address,address)": {
        "details": "proxy initialize function",
        "params": {
          "owner": "contract owner",
          "router": "router contract address"
        }
      },
      "isExpired(address,bytes32)": {
        "details": "return whether ipfs storage is expired for the account",
        "params": {
          "account": "user account",
          "provider": "provider address"
        },
        "returns": {
          "_0": "whether ipfs storage is expired for the account"
        }
      },
      "isProviderExpired(address)": {
        "details": "return whether ipfs storage is expired for the provider",
        "params": {
          "provider": "provider address"
        },
        "returns": {
          "_0": "whether ipfs storage is expired for the provider"
        }
      },
      "owner()": {
        "details": "Returns the address of the current owner."
      },
      "paymentAllocate(address,bytes32,uint256,uint256)": {
        "details": "allocate user's resource balance",
        "params": {
          "account": "user account",
          "amount": "ipfs storage amount",
          "expiration": "ipfs expiration",
          "provider": "provider address"
        }
      },
      "providerAvailableExpiration(address)": {
        "details": "return available expiration time for the provider",
        "params": {
          "provider": "provider address"
        },
        "returns": {
          "_0": "available expiration time for the provider"
        }
      },
      "providerBalanceOf(address)": {
        "details": "return ipfs storage amount for the provider",
        "params": {
          "provider": "provider address"
        },
        "returns": {
          "_0": "ipfs storage amount for the provider"
        }
      },
      "providerExpiration(address)": {
        "details": "return total expiration time for the provider",
        "params": {
          "provider": "provider address"
        },
        "returns": {
          "_0": "total expiration time for the provider"
        }
      },
      "providerExpiredAt(address)": {
        "details": "return when the provider will expire",
        "params": {
          "provider": "provider address"
        },
        "returns": {
          "_0": "when the provider will expire"
        }
      },
      "providerStartTime(address)": {
        "details": "return ipfs storage start time for the provider",
        "params": {
          "provider": "provider address"
        },
        "returns": {
          "_0": "start time for the provider"
        }
      },
      "recoverStorage(address,bytes32)": {
        "details": "recover provider storage",
        "params": {
          "account": "user account",
          "provider": "provider address"
        }
      },
      "renounceOwnership()": {
        "details": "Leaves the contract without owner. It will not be possible to call `onlyOwner` functions anymore. Can only be called by the current owner. NOTE: Renouncing ownership will leave the contract without an owner, thereby removing any functionality that is only available to the owner."
      },
      "startTime(address,bytes32)": {
        "details": "return ipfs storage start time for the account",
        "params": {
          "account": "user account",
          "provider": "provider address"
        },
        "returns": {
          "_0": "start time for the account"
        }
      },
      "transferOwnership(address)": {
        "details": "Transfers ownership of the contract to a new account (`newOwner`). Can only be called by the current owner."
      }
    },
    "stateVariables": {
      "providersStorage": {
        "details": "provider storage"
      },
      "storages": {
        "details": "ipfs storage for account"
      }
    },
    "version": 1
  },
  "userdoc": {
    "kind": "user",
    "methods": {},
    "version": 1
  },
  "storageLayout": {
    "storage": [
      {
        "astId": 147,
        "contract": "contracts/resources/controllers/IPFSStorageController.sol:IPFSStorageController",
        "label": "_initialized",
        "offset": 0,
        "slot": "0",
        "type": "t_uint8"
      },
      {
        "astId": 150,
        "contract": "contracts/resources/controllers/IPFSStorageController.sol:IPFSStorageController",
        "label": "_initializing",
        "offset": 1,
        "slot": "0",
        "type": "t_bool"
      },
      {
        "astId": 5834,
        "contract": "contracts/resources/controllers/IPFSStorageController.sol:IPFSStorageController",
        "label": "router",
        "offset": 2,
        "slot": "0",
        "type": "t_contract(IRouter)6848"
      },
      {
        "astId": 1038,
        "contract": "contracts/resources/controllers/IPFSStorageController.sol:IPFSStorageController",
        "label": "__gap",
        "offset": 0,
        "slot": "1",
        "type": "t_array(t_uint256)50_storage"
      },
      {
        "astId": 10,
        "contract": "contracts/resources/controllers/IPFSStorageController.sol:IPFSStorageController",
        "label": "_owner",
        "offset": 0,
        "slot": "51",
        "type": "t_address"
      },
      {
        "astId": 122,
        "contract": "contracts/resources/controllers/IPFSStorageController.sol:IPFSStorageController",
        "label": "__gap",
        "offset": 0,
        "slot": "52",
        "type": "t_array(t_uint256)49_storage"
      },
      {
        "astId": 10027,
        "contract": "contracts/resources/controllers/IPFSStorageController.sol:IPFSStorageController",
        "label": "providersStorage",
        "offset": 0,
        "slot": "101",
        "type": "t_mapping(t_address,t_struct(Storage)10985_storage)"
      },
      {
        "astId": 10035,
        "contract": "contracts/resources/controllers/IPFSStorageController.sol:IPFSStorageController",
        "label": "storages",
        "offset": 0,
        "slot": "102",
        "type": "t_mapping(t_address,t_mapping(t_bytes32,t_struct(Storage)10985_storage))"
      }
    ],
    "types": {
      "t_address": {
        "encoding": "inplace",
        "label": "address",
        "numberOfBytes": "20"
      },
      "t_array(t_uint256)49_storage": {
        "base": "t_uint256",
        "encoding": "inplace",
        "label": "uint256[49]",
        "numberOfBytes": "1568"
      },
      "t_array(t_uint256)50_storage": {
        "base": "t_uint256",
        "encoding": "inplace",
        "label": "uint256[50]",
        "numberOfBytes": "1600"
      },
      "t_bool": {
        "encoding": "inplace",
        "label": "bool",
        "numberOfBytes": "1"
      },
      "t_bytes32": {
        "encoding": "inplace",
        "label": "bytes32",
        "numberOfBytes": "32"
      },
      "t_contract(IRouter)6848": {
        "encoding": "inplace",
        "label": "contract IRouter",
        "numberOfBytes": "20"
      },
      "t_mapping(t_address,t_mapping(t_bytes32,t_struct(Storage)10985_storage))": {
        "encoding": "mapping",
        "key": "t_address",
        "label": "mapping(address => mapping(bytes32 => struct IIPFSStorageController.Storage))",
        "numberOfBytes": "32",
        "value": "t_mapping(t_bytes32,t_struct(Storage)10985_storage)"
      },
      "t_mapping(t_address,t_struct(Storage)10985_storage)": {
        "encoding": "mapping",
        "key": "t_address",
        "label": "mapping(address => struct IIPFSStorageController.Storage)",
        "numberOfBytes": "32",
        "value": "t_struct(Storage)10985_storage"
      },
      "t_mapping(t_bytes32,t_struct(Storage)10985_storage)": {
        "encoding": "mapping",
        "key": "t_bytes32",
        "label": "mapping(bytes32 => struct IIPFSStorageController.Storage)",
        "numberOfBytes": "32",
        "value": "t_struct(Storage)10985_storage"
      },
      "t_struct(Storage)10985_storage": {
        "encoding": "inplace",
        "label": "struct IIPFSStorageController.Storage",
        "members": [
          {
            "astId": 10980,
            "contract": "contracts/resources/controllers/IPFSStorageController.sol:IPFSStorageController",
            "label": "startTime",
            "offset": 0,
            "slot": "0",
            "type": "t_uint256"
          },
          {
            "astId": 10982,
            "contract": "contracts/resources/controllers/IPFSStorageController.sol:IPFSStorageController",
            "label": "expiration",
            "offset": 0,
            "slot": "1",
            "type": "t_uint256"
          },
          {
            "astId": 10984,
            "contract": "contracts/resources/controllers/IPFSStorageController.sol:IPFSStorageController",
            "label": "amount",
            "offset": 0,
            "slot": "2",
            "type": "t_uint256"
          }
        ],
        "numberOfBytes": "96"
      },
      "t_uint256": {
        "encoding": "inplace",
        "label": "uint256",
        "numberOfBytes": "32"
      },
      "t_uint8": {
        "encoding": "inplace",
        "label": "uint8",
        "numberOfBytes": "1"
      }
    }
  }
}