{
  "address": "0x4FF2FcA082998ee946175c10Fd30eEfbc3fA5aCd",
  "abi": [
    {
      "anonymous": false,
      "inputs": [
        {
          "indexed": false,
          "internalType": "address",
          "name": "provider",
          "type": "address"
        },
        {
          "indexed": false,
          "internalType": "bytes32",
          "name": "account",
          "type": "bytes32"
        }
      ],
      "name": "AccountRegistered",
      "type": "event"
    },
    {
      "anonymous": false,
      "inputs": [
        {
          "indexed": false,
          "internalType": "uint8",
          "name": "version",
          "type": "uint8"
        }
      ],
      "name": "Initialized",
      "type": "event"
    },
    {
      "anonymous": false,
      "inputs": [
        {
          "indexed": true,
          "internalType": "address",
          "name": "previousOwner",
          "type": "address"
        },
        {
          "indexed": true,
          "internalType": "address",
          "name": "newOwner",
          "type": "address"
        }
      ],
      "name": "OwnershipTransferred",
      "type": "event"
    },
    {
      "anonymous": false,
      "inputs": [
        {
          "indexed": false,
          "internalType": "address",
          "name": "account",
          "type": "address"
        }
      ],
      "name": "Paused",
      "type": "event"
    },
    {
      "anonymous": false,
      "inputs": [
        {
          "indexed": false,
          "internalType": "address",
          "name": "account",
          "type": "address"
        }
      ],
      "name": "PauserAdded",
      "type": "event"
    },
    {
      "anonymous": false,
      "inputs": [
        {
          "indexed": false,
          "internalType": "address",
          "name": "account",
          "type": "address"
        }
      ],
      "name": "PauserRemoved",
      "type": "event"
    },
    {
      "anonymous": false,
      "inputs": [
        {
          "indexed": false,
          "internalType": "address",
          "name": "provider",
          "type": "address"
        },
        {
          "indexed": false,
          "internalType": "bytes32",
          "name": "account",
          "type": "bytes32"
        }
      ],
      "name": "ProviderDripped",
      "type": "event"
    },
    {
      "anonymous": false,
      "inputs": [
        {
          "indexed": false,
          "internalType": "address",
          "name": "provider",
          "type": "address"
        },
        {
          "indexed": false,
          "internalType": "bytes32",
          "name": "account",
          "type": "bytes32"
        },
        {
          "indexed": false,
          "internalType": "uint256",
          "name": "nonce",
          "type": "uint256"
        }
      ],
      "name": "ProviderDripped",
      "type": "event"
    },
    {
      "anonymous": false,
      "inputs": [
        {
          "indexed": false,
          "internalType": "contract IRouter",
          "name": "router",
          "type": "address"
        }
      ],
      "name": "RouterUpdated",
      "type": "event"
    },
    {
      "anonymous": false,
      "inputs": [
        {
          "indexed": false,
          "internalType": "address",
          "name": "account",
          "type": "address"
        }
      ],
      "name": "Unpaused",
      "type": "event"
    },
    {
      "anonymous": false,
      "inputs": [
        {
          "indexed": false,
          "internalType": "address",
          "name": "provider",
          "type": "address"
        },
        {
          "indexed": false,
          "internalType": "bytes32",
          "name": "account",
          "type": "bytes32"
        },
        {
          "indexed": false,
          "internalType": "address",
          "name": "from",
          "type": "address"
        },
        {
          "indexed": false,
          "internalType": "address",
          "name": "to",
          "type": "address"
        }
      ],
      "name": "WalletTransferred",
      "type": "event"
    },
    {
      "anonymous": false,
      "inputs": [
        {
          "indexed": false,
          "internalType": "bytes32",
          "name": "hash",
          "type": "bytes32"
        }
      ],
      "name": "WalletTypesHashUpdated",
      "type": "event"
    },
    {
      "inputs": [
        {
          "internalType": "address",
          "name": "provider",
          "type": "address"
        },
        {
          "internalType": "bytes32",
          "name": "account",
          "type": "bytes32"
        }
      ],
      "name": "accountExists",
      "outputs": [
        {
          "internalType": "bool",
          "name": "",
          "type": "bool"
        }
      ],
      "stateMutability": "view",
      "type": "function"
    },
    {
      "inputs": [
        {
          "internalType": "address",
          "name": "account",
          "type": "address"
        }
      ],
      "name": "addPauser",
      "outputs": [],
      "stateMutability": "nonpayable",
      "type": "function"
    },
    {
      "inputs": [
        {
          "internalType": "bytes32",
          "name": "account",
          "type": "bytes32"
        },
        {
          "components": [
            {
              "internalType": "enum ResourceData.ResourceType",
              "name": "resourceType",
              "type": "uint8"
            },
            {
              "internalType": "uint256[]",
              "name": "amounts",
              "type": "uint256[]"
            }
          ],
          "internalType": "struct ResourceData.AmountPayload[]",
          "name": "payloads",
          "type": "tuple[]"
        }
      ],
      "name": "drip",
      "outputs": [],
      "stateMutability": "nonpayable",
      "type": "function"
    },
    {
      "inputs": [
        {
          "internalType": "bytes32[]",
          "name": "accounts",
          "type": "bytes32[]"
        },
        {
          "components": [
            {
              "internalType": "enum ResourceData.ResourceType",
              "name": "resourceType",
              "type": "uint8"
            },
            {
              "internalType": "uint256[]",
              "name": "amounts",
              "type": "uint256[]"
            }
          ],
          "internalType": "struct ResourceData.AmountPayload[][]",
          "name": "payloads",
          "type": "tuple[][]"
        },
        {
          "internalType": "uint256[]",
          "name": "nonces",
          "type": "uint256[]"
        }
      ],
      "name": "dripMult",
      "outputs": [],
      "stateMutability": "nonpayable",
      "type": "function"
    },
    {
      "inputs": [
        {
          "internalType": "bytes32[]",
          "name": "accounts",
          "type": "bytes32[]"
        },
        {
          "components": [
            {
              "internalType": "enum ResourceData.ResourceType",
              "name": "resourceType",
              "type": "uint8"
            },
            {
              "internalType": "uint256[]",
              "name": "amounts",
              "type": "uint256[]"
            }
          ],
          "internalType": "struct ResourceData.AmountPayload[][]",
          "name": "payloads",
          "type": "tuple[][]"
        }
      ],
      "name": "dripMult",
      "outputs": [],
      "stateMutability": "nonpayable",
      "type": "function"
    },
    {
      "inputs": [
        {
          "internalType": "address",
          "name": "provider",
          "type": "address"
        },
        {
          "internalType": "address",
          "name": "user",
          "type": "address"
        },
        {
          "internalType": "bytes32",
          "name": "account",
          "type": "bytes32"
        },
        {
          "internalType": "bytes",
          "name": "payload",
          "type": "bytes"
        }
      ],
      "name": "hashRegisterAndDripTypes",
      "outputs": [
        {
          "internalType": "bytes32",
          "name": "",
          "type": "bytes32"
        }
      ],
      "stateMutability": "view",
      "type": "function"
    },
    {
      "inputs": [
        {
          "internalType": "address",
          "name": "provider",
          "type": "address"
        },
        {
          "internalType": "address",
          "name": "user",
          "type": "address"
        },
        {
          "internalType": "bytes32",
          "name": "account",
          "type": "bytes32"
        },
        {
          "internalType": "bytes",
          "name": "payload",
          "type": "bytes"
        }
      ],
      "name": "hashTypedDataV4ForRegisterAndDrip",
      "outputs": [
        {
          "internalType": "bytes32",
          "name": "",
          "type": "bytes32"
        }
      ],
      "stateMutability": "view",
      "type": "function"
    },
    {
      "inputs": [
        {
          "internalType": "address",
          "name": "provider",
          "type": "address"
        },
        {
          "internalType": "bytes32",
          "name": "account",
          "type": "bytes32"
        },
        {
          "internalType": "address",
          "name": "wallet",
          "type": "address"
        }
      ],
      "name": "hashTypedDataV4ForWallet",
      "outputs": [
        {
          "internalType": "bytes32",
          "name": "",
          "type": "bytes32"
        }
      ],
      "stateMutability": "view",
      "type": "function"
    },
    {
      "inputs": [
        {
          "internalType": "address",
          "name": "provider",
          "type": "address"
        },
        {
          "internalType": "bytes32",
          "name": "account",
          "type": "bytes32"
        },
        {
          "internalType": "address",
          "name": "wallet",
          "type": "address"
        }
      ],
      "name": "hashWalletTypes",
      "outputs": [
        {
          "internalType": "bytes32",
          "name": "",
          "type": "bytes32"
        }
      ],
      "stateMutability": "view",
      "type": "function"
    },
    {
      "inputs": [
        {
          "internalType": "address",
          "name": "provider",
          "type": "address"
        },
        {
          "internalType": "bytes32",
          "name": "account",
          "type": "bytes32"
        },
        {
          "internalType": "address",
          "name": "wallet",
          "type": "address"
        },
        {
          "internalType": "bytes",
          "name": "signature",
          "type": "bytes"
        }
      ],
      "name": "initWallet",
      "outputs": [],
      "stateMutability": "nonpayable",
      "type": "function"
    },
    {
      "inputs": [
        {
          "internalType": "address",
          "name": "owner",
          "type": "address"
        },
        {
          "internalType": "address",
          "name": "pauser",
          "type": "address"
        },
        {
          "internalType": "string",
          "name": "name",
          "type": "string"
        },
        {
          "internalType": "string",
          "name": "version",
          "type": "string"
        },
        {
          "internalType": "string",
          "name": "walletTypes",
          "type": "string"
        },
        {
          "internalType": "contract IRouter",
          "name": "router",
          "type": "address"
        }
      ],
      "name": "initialize",
      "outputs": [],
      "stateMutability": "nonpayable",
      "type": "function"
    },
    {
      "inputs": [
        {
          "internalType": "string",
          "name": "name",
          "type": "string"
        },
        {
          "internalType": "string",
          "name": "version",
          "type": "string"
        },
        {
          "internalType": "string",
          "name": "types",
          "type": "string"
        }
      ],
      "name": "initializeEIP712",
      "outputs": [],
      "stateMutability": "nonpayable",
      "type": "function"
    },
    {
      "inputs": [
        {
          "internalType": "address",
          "name": "account",
          "type": "address"
        }
      ],
      "name": "isPauser",
      "outputs": [
        {
          "internalType": "bool",
          "name": "",
          "type": "bool"
        }
      ],
      "stateMutability": "view",
      "type": "function"
    },
    {
      "inputs": [],
      "name": "owner",
      "outputs": [
        {
          "internalType": "address",
          "name": "",
          "type": "address"
        }
      ],
      "stateMutability": "view",
      "type": "function"
    },
    {
      "inputs": [],
      "name": "pause",
      "outputs": [],
      "stateMutability": "nonpayable",
      "type": "function"
    },
    {
      "inputs": [],
      "name": "paused",
      "outputs": [
        {
          "internalType": "bool",
          "name": "",
          "type": "bool"
        }
      ],
      "stateMutability": "view",
      "type": "function"
    },
    {
      "inputs": [
        {
          "internalType": "address",
          "name": "",
          "type": "address"
        }
      ],
      "name": "pausers",
      "outputs": [
        {
          "internalType": "bool",
          "name": "",
          "type": "bool"
        }
      ],
      "stateMutability": "view",
      "type": "function"
    },
    {
      "inputs": [
        {
          "internalType": "address",
          "name": "provider",
          "type": "address"
        },
        {
          "internalType": "bytes32",
          "name": "account",
          "type": "bytes32"
        },
        {
          "internalType": "address",
          "name": "wallet",
          "type": "address"
        },
        {
          "internalType": "bytes",
          "name": "signature",
          "type": "bytes"
        }
      ],
      "name": "poolInitWallet",
      "outputs": [],
      "stateMutability": "nonpayable",
      "type": "function"
    },
    {
      "inputs": [
        {
          "internalType": "bytes32",
          "name": "account",
          "type": "bytes32"
        }
      ],
      "name": "registerAccount",
      "outputs": [],
      "stateMutability": "nonpayable",
      "type": "function"
    },
    {
      "inputs": [
        {
          "internalType": "address",
          "name": "provider",
          "type": "address"
        },
        {
          "internalType": "bytes32",
          "name": "account",
          "type": "bytes32"
        },
        {
          "internalType": "bytes",
          "name": "payload",
          "type": "bytes"
        },
        {
          "internalType": "bytes",
          "name": "signature",
          "type": "bytes"
        }
      ],
      "name": "registerAndDrip",
      "outputs": [],
      "stateMutability": "nonpayable",
      "type": "function"
    },
    {
      "inputs": [
        {
          "internalType": "bytes32[]",
          "name": "accounts",
          "type": "bytes32[]"
        },
        {
          "components": [
            {
              "internalType": "enum ResourceData.ResourceType",
              "name": "resourceType",
              "type": "uint8"
            },
            {
              "internalType": "uint256[]",
              "name": "amounts",
              "type": "uint256[]"
            }
          ],
          "internalType": "struct ResourceData.AmountPayload[][]",
          "name": "payloads",
          "type": "tuple[][]"
        }
      ],
      "name": "registerAndDripMult",
      "outputs": [],
      "stateMutability": "nonpayable",
      "type": "function"
    },
    {
      "inputs": [],
      "name": "registerAndDripTypedHash",
      "outputs": [
        {
          "internalType": "bytes32",
          "name": "",
          "type": "bytes32"
        }
      ],
      "stateMutability": "view",
      "type": "function"
    },
    {
      "inputs": [
        {
          "internalType": "bytes32[]",
          "name": "accounts",
          "type": "bytes32[]"
        }
      ],
      "name": "registerMult",
      "outputs": [],
      "stateMutability": "nonpayable",
      "type": "function"
    },
    {
      "inputs": [
        {
          "internalType": "address",
          "name": "account",
          "type": "address"
        }
      ],
      "name": "removePauser",
      "outputs": [],
      "stateMutability": "nonpayable",
      "type": "function"
    },
    {
      "inputs": [],
      "name": "renounceOwnership",
      "outputs": [],
      "stateMutability": "nonpayable",
      "type": "function"
    },
    {
      "inputs": [],
      "name": "renouncePauser",
      "outputs": [],
      "stateMutability": "nonpayable",
      "type": "function"
    },
    {
      "inputs": [],
      "name": "router",
      "outputs": [
        {
          "internalType": "contract IRouter",
          "name": "",
          "type": "address"
        }
      ],
      "stateMutability": "view",
      "type": "function"
    },
    {
      "inputs": [
        {
          "internalType": "address",
          "name": "newOwner",
          "type": "address"
        }
      ],
      "name": "transferOwnership",
      "outputs": [],
      "stateMutability": "nonpayable",
      "type": "function"
    },
    {
      "inputs": [
        {
          "internalType": "address",
          "name": "provider",
          "type": "address"
        },
        {
          "internalType": "bytes32",
          "name": "account",
          "type": "bytes32"
        },
        {
          "internalType": "address",
          "name": "newWallet",
          "type": "address"
        }
      ],
      "name": "transferWallet",
      "outputs": [],
      "stateMutability": "nonpayable",
      "type": "function"
    },
    {
      "inputs": [],
      "name": "unpause",
      "outputs": [],
      "stateMutability": "nonpayable",
      "type": "function"
    },
    {
      "inputs": [
        {
          "internalType": "address",
          "name": "",
          "type": "address"
        }
      ],
      "name": "userRegistration",
      "outputs": [
        {
          "internalType": "bytes32",
          "name": "",
          "type": "bytes32"
        }
      ],
      "stateMutability": "view",
      "type": "function"
    },
    {
      "inputs": [
        {
          "internalType": "address",
          "name": "provider",
          "type": "address"
        },
        {
          "internalType": "bytes32",
          "name": "account",
          "type": "bytes32"
        }
      ],
      "name": "walletExists",
      "outputs": [
        {
          "internalType": "bool",
          "name": "",
          "type": "bool"
        }
      ],
      "stateMutability": "view",
      "type": "function"
    },
    {
      "inputs": [
        {
          "internalType": "address",
          "name": "provider",
          "type": "address"
        },
        {
          "internalType": "bytes32",
          "name": "account",
          "type": "bytes32"
        }
      ],
      "name": "walletOf",
      "outputs": [
        {
          "internalType": "address",
          "name": "",
          "type": "address"
        }
      ],
      "stateMutability": "view",
      "type": "function"
    },
    {
      "inputs": [],
      "name": "walletTypesHash",
      "outputs": [
        {
          "internalType": "bytes32",
          "name": "",
          "type": "bytes32"
        }
      ],
      "stateMutability": "view",
      "type": "function"
    }
  ],
  "transactionHash": "0x104b51e8c6c8321ec5bf455f5275f82462b474a4c09d75c8b9cc6be77142396e",
  "args": [],
  "numDeployments": 3,
  "solcInputHash": "f85bf128716c026eafc896136cd50ba3",
  "bytecode": "0x60806040523480156200001157600080fd5b5060006200002060016200008e565b9050801562000039576000805461ff0019166101001790555b801562000087576000805461ff00191690556040517f7f26b83ff96e1f2b6a682f133852f6798a09c465da95921460cefb3847402498906200007e9060019062000168565b60405180910390a15b50620001cb565b60008054610100900460ff1615620000f7578160ff166001148015620000c75750620000c5306200013b60201b620017a41760201c565b155b620000ef5760405162461bcd60e51b8152600401620000e69062000178565b60405180910390fd5b506000919050565b60005460ff808416911610620001215760405162461bcd60e51b8152600401620000e69062000178565b506000805460ff191660ff92909216919091179055600190565b6001600160a01b03163b151590565b600060ff82165b92915050565b62000162816200014a565b82525050565b6020810162000151828462000157565b602080825281016200015181602e81527f496e697469616c697a61626c653a20636f6e747261637420697320616c72656160208201526d191e481a5b9a5d1a585b1a5e995960921b604082015260600190565b61403d80620001db6000396000f3fe608060405234801561001057600080fd5b50600436106102055760003560e01c806380f51c121161011a578063a75d2f2c116100ad578063f2db0f421161007c578063f2db0f4214610440578063f2db2fa014610453578063f2fde38b1461045c578063f887ea401461046f578063fae823751461048f57600080fd5b8063a75d2f2c146103f4578063b531303f14610407578063d6f0362e1461041a578063dcccb5dc1461042d57600080fd5b80639412cbe5116100e95780639412cbe5146103a55780639ab07558146103b85780639ba72cb8146103d8578063a0064108146103eb57600080fd5b806380f51c121461035657806382dc1ec4146103795780638456cb591461038c5780638da5cb5b1461039457600080fd5b806345237f1c1161019d5780636b2c0f551161016c5780636b2c0f55146103005780636ef8d66d14610313578063715018a61461031b578063718bb2f31461032357806372d9e80e1461033657600080fd5b806345237f1c146102bc57806346fbf68e146102cf5780635c975abb146102e25780635db568a8146102ed57600080fd5b806320898a78116101d957806320898a781461026e5780632d529764146102815780633078a6e8146102a15780633f4ba83a146102b457600080fd5b8062c1b50a1461020a57806314e8099d1461021f57806317c2107f146102325780631ac84da11461025b575b600080fd5b61021d6102183660046127c8565b6104a2565b005b61021d61022d366004612a25565b6104f3565b610245610240366004612b12565b61061b565b6040516102529190612b98565b60405180910390f35b61021d610269366004612cac565b61063c565b61021d61027c366004612d3f565b610833565b61029461028f366004612d79565b61098c565b6040516102529190612db4565b61021d6102af366004612dc2565b610acf565b61021d610ca5565b61021d6102ca366004612e47565b610cd4565b6102946102dd366004612f1f565b610d7a565b60995460ff16610294565b61021d6102fb366004612f40565b610d98565b61021d61030e366004612f1f565b610fda565b61021d611010565b61021d611019565b61021d610331366004612f40565b61104d565b610349610344366004612d79565b611075565b6040516102529190612f90565b610294610364366004612f1f565b60cb6020526000908152604090205460ff1681565b61021d610387366004612f1f565b6110c6565b61021d6110f9565b6067546001600160a01b0316610349565b61021d6103b3366004612f9e565b611126565b6102456103c6366004612f1f565b60d16020526000908152604090205481565b6102946103e6366004612d79565b6111f8565b61024560cf5481565b610245610402366004612b12565b611222565b61021d610415366004612dc2565b611266565b6102456104283660046127c8565b61142b565b61024561043b3660046127c8565b611445565b61021d61044e366004613031565b61147f565b61024560d05481565b61021d61046a366004612f1f565b6115a5565b60cc54610482906001600160a01b031681565b6040516102529190613066565b61021d61049d366004613074565b6115fe565b60006104ae8484611075565b9050336001600160a01b038216146104e15760405162461bcd60e51b81526004016104d890613129565b60405180910390fd5b6104ed848483856117b3565b50505050565b60cc54604080516314b47ed960e31b815290516000926001600160a01b03169163a5a3f6c8916004808301926020929190829003018186803b15801561053857600080fd5b505afa15801561054c573d6000803e3d6000fd5b505050506040513d601f19601f820116820180604052508101906105709190613144565b604051636b074a0760e01b81529091506001600160a01b03821690636b074a079061059f903390600401612f90565b60206040518083038186803b1580156105b757600080fd5b505afa1580156105cb573d6000803e3d6000fd5b505050506040513d601f19601f820116820180604052508101906105ef9190613178565b61060b5760405162461bcd60e51b81526004016104d8906131df565b610616338484611831565b505050565b600061063161062c86868686611222565b611ca9565b90505b949350505050565b60cc54604080516314b47ed960e31b815290516000926001600160a01b03169163a5a3f6c8916004808301926020929190829003018186803b15801561068157600080fd5b505afa158015610695573d6000803e3d6000fd5b505050506040513d601f19601f820116820180604052508101906106b99190613144565b604051636b074a0760e01b81529091506001600160a01b03821690636b074a07906106e8903390600401612f90565b60206040518083038186803b15801561070057600080fd5b505afa158015610714573d6000803e3d6000fd5b505050506040513d601f19601f820116820180604052508101906107389190613178565b6107545760405162461bcd60e51b81526004016104d8906131df565b60008451116107755760405162461bcd60e51b81526004016104d890613237565b60008351116107965760405162461bcd60e51b81526004016104d89061328f565b82518451146107b75760405162461bcd60e51b81526004016104d8906132ec565b60005b845181101561082c5761081a338683815181106107d9576107d96132fc565b60200260200101518684815181106107f3576107f36132fc565b602002602001015186858151811061080d5761080d6132fc565b6020026020010151611cbc565b8061082481613328565b9150506107ba565b5050505050565b60cc54604080516314b47ed960e31b815290516000926001600160a01b03169163a5a3f6c8916004808301926020929190829003018186803b15801561087857600080fd5b505afa15801561088c573d6000803e3d6000fd5b505050506040513d601f19601f820116820180604052508101906108b09190613144565b604051636b074a0760e01b81529091506001600160a01b03821690636b074a07906108df903390600401612f90565b60206040518083038186803b1580156108f757600080fd5b505afa15801561090b573d6000803e3d6000fd5b505050506040513d601f19601f8201168201806040525081019061092f9190613178565b61094b5760405162461bcd60e51b81526004016104d8906131df565b60005b82518110156106165761097a3384838151811061096d5761096d6132fc565b6020026020010151612111565b8061098481613328565b91505061094e565b60cc54604080516314b47ed960e31b815290516000926001600160a01b03169163a5a3f6c8916004808301926020929190829003018186803b1580156109d157600080fd5b505afa1580156109e5573d6000803e3d6000fd5b505050506040513d601f19601f82011682018060405250810190610a099190613144565b6001600160a01b0316636b074a07846040518263ffffffff1660e01b8152600401610a349190612f90565b60206040518083038186803b158015610a4c57600080fd5b505afa158015610a60573d6000803e3d6000fd5b505050506040513d601f19601f82011682018060405250810190610a849190613178565b610aa05760405162461bcd60e51b81526004016104d890613388565b506001600160a01b038216600090815260cd6020908152604080832084845290915290205460ff165b92915050565b60cc54604080516314b47ed960e31b815290516000926001600160a01b03169163a5a3f6c8916004808301926020929190829003018186803b158015610b1457600080fd5b505afa158015610b28573d6000803e3d6000fd5b505050506040513d601f19601f82011682018060405250810190610b4c9190613144565b604051636b074a0760e01b81529091506001600160a01b03821690636b074a0790610b7b903390600401612f90565b60206040518083038186803b158015610b9357600080fd5b505afa158015610ba7573d6000803e3d6000fd5b505050506040513d601f19601f82011682018060405250810190610bcb9190613178565b610be75760405162461bcd60e51b81526004016104d8906131df565b6000835111610c085760405162461bcd60e51b81526004016104d890613237565b6000825111610c295760405162461bcd60e51b81526004016104d89061328f565b8151835114610c4a5760405162461bcd60e51b81526004016104d8906132ec565b60005b83518110156104ed57610c9333858381518110610c6c57610c6c6132fc565b6020026020010151858481518110610c8657610c866132fc565b6020026020010151611831565b80610c9d81613328565b915050610c4d565b610cae33610d7a565b610cca5760405162461bcd60e51b81526004016104d8906133cd565b610cd26122c1565b565b6000610ce06001612327565b90508015610cf8576000805461ff0019166101001790555b610d01876123b4565b610d0a86612406565b610d14858561242d565b610d1d8361245e565b610d2682612495565b8015610d71576000805461ff00191690556040517f7f26b83ff96e1f2b6a682f133852f6798a09c465da95921460cefb384740249890610d68906001906133f1565b60405180910390a15b50505050505050565b6001600160a01b0316600090815260cb602052604090205460ff1690565b60cc60009054906101000a90046001600160a01b03166001600160a01b031663e70b7acb6040518163ffffffff1660e01b815260040160206040518083038186803b158015610de657600080fd5b505afa158015610dfa573d6000803e3d6000fd5b505050506040513d601f19601f82011682018060405250810190610e1e9190613144565b6001600160a01b0316336001600160a01b031614610e4e5760405162461bcd60e51b81526004016104d890613447565b610e58848461098c565b610e745760405162461bcd60e51b81526004016104d89061349b565b610e7e84846111f8565b15610e9b5760405162461bcd60e51b81526004016104d8906134e9565b6000610ea885858561142b565b905060cc60009054906101000a90046001600160a01b03166001600160a01b031663a5a3f6c86040518163ffffffff1660e01b815260040160206040518083038186803b158015610ef857600080fd5b505afa158015610f0c573d6000803e3d6000fd5b505050506040513d601f19601f82011682018060405250810190610f309190613144565b6001600160a01b031663238a4d1e8683856040518463ffffffff1660e01b8152600401610f5f93929190613557565b602060405180830381600087803b158015610f7957600080fd5b505af1158015610f8d573d6000803e3d6000fd5b505050506040513d601f19601f82011682018060405250810190610fb19190613178565b610fcd5760405162461bcd60e51b81526004016104d8906135c6565b61082c85856000866117b3565b6067546001600160a01b031633146110045760405162461bcd60e51b81526004016104d890613608565b61100d816124c5565b50565b610cd2336124c5565b6067546001600160a01b031633146110435760405162461bcd60e51b81526004016104d890613608565b610cd260006123b4565b336001600160a01b03831614610e4e5760405162461bcd60e51b81526004016104d890613661565b600061108183836111f8565b61109d5760405162461bcd60e51b81526004016104d8906136b4565b506001600160a01b03918216600090815260ce6020908152604080832093835292905220541690565b6067546001600160a01b031633146110f05760405162461bcd60e51b81526004016104d890613608565b61100d81612545565b61110233610d7a565b61111e5760405162461bcd60e51b81526004016104d8906133cd565b610cd26125be565b7fb53127684a568b3173ae13b9f8a6016e243e63b6e8ee1178d6a717850b5d6103546001600160a01b0316331461116f5760405162461bcd60e51b81526004016104d890613706565b6003600061117c82612327565b90508015611194576000805461ff0019166101001790555b61119e858561242d565b8251602084012060d055801561082c576000805461ff00191690556040517f7f26b83ff96e1f2b6a682f133852f6798a09c465da95921460cefb3847402498906111e990849061371f565b60405180910390a15050505050565b6001600160a01b03918216600090815260ce60209081526040808320938352929052205416151590565b600060d054858585858051906020012060405160200161124695949392919061372d565b604051602081830303815290604052805190602001209050949350505050565b60cc54604080516314b47ed960e31b815290516000926001600160a01b03169163a5a3f6c8916004808301926020929190829003018186803b1580156112ab57600080fd5b505afa1580156112bf573d6000803e3d6000fd5b505050506040513d601f19601f820116820180604052508101906112e39190613144565b604051636b074a0760e01b81529091506001600160a01b03821690636b074a0790611312903390600401612f90565b60206040518083038186803b15801561132a57600080fd5b505afa15801561133e573d6000803e3d6000fd5b505050506040513d601f19601f820116820180604052508101906113629190613178565b61137e5760405162461bcd60e51b81526004016104d8906131df565b600083511161139f5760405162461bcd60e51b81526004016104d890613237565b60008251116113c05760405162461bcd60e51b81526004016104d89061328f565b81518351146113e15760405162461bcd60e51b81526004016104d8906132ec565b60005b83518110156104ed576114033385838151811061096d5761096d6132fc565b61141933858381518110610c6c57610c6c6132fc565b8061142381613328565b9150506113e4565b600061143b61062c858585611445565b90505b9392505050565b600060cf548484846040516020016114609493929190613779565b6040516020818303038152906040528051906020012090509392505050565b60cc54604080516314b47ed960e31b815290516000926001600160a01b03169163a5a3f6c8916004808301926020929190829003018186803b1580156114c457600080fd5b505afa1580156114d8573d6000803e3d6000fd5b505050506040513d601f19601f820116820180604052508101906114fc9190613144565b604051636b074a0760e01b81529091506001600160a01b03821690636b074a079061152b903390600401612f90565b60206040518083038186803b15801561154357600080fd5b505afa158015611557573d6000803e3d6000fd5b505050506040513d601f19601f8201168201806040525081019061157b9190613178565b6115975760405162461bcd60e51b81526004016104d8906131df565b6115a13383612111565b5050565b6067546001600160a01b031633146115cf5760405162461bcd60e51b81526004016104d890613608565b6001600160a01b0381166115f55760405162461bcd60e51b81526004016104d8906137fa565b61100d816123b4565b33600090815260d160205260409020541561162b5760405162461bcd60e51b81526004016104d890613857565b60006116398533868661061b565b905060cc60009054906101000a90046001600160a01b03166001600160a01b031663a5a3f6c86040518163ffffffff1660e01b815260040160206040518083038186803b15801561168957600080fd5b505afa15801561169d573d6000803e3d6000fd5b505050506040513d601f19601f820116820180604052508101906116c19190613144565b6001600160a01b031663238a4d1e8683856040518463ffffffff1660e01b81526004016116f093929190613557565b602060405180830381600087803b15801561170a57600080fd5b505af115801561171e573d6000803e3d6000fd5b505050506040513d601f19601f820116820180604052508101906117429190613178565b61175e5760405162461bcd60e51b81526004016104d8906138ab565b33600090815260d16020908152604082208690558451611785919086018101908601613a2f565b90506117918686612111565b61179c868683611831565b505050505050565b6001600160a01b03163b151590565b6001600160a01b03848116600090815260ce602090815260408083208784529091529081902080546001600160a01b03191692841692909217909155517f3848c851d32f9ec4e5737cee35fe6816770cfbcfd0096097933c80ffa0bc7c2890611823908690869086908690613a69565b60405180910390a150505050565b61183b838361098c565b6118575760405162461bcd60e51b81526004016104d89061349b565b60008151116118785760405162461bcd60e51b81526004016104d890613ad0565b60005b8151811015611c6a576000828281518110611898576118986132fc565b6020908102919091010151805190915060018160048111156118bc576118bc613ae0565b14156119f1578160200151516001146118e75760405162461bcd60e51b81526004016104d890613b3e565b60cc60009054906101000a90046001600160a01b03166001600160a01b03166322b31aba6040518163ffffffff1660e01b815260040160206040518083038186803b15801561193557600080fd5b505afa158015611949573d6000803e3d6000fd5b505050506040513d601f19601f8201168201806040525081019061196d9190613144565b6001600160a01b031663da5001a587878560200151600081518110611994576119946132fc565b60200260200101516040518463ffffffff1660e01b81526004016119ba93929190613b4e565b600060405180830381600087803b1580156119d457600080fd5b505af11580156119e8573d6000803e3d6000fd5b50505050611c55565b6002816004811115611a0557611a05613ae0565b1415611a7e57816020015151600114611a305760405162461bcd60e51b81526004016104d890613bbe565b60cc60009054906101000a90046001600160a01b03166001600160a01b031663f931ca566040518163ffffffff1660e01b815260040160206040518083038186803b15801561193557600080fd5b6003816004811115611a9257611a92613ae0565b1415611b0b57816020015151600114611abd5760405162461bcd60e51b81526004016104d890613c16565b60cc60009054906101000a90046001600160a01b03166001600160a01b031663a2d2f2db6040518163ffffffff1660e01b815260040160206040518083038186803b15801561193557600080fd5b6004816004811115611b1f57611b1f613ae0565b1415611c3d57816020015151600214611b4a5760405162461bcd60e51b81526004016104d890613c6e565b60cc60009054906101000a90046001600160a01b03166001600160a01b031663740e80616040518163ffffffff1660e01b815260040160206040518083038186803b158015611b9857600080fd5b505afa158015611bac573d6000803e3d6000fd5b505050506040513d601f19601f82011682018060405250810190611bd09190613144565b6001600160a01b031663ed38118887878560200151600081518110611bf757611bf76132fc565b60200260200101518660200151600181518110611c1657611c166132fc565b60200260200101516040518563ffffffff1660e01b81526004016119ba9493929190613c7e565b60405162461bcd60e51b81526004016104d890613cf9565b50508080611c6290613328565b91505061187b565b507f0cc4f008775f50ff94480b827bff217f10b555c53b83873f4cd0918a9c241ae48383604051611c9c929190613d09565b60405180910390a1505050565b6000610ac9611cb6612616565b83612652565b611cc6848461098c565b611ce25760405162461bcd60e51b81526004016104d89061349b565b6000825111611d035760405162461bcd60e51b81526004016104d890613ad0565b60005b82518110156120dd576000838281518110611d2357611d236132fc565b602090810291909101015180519091506001816004811115611d4757611d47613ae0565b1415611e7c57816020015151600114611d725760405162461bcd60e51b81526004016104d890613b3e565b60cc60009054906101000a90046001600160a01b03166001600160a01b03166322b31aba6040518163ffffffff1660e01b815260040160206040518083038186803b158015611dc057600080fd5b505afa158015611dd4573d6000803e3d6000fd5b505050506040513d601f19601f82011682018060405250810190611df89190613144565b6001600160a01b031663da5001a588888560200151600081518110611e1f57611e1f6132fc565b60200260200101516040518463ffffffff1660e01b8152600401611e4593929190613b4e565b600060405180830381600087803b158015611e5f57600080fd5b505af1158015611e73573d6000803e3d6000fd5b505050506120c8565b6002816004811115611e9057611e90613ae0565b1415611f0957816020015151600114611ebb5760405162461bcd60e51b81526004016104d890613bbe565b60cc60009054906101000a90046001600160a01b03166001600160a01b031663f931ca566040518163ffffffff1660e01b815260040160206040518083038186803b158015611dc057600080fd5b6003816004811115611f1d57611f1d613ae0565b1415611f9657816020015151600114611f485760405162461bcd60e51b81526004016104d890613c16565b60cc60009054906101000a90046001600160a01b03166001600160a01b031663a2d2f2db6040518163ffffffff1660e01b815260040160206040518083038186803b158015611dc057600080fd5b6004816004811115611faa57611faa613ae0565b1415611c3d57816020015151600214611fd55760405162461bcd60e51b81526004016104d890613c6e565b60cc60009054906101000a90046001600160a01b03166001600160a01b031663740e80616040518163ffffffff1660e01b815260040160206040518083038186803b15801561202357600080fd5b505afa158015612037573d6000803e3d6000fd5b505050506040513d601f19601f8201168201806040525081019061205b9190613144565b6001600160a01b031663ed38118888888560200151600081518110612082576120826132fc565b602002602001015186602001516001815181106120a1576120a16132fc565b60200260200101516040518563ffffffff1660e01b8152600401611e459493929190613c7e565b505080806120d590613328565b915050611d06565b507faafd7e80d52b65053b760ea122566df828fbe3e57fadd8ab7b473e4b6dc2792084848360405161182393929190613b4e565b61211b828261098c565b156121385760405162461bcd60e51b81526004016104d890613d63565b60cc60009054906101000a90046001600160a01b03166001600160a01b031663a5a3f6c86040518163ffffffff1660e01b815260040160206040518083038186803b15801561218657600080fd5b505afa15801561219a573d6000803e3d6000fd5b505050506040513d601f19601f820116820180604052508101906121be9190613144565b6001600160a01b0316636b074a07836040518263ffffffff1660e01b81526004016121e99190612f90565b60206040518083038186803b15801561220157600080fd5b505afa158015612215573d6000803e3d6000fd5b505050506040513d601f19601f820116820180604052508101906122399190613178565b6122555760405162461bcd60e51b81526004016104d890613388565b6001600160a01b038216600090815260cd6020908152604080832084845290915290819020805460ff19166001179055517f672144042732f7b1cdbf0772464ae545aedd7f41d38b8487dafd9085496a5d51906122b59084908490613d09565b60405180910390a15050565b60995460ff166122e35760405162461bcd60e51b81526004016104d890613d9e565b6099805460ff191690557f5db9ee0a495bf2e6ff9c91a7834c1ba4fdd244a5e8aa4e537bd38aeae4b073aa335b60405161231d9190612f90565b60405180910390a1565b60008054610100900460ff161561236e578160ff16600114801561234a5750303b155b6123665760405162461bcd60e51b81526004016104d890613df9565b506000919050565b60005460ff8084169116106123955760405162461bcd60e51b81526004016104d890613df9565b506000805460ff191660ff92909216919091179055600190565b919050565b606780546001600160a01b038381166001600160a01b0319831681179093556040519116919082907f8be0079c531659141344cd1fd0a4f28419497f9722a3daafe3b4186f6b6457e090600090a35050565b600054610100900460ff166110f05760405162461bcd60e51b81526004016104d890613e51565b600054610100900460ff166124545760405162461bcd60e51b81526004016104d890613e51565b6115a18282612685565b600054610100900460ff166124855760405162461bcd60e51b81526004016104d890613e51565b61100d81805190602001206126c6565b600054610100900460ff166124bc5760405162461bcd60e51b81526004016104d890613e51565b61100d816126fb565b6124ce81610d7a565b6124ea5760405162461bcd60e51b81526004016104d890613e95565b6001600160a01b038116600090815260cb602052604090819020805460ff19169055517fcd265ebaf09df2871cc7bd4133404a235ba12eff2041bb89d9c714a2621c7c7e9061253a908390612f90565b60405180910390a150565b61254e81610d7a565b1561256b5760405162461bcd60e51b81526004016104d890613ee3565b6001600160a01b038116600090815260cb602052604090819020805460ff19166001179055517f6719d08c1888103bea251a4ed56406bd0c3e69723c8a1686e017e7bbe159b6f89061253a908390612f90565b60995460ff16156125e15760405162461bcd60e51b81526004016104d890613f1a565b6099805460ff191660011790557f62e78cea01bee320cd4e420270b5ea74000d11b0c9f74754ebdbfc544b05a2586123103390565b600061264d7f8b73c3c69bb8fe3d512ecc4cf759cc79239f7b179b0ffacaa9a75d522b39400f61264560015490565b60025461276c565b905090565b60008282604051602001612667929190613f30565b60405160208183030381529060405280519060200120905092915050565b600054610100900460ff166126ac5760405162461bcd60e51b81526004016104d890613e51565b815160209283012081519190920120600191909155600255565b60cf8190556040517fd5b7aa922fbc99b384e2da1530298f9f1f39cbaafe5584138c9a7031f594a34f9061253a908390612b98565b6001600160a01b0381166127215760405162461bcd60e51b81526004016104d890613f95565b60cc80546001600160a01b0319166001600160a01b0383161790556040517f7aed1d3e8155a07ccf395e44ea3109a0e2d6c9b29bbbe9f142d9790596f4dc809061253a908390613066565b60008383834630604051602001611460959493929190613fa5565b60006001600160a01b038216610ac9565b6127a181612787565b811461100d57600080fd5b8035610ac981612798565b806127a1565b8035610ac9816127b7565b6000806000606084860312156127e0576127e0600080fd5b60006127ec86866127ac565b93505060206127fd868287016127bd565b925050604061280e868287016127ac565b9150509250925092565b634e487b7160e01b600052604160045260246000fd5b601f19601f83011681018181106001600160401b038211171561285357612853612818565b6040525050565b600061286560405190565b90506123af828261282e565b60006001600160401b0382111561288a5761288a612818565b5060209081020190565b6005811061100d57600080fd5b8035610ac981612894565b60006128bf6128ba84612871565b61285a565b838152905060208082019084028301858111156128de576128de600080fd5b835b8181101561290257806128f388826127bd565b845250602092830192016128e0565b5050509392505050565b600082601f83011261292057612920600080fd5b81356106348482602086016128ac565b60006040828403121561294557612945600080fd5b61294f604061285a565b9050600061295d84846128a1565b82525060208201356001600160401b0381111561297c5761297c600080fd5b6129888482850161290c565b60208301525092915050565b60006129a26128ba84612871565b838152905060208082019084028301858111156129c1576129c1600080fd5b835b818110156129025780356001600160401b038111156129e4576129e4600080fd5b8086016129f18982612930565b85525050602092830192016129c3565b600082601f830112612a1557612a15600080fd5b8135610634848260208601612994565b60008060408385031215612a3b57612a3b600080fd5b6000612a4785856127bd565b92505060208301356001600160401b03811115612a6657612a66600080fd5b612a7285828601612a01565b9150509250929050565b60006001600160401b03821115612a9557612a95612818565b601f19601f83011660200192915050565b82818337506000910152565b6000612ac06128ba84612a7c565b905082815260208101848484011115612adb57612adb600080fd5b612ae6848285612aa6565b509392505050565b600082601f830112612b0257612b02600080fd5b8135610634848260208601612ab2565b60008060008060808587031215612b2b57612b2b600080fd5b6000612b3787876127ac565b9450506020612b48878288016127ac565b9350506040612b59878288016127bd565b92505060608501356001600160401b03811115612b7857612b78600080fd5b612b8487828801612aee565b91505092959194509250565b805b82525050565b60208101610ac98284612b90565b6000612bb46128ba84612871565b83815290506020808201908402830185811115612bd357612bd3600080fd5b835b818110156129025780612be888826127bd565b84525060209283019201612bd5565b600082601f830112612c0b57612c0b600080fd5b8135610634848260208601612ba6565b6000612c296128ba84612871565b83815290506020808201908402830185811115612c4857612c48600080fd5b835b818110156129025780356001600160401b03811115612c6b57612c6b600080fd5b808601612c788982612a01565b8552505060209283019201612c4a565b600082601f830112612c9c57612c9c600080fd5b8135610634848260208601612c1b565b600080600060608486031215612cc457612cc4600080fd5b83356001600160401b03811115612cdd57612cdd600080fd5b612ce986828701612bf7565b93505060208401356001600160401b03811115612d0857612d08600080fd5b612d1486828701612c88565b92505060408401356001600160401b03811115612d3357612d33600080fd5b61280e8682870161290c565b600060208284031215612d5457612d54600080fd5b81356001600160401b03811115612d6d57612d6d600080fd5b61063484828501612bf7565b60008060408385031215612d8f57612d8f600080fd5b6000612d9b85856127ac565b9250506020612a72858286016127bd565b801515612b92565b60208101610ac98284612dac565b60008060408385031215612dd857612dd8600080fd5b82356001600160401b03811115612df157612df1600080fd5b612dfd85828601612bf7565b92505060208301356001600160401b03811115612e1c57612e1c600080fd5b612a7285828601612c88565b6000610ac982612787565b6127a181612e28565b8035610ac981612e33565b60008060008060008060c08789031215612e6357612e63600080fd5b6000612e6f89896127ac565b9650506020612e8089828a016127ac565b95505060408701356001600160401b03811115612e9f57612e9f600080fd5b612eab89828a01612aee565b94505060608701356001600160401b03811115612eca57612eca600080fd5b612ed689828a01612aee565b93505060808701356001600160401b03811115612ef557612ef5600080fd5b612f0189828a01612aee565b92505060a0612f1289828a01612e3c565b9150509295509295509295565b600060208284031215612f3457612f34600080fd5b600061063484846127ac565b60008060008060808587031215612f5957612f59600080fd5b6000612f6587876127ac565b9450506020612f76878288016127bd565b9350506040612b59878288016127ac565b612b9281612787565b60208101610ac98284612f87565b600080600060608486031215612fb657612fb6600080fd5b83356001600160401b03811115612fcf57612fcf600080fd5b612fdb86828701612aee565b93505060208401356001600160401b03811115612ffa57612ffa600080fd5b61300686828701612aee565b92505060408401356001600160401b0381111561302557613025600080fd5b61280e86828701612aee565b60006020828403121561304657613046600080fd5b600061063484846127bd565b6000610ac982612e28565b612b9281613052565b60208101610ac9828461305d565b6000806000806080858703121561308d5761308d600080fd5b600061309987876127ac565b94505060206130aa878288016127bd565b93505060408501356001600160401b038111156130c9576130c9600080fd5b612b5987828801612aee565b603481526000602082017f50726f7669646572436f6e74726f6c6c65723a2063616c6c6572206973206e6f8152731d081d1a194818dd5c9c995b9d081dd85b1b195d60621b602082015291505b5060400190565b60208082528101610ac9816130d5565b8051610ac981612e33565b60006020828403121561315957613159600080fd5b60006106348484613139565b8015156127a1565b8051610ac981613165565b60006020828403121561318d5761318d600080fd5b6000610634848461316d565b602981526000602082017f526f75746572577261707065723a2063616c6c6572206973206e6f742074686581526810383937bb34b232b960b91b60208201529150613122565b60208082528101610ac981613199565b602b81526000602082017f50726f7669646572436f6e74726f6c6c65723a20696e76616c6964206163636f81526a0eadce8e640d8cadccee8d60ab1b60208201529150613122565b60208082528101610ac9816131ef565b602b81526000602082017f50726f7669646572436f6e74726f6c6c65723a20696e76616c6964207061796c81526a0dec2c8e640d8cadccee8d60ab1b60208201529150613122565b60208082528101610ac981613247565b603081526000602082017f50726f7669646572436f6e74726f6c6c65723a20696e636f6e736974656e742081526f0e0c2e4c2dacae8cae440d8cadccee8d60831b60208201529150613122565b60208082528101610ac98161329f565b634e487b7160e01b600052603260045260246000fd5b634e487b7160e01b600052601160045260246000fd5b600060001982141561333c5761333c613312565b5060010190565b602881526000602082017f50726f7669646572436f6e74726f6c6c65723a206e6f6e6578697374656e7420815267383937bb34b232b960c11b60208201529150613122565b60208082528101610ac981613343565b60208082527f5061757365723a2063616c6c6572206973206e6f742074686520706175736572910190815260005b5060200190565b60208082528101610ac981613398565b600060ff8216610ac9565b612b92816133dd565b60208101610ac982846133e8565b602b81526000602082017f50726f7669646572436f6e74726f6c6c65723a2063616c6c6572206973206e6f81526a1d08199d5b99081c1bdbdb60aa1b60208201529150613122565b60208082528101610ac9816133ff565b602781526000602082017f50726f7669646572436f6e74726f6c6c65723a206e6f6e6578697374656e74208152661858d8dbdd5b9d60ca1b60208201529150613122565b60208082528101610ac981613457565b602181526000602082017f50726f7669646572436f6e74726f6c6c65723a2077616c6c65742065786973748152607360f81b60208201529150613122565b60208082528101610ac9816134ab565b60005b838110156135145781810151838201526020016134fc565b838111156104ed5750506000910152565b600061352f825190565b8084526020840193506135468185602086016134f9565b601f01601f19169290920192915050565b606081016135658286612f87565b6135726020830185612b90565b81810360408301526106318184613525565b602581526000602082017f50726f7669646572436f6e74726f6c6c65723a20696e76616c6964207369676e815264617475726560d81b60208201529150613122565b60208082528101610ac981613584565b60208082527f4f776e61626c653a2063616c6c6572206973206e6f7420746865206f776e6572910190815260006133c6565b60208082528101610ac9816135d6565b602c81526000602082017f50726f7669646572436f6e74726f6c6c65723a2063616c6c657220696e206e6f81526b1d081d1a19481dd85b1b195d60a21b60208201529150613122565b60208082528101610ac981613618565b602681526000602082017f50726f7669646572436f6e74726f6c6c65723a206e6f6e6578697374656e74208152651dd85b1b195d60d21b60208201529150613122565b60208082528101610ac981613671565b602581526000602082017f41646d696e577261707065723a2063616c6c6572206973206e6f74207468652081526430b236b4b760d91b60208201529150613122565b60208082528101610ac9816136c4565b60ff8116612b92565b60208101610ac98284613716565b60a0810161373b8288612b90565b6137486020830187612f87565b6137556040830186612f87565b6137626060830185612b90565b61376f6080830184612b90565b9695505050505050565b608081016137878287612b90565b6137946020830186612f87565b6137a16040830185612b90565b6137ae6060830184612f87565b95945050505050565b602681526000602082017f4f776e61626c653a206e6577206f776e657220697320746865207a65726f206181526564647265737360d01b60208201529150613122565b60208082528101610ac9816137b7565b603081526000602082017f50726f7669646572436f6e74726f6c6c657256323a206163636f756e7420616c81526f1c9958591e481c9959da5cdd195c995960821b60208201529150613122565b60208082528101610ac98161380a565b602781526000602082017f50726f7669646572436f6e74726f6c6c657256323a20696e76616c6964207369815266676e617475726560c81b60208201529150613122565b60208082528101610ac981613867565b8051610ac981612894565b8051610ac9816127b7565b60006138df6128ba84612871565b838152905060208082019084028301858111156138fe576138fe600080fd5b835b81811015612902578061391388826138c6565b84525060209283019201613900565b600082601f83011261393657613936600080fd5b81516106348482602086016138d1565b60006040828403121561395b5761395b600080fd5b613965604061285a565b9050600061397384846138bb565b82525060208201516001600160401b0381111561399257613992600080fd5b61298884828501613922565b60006139ac6128ba84612871565b838152905060208082019084028301858111156139cb576139cb600080fd5b835b818110156129025780516001600160401b038111156139ee576139ee600080fd5b8086016139fb8982613946565b85525050602092830192016139cd565b600082601f830112613a1f57613a1f600080fd5b815161063484826020860161399e565b600060208284031215613a4457613a44600080fd5b81516001600160401b03811115613a5d57613a5d600080fd5b61063484828501613a0b565b60808101613a778287612f87565b613a846020830186612b90565b6137a16040830185612f87565b602281526000602082017f50726f7669646572436f6e74726f6c6c65723a20656d707479207061796c6f61815261647360f01b60208201529150613122565b60208082528101610ac981613a91565b634e487b7160e01b600052602160045260246000fd5b603c8152600060208201600080516020613fe883398151915281527f6e7473206c656e67746820666f72206275696c64696e672074696d650000000060208201529150613122565b60208082528101610ac981613af6565b60608101613b5c8286612f87565b613b696020830185612b90565b6106346040830184612b90565b60388152600060208201600080516020613fe883398151915281527f6e7473206c656e67746820666f722062616e647769647468000000000000000060208201529150613122565b60208082528101610ac981613b76565b60398152600060208201600080516020613fe883398151915281527f6e7473206c656e67746820666f722061722073746f726167650000000000000060208201529150613122565b60208082528101610ac981613bce565b603b8152600060208201600080516020613fe883398151915281527f6e7473206c656e67746820666f7220697066732073746f72616765000000000060208201529150613122565b60208082528101610ac981613c26565b60808101613c8c8287612f87565b613c996020830186612b90565b613ca66040830185612b90565b6137ae6060830184612b90565b602981526000602082017f50726f7669646572436f6e74726f6c6c65723a20756e6b6e6f776e207265736f81526875726365207479706560b81b60208201529150613122565b60208082528101610ac981613cb3565b60408101613d178285612f87565b61143e6020830184612b90565b602281526000602082017f50726f7669646572436f6e74726f6c6c65723a206163636f756e742065786973815261747360f01b60208201529150613122565b60208082528101610ac981613d24565b601481526000602082017314185d5cd8589b194e881b9bdd081c185d5cd95960621b815291506133c6565b60208082528101610ac981613d73565b602e81526000602082017f496e697469616c697a61626c653a20636f6e747261637420697320616c72656181526d191e481a5b9a5d1a585b1a5e995960921b60208201529150613122565b60208082528101610ac981613dae565b602b81526000602082017f496e697469616c697a61626c653a20636f6e7472616374206973206e6f74206981526a6e697469616c697a696e6760a81b60208201529150613122565b60208082528101610ac981613e09565b601d81526000602082017f5061757365723a206163636f756e74206973206e6f7420706175736572000000815291506133c6565b60208082528101610ac981613e61565b602181526000602082017f5061757365723a206163636f756e7420697320616c72656164792070617573658152603960f91b60208201529150613122565b60208082528101610ac981613ea5565b601081526000602082016f14185d5cd8589b194e881c185d5cd95960821b815291506133c6565b60208082528101610ac981613ef3565b80612b92565b61190160f01b81526002016000613f478285613f2a565b602082019150613f578284613f2a565b5060200192915050565b601b81526000602082017f526f75746572577261707065723a207a65726f20616464726573730000000000815291506133c6565b60208082528101610ac981613f61565b60a08101613fb38288612b90565b613fc06020830187612b90565b613fcd6040830186612b90565b613fda6060830185612b90565b61376f6080830184612f8756fe50726f7669646572436f6e74726f6c6c65723a20696e76616c696420616d6f75a264697066735822122061e02adde5fd89f49b2b82e1c06dd11d03f9d79ad3e2259c03983a1f48f8a4c264736f6c63430008090033",
  "devdoc": {
    "author": "Alexandas",
    "details": "provider controller contract",
    "kind": "dev",
    "methods": {
      "accountExists(address,bytes32)": {
        "details": "return whether the account exists",
        "params": {
          "account": "user account",
          "provider": "provider address"
        },
        "returns": {
          "_0": "whether account exists"
        }
      },
      "addPauser(address)": {
        "details": "add a pauser for the contract",
        "params": {
          "account": "address"
        }
      },
      "drip(bytes32,(uint8,uint256[])[])": {
        "details": "provider drip resource to user account",
        "params": {
          "account": "user account",
          "payloads": "resource amount payloads"
        }
      },
      "dripMult(bytes32[],(uint8,uint256[])[][])": {
        "details": "provider drip resource to multiple accounts",
        "params": {
          "accounts": "user accounts",
          "payloads": "resource amount payloads"
        }
      },
      "dripMult(bytes32[],(uint8,uint256[])[][],uint256[])": {
        "details": "provider drip resource to multiple accounts",
        "params": {
          "accounts": "user accounts",
          "payloads": "resource amount payloads"
        }
      },
      "hashTypedDataV4ForWallet(address,bytes32,address)": {
        "details": "return recharge hash typed v4",
        "params": {
          "account": "user account",
          "provider": "provider address",
          "wallet": "wallet address"
        },
        "returns": {
          "_0": "wallet hash typed v4"
        }
      },
      "hashWalletTypes(address,bytes32,address)": {
        "details": "return recharge typed hash",
        "params": {
          "account": "user account",
          "provider": "provider address",
          "wallet": "wallet address"
        },
        "returns": {
          "_0": "wallet hash typed v4"
        }
      },
      "initWallet(address,bytes32,address,bytes)": {
        "details": "initialize wallet for the given account",
        "params": {
          "account": "user account",
          "provider": "provider address",
          "signature": "provider signature",
          "wallet": "account wallet"
        }
      },
      "initialize(address,address,string,string,string,address)": {
        "details": "proxy initialize function",
        "params": {
          "owner": "contract owner",
          "pauser": "contract pauser",
          "router": "router contract address"
        }
      },
      "isPauser(address)": {
        "details": "whether the account is the contract pauser",
        "params": {
          "account": "address"
        },
        "returns": {
          "_0": "whether account is a pauser"
        }
      },
      "owner()": {
        "details": "Returns the address of the current owner."
      },
      "pause()": {
        "details": "pause the contract"
      },
      "paused()": {
        "details": "Returns true if the contract is paused, and false otherwise."
      },
      "poolInitWallet(address,bytes32,address,bytes)": {
        "details": "initialize wallet for the given account called by fund pool",
        "params": {
          "account": "user account",
          "provider": "provider address",
          "signature": "provider signature",
          "wallet": "account wallet"
        }
      },
      "registerAccount(bytes32)": {
        "details": "register account",
        "params": {
          "account": "user account"
        }
      },
      "registerAndDrip(address,bytes32,bytes,bytes)": {
        "details": "provider register and drip resource for multiple accounts",
        "params": {
          "account": "user account",
          "payload": "resource payloads",
          "provider": "provider address",
          "signature": "provider signature"
        }
      },
      "registerAndDripMult(bytes32[],(uint8,uint256[])[][])": {
        "details": "provider register and drip resource for multiple accounts",
        "params": {
          "accounts": "user accounts",
          "payloads": "resource amount payloads"
        }
      },
      "registerMult(bytes32[])": {
        "details": "register multiple account",
        "params": {
          "accounts": "user accounts"
        }
      },
      "removePauser(address)": {
        "details": "remove a pauser for the contract",
        "params": {
          "account": "address"
        }
      },
      "renounceOwnership()": {
        "details": "Leaves the contract without owner. It will not be possible to call `onlyOwner` functions anymore. Can only be called by the current owner. NOTE: Renouncing ownership will leave the contract without an owner, thereby removing any functionality that is only available to the owner."
      },
      "renouncePauser()": {
        "details": "remove a pauser for the contract"
      },
      "transferOwnership(address)": {
        "details": "Transfers ownership of the contract to a new account (`newOwner`). Can only be called by the current owner."
      },
      "transferWallet(address,bytes32,address)": {
        "details": "transfer wallet for the account",
        "params": {
          "account": "user account",
          "newWallet": "account wallet",
          "provider": "provider address"
        }
      },
      "unpause()": {
        "details": "unpause the contract"
      },
      "walletExists(address,bytes32)": {
        "details": "return whether wallet exists",
        "params": {
          "account": "user account",
          "provider": "provider address"
        },
        "returns": {
          "_0": "whether wallet exists"
        }
      },
      "walletOf(address,bytes32)": {
        "details": "return wallet for the account",
        "params": {
          "account": "user account",
          "provider": "provider address"
        },
        "returns": {
          "_0": "wallet for the account"
        }
      }
    },
    "version": 1
  },
  "userdoc": {
    "kind": "user",
    "methods": {},
    "version": 1
  },
  "storageLayout": {
    "storage": [
      {
        "astId": 147,
        "contract": "contracts/govers/ProviderControllerV2.sol:ProviderControllerV2",
        "label": "_initialized",
        "offset": 0,
        "slot": "0",
        "type": "t_uint8"
      },
      {
        "astId": 150,
        "contract": "contracts/govers/ProviderControllerV2.sol:ProviderControllerV2",
        "label": "_initializing",
        "offset": 1,
        "slot": "0",
        "type": "t_bool"
      },
      {
        "astId": 1738,
        "contract": "contracts/govers/ProviderControllerV2.sol:ProviderControllerV2",
        "label": "_HASHED_NAME",
        "offset": 0,
        "slot": "1",
        "type": "t_bytes32"
      },
      {
        "astId": 1740,
        "contract": "contracts/govers/ProviderControllerV2.sol:ProviderControllerV2",
        "label": "_HASHED_VERSION",
        "offset": 0,
        "slot": "2",
        "type": "t_bytes32"
      },
      {
        "astId": 1878,
        "contract": "contracts/govers/ProviderControllerV2.sol:ProviderControllerV2",
        "label": "__gap",
        "offset": 0,
        "slot": "3",
        "type": "t_array(t_uint256)50_storage"
      },
      {
        "astId": 1038,
        "contract": "contracts/govers/ProviderControllerV2.sol:ProviderControllerV2",
        "label": "__gap",
        "offset": 0,
        "slot": "53",
        "type": "t_array(t_uint256)50_storage"
      },
      {
        "astId": 10,
        "contract": "contracts/govers/ProviderControllerV2.sol:ProviderControllerV2",
        "label": "_owner",
        "offset": 0,
        "slot": "103",
        "type": "t_address"
      },
      {
        "astId": 122,
        "contract": "contracts/govers/ProviderControllerV2.sol:ProviderControllerV2",
        "label": "__gap",
        "offset": 0,
        "slot": "104",
        "type": "t_array(t_uint256)49_storage"
      },
      {
        "astId": 303,
        "contract": "contracts/govers/ProviderControllerV2.sol:ProviderControllerV2",
        "label": "_paused",
        "offset": 0,
        "slot": "153",
        "type": "t_bool"
      },
      {
        "astId": 392,
        "contract": "contracts/govers/ProviderControllerV2.sol:ProviderControllerV2",
        "label": "__gap",
        "offset": 0,
        "slot": "154",
        "type": "t_array(t_uint256)49_storage"
      },
      {
        "astId": 3817,
        "contract": "contracts/govers/ProviderControllerV2.sol:ProviderControllerV2",
        "label": "pausers",
        "offset": 0,
        "slot": "203",
        "type": "t_mapping(t_address,t_bool)"
      },
      {
        "astId": 6376,
        "contract": "contracts/govers/ProviderControllerV2.sol:ProviderControllerV2",
        "label": "router",
        "offset": 0,
        "slot": "204",
        "type": "t_contract(IRouter)7594"
      },
      {
        "astId": 4256,
        "contract": "contracts/govers/ProviderControllerV2.sol:ProviderControllerV2",
        "label": "accounts",
        "offset": 0,
        "slot": "205",
        "type": "t_mapping(t_address,t_mapping(t_bytes32,t_bool))"
      },
      {
        "astId": 4263,
        "contract": "contracts/govers/ProviderControllerV2.sol:ProviderControllerV2",
        "label": "wallets",
        "offset": 0,
        "slot": "206",
        "type": "t_mapping(t_address,t_mapping(t_bytes32,t_address))"
      },
      {
        "astId": 4267,
        "contract": "contracts/govers/ProviderControllerV2.sol:ProviderControllerV2",
        "label": "walletTypesHash",
        "offset": 0,
        "slot": "207",
        "type": "t_bytes32"
      },
      {
        "astId": 5420,
        "contract": "contracts/govers/ProviderControllerV2.sol:ProviderControllerV2",
        "label": "registerAndDripTypedHash",
        "offset": 0,
        "slot": "208",
        "type": "t_bytes32"
      },
      {
        "astId": 5424,
        "contract": "contracts/govers/ProviderControllerV2.sol:ProviderControllerV2",
        "label": "userRegistration",
        "offset": 0,
        "slot": "209",
        "type": "t_mapping(t_address,t_bytes32)"
      }
    ],
    "types": {
      "t_address": {
        "encoding": "inplace",
        "label": "address",
        "numberOfBytes": "20"
      },
      "t_array(t_uint256)49_storage": {
        "base": "t_uint256",
        "encoding": "inplace",
        "label": "uint256[49]",
        "numberOfBytes": "1568"
      },
      "t_array(t_uint256)50_storage": {
        "base": "t_uint256",
        "encoding": "inplace",
        "label": "uint256[50]",
        "numberOfBytes": "1600"
      },
      "t_bool": {
        "encoding": "inplace",
        "label": "bool",
        "numberOfBytes": "1"
      },
      "t_bytes32": {
        "encoding": "inplace",
        "label": "bytes32",
        "numberOfBytes": "32"
      },
      "t_contract(IRouter)7594": {
        "encoding": "inplace",
        "label": "contract IRouter",
        "numberOfBytes": "20"
      },
      "t_mapping(t_address,t_bool)": {
        "encoding": "mapping",
        "key": "t_address",
        "label": "mapping(address => bool)",
        "numberOfBytes": "32",
        "value": "t_bool"
      },
      "t_mapping(t_address,t_bytes32)": {
        "encoding": "mapping",
        "key": "t_address",
        "label": "mapping(address => bytes32)",
        "numberOfBytes": "32",
        "value": "t_bytes32"
      },
      "t_mapping(t_address,t_mapping(t_bytes32,t_address))": {
        "encoding": "mapping",
        "key": "t_address",
        "label": "mapping(address => mapping(bytes32 => address))",
        "numberOfBytes": "32",
        "value": "t_mapping(t_bytes32,t_address)"
      },
      "t_mapping(t_address,t_mapping(t_bytes32,t_bool))": {
        "encoding": "mapping",
        "key": "t_address",
        "label": "mapping(address => mapping(bytes32 => bool))",
        "numberOfBytes": "32",
        "value": "t_mapping(t_bytes32,t_bool)"
      },
      "t_mapping(t_bytes32,t_address)": {
        "encoding": "mapping",
        "key": "t_bytes32",
        "label": "mapping(bytes32 => address)",
        "numberOfBytes": "32",
        "value": "t_address"
      },
      "t_mapping(t_bytes32,t_bool)": {
        "encoding": "mapping",
        "key": "t_bytes32",
        "label": "mapping(bytes32 => bool)",
        "numberOfBytes": "32",
        "value": "t_bool"
      },
      "t_uint256": {
        "encoding": "inplace",
        "label": "uint256",
        "numberOfBytes": "32"
      },
      "t_uint8": {
        "encoding": "inplace",
        "label": "uint8",
        "numberOfBytes": "1"
      }
    }
  }
}