{
  "address": "0x7FFe3BA6B803cb19b17703aE05a1B2E3989d324F",
  "abi": [
    {
      "anonymous": false,
      "inputs": [
        {
          "indexed": false,
          "internalType": "address",
          "name": "provider",
          "type": "address"
        },
        {
          "indexed": false,
          "internalType": "bytes32",
          "name": "account",
          "type": "bytes32"
        }
      ],
      "name": "AccountRegistered",
      "type": "event"
    },
    {
      "anonymous": false,
      "inputs": [
        {
          "indexed": false,
          "internalType": "uint8",
          "name": "version",
          "type": "uint8"
        }
      ],
      "name": "Initialized",
      "type": "event"
    },
    {
      "anonymous": false,
      "inputs": [
        {
          "indexed": true,
          "internalType": "address",
          "name": "previousOwner",
          "type": "address"
        },
        {
          "indexed": true,
          "internalType": "address",
          "name": "newOwner",
          "type": "address"
        }
      ],
      "name": "OwnershipTransferred",
      "type": "event"
    },
    {
      "anonymous": false,
      "inputs": [
        {
          "indexed": false,
          "internalType": "address",
          "name": "account",
          "type": "address"
        }
      ],
      "name": "Paused",
      "type": "event"
    },
    {
      "anonymous": false,
      "inputs": [
        {
          "indexed": false,
          "internalType": "address",
          "name": "account",
          "type": "address"
        }
      ],
      "name": "PauserAdded",
      "type": "event"
    },
    {
      "anonymous": false,
      "inputs": [
        {
          "indexed": false,
          "internalType": "address",
          "name": "account",
          "type": "address"
        }
      ],
      "name": "PauserRemoved",
      "type": "event"
    },
    {
      "anonymous": false,
      "inputs": [
        {
          "indexed": false,
          "internalType": "address",
          "name": "provider",
          "type": "address"
        },
        {
          "indexed": false,
          "internalType": "bytes32",
          "name": "account",
          "type": "bytes32"
        }
      ],
      "name": "ProviderDripped",
      "type": "event"
    },
    {
      "anonymous": false,
      "inputs": [
        {
          "indexed": false,
          "internalType": "address",
          "name": "provider",
          "type": "address"
        },
        {
          "indexed": false,
          "internalType": "bytes32",
          "name": "account",
          "type": "bytes32"
        },
        {
          "indexed": false,
          "internalType": "uint256",
          "name": "nonce",
          "type": "uint256"
        }
      ],
      "name": "ProviderDripped",
      "type": "event"
    },
    {
      "anonymous": false,
      "inputs": [
        {
          "indexed": false,
          "internalType": "contract IRouter",
          "name": "router",
          "type": "address"
        }
      ],
      "name": "RouterUpdated",
      "type": "event"
    },
    {
      "anonymous": false,
      "inputs": [
        {
          "indexed": false,
          "internalType": "address",
          "name": "account",
          "type": "address"
        }
      ],
      "name": "Unpaused",
      "type": "event"
    },
    {
      "anonymous": false,
      "inputs": [
        {
          "indexed": false,
          "internalType": "address",
          "name": "provider",
          "type": "address"
        },
        {
          "indexed": false,
          "internalType": "bytes32",
          "name": "account",
          "type": "bytes32"
        },
        {
          "indexed": false,
          "internalType": "address",
          "name": "from",
          "type": "address"
        },
        {
          "indexed": false,
          "internalType": "address",
          "name": "to",
          "type": "address"
        }
      ],
      "name": "WalletTransferred",
      "type": "event"
    },
    {
      "anonymous": false,
      "inputs": [
        {
          "indexed": false,
          "internalType": "bytes32",
          "name": "hash",
          "type": "bytes32"
        }
      ],
      "name": "WalletTypesHashUpdated",
      "type": "event"
    },
    {
      "inputs": [
        {
          "internalType": "address",
          "name": "provider",
          "type": "address"
        },
        {
          "internalType": "bytes32",
          "name": "account",
          "type": "bytes32"
        }
      ],
      "name": "accountExists",
      "outputs": [
        {
          "internalType": "bool",
          "name": "",
          "type": "bool"
        }
      ],
      "stateMutability": "view",
      "type": "function"
    },
    {
      "inputs": [
        {
          "internalType": "address",
          "name": "account",
          "type": "address"
        }
      ],
      "name": "addPauser",
      "outputs": [],
      "stateMutability": "nonpayable",
      "type": "function"
    },
    {
      "inputs": [
        {
          "internalType": "bytes32",
          "name": "account",
          "type": "bytes32"
        },
        {
          "components": [
            {
              "internalType": "enum ResourceData.ResourceType",
              "name": "resourceType",
              "type": "uint8"
            },
            {
              "internalType": "uint256[]",
              "name": "amounts",
              "type": "uint256[]"
            }
          ],
          "internalType": "struct ResourceData.AmountPayload[]",
          "name": "payloads",
          "type": "tuple[]"
        }
      ],
      "name": "drip",
      "outputs": [],
      "stateMutability": "nonpayable",
      "type": "function"
    },
    {
      "inputs": [
        {
          "internalType": "bytes32[]",
          "name": "accounts",
          "type": "bytes32[]"
        },
        {
          "components": [
            {
              "internalType": "enum ResourceData.ResourceType",
              "name": "resourceType",
              "type": "uint8"
            },
            {
              "internalType": "uint256[]",
              "name": "amounts",
              "type": "uint256[]"
            }
          ],
          "internalType": "struct ResourceData.AmountPayload[][]",
          "name": "payloads",
          "type": "tuple[][]"
        },
        {
          "internalType": "uint256[]",
          "name": "nonces",
          "type": "uint256[]"
        }
      ],
      "name": "dripMult",
      "outputs": [],
      "stateMutability": "nonpayable",
      "type": "function"
    },
    {
      "inputs": [
        {
          "internalType": "bytes32[]",
          "name": "accounts",
          "type": "bytes32[]"
        },
        {
          "components": [
            {
              "internalType": "enum ResourceData.ResourceType",
              "name": "resourceType",
              "type": "uint8"
            },
            {
              "internalType": "uint256[]",
              "name": "amounts",
              "type": "uint256[]"
            }
          ],
          "internalType": "struct ResourceData.AmountPayload[][]",
          "name": "payloads",
          "type": "tuple[][]"
        }
      ],
      "name": "dripMult",
      "outputs": [],
      "stateMutability": "nonpayable",
      "type": "function"
    },
    {
      "inputs": [
        {
          "internalType": "address",
          "name": "provider",
          "type": "address"
        },
        {
          "internalType": "address",
          "name": "user",
          "type": "address"
        },
        {
          "internalType": "bytes32",
          "name": "account",
          "type": "bytes32"
        },
        {
          "internalType": "bytes",
          "name": "payload",
          "type": "bytes"
        }
      ],
      "name": "hashRegisterAndDripTypes",
      "outputs": [
        {
          "internalType": "bytes32",
          "name": "",
          "type": "bytes32"
        }
      ],
      "stateMutability": "view",
      "type": "function"
    },
    {
      "inputs": [
        {
          "internalType": "address",
          "name": "provider",
          "type": "address"
        },
        {
          "internalType": "bytes32",
          "name": "account",
          "type": "bytes32"
        }
      ],
      "name": "hashRegisterTypes",
      "outputs": [
        {
          "internalType": "bytes32",
          "name": "",
          "type": "bytes32"
        }
      ],
      "stateMutability": "view",
      "type": "function"
    },
    {
      "inputs": [
        {
          "internalType": "address",
          "name": "provider",
          "type": "address"
        },
        {
          "internalType": "bytes32",
          "name": "account",
          "type": "bytes32"
        }
      ],
      "name": "hashTypedDataV4ForRegister",
      "outputs": [
        {
          "internalType": "bytes32",
          "name": "",
          "type": "bytes32"
        }
      ],
      "stateMutability": "view",
      "type": "function"
    },
    {
      "inputs": [
        {
          "internalType": "address",
          "name": "provider",
          "type": "address"
        },
        {
          "internalType": "address",
          "name": "user",
          "type": "address"
        },
        {
          "internalType": "bytes32",
          "name": "account",
          "type": "bytes32"
        },
        {
          "internalType": "bytes",
          "name": "payload",
          "type": "bytes"
        }
      ],
      "name": "hashTypedDataV4ForRegisterAndDrip",
      "outputs": [
        {
          "internalType": "bytes32",
          "name": "",
          "type": "bytes32"
        }
      ],
      "stateMutability": "view",
      "type": "function"
    },
    {
      "inputs": [
        {
          "internalType": "address",
          "name": "provider",
          "type": "address"
        },
        {
          "internalType": "bytes32",
          "name": "account",
          "type": "bytes32"
        },
        {
          "internalType": "address",
          "name": "wallet",
          "type": "address"
        }
      ],
      "name": "hashTypedDataV4ForWallet",
      "outputs": [
        {
          "internalType": "bytes32",
          "name": "",
          "type": "bytes32"
        }
      ],
      "stateMutability": "view",
      "type": "function"
    },
    {
      "inputs": [
        {
          "internalType": "address",
          "name": "provider",
          "type": "address"
        },
        {
          "internalType": "bytes32",
          "name": "account",
          "type": "bytes32"
        },
        {
          "internalType": "address",
          "name": "wallet",
          "type": "address"
        }
      ],
      "name": "hashWalletTypes",
      "outputs": [
        {
          "internalType": "bytes32",
          "name": "",
          "type": "bytes32"
        }
      ],
      "stateMutability": "view",
      "type": "function"
    },
    {
      "inputs": [
        {
          "internalType": "address",
          "name": "provider",
          "type": "address"
        },
        {
          "internalType": "bytes32",
          "name": "account",
          "type": "bytes32"
        },
        {
          "internalType": "address",
          "name": "wallet",
          "type": "address"
        },
        {
          "internalType": "bytes",
          "name": "signature",
          "type": "bytes"
        }
      ],
      "name": "initWallet",
      "outputs": [],
      "stateMutability": "nonpayable",
      "type": "function"
    },
    {
      "inputs": [
        {
          "internalType": "address",
          "name": "owner",
          "type": "address"
        },
        {
          "internalType": "address",
          "name": "pauser",
          "type": "address"
        },
        {
          "internalType": "string",
          "name": "name",
          "type": "string"
        },
        {
          "internalType": "string",
          "name": "version",
          "type": "string"
        },
        {
          "internalType": "string",
          "name": "walletTypes",
          "type": "string"
        },
        {
          "internalType": "contract IRouter",
          "name": "router",
          "type": "address"
        }
      ],
      "name": "initialize",
      "outputs": [],
      "stateMutability": "nonpayable",
      "type": "function"
    },
    {
      "inputs": [
        {
          "internalType": "string",
          "name": "name",
          "type": "string"
        },
        {
          "internalType": "string",
          "name": "version",
          "type": "string"
        },
        {
          "internalType": "string",
          "name": "types",
          "type": "string"
        }
      ],
      "name": "initializeEIP712",
      "outputs": [],
      "stateMutability": "nonpayable",
      "type": "function"
    },
    {
      "inputs": [
        {
          "internalType": "string",
          "name": "types",
          "type": "string"
        }
      ],
      "name": "initializeRegisterTypedHash",
      "outputs": [],
      "stateMutability": "nonpayable",
      "type": "function"
    },
    {
      "inputs": [
        {
          "internalType": "address",
          "name": "account",
          "type": "address"
        }
      ],
      "name": "isPauser",
      "outputs": [
        {
          "internalType": "bool",
          "name": "",
          "type": "bool"
        }
      ],
      "stateMutability": "view",
      "type": "function"
    },
    {
      "inputs": [],
      "name": "owner",
      "outputs": [
        {
          "internalType": "address",
          "name": "",
          "type": "address"
        }
      ],
      "stateMutability": "view",
      "type": "function"
    },
    {
      "inputs": [],
      "name": "pause",
      "outputs": [],
      "stateMutability": "nonpayable",
      "type": "function"
    },
    {
      "inputs": [],
      "name": "paused",
      "outputs": [
        {
          "internalType": "bool",
          "name": "",
          "type": "bool"
        }
      ],
      "stateMutability": "view",
      "type": "function"
    },
    {
      "inputs": [
        {
          "internalType": "address",
          "name": "",
          "type": "address"
        }
      ],
      "name": "pausers",
      "outputs": [
        {
          "internalType": "bool",
          "name": "",
          "type": "bool"
        }
      ],
      "stateMutability": "view",
      "type": "function"
    },
    {
      "inputs": [
        {
          "internalType": "address",
          "name": "provider",
          "type": "address"
        },
        {
          "internalType": "bytes32",
          "name": "account",
          "type": "bytes32"
        },
        {
          "internalType": "address",
          "name": "wallet",
          "type": "address"
        },
        {
          "internalType": "bytes",
          "name": "signature",
          "type": "bytes"
        }
      ],
      "name": "poolInitWallet",
      "outputs": [],
      "stateMutability": "nonpayable",
      "type": "function"
    },
    {
      "inputs": [
        {
          "internalType": "address",
          "name": "provider",
          "type": "address"
        },
        {
          "internalType": "bytes32",
          "name": "account",
          "type": "bytes32"
        },
        {
          "internalType": "bytes",
          "name": "signature",
          "type": "bytes"
        }
      ],
      "name": "registerAccount",
      "outputs": [],
      "stateMutability": "nonpayable",
      "type": "function"
    },
    {
      "inputs": [
        {
          "internalType": "bytes32",
          "name": "account",
          "type": "bytes32"
        }
      ],
      "name": "registerAccount",
      "outputs": [],
      "stateMutability": "nonpayable",
      "type": "function"
    },
    {
      "inputs": [
        {
          "internalType": "address",
          "name": "provider",
          "type": "address"
        },
        {
          "internalType": "bytes32",
          "name": "account",
          "type": "bytes32"
        },
        {
          "internalType": "bytes",
          "name": "payload",
          "type": "bytes"
        },
        {
          "internalType": "bytes",
          "name": "signature",
          "type": "bytes"
        }
      ],
      "name": "registerAndDrip",
      "outputs": [],
      "stateMutability": "nonpayable",
      "type": "function"
    },
    {
      "inputs": [
        {
          "internalType": "bytes32[]",
          "name": "accounts",
          "type": "bytes32[]"
        },
        {
          "components": [
            {
              "internalType": "enum ResourceData.ResourceType",
              "name": "resourceType",
              "type": "uint8"
            },
            {
              "internalType": "uint256[]",
              "name": "amounts",
              "type": "uint256[]"
            }
          ],
          "internalType": "struct ResourceData.AmountPayload[][]",
          "name": "payloads",
          "type": "tuple[][]"
        }
      ],
      "name": "registerAndDripMult",
      "outputs": [],
      "stateMutability": "nonpayable",
      "type": "function"
    },
    {
      "inputs": [],
      "name": "registerAndDripTypedHash",
      "outputs": [
        {
          "internalType": "bytes32",
          "name": "",
          "type": "bytes32"
        }
      ],
      "stateMutability": "view",
      "type": "function"
    },
    {
      "inputs": [
        {
          "internalType": "bytes32[]",
          "name": "accounts",
          "type": "bytes32[]"
        }
      ],
      "name": "registerMult",
      "outputs": [],
      "stateMutability": "nonpayable",
      "type": "function"
    },
    {
      "inputs": [],
      "name": "registerTypedHash",
      "outputs": [
        {
          "internalType": "bytes32",
          "name": "",
          "type": "bytes32"
        }
      ],
      "stateMutability": "view",
      "type": "function"
    },
    {
      "inputs": [
        {
          "internalType": "address",
          "name": "account",
          "type": "address"
        }
      ],
      "name": "removePauser",
      "outputs": [],
      "stateMutability": "nonpayable",
      "type": "function"
    },
    {
      "inputs": [],
      "name": "renounceOwnership",
      "outputs": [],
      "stateMutability": "nonpayable",
      "type": "function"
    },
    {
      "inputs": [],
      "name": "renouncePauser",
      "outputs": [],
      "stateMutability": "nonpayable",
      "type": "function"
    },
    {
      "inputs": [],
      "name": "router",
      "outputs": [
        {
          "internalType": "contract IRouter",
          "name": "",
          "type": "address"
        }
      ],
      "stateMutability": "view",
      "type": "function"
    },
    {
      "inputs": [
        {
          "internalType": "address",
          "name": "newOwner",
          "type": "address"
        }
      ],
      "name": "transferOwnership",
      "outputs": [],
      "stateMutability": "nonpayable",
      "type": "function"
    },
    {
      "inputs": [
        {
          "internalType": "address",
          "name": "provider",
          "type": "address"
        },
        {
          "internalType": "bytes32",
          "name": "account",
          "type": "bytes32"
        },
        {
          "internalType": "address",
          "name": "newWallet",
          "type": "address"
        }
      ],
      "name": "transferWallet",
      "outputs": [],
      "stateMutability": "nonpayable",
      "type": "function"
    },
    {
      "inputs": [],
      "name": "unpause",
      "outputs": [],
      "stateMutability": "nonpayable",
      "type": "function"
    },
    {
      "inputs": [
        {
          "internalType": "address",
          "name": "",
          "type": "address"
        }
      ],
      "name": "userRegistration",
      "outputs": [
        {
          "internalType": "bytes32",
          "name": "",
          "type": "bytes32"
        }
      ],
      "stateMutability": "view",
      "type": "function"
    },
    {
      "inputs": [
        {
          "internalType": "address",
          "name": "provider",
          "type": "address"
        },
        {
          "internalType": "bytes32",
          "name": "account",
          "type": "bytes32"
        }
      ],
      "name": "walletExists",
      "outputs": [
        {
          "internalType": "bool",
          "name": "",
          "type": "bool"
        }
      ],
      "stateMutability": "view",
      "type": "function"
    },
    {
      "inputs": [
        {
          "internalType": "address",
          "name": "provider",
          "type": "address"
        },
        {
          "internalType": "bytes32",
          "name": "account",
          "type": "bytes32"
        }
      ],
      "name": "walletOf",
      "outputs": [
        {
          "internalType": "address",
          "name": "",
          "type": "address"
        }
      ],
      "stateMutability": "view",
      "type": "function"
    },
    {
      "inputs": [],
      "name": "walletTypesHash",
      "outputs": [
        {
          "internalType": "bytes32",
          "name": "",
          "type": "bytes32"
        }
      ],
      "stateMutability": "view",
      "type": "function"
    }
  ],
  "transactionHash": "0x346fe995f10e1f03ae244cd99a53f57bc76c3edbdd93509daf1c096fd5a9f112",
  "args": [],
  "numDeployments": 1,
  "solcInputHash": "060038dc8f02548c54f8d43408b5c7f5",
  "bytecode": "0x60806040523480156200001157600080fd5b5060006200002060016200008e565b9050801562000039576000805461ff0019166101001790555b801562000087576000805461ff00191690556040517f7f26b83ff96e1f2b6a682f133852f6798a09c465da95921460cefb3847402498906200007e9060019062000168565b60405180910390a15b50620001cb565b60008054610100900460ff1615620000f7578160ff166001148015620000c75750620000c5306200013b60201b62001a001760201c565b155b620000ef5760405162461bcd60e51b8152600401620000e69062000178565b60405180910390fd5b506000919050565b60005460ff808416911610620001215760405162461bcd60e51b8152600401620000e69062000178565b506000805460ff191660ff92909216919091179055600190565b6001600160a01b03163b151590565b600060ff82165b92915050565b62000162816200014a565b82525050565b6020810162000151828462000157565b602080825281016200015181602e81527f496e697469616c697a61626c653a20636f6e747261637420697320616c72656160208201526d191e481a5b9a5d1a585b1a5e995960921b604082015260600190565b61436580620001db6000396000f3fe608060405234801561001057600080fd5b506004361061023c5760003560e01c806382dc1ec41161013b578063b531303f116100b8578063f2db2fa01161007c578063f2db2fa0146104cc578063f2fde38b146104d5578063f5efc8e1146104e8578063f887ea40146104fb578063fae823751461051b57600080fd5b8063b531303f14610477578063d697e2c21461048a578063d6f0362e14610493578063dcccb5dc146104a6578063f2db0f42146104b957600080fd5b80639ab07558116100ff5780639ab07558146104155780639ba72cb814610435578063a006410814610448578063a75d2f2c14610451578063ad777b631461046457600080fd5b806382dc1ec4146103c357806382f19cf7146103d65780638456cb59146103e95780638da5cb5b146103f15780639412cbe51461040257600080fd5b806346fbf68e116101c95780636ef8d66d1161018d5780636ef8d66d1461035d578063715018a614610365578063718bb2f31461036d57806372d9e80e1461038057806380f51c12146103a057600080fd5b806346fbf68e146103065780635c975abb146103195780635ce537f9146103245780635db568a8146103375780636b2c0f551461034a57600080fd5b806320898a781161021057806320898a78146102a55780632d529764146102b85780633078a6e8146102d85780633f4ba83a146102eb57806345237f1c146102f357600080fd5b8062c1b50a1461024157806314e8099d1461025657806317c2107f146102695780631ac84da114610292575b600080fd5b61025461024f366004612a06565b61052e565b005b610254610264366004612c63565b61057f565b61027c610277366004612d50565b6106a7565b6040516102899190612dd6565b60405180910390f35b6102546102a0366004612eea565b6106c8565b6102546102b3366004612f7d565b6108bf565b6102cb6102c6366004612fb7565b610a18565b6040516102899190612ff2565b6102546102e6366004613000565b610b5b565b610254610d31565b610254610301366004613085565b610d60565b6102cb61031436600461315d565b610e06565b60995460ff166102cb565b61027c610332366004612fb7565b610e24565b61025461034536600461317e565b610e3a565b61025461035836600461315d565b61107c565b6102546110b2565b6102546110bb565b61025461037b36600461317e565b6110ef565b61039361038e366004612fb7565b611117565b60405161028991906131ce565b6102cb6103ae36600461315d565b60cb6020526000908152604090205460ff1681565b6102546103d136600461315d565b611168565b6102546103e43660046131dc565b61119b565b6102546112d6565b6067546001600160a01b0316610393565b61025461041036600461323c565b611303565b61027c61042336600461315d565b60d16020526000908152604090205481565b6102cb610443366004612fb7565b6113d5565b61027c60cf5481565b61027c61045f366004612d50565b6113ff565b61027c610472366004612fb7565b611443565b610254610485366004613000565b61147a565b61027c60d25481565b61027c6104a1366004612a06565b61163f565b61027c6104b4366004612a06565b61164b565b6102546104c73660046132a4565b611685565b61027c60d05481565b6102546104e336600461315d565b6117ab565b6102546104f63660046132c5565b611804565b60cc5461050e906001600160a01b031681565b6040516102899190613313565b610254610529366004613321565b61185a565b600061053a8484611117565b9050336001600160a01b0382161461056d5760405162461bcd60e51b8152600401610564906133d6565b60405180910390fd5b61057984848385611a0f565b50505050565b60cc54604080516314b47ed960e31b815290516000926001600160a01b03169163a5a3f6c8916004808301926020929190829003018186803b1580156105c457600080fd5b505afa1580156105d8573d6000803e3d6000fd5b505050506040513d601f19601f820116820180604052508101906105fc91906133f1565b604051636b074a0760e01b81529091506001600160a01b03821690636b074a079061062b9033906004016131ce565b60206040518083038186803b15801561064357600080fd5b505afa158015610657573d6000803e3d6000fd5b505050506040513d601f19601f8201168201806040525081019061067b9190613425565b6106975760405162461bcd60e51b81526004016105649061348c565b6106a2338484611a8d565b505050565b60006106bd6106b8868686866113ff565b611f05565b90505b949350505050565b60cc54604080516314b47ed960e31b815290516000926001600160a01b03169163a5a3f6c8916004808301926020929190829003018186803b15801561070d57600080fd5b505afa158015610721573d6000803e3d6000fd5b505050506040513d601f19601f8201168201806040525081019061074591906133f1565b604051636b074a0760e01b81529091506001600160a01b03821690636b074a07906107749033906004016131ce565b60206040518083038186803b15801561078c57600080fd5b505afa1580156107a0573d6000803e3d6000fd5b505050506040513d601f19601f820116820180604052508101906107c49190613425565b6107e05760405162461bcd60e51b81526004016105649061348c565b60008451116108015760405162461bcd60e51b8152600401610564906134e4565b60008351116108225760405162461bcd60e51b81526004016105649061353c565b82518451146108435760405162461bcd60e51b815260040161056490613599565b60005b84518110156108b8576108a633868381518110610865576108656135a9565b602002602001015186848151811061087f5761087f6135a9565b6020026020010151868581518110610899576108996135a9565b6020026020010151611f18565b806108b0816135d5565b915050610846565b5050505050565b60cc54604080516314b47ed960e31b815290516000926001600160a01b03169163a5a3f6c8916004808301926020929190829003018186803b15801561090457600080fd5b505afa158015610918573d6000803e3d6000fd5b505050506040513d601f19601f8201168201806040525081019061093c91906133f1565b604051636b074a0760e01b81529091506001600160a01b03821690636b074a079061096b9033906004016131ce565b60206040518083038186803b15801561098357600080fd5b505afa158015610997573d6000803e3d6000fd5b505050506040513d601f19601f820116820180604052508101906109bb9190613425565b6109d75760405162461bcd60e51b81526004016105649061348c565b60005b82518110156106a257610a06338483815181106109f9576109f96135a9565b602002602001015161236d565b80610a10816135d5565b9150506109da565b60cc54604080516314b47ed960e31b815290516000926001600160a01b03169163a5a3f6c8916004808301926020929190829003018186803b158015610a5d57600080fd5b505afa158015610a71573d6000803e3d6000fd5b505050506040513d601f19601f82011682018060405250810190610a9591906133f1565b6001600160a01b0316636b074a07846040518263ffffffff1660e01b8152600401610ac091906131ce565b60206040518083038186803b158015610ad857600080fd5b505afa158015610aec573d6000803e3d6000fd5b505050506040513d601f19601f82011682018060405250810190610b109190613425565b610b2c5760405162461bcd60e51b815260040161056490613635565b506001600160a01b038216600090815260cd6020908152604080832084845290915290205460ff165b92915050565b60cc54604080516314b47ed960e31b815290516000926001600160a01b03169163a5a3f6c8916004808301926020929190829003018186803b158015610ba057600080fd5b505afa158015610bb4573d6000803e3d6000fd5b505050506040513d601f19601f82011682018060405250810190610bd891906133f1565b604051636b074a0760e01b81529091506001600160a01b03821690636b074a0790610c079033906004016131ce565b60206040518083038186803b158015610c1f57600080fd5b505afa158015610c33573d6000803e3d6000fd5b505050506040513d601f19601f82011682018060405250810190610c579190613425565b610c735760405162461bcd60e51b81526004016105649061348c565b6000835111610c945760405162461bcd60e51b8152600401610564906134e4565b6000825111610cb55760405162461bcd60e51b81526004016105649061353c565b8151835114610cd65760405162461bcd60e51b815260040161056490613599565b60005b835181101561057957610d1f33858381518110610cf857610cf86135a9565b6020026020010151858481518110610d1257610d126135a9565b6020026020010151611a8d565b80610d29816135d5565b915050610cd9565b610d3a33610e06565b610d565760405162461bcd60e51b81526004016105649061367a565b610d5e61251d565b565b6000610d6c6001612583565b90508015610d84576000805461ff0019166101001790555b610d8d87612610565b610d9686612662565b610da08585612689565b610da9836126ba565b610db2826126f1565b8015610dfd576000805461ff00191690556040517f7f26b83ff96e1f2b6a682f133852f6798a09c465da95921460cefb384740249890610df49060019061369e565b60405180910390a15b50505050505050565b6001600160a01b0316600090815260cb602052604090205460ff1690565b6000610e336106b88484611443565b9392505050565b60cc60009054906101000a90046001600160a01b03166001600160a01b031663e70b7acb6040518163ffffffff1660e01b815260040160206040518083038186803b158015610e8857600080fd5b505afa158015610e9c573d6000803e3d6000fd5b505050506040513d601f19601f82011682018060405250810190610ec091906133f1565b6001600160a01b0316336001600160a01b031614610ef05760405162461bcd60e51b8152600401610564906136f4565b610efa8484610a18565b610f165760405162461bcd60e51b815260040161056490613748565b610f2084846113d5565b15610f3d5760405162461bcd60e51b815260040161056490613796565b6000610f4a85858561163f565b905060cc60009054906101000a90046001600160a01b03166001600160a01b031663a5a3f6c86040518163ffffffff1660e01b815260040160206040518083038186803b158015610f9a57600080fd5b505afa158015610fae573d6000803e3d6000fd5b505050506040513d601f19601f82011682018060405250810190610fd291906133f1565b6001600160a01b031663238a4d1e8683856040518463ffffffff1660e01b815260040161100193929190613804565b602060405180830381600087803b15801561101b57600080fd5b505af115801561102f573d6000803e3d6000fd5b505050506040513d601f19601f820116820180604052508101906110539190613425565b61106f5760405162461bcd60e51b815260040161056490613873565b6108b88585600086611a0f565b6067546001600160a01b031633146110a65760405162461bcd60e51b8152600401610564906138b5565b6110af81612721565b50565b610d5e33612721565b6067546001600160a01b031633146110e55760405162461bcd60e51b8152600401610564906138b5565b610d5e6000612610565b336001600160a01b03831614610ef05760405162461bcd60e51b81526004016105649061390e565b600061112383836113d5565b61113f5760405162461bcd60e51b815260040161056490613961565b506001600160a01b03918216600090815260ce6020908152604080832093835292905220541690565b6067546001600160a01b031633146111925760405162461bcd60e51b8152600401610564906138b5565b6110af816127a1565b60006111a78484610e24565b905060cc60009054906101000a90046001600160a01b03166001600160a01b031663a5a3f6c86040518163ffffffff1660e01b815260040160206040518083038186803b1580156111f757600080fd5b505afa15801561120b573d6000803e3d6000fd5b505050506040513d601f19601f8201168201806040525081019061122f91906133f1565b6001600160a01b031663238a4d1e8583856040518463ffffffff1660e01b815260040161125e93929190613804565b602060405180830381600087803b15801561127857600080fd5b505af115801561128c573d6000803e3d6000fd5b505050506040513d601f19601f820116820180604052508101906112b09190613425565b6112cc5760405162461bcd60e51b8152600401610564906139c1565b610579848461236d565b6112df33610e06565b6112fb5760405162461bcd60e51b81526004016105649061367a565b610d5e61281a565b7fb53127684a568b3173ae13b9f8a6016e243e63b6e8ee1178d6a717850b5d6103546001600160a01b0316331461134c5760405162461bcd60e51b815260040161056490613a13565b6003600061135982612583565b90508015611371576000805461ff0019166101001790555b61137b8585612689565b8251602084012060d05580156108b8576000805461ff00191690556040517f7f26b83ff96e1f2b6a682f133852f6798a09c465da95921460cefb3847402498906113c6908490613a2c565b60405180910390a15050505050565b6001600160a01b03918216600090815260ce60209081526040808320938352929052205416151590565b600060d0548585858580519060200120604051602001611423959493929190613a3a565b604051602081830303815290604052805190602001209050949350505050565b600060d254838360405160200161145c93929190613a86565b60405160208183030381529060405280519060200120905092915050565b60cc54604080516314b47ed960e31b815290516000926001600160a01b03169163a5a3f6c8916004808301926020929190829003018186803b1580156114bf57600080fd5b505afa1580156114d3573d6000803e3d6000fd5b505050506040513d601f19601f820116820180604052508101906114f791906133f1565b604051636b074a0760e01b81529091506001600160a01b03821690636b074a07906115269033906004016131ce565b60206040518083038186803b15801561153e57600080fd5b505afa158015611552573d6000803e3d6000fd5b505050506040513d601f19601f820116820180604052508101906115769190613425565b6115925760405162461bcd60e51b81526004016105649061348c565b60008351116115b35760405162461bcd60e51b8152600401610564906134e4565b60008251116115d45760405162461bcd60e51b81526004016105649061353c565b81518351146115f55760405162461bcd60e51b815260040161056490613599565b60005b835181101561057957611617338583815181106109f9576109f96135a9565b61162d33858381518110610cf857610cf86135a9565b80611637816135d5565b9150506115f8565b60006106c06106b88585855b600060cf548484846040516020016116669493929190613aae565b6040516020818303038152906040528051906020012090509392505050565b60cc54604080516314b47ed960e31b815290516000926001600160a01b03169163a5a3f6c8916004808301926020929190829003018186803b1580156116ca57600080fd5b505afa1580156116de573d6000803e3d6000fd5b505050506040513d601f19601f8201168201806040525081019061170291906133f1565b604051636b074a0760e01b81529091506001600160a01b03821690636b074a07906117319033906004016131ce565b60206040518083038186803b15801561174957600080fd5b505afa15801561175d573d6000803e3d6000fd5b505050506040513d601f19601f820116820180604052508101906117819190613425565b61179d5760405162461bcd60e51b81526004016105649061348c565b6117a7338361236d565b5050565b6067546001600160a01b031633146117d55760405162461bcd60e51b8152600401610564906138b5565b6001600160a01b0381166117fb5760405162461bcd60e51b815260040161056490613b2f565b6110af81612610565b7fb53127684a568b3173ae13b9f8a6016e243e63b6e8ee1178d6a717850b5d6103546001600160a01b0316331461184d5760405162461bcd60e51b815260040161056490613a13565b805160209091012060d255565b33600090815260d16020526040902054156118875760405162461bcd60e51b815260040161056490613b8c565b6000611895853386866106a7565b905060cc60009054906101000a90046001600160a01b03166001600160a01b031663a5a3f6c86040518163ffffffff1660e01b815260040160206040518083038186803b1580156118e557600080fd5b505afa1580156118f9573d6000803e3d6000fd5b505050506040513d601f19601f8201168201806040525081019061191d91906133f1565b6001600160a01b031663238a4d1e8683856040518463ffffffff1660e01b815260040161194c93929190613804565b602060405180830381600087803b15801561196657600080fd5b505af115801561197a573d6000803e3d6000fd5b505050506040513d601f19601f8201168201806040525081019061199e9190613425565b6119ba5760405162461bcd60e51b815260040161056490613be0565b33600090815260d160209081526040822086905584516119e1919086018101908601613d64565b90506119ed868661236d565b6119f8868683611a8d565b505050505050565b6001600160a01b03163b151590565b6001600160a01b03848116600090815260ce602090815260408083208784529091529081902080546001600160a01b03191692841692909217909155517f3848c851d32f9ec4e5737cee35fe6816770cfbcfd0096097933c80ffa0bc7c2890611a7f908690869086908690613d9e565b60405180910390a150505050565b611a978383610a18565b611ab35760405162461bcd60e51b815260040161056490613748565b6000815111611ad45760405162461bcd60e51b815260040161056490613e05565b60005b8151811015611ec6576000828281518110611af457611af46135a9565b602090810291909101015180519091506001816004811115611b1857611b18613e15565b1415611c4d57816020015151600114611b435760405162461bcd60e51b815260040161056490613e73565b60cc60009054906101000a90046001600160a01b03166001600160a01b03166322b31aba6040518163ffffffff1660e01b815260040160206040518083038186803b158015611b9157600080fd5b505afa158015611ba5573d6000803e3d6000fd5b505050506040513d601f19601f82011682018060405250810190611bc991906133f1565b6001600160a01b031663da5001a587878560200151600081518110611bf057611bf06135a9565b60200260200101516040518463ffffffff1660e01b8152600401611c1693929190613e83565b600060405180830381600087803b158015611c3057600080fd5b505af1158015611c44573d6000803e3d6000fd5b50505050611eb1565b6002816004811115611c6157611c61613e15565b1415611cda57816020015151600114611c8c5760405162461bcd60e51b815260040161056490613ee6565b60cc60009054906101000a90046001600160a01b03166001600160a01b031663f931ca566040518163ffffffff1660e01b815260040160206040518083038186803b158015611b9157600080fd5b6003816004811115611cee57611cee613e15565b1415611d6757816020015151600114611d195760405162461bcd60e51b815260040161056490613f3e565b60cc60009054906101000a90046001600160a01b03166001600160a01b031663a2d2f2db6040518163ffffffff1660e01b815260040160206040518083038186803b158015611b9157600080fd5b6004816004811115611d7b57611d7b613e15565b1415611e9957816020015151600214611da65760405162461bcd60e51b815260040161056490613f96565b60cc60009054906101000a90046001600160a01b03166001600160a01b031663740e80616040518163ffffffff1660e01b815260040160206040518083038186803b158015611df457600080fd5b505afa158015611e08573d6000803e3d6000fd5b505050506040513d601f19601f82011682018060405250810190611e2c91906133f1565b6001600160a01b031663ed38118887878560200151600081518110611e5357611e536135a9565b60200260200101518660200151600181518110611e7257611e726135a9565b60200260200101516040518563ffffffff1660e01b8152600401611c169493929190613fa6565b60405162461bcd60e51b815260040161056490614021565b50508080611ebe906135d5565b915050611ad7565b507f0cc4f008775f50ff94480b827bff217f10b555c53b83873f4cd0918a9c241ae48383604051611ef8929190614031565b60405180910390a1505050565b6000610b55611f12612872565b836128ae565b611f228484610a18565b611f3e5760405162461bcd60e51b815260040161056490613748565b6000825111611f5f5760405162461bcd60e51b815260040161056490613e05565b60005b8251811015612339576000838281518110611f7f57611f7f6135a9565b602090810291909101015180519091506001816004811115611fa357611fa3613e15565b14156120d857816020015151600114611fce5760405162461bcd60e51b815260040161056490613e73565b60cc60009054906101000a90046001600160a01b03166001600160a01b03166322b31aba6040518163ffffffff1660e01b815260040160206040518083038186803b15801561201c57600080fd5b505afa158015612030573d6000803e3d6000fd5b505050506040513d601f19601f8201168201806040525081019061205491906133f1565b6001600160a01b031663da5001a58888856020015160008151811061207b5761207b6135a9565b60200260200101516040518463ffffffff1660e01b81526004016120a193929190613e83565b600060405180830381600087803b1580156120bb57600080fd5b505af11580156120cf573d6000803e3d6000fd5b50505050612324565b60028160048111156120ec576120ec613e15565b1415612165578160200151516001146121175760405162461bcd60e51b815260040161056490613ee6565b60cc60009054906101000a90046001600160a01b03166001600160a01b031663f931ca566040518163ffffffff1660e01b815260040160206040518083038186803b15801561201c57600080fd5b600381600481111561217957612179613e15565b14156121f2578160200151516001146121a45760405162461bcd60e51b815260040161056490613f3e565b60cc60009054906101000a90046001600160a01b03166001600160a01b031663a2d2f2db6040518163ffffffff1660e01b815260040160206040518083038186803b15801561201c57600080fd5b600481600481111561220657612206613e15565b1415611e99578160200151516002146122315760405162461bcd60e51b815260040161056490613f96565b60cc60009054906101000a90046001600160a01b03166001600160a01b031663740e80616040518163ffffffff1660e01b815260040160206040518083038186803b15801561227f57600080fd5b505afa158015612293573d6000803e3d6000fd5b505050506040513d601f19601f820116820180604052508101906122b791906133f1565b6001600160a01b031663ed381188888885602001516000815181106122de576122de6135a9565b602002602001015186602001516001815181106122fd576122fd6135a9565b60200260200101516040518563ffffffff1660e01b81526004016120a19493929190613fa6565b50508080612331906135d5565b915050611f62565b507faafd7e80d52b65053b760ea122566df828fbe3e57fadd8ab7b473e4b6dc27920848483604051611a7f93929190613e83565b6123778282610a18565b156123945760405162461bcd60e51b81526004016105649061408b565b60cc60009054906101000a90046001600160a01b03166001600160a01b031663a5a3f6c86040518163ffffffff1660e01b815260040160206040518083038186803b1580156123e257600080fd5b505afa1580156123f6573d6000803e3d6000fd5b505050506040513d601f19601f8201168201806040525081019061241a91906133f1565b6001600160a01b0316636b074a07836040518263ffffffff1660e01b815260040161244591906131ce565b60206040518083038186803b15801561245d57600080fd5b505afa158015612471573d6000803e3d6000fd5b505050506040513d601f19601f820116820180604052508101906124959190613425565b6124b15760405162461bcd60e51b815260040161056490613635565b6001600160a01b038216600090815260cd6020908152604080832084845290915290819020805460ff19166001179055517f672144042732f7b1cdbf0772464ae545aedd7f41d38b8487dafd9085496a5d51906125119084908490614031565b60405180910390a15050565b60995460ff1661253f5760405162461bcd60e51b8152600401610564906140c6565b6099805460ff191690557f5db9ee0a495bf2e6ff9c91a7834c1ba4fdd244a5e8aa4e537bd38aeae4b073aa335b60405161257991906131ce565b60405180910390a1565b60008054610100900460ff16156125ca578160ff1660011480156125a65750303b155b6125c25760405162461bcd60e51b815260040161056490614121565b506000919050565b60005460ff8084169116106125f15760405162461bcd60e51b815260040161056490614121565b506000805460ff191660ff92909216919091179055600190565b919050565b606780546001600160a01b038381166001600160a01b0319831681179093556040519116919082907f8be0079c531659141344cd1fd0a4f28419497f9722a3daafe3b4186f6b6457e090600090a35050565b600054610100900460ff166111925760405162461bcd60e51b815260040161056490614179565b600054610100900460ff166126b05760405162461bcd60e51b815260040161056490614179565b6117a782826128c3565b600054610100900460ff166126e15760405162461bcd60e51b815260040161056490614179565b6110af8180519060200120612904565b600054610100900460ff166127185760405162461bcd60e51b815260040161056490614179565b6110af81612939565b61272a81610e06565b6127465760405162461bcd60e51b8152600401610564906141bd565b6001600160a01b038116600090815260cb602052604090819020805460ff19169055517fcd265ebaf09df2871cc7bd4133404a235ba12eff2041bb89d9c714a2621c7c7e906127969083906131ce565b60405180910390a150565b6127aa81610e06565b156127c75760405162461bcd60e51b81526004016105649061420b565b6001600160a01b038116600090815260cb602052604090819020805460ff19166001179055517f6719d08c1888103bea251a4ed56406bd0c3e69723c8a1686e017e7bbe159b6f8906127969083906131ce565b60995460ff161561283d5760405162461bcd60e51b815260040161056490614242565b6099805460ff191660011790557f62e78cea01bee320cd4e420270b5ea74000d11b0c9f74754ebdbfc544b05a25861256c3390565b60006128a97f8b73c3c69bb8fe3d512ecc4cf759cc79239f7b179b0ffacaa9a75d522b39400f6128a160015490565b6002546129aa565b905090565b6000828260405160200161145c929190614258565b600054610100900460ff166128ea5760405162461bcd60e51b815260040161056490614179565b815160209283012081519190920120600191909155600255565b60cf8190556040517fd5b7aa922fbc99b384e2da1530298f9f1f39cbaafe5584138c9a7031f594a34f90612796908390612dd6565b6001600160a01b03811661295f5760405162461bcd60e51b8152600401610564906142bd565b60cc80546001600160a01b0319166001600160a01b0383161790556040517f7aed1d3e8155a07ccf395e44ea3109a0e2d6c9b29bbbe9f142d9790596f4dc8090612796908390613313565b600083838346306040516020016116669594939291906142cd565b60006001600160a01b038216610b55565b6129df816129c5565b81146110af57600080fd5b8035610b55816129d6565b806129df565b8035610b55816129f5565b600080600060608486031215612a1e57612a1e600080fd5b6000612a2a86866129ea565b9350506020612a3b868287016129fb565b9250506040612a4c868287016129ea565b9150509250925092565b634e487b7160e01b600052604160045260246000fd5b601f19601f83011681018181106001600160401b0382111715612a9157612a91612a56565b6040525050565b6000612aa360405190565b905061260b8282612a6c565b60006001600160401b03821115612ac857612ac8612a56565b5060209081020190565b600581106110af57600080fd5b8035610b5581612ad2565b6000612afd612af884612aaf565b612a98565b83815290506020808201908402830185811115612b1c57612b1c600080fd5b835b81811015612b405780612b3188826129fb565b84525060209283019201612b1e565b5050509392505050565b600082601f830112612b5e57612b5e600080fd5b81356106c0848260208601612aea565b600060408284031215612b8357612b83600080fd5b612b8d6040612a98565b90506000612b9b8484612adf565b82525060208201356001600160401b03811115612bba57612bba600080fd5b612bc684828501612b4a565b60208301525092915050565b6000612be0612af884612aaf565b83815290506020808201908402830185811115612bff57612bff600080fd5b835b81811015612b405780356001600160401b03811115612c2257612c22600080fd5b808601612c2f8982612b6e565b8552505060209283019201612c01565b600082601f830112612c5357612c53600080fd5b81356106c0848260208601612bd2565b60008060408385031215612c7957612c79600080fd5b6000612c8585856129fb565b92505060208301356001600160401b03811115612ca457612ca4600080fd5b612cb085828601612c3f565b9150509250929050565b60006001600160401b03821115612cd357612cd3612a56565b601f19601f83011660200192915050565b82818337506000910152565b6000612cfe612af884612cba565b905082815260208101848484011115612d1957612d19600080fd5b612d24848285612ce4565b509392505050565b600082601f830112612d4057612d40600080fd5b81356106c0848260208601612cf0565b60008060008060808587031215612d6957612d69600080fd5b6000612d7587876129ea565b9450506020612d86878288016129ea565b9350506040612d97878288016129fb565b92505060608501356001600160401b03811115612db657612db6600080fd5b612dc287828801612d2c565b91505092959194509250565b805b82525050565b60208101610b558284612dce565b6000612df2612af884612aaf565b83815290506020808201908402830185811115612e1157612e11600080fd5b835b81811015612b405780612e2688826129fb565b84525060209283019201612e13565b600082601f830112612e4957612e49600080fd5b81356106c0848260208601612de4565b6000612e67612af884612aaf565b83815290506020808201908402830185811115612e8657612e86600080fd5b835b81811015612b405780356001600160401b03811115612ea957612ea9600080fd5b808601612eb68982612c3f565b8552505060209283019201612e88565b600082601f830112612eda57612eda600080fd5b81356106c0848260208601612e59565b600080600060608486031215612f0257612f02600080fd5b83356001600160401b03811115612f1b57612f1b600080fd5b612f2786828701612e35565b93505060208401356001600160401b03811115612f4657612f46600080fd5b612f5286828701612ec6565b92505060408401356001600160401b03811115612f7157612f71600080fd5b612a4c86828701612b4a565b600060208284031215612f9257612f92600080fd5b81356001600160401b03811115612fab57612fab600080fd5b6106c084828501612e35565b60008060408385031215612fcd57612fcd600080fd5b6000612fd985856129ea565b9250506020612cb0858286016129fb565b801515612dd0565b60208101610b558284612fea565b6000806040838503121561301657613016600080fd5b82356001600160401b0381111561302f5761302f600080fd5b61303b85828601612e35565b92505060208301356001600160401b0381111561305a5761305a600080fd5b612cb085828601612ec6565b6000610b55826129c5565b6129df81613066565b8035610b5581613071565b60008060008060008060c087890312156130a1576130a1600080fd5b60006130ad89896129ea565b96505060206130be89828a016129ea565b95505060408701356001600160401b038111156130dd576130dd600080fd5b6130e989828a01612d2c565b94505060608701356001600160401b0381111561310857613108600080fd5b61311489828a01612d2c565b93505060808701356001600160401b0381111561313357613133600080fd5b61313f89828a01612d2c565b92505060a061315089828a0161307a565b9150509295509295509295565b60006020828403121561317257613172600080fd5b60006106c084846129ea565b6000806000806080858703121561319757613197600080fd5b60006131a387876129ea565b94505060206131b4878288016129fb565b9350506040612d97878288016129ea565b612dd0816129c5565b60208101610b5582846131c5565b6000806000606084860312156131f4576131f4600080fd5b600061320086866129ea565b9350506020613211868287016129fb565b92505060408401356001600160401b0381111561323057613230600080fd5b612a4c86828701612d2c565b60008060006060848603121561325457613254600080fd5b83356001600160401b0381111561326d5761326d600080fd5b61327986828701612d2c565b93505060208401356001600160401b0381111561329857613298600080fd5b61321186828701612d2c565b6000602082840312156132b9576132b9600080fd5b60006106c084846129fb565b6000602082840312156132da576132da600080fd5b81356001600160401b038111156132f3576132f3600080fd5b6106c084828501612d2c565b6000610b5582613066565b612dd0816132ff565b60208101610b55828461330a565b6000806000806080858703121561333a5761333a600080fd5b600061334687876129ea565b9450506020613357878288016129fb565b93505060408501356001600160401b0381111561337657613376600080fd5b612d9787828801612d2c565b603481526000602082017f50726f7669646572436f6e74726f6c6c65723a2063616c6c6572206973206e6f8152731d081d1a194818dd5c9c995b9d081dd85b1b195d60621b602082015291505b5060400190565b60208082528101610b5581613382565b8051610b5581613071565b60006020828403121561340657613406600080fd5b60006106c084846133e6565b8015156129df565b8051610b5581613412565b60006020828403121561343a5761343a600080fd5b60006106c0848461341a565b602981526000602082017f526f75746572577261707065723a2063616c6c6572206973206e6f742074686581526810383937bb34b232b960b91b602082015291506133cf565b60208082528101610b5581613446565b602b81526000602082017f50726f7669646572436f6e74726f6c6c65723a20696e76616c6964206163636f81526a0eadce8e640d8cadccee8d60ab1b602082015291506133cf565b60208082528101610b558161349c565b602b81526000602082017f50726f7669646572436f6e74726f6c6c65723a20696e76616c6964207061796c81526a0dec2c8e640d8cadccee8d60ab1b602082015291506133cf565b60208082528101610b55816134f4565b603081526000602082017f50726f7669646572436f6e74726f6c6c65723a20696e636f6e736974656e742081526f0e0c2e4c2dacae8cae440d8cadccee8d60831b602082015291506133cf565b60208082528101610b558161354c565b634e487b7160e01b600052603260045260246000fd5b634e487b7160e01b600052601160045260246000fd5b60006000198214156135e9576135e96135bf565b5060010190565b602881526000602082017f50726f7669646572436f6e74726f6c6c65723a206e6f6e6578697374656e7420815267383937bb34b232b960c11b602082015291506133cf565b60208082528101610b55816135f0565b60208082527f5061757365723a2063616c6c6572206973206e6f742074686520706175736572910190815260005b5060200190565b60208082528101610b5581613645565b600060ff8216610b55565b612dd08161368a565b60208101610b558284613695565b602b81526000602082017f50726f7669646572436f6e74726f6c6c65723a2063616c6c6572206973206e6f81526a1d08199d5b99081c1bdbdb60aa1b602082015291506133cf565b60208082528101610b55816136ac565b602781526000602082017f50726f7669646572436f6e74726f6c6c65723a206e6f6e6578697374656e74208152661858d8dbdd5b9d60ca1b602082015291506133cf565b60208082528101610b5581613704565b602181526000602082017f50726f7669646572436f6e74726f6c6c65723a2077616c6c65742065786973748152607360f81b602082015291506133cf565b60208082528101610b5581613758565b60005b838110156137c15781810151838201526020016137a9565b838111156105795750506000910152565b60006137dc825190565b8084526020840193506137f38185602086016137a6565b601f01601f19169290920192915050565b6060810161381282866131c5565b61381f6020830185612dce565b81810360408301526106bd81846137d2565b602581526000602082017f50726f7669646572436f6e74726f6c6c65723a20696e76616c6964207369676e815264617475726560d81b602082015291506133cf565b60208082528101610b5581613831565b60208082527f4f776e61626c653a2063616c6c6572206973206e6f7420746865206f776e657291019081526000613673565b60208082528101610b5581613883565b602c81526000602082017f50726f7669646572436f6e74726f6c6c65723a2063616c6c657220696e206e6f81526b1d081d1a19481dd85b1b195d60a21b602082015291506133cf565b60208082528101610b55816138c5565b602681526000602082017f50726f7669646572436f6e74726f6c6c65723a206e6f6e6578697374656e74208152651dd85b1b195d60d21b602082015291506133cf565b60208082528101610b558161391e565b603381526000602082017f50726f7669646572436f6e74726f6c6c65725632526567697374726174696f6e8152723a20696e76616c6964207369676e617475726560681b602082015291506133cf565b60208082528101610b5581613971565b602581526000602082017f41646d696e577261707065723a2063616c6c6572206973206e6f74207468652081526430b236b4b760d91b602082015291506133cf565b60208082528101610b55816139d1565b60ff8116612dd0565b60208101610b558284613a23565b60a08101613a488288612dce565b613a5560208301876131c5565b613a6260408301866131c5565b613a6f6060830185612dce565b613a7c6080830184612dce565b9695505050505050565b60608101613a948286612dce565b613aa160208301856131c5565b6106c06040830184612dce565b60808101613abc8287612dce565b613ac960208301866131c5565b613ad66040830185612dce565b613ae360608301846131c5565b95945050505050565b602681526000602082017f4f776e61626c653a206e6577206f776e657220697320746865207a65726f206181526564647265737360d01b602082015291506133cf565b60208082528101610b5581613aec565b603081526000602082017f50726f7669646572436f6e74726f6c6c657256323a206163636f756e7420616c81526f1c9958591e481c9959da5cdd195c995960821b602082015291506133cf565b60208082528101610b5581613b3f565b602781526000602082017f50726f7669646572436f6e74726f6c6c657256323a20696e76616c6964207369815266676e617475726560c81b602082015291506133cf565b60208082528101610b5581613b9c565b8051610b5581612ad2565b8051610b55816129f5565b6000613c14612af884612aaf565b83815290506020808201908402830185811115613c3357613c33600080fd5b835b81811015612b405780613c488882613bfb565b84525060209283019201613c35565b600082601f830112613c6b57613c6b600080fd5b81516106c0848260208601613c06565b600060408284031215613c9057613c90600080fd5b613c9a6040612a98565b90506000613ca88484613bf0565b82525060208201516001600160401b03811115613cc757613cc7600080fd5b612bc684828501613c57565b6000613ce1612af884612aaf565b83815290506020808201908402830185811115613d0057613d00600080fd5b835b81811015612b405780516001600160401b03811115613d2357613d23600080fd5b808601613d308982613c7b565b8552505060209283019201613d02565b600082601f830112613d5457613d54600080fd5b81516106c0848260208601613cd3565b600060208284031215613d7957613d79600080fd5b81516001600160401b03811115613d9257613d92600080fd5b6106c084828501613d40565b60808101613dac82876131c5565b613db96020830186612dce565b613ad660408301856131c5565b602281526000602082017f50726f7669646572436f6e74726f6c6c65723a20656d707479207061796c6f61815261647360f01b602082015291506133cf565b60208082528101610b5581613dc6565b634e487b7160e01b600052602160045260246000fd5b603c815260006020820160008051602061431083398151915281527f6e7473206c656e67746820666f72206275696c64696e672074696d6500000000602082015291506133cf565b60208082528101610b5581613e2b565b60608101613e9182866131c5565b613aa16020830185612dce565b6038815260006020820160008051602061431083398151915281527f6e7473206c656e67746820666f722062616e6477696474680000000000000000602082015291506133cf565b60208082528101610b5581613e9e565b6039815260006020820160008051602061431083398151915281527f6e7473206c656e67746820666f722061722073746f7261676500000000000000602082015291506133cf565b60208082528101610b5581613ef6565b603b815260006020820160008051602061431083398151915281527f6e7473206c656e67746820666f7220697066732073746f726167650000000000602082015291506133cf565b60208082528101610b5581613f4e565b60808101613fb482876131c5565b613fc16020830186612dce565b613fce6040830185612dce565b613ae36060830184612dce565b602981526000602082017f50726f7669646572436f6e74726f6c6c65723a20756e6b6e6f776e207265736f81526875726365207479706560b81b602082015291506133cf565b60208082528101610b5581613fdb565b6040810161403f82856131c5565b610e336020830184612dce565b602281526000602082017f50726f7669646572436f6e74726f6c6c65723a206163636f756e742065786973815261747360f01b602082015291506133cf565b60208082528101610b558161404c565b601481526000602082017314185d5cd8589b194e881b9bdd081c185d5cd95960621b81529150613673565b60208082528101610b558161409b565b602e81526000602082017f496e697469616c697a61626c653a20636f6e747261637420697320616c72656181526d191e481a5b9a5d1a585b1a5e995960921b602082015291506133cf565b60208082528101610b55816140d6565b602b81526000602082017f496e697469616c697a61626c653a20636f6e7472616374206973206e6f74206981526a6e697469616c697a696e6760a81b602082015291506133cf565b60208082528101610b5581614131565b601d81526000602082017f5061757365723a206163636f756e74206973206e6f742070617573657200000081529150613673565b60208082528101610b5581614189565b602181526000602082017f5061757365723a206163636f756e7420697320616c72656164792070617573658152603960f91b602082015291506133cf565b60208082528101610b55816141cd565b601081526000602082016f14185d5cd8589b194e881c185d5cd95960821b81529150613673565b60208082528101610b558161421b565b80612dd0565b61190160f01b8152600201600061426f8285614252565b60208201915061427f8284614252565b5060200192915050565b601b81526000602082017f526f75746572577261707065723a207a65726f2061646472657373000000000081529150613673565b60208082528101610b5581614289565b60a081016142db8288612dce565b6142e86020830187612dce565b6142f56040830186612dce565b6143026060830185612dce565b613a7c60808301846131c556fe50726f7669646572436f6e74726f6c6c65723a20696e76616c696420616d6f75a2646970667358221220bb6dcc7fb09732e5d8fe937fd468115d8b2ce408dc177e4fe88f6141a8caef8764736f6c63430008090033",
  "devdoc": {
    "author": "Alexandas",
    "details": "provider controller contract",
    "kind": "dev",
    "methods": {
      "accountExists(address,bytes32)": {
        "details": "return whether the account exists",
        "params": {
          "account": "user account",
          "provider": "provider address"
        },
        "returns": {
          "_0": "whether account exists"
        }
      },
      "addPauser(address)": {
        "details": "add a pauser for the contract",
        "params": {
          "account": "address"
        }
      },
      "drip(bytes32,(uint8,uint256[])[])": {
        "details": "provider drip resource to user account",
        "params": {
          "account": "user account",
          "payloads": "resource amount payloads"
        }
      },
      "dripMult(bytes32[],(uint8,uint256[])[][])": {
        "details": "provider drip resource to multiple accounts",
        "params": {
          "accounts": "user accounts",
          "payloads": "resource amount payloads"
        }
      },
      "dripMult(bytes32[],(uint8,uint256[])[][],uint256[])": {
        "details": "provider drip resource to multiple accounts",
        "params": {
          "accounts": "user accounts",
          "payloads": "resource amount payloads"
        }
      },
      "hashTypedDataV4ForWallet(address,bytes32,address)": {
        "details": "return recharge hash typed v4",
        "params": {
          "account": "user account",
          "provider": "provider address",
          "wallet": "wallet address"
        },
        "returns": {
          "_0": "wallet hash typed v4"
        }
      },
      "hashWalletTypes(address,bytes32,address)": {
        "details": "return recharge typed hash",
        "params": {
          "account": "user account",
          "provider": "provider address",
          "wallet": "wallet address"
        },
        "returns": {
          "_0": "wallet hash typed v4"
        }
      },
      "initWallet(address,bytes32,address,bytes)": {
        "details": "initialize wallet for the given account",
        "params": {
          "account": "user account",
          "provider": "provider address",
          "signature": "provider signature",
          "wallet": "account wallet"
        }
      },
      "initialize(address,address,string,string,string,address)": {
        "details": "proxy initialize function",
        "params": {
          "owner": "contract owner",
          "pauser": "contract pauser",
          "router": "router contract address"
        }
      },
      "isPauser(address)": {
        "details": "whether the account is the contract pauser",
        "params": {
          "account": "address"
        },
        "returns": {
          "_0": "whether account is a pauser"
        }
      },
      "owner()": {
        "details": "Returns the address of the current owner."
      },
      "pause()": {
        "details": "pause the contract"
      },
      "paused()": {
        "details": "Returns true if the contract is paused, and false otherwise."
      },
      "poolInitWallet(address,bytes32,address,bytes)": {
        "details": "initialize wallet for the given account called by fund pool",
        "params": {
          "account": "user account",
          "provider": "provider address",
          "signature": "provider signature",
          "wallet": "account wallet"
        }
      },
      "registerAccount(address,bytes32,bytes)": {
        "details": "register account",
        "params": {
          "account": "user account",
          "provider": "provider address",
          "signature": "provider signature"
        }
      },
      "registerAccount(bytes32)": {
        "details": "register account",
        "params": {
          "account": "user account"
        }
      },
      "registerAndDrip(address,bytes32,bytes,bytes)": {
        "details": "provider register and drip resource for multiple accounts",
        "params": {
          "account": "user account",
          "payload": "resource payloads",
          "provider": "provider address",
          "signature": "provider signature"
        }
      },
      "registerAndDripMult(bytes32[],(uint8,uint256[])[][])": {
        "details": "provider register and drip resource for multiple accounts",
        "params": {
          "accounts": "user accounts",
          "payloads": "resource amount payloads"
        }
      },
      "registerMult(bytes32[])": {
        "details": "register multiple account",
        "params": {
          "accounts": "user accounts"
        }
      },
      "removePauser(address)": {
        "details": "remove a pauser for the contract",
        "params": {
          "account": "address"
        }
      },
      "renounceOwnership()": {
        "details": "Leaves the contract without owner. It will not be possible to call `onlyOwner` functions anymore. Can only be called by the current owner. NOTE: Renouncing ownership will leave the contract without an owner, thereby removing any functionality that is only available to the owner."
      },
      "renouncePauser()": {
        "details": "remove a pauser for the contract"
      },
      "transferOwnership(address)": {
        "details": "Transfers ownership of the contract to a new account (`newOwner`). Can only be called by the current owner."
      },
      "transferWallet(address,bytes32,address)": {
        "details": "transfer wallet for the account",
        "params": {
          "account": "user account",
          "newWallet": "account wallet",
          "provider": "provider address"
        }
      },
      "unpause()": {
        "details": "unpause the contract"
      },
      "walletExists(address,bytes32)": {
        "details": "return whether wallet exists",
        "params": {
          "account": "user account",
          "provider": "provider address"
        },
        "returns": {
          "_0": "whether wallet exists"
        }
      },
      "walletOf(address,bytes32)": {
        "details": "return wallet for the account",
        "params": {
          "account": "user account",
          "provider": "provider address"
        },
        "returns": {
          "_0": "wallet for the account"
        }
      }
    },
    "version": 1
  },
  "userdoc": {
    "kind": "user",
    "methods": {},
    "version": 1
  },
  "storageLayout": {
    "storage": [
      {
        "astId": 147,
        "contract": "contracts/govers/ProviderControllerV2Registration.sol:ProviderControllerV2Registration",
        "label": "_initialized",
        "offset": 0,
        "slot": "0",
        "type": "t_uint8"
      },
      {
        "astId": 150,
        "contract": "contracts/govers/ProviderControllerV2Registration.sol:ProviderControllerV2Registration",
        "label": "_initializing",
        "offset": 1,
        "slot": "0",
        "type": "t_bool"
      },
      {
        "astId": 1738,
        "contract": "contracts/govers/ProviderControllerV2Registration.sol:ProviderControllerV2Registration",
        "label": "_HASHED_NAME",
        "offset": 0,
        "slot": "1",
        "type": "t_bytes32"
      },
      {
        "astId": 1740,
        "contract": "contracts/govers/ProviderControllerV2Registration.sol:ProviderControllerV2Registration",
        "label": "_HASHED_VERSION",
        "offset": 0,
        "slot": "2",
        "type": "t_bytes32"
      },
      {
        "astId": 1878,
        "contract": "contracts/govers/ProviderControllerV2Registration.sol:ProviderControllerV2Registration",
        "label": "__gap",
        "offset": 0,
        "slot": "3",
        "type": "t_array(t_uint256)50_storage"
      },
      {
        "astId": 1038,
        "contract": "contracts/govers/ProviderControllerV2Registration.sol:ProviderControllerV2Registration",
        "label": "__gap",
        "offset": 0,
        "slot": "53",
        "type": "t_array(t_uint256)50_storage"
      },
      {
        "astId": 10,
        "contract": "contracts/govers/ProviderControllerV2Registration.sol:ProviderControllerV2Registration",
        "label": "_owner",
        "offset": 0,
        "slot": "103",
        "type": "t_address"
      },
      {
        "astId": 122,
        "contract": "contracts/govers/ProviderControllerV2Registration.sol:ProviderControllerV2Registration",
        "label": "__gap",
        "offset": 0,
        "slot": "104",
        "type": "t_array(t_uint256)49_storage"
      },
      {
        "astId": 303,
        "contract": "contracts/govers/ProviderControllerV2Registration.sol:ProviderControllerV2Registration",
        "label": "_paused",
        "offset": 0,
        "slot": "153",
        "type": "t_bool"
      },
      {
        "astId": 392,
        "contract": "contracts/govers/ProviderControllerV2Registration.sol:ProviderControllerV2Registration",
        "label": "__gap",
        "offset": 0,
        "slot": "154",
        "type": "t_array(t_uint256)49_storage"
      },
      {
        "astId": 3817,
        "contract": "contracts/govers/ProviderControllerV2Registration.sol:ProviderControllerV2Registration",
        "label": "pausers",
        "offset": 0,
        "slot": "203",
        "type": "t_mapping(t_address,t_bool)"
      },
      {
        "astId": 6477,
        "contract": "contracts/govers/ProviderControllerV2Registration.sol:ProviderControllerV2Registration",
        "label": "router",
        "offset": 0,
        "slot": "204",
        "type": "t_contract(IRouter)7712"
      },
      {
        "astId": 4256,
        "contract": "contracts/govers/ProviderControllerV2Registration.sol:ProviderControllerV2Registration",
        "label": "accounts",
        "offset": 0,
        "slot": "205",
        "type": "t_mapping(t_address,t_mapping(t_bytes32,t_bool))"
      },
      {
        "astId": 4263,
        "contract": "contracts/govers/ProviderControllerV2Registration.sol:ProviderControllerV2Registration",
        "label": "wallets",
        "offset": 0,
        "slot": "206",
        "type": "t_mapping(t_address,t_mapping(t_bytes32,t_address))"
      },
      {
        "astId": 4267,
        "contract": "contracts/govers/ProviderControllerV2Registration.sol:ProviderControllerV2Registration",
        "label": "walletTypesHash",
        "offset": 0,
        "slot": "207",
        "type": "t_bytes32"
      },
      {
        "astId": 5420,
        "contract": "contracts/govers/ProviderControllerV2Registration.sol:ProviderControllerV2Registration",
        "label": "registerAndDripTypedHash",
        "offset": 0,
        "slot": "208",
        "type": "t_bytes32"
      },
      {
        "astId": 5424,
        "contract": "contracts/govers/ProviderControllerV2Registration.sol:ProviderControllerV2Registration",
        "label": "userRegistration",
        "offset": 0,
        "slot": "209",
        "type": "t_mapping(t_address,t_bytes32)"
      },
      {
        "astId": 5596,
        "contract": "contracts/govers/ProviderControllerV2Registration.sol:ProviderControllerV2Registration",
        "label": "registerTypedHash",
        "offset": 0,
        "slot": "210",
        "type": "t_bytes32"
      }
    ],
    "types": {
      "t_address": {
        "encoding": "inplace",
        "label": "address",
        "numberOfBytes": "20"
      },
      "t_array(t_uint256)49_storage": {
        "base": "t_uint256",
        "encoding": "inplace",
        "label": "uint256[49]",
        "numberOfBytes": "1568"
      },
      "t_array(t_uint256)50_storage": {
        "base": "t_uint256",
        "encoding": "inplace",
        "label": "uint256[50]",
        "numberOfBytes": "1600"
      },
      "t_bool": {
        "encoding": "inplace",
        "label": "bool",
        "numberOfBytes": "1"
      },
      "t_bytes32": {
        "encoding": "inplace",
        "label": "bytes32",
        "numberOfBytes": "32"
      },
      "t_contract(IRouter)7712": {
        "encoding": "inplace",
        "label": "contract IRouter",
        "numberOfBytes": "20"
      },
      "t_mapping(t_address,t_bool)": {
        "encoding": "mapping",
        "key": "t_address",
        "label": "mapping(address => bool)",
        "numberOfBytes": "32",
        "value": "t_bool"
      },
      "t_mapping(t_address,t_bytes32)": {
        "encoding": "mapping",
        "key": "t_address",
        "label": "mapping(address => bytes32)",
        "numberOfBytes": "32",
        "value": "t_bytes32"
      },
      "t_mapping(t_address,t_mapping(t_bytes32,t_address))": {
        "encoding": "mapping",
        "key": "t_address",
        "label": "mapping(address => mapping(bytes32 => address))",
        "numberOfBytes": "32",
        "value": "t_mapping(t_bytes32,t_address)"
      },
      "t_mapping(t_address,t_mapping(t_bytes32,t_bool))": {
        "encoding": "mapping",
        "key": "t_address",
        "label": "mapping(address => mapping(bytes32 => bool))",
        "numberOfBytes": "32",
        "value": "t_mapping(t_bytes32,t_bool)"
      },
      "t_mapping(t_bytes32,t_address)": {
        "encoding": "mapping",
        "key": "t_bytes32",
        "label": "mapping(bytes32 => address)",
        "numberOfBytes": "32",
        "value": "t_address"
      },
      "t_mapping(t_bytes32,t_bool)": {
        "encoding": "mapping",
        "key": "t_bytes32",
        "label": "mapping(bytes32 => bool)",
        "numberOfBytes": "32",
        "value": "t_bool"
      },
      "t_uint256": {
        "encoding": "inplace",
        "label": "uint256",
        "numberOfBytes": "32"
      },
      "t_uint8": {
        "encoding": "inplace",
        "label": "uint8",
        "numberOfBytes": "1"
      }
    }
  }
}