{
  "address": "0xAcdcA934E9D4dAA07E4B092fb8395DD872c3221C",
  "abi": [
    {
      "inputs": [],
      "stateMutability": "nonpayable",
      "type": "constructor"
    },
    {
      "anonymous": false,
      "inputs": [
        {
          "indexed": false,
          "internalType": "uint64",
          "name": "dstChainId",
          "type": "uint64"
        }
      ],
      "name": "DstChainIdUpdated",
      "type": "event"
    },
    {
      "anonymous": false,
      "inputs": [
        {
          "indexed": false,
          "internalType": "address",
          "name": "executor",
          "type": "address"
        }
      ],
      "name": "ExecutorUpdated",
      "type": "event"
    },
    {
      "anonymous": false,
      "inputs": [
        {
          "indexed": false,
          "internalType": "uint8",
          "name": "version",
          "type": "uint8"
        }
      ],
      "name": "Initialized",
      "type": "event"
    },
    {
      "anonymous": false,
      "inputs": [
        {
          "indexed": false,
          "internalType": "address",
          "name": "messageBus",
          "type": "address"
        }
      ],
      "name": "MessageBusUpdated",
      "type": "event"
    },
    {
      "anonymous": false,
      "inputs": [
        {
          "indexed": false,
          "internalType": "address",
          "name": "sender",
          "type": "address"
        },
        {
          "indexed": false,
          "internalType": "contract IERC20Upgradeable",
          "name": "token",
          "type": "address"
        },
        {
          "indexed": false,
          "internalType": "uint256",
          "name": "amount",
          "type": "uint256"
        },
        {
          "indexed": false,
          "internalType": "uint64",
          "name": "srcChainId",
          "type": "uint64"
        },
        {
          "indexed": false,
          "internalType": "bytes",
          "name": "message",
          "type": "bytes"
        },
        {
          "indexed": false,
          "internalType": "address",
          "name": "executor",
          "type": "address"
        },
        {
          "indexed": false,
          "internalType": "bytes",
          "name": "error",
          "type": "bytes"
        }
      ],
      "name": "MessageWithTransferFailed",
      "type": "event"
    },
    {
      "anonymous": false,
      "inputs": [
        {
          "indexed": false,
          "internalType": "address",
          "name": "_sender",
          "type": "address"
        },
        {
          "indexed": false,
          "internalType": "address",
          "name": "_token",
          "type": "address"
        },
        {
          "indexed": false,
          "internalType": "uint256",
          "name": "_amount",
          "type": "uint256"
        },
        {
          "indexed": false,
          "internalType": "uint64",
          "name": "_srcChainId",
          "type": "uint64"
        },
        {
          "indexed": false,
          "internalType": "bytes",
          "name": "_message",
          "type": "bytes"
        },
        {
          "indexed": false,
          "internalType": "address",
          "name": "executor",
          "type": "address"
        }
      ],
      "name": "MessageWithTransferFallback",
      "type": "event"
    },
    {
      "anonymous": false,
      "inputs": [
        {
          "indexed": false,
          "internalType": "address",
          "name": "token",
          "type": "address"
        },
        {
          "indexed": false,
          "internalType": "uint256",
          "name": "amount",
          "type": "uint256"
        },
        {
          "indexed": false,
          "internalType": "bytes",
          "name": "message",
          "type": "bytes"
        },
        {
          "indexed": false,
          "internalType": "address",
          "name": "executor",
          "type": "address"
        }
      ],
      "name": "MessageWithTransferRefund",
      "type": "event"
    },
    {
      "anonymous": false,
      "inputs": [
        {
          "indexed": false,
          "internalType": "address",
          "name": "sender",
          "type": "address"
        },
        {
          "indexed": false,
          "internalType": "address",
          "name": "receiver",
          "type": "address"
        },
        {
          "indexed": false,
          "internalType": "contract IERC20Upgradeable",
          "name": "token",
          "type": "address"
        },
        {
          "indexed": false,
          "internalType": "uint256",
          "name": "amount",
          "type": "uint256"
        },
        {
          "indexed": false,
          "internalType": "uint64",
          "name": "srcChainId",
          "type": "uint64"
        },
        {
          "indexed": false,
          "internalType": "uint64",
          "name": "dstChainId",
          "type": "uint64"
        },
        {
          "indexed": false,
          "internalType": "uint64",
          "name": "nonce",
          "type": "uint64"
        },
        {
          "indexed": false,
          "internalType": "uint32",
          "name": "maxSlippage",
          "type": "uint32"
        },
        {
          "indexed": false,
          "internalType": "bytes",
          "name": "message",
          "type": "bytes"
        }
      ],
      "name": "MessageWithTransferSent",
      "type": "event"
    },
    {
      "anonymous": false,
      "inputs": [
        {
          "indexed": false,
          "internalType": "address",
          "name": "to",
          "type": "address"
        },
        {
          "indexed": false,
          "internalType": "uint256",
          "name": "value",
          "type": "uint256"
        }
      ],
      "name": "NativeWithdrawal",
      "type": "event"
    },
    {
      "anonymous": false,
      "inputs": [
        {
          "indexed": true,
          "internalType": "address",
          "name": "previousOwner",
          "type": "address"
        },
        {
          "indexed": true,
          "internalType": "address",
          "name": "newOwner",
          "type": "address"
        }
      ],
      "name": "OwnershipTransferred",
      "type": "event"
    },
    {
      "anonymous": false,
      "inputs": [
        {
          "indexed": false,
          "internalType": "address",
          "name": "receiver",
          "type": "address"
        }
      ],
      "name": "ReceiverUpdated",
      "type": "event"
    },
    {
      "anonymous": false,
      "inputs": [
        {
          "indexed": false,
          "internalType": "address",
          "name": "recharge",
          "type": "address"
        }
      ],
      "name": "SrcChainRechargeUpdated",
      "type": "event"
    },
    {
      "anonymous": false,
      "inputs": [
        {
          "indexed": false,
          "internalType": "contract IERC20Upgradeable",
          "name": "token",
          "type": "address"
        },
        {
          "indexed": false,
          "internalType": "address",
          "name": "to",
          "type": "address"
        },
        {
          "indexed": false,
          "internalType": "uint256",
          "name": "value",
          "type": "uint256"
        }
      ],
      "name": "Withdrawal",
      "type": "event"
    },
    {
      "inputs": [
        {
          "internalType": "bytes",
          "name": "message",
          "type": "bytes"
        }
      ],
      "name": "calcFee",
      "outputs": [
        {
          "internalType": "uint256",
          "name": "",
          "type": "uint256"
        }
      ],
      "stateMutability": "view",
      "type": "function"
    },
    {
      "inputs": [],
      "name": "dstChainId",
      "outputs": [
        {
          "internalType": "uint64",
          "name": "",
          "type": "uint64"
        }
      ],
      "stateMutability": "view",
      "type": "function"
    },
    {
      "inputs": [
        {
          "internalType": "address",
          "name": "_token",
          "type": "address"
        },
        {
          "internalType": "uint256",
          "name": "_amount",
          "type": "uint256"
        },
        {
          "internalType": "bytes",
          "name": "_message",
          "type": "bytes"
        },
        {
          "internalType": "address",
          "name": "executor",
          "type": "address"
        }
      ],
      "name": "executeMessageWithTransferRefund",
      "outputs": [
        {
          "internalType": "enum RechargeMessageSender.ExecutionStatus",
          "name": "",
          "type": "uint8"
        }
      ],
      "stateMutability": "payable",
      "type": "function"
    },
    {
      "inputs": [
        {
          "internalType": "address",
          "name": "owner",
          "type": "address"
        },
        {
          "internalType": "address",
          "name": "_messageBus",
          "type": "address"
        },
        {
          "internalType": "address",
          "name": "_receiver",
          "type": "address"
        },
        {
          "internalType": "uint64",
          "name": "_dstChainId",
          "type": "uint64"
        }
      ],
      "name": "initialize",
      "outputs": [],
      "stateMutability": "nonpayable",
      "type": "function"
    },
    {
      "inputs": [],
      "name": "messageBus",
      "outputs": [
        {
          "internalType": "address",
          "name": "",
          "type": "address"
        }
      ],
      "stateMutability": "view",
      "type": "function"
    },
    {
      "inputs": [
        {
          "components": [
            {
              "internalType": "address",
              "name": "sender",
              "type": "address"
            },
            {
              "internalType": "address",
              "name": "receiver",
              "type": "address"
            },
            {
              "internalType": "uint64",
              "name": "srcChainId",
              "type": "uint64"
            },
            {
              "internalType": "bytes32",
              "name": "srcTxHash",
              "type": "bytes32"
            }
          ],
          "internalType": "struct MsgDataTypes.RouteInfo",
          "name": "route",
          "type": "tuple"
        },
        {
          "internalType": "uint64",
          "name": "dstChainId",
          "type": "uint64"
        },
        {
          "internalType": "bytes",
          "name": "message",
          "type": "bytes"
        }
      ],
      "name": "messageId",
      "outputs": [
        {
          "internalType": "bytes32",
          "name": "",
          "type": "bytes32"
        }
      ],
      "stateMutability": "pure",
      "type": "function"
    },
    {
      "inputs": [],
      "name": "owner",
      "outputs": [
        {
          "internalType": "address",
          "name": "",
          "type": "address"
        }
      ],
      "stateMutability": "view",
      "type": "function"
    },
    {
      "inputs": [
        {
          "internalType": "contract IERC20Upgradeable",
          "name": "token",
          "type": "address"
        },
        {
          "internalType": "address",
          "name": "to",
          "type": "address"
        },
        {
          "internalType": "uint256",
          "name": "value",
          "type": "uint256"
        }
      ],
      "name": "ownerWithdrawERC20",
      "outputs": [],
      "stateMutability": "nonpayable",
      "type": "function"
    },
    {
      "inputs": [
        {
          "internalType": "address payable",
          "name": "to",
          "type": "address"
        },
        {
          "internalType": "uint256",
          "name": "value",
          "type": "uint256"
        }
      ],
      "name": "ownerWithdrawNative",
      "outputs": [],
      "stateMutability": "nonpayable",
      "type": "function"
    },
    {
      "inputs": [],
      "name": "receiver",
      "outputs": [
        {
          "internalType": "address",
          "name": "",
          "type": "address"
        }
      ],
      "stateMutability": "view",
      "type": "function"
    },
    {
      "inputs": [],
      "name": "renounceOwnership",
      "outputs": [],
      "stateMutability": "nonpayable",
      "type": "function"
    },
    {
      "inputs": [
        {
          "internalType": "contract IERC20Upgradeable",
          "name": "token",
          "type": "address"
        },
        {
          "internalType": "uint256",
          "name": "amount",
          "type": "uint256"
        },
        {
          "internalType": "uint64",
          "name": "nonce",
          "type": "uint64"
        },
        {
          "internalType": "uint32",
          "name": "maxSlippage",
          "type": "uint32"
        },
        {
          "internalType": "bytes",
          "name": "message",
          "type": "bytes"
        }
      ],
      "name": "sendMessageWithTransfer",
      "outputs": [],
      "stateMutability": "payable",
      "type": "function"
    },
    {
      "inputs": [
        {
          "internalType": "uint64",
          "name": "dstChainId",
          "type": "uint64"
        }
      ],
      "name": "setDstChainId",
      "outputs": [],
      "stateMutability": "nonpayable",
      "type": "function"
    },
    {
      "inputs": [
        {
          "internalType": "address",
          "name": "messageBus",
          "type": "address"
        }
      ],
      "name": "setMessageBus",
      "outputs": [],
      "stateMutability": "nonpayable",
      "type": "function"
    },
    {
      "inputs": [
        {
          "internalType": "address",
          "name": "_receiver",
          "type": "address"
        }
      ],
      "name": "setReceiver",
      "outputs": [],
      "stateMutability": "nonpayable",
      "type": "function"
    },
    {
      "inputs": [
        {
          "internalType": "address",
          "name": "_recharge",
          "type": "address"
        }
      ],
      "name": "setSrcChainRecharge",
      "outputs": [],
      "stateMutability": "nonpayable",
      "type": "function"
    },
    {
      "inputs": [],
      "name": "srcChainRecharge",
      "outputs": [
        {
          "internalType": "address",
          "name": "",
          "type": "address"
        }
      ],
      "stateMutability": "view",
      "type": "function"
    },
    {
      "inputs": [
        {
          "internalType": "address",
          "name": "newOwner",
          "type": "address"
        }
      ],
      "name": "transferOwnership",
      "outputs": [],
      "stateMutability": "nonpayable",
      "type": "function"
    }
  ],
  "transactionHash": "0x8de575b32de2fce2931668316b100cd6fa2901cd48dcedcc823f9aca7d24f489",
  "args": [],
  "numDeployments": 1,
  "solcInputHash": "559652fa31b887873ed502fde18e443f",
  "bytecode": "0x60806040523480156200001157600080fd5b5060006200002060016200008e565b9050801562000039576000805461ff0019166101001790555b801562000087576000805461ff00191690556040517f7f26b83ff96e1f2b6a682f133852f6798a09c465da95921460cefb3847402498906200007e9060019062000168565b60405180910390a15b50620001cb565b60008054610100900460ff1615620000f7578160ff166001148015620000c75750620000c5306200013b60201b620008bf1760201c565b155b620000ef5760405162461bcd60e51b8152600401620000e69062000178565b60405180910390fd5b506000919050565b60005460ff808416911610620001215760405162461bcd60e51b8152600401620000e69062000178565b506000805460ff191660ff92909216919091179055600190565b6001600160a01b03163b151590565b600060ff82165b92915050565b62000162816200014a565b82525050565b6020810162000151828462000157565b602080825281016200015181602e81527f496e697469616c697a61626c653a20636f6e747261637420697320616c72656160208201526d191e481a5b9a5d1a585b1a5e995960921b604082015260600190565b6125bf80620001db6000396000f3fe6080604052600436106101095760003560e01c80638da5cb5b11610095578063bb0248aa11610064578063bb0248aa146102da578063c66f16ff146102fa578063d7c8cb241461030d578063f2fde38b1461032d578063f7260d3e1461034d57600080fd5b80638da5cb5b1461025c57806393563a951461027a5780639a89c71c1461029a578063a1a227fa146102ba57600080fd5b80635335dca2116100dc5780635335dca2146101ba578063547cad12146101e7578063699256f414610207578063715018a614610227578063718da7ee1461023c57600080fd5b80630bcb49821461010e57806330c593f7146101375780633fe3f1cf1461016b57806342c7ad501461018d575b600080fd5b61012161011c366004611687565b61036d565b60405161012e9190611754565b60405180910390f35b34801561014357600080fd5b5060675461015e90600160a01b90046001600160401b031681565b60405161012e9190611771565b34801561017757600080fd5b5061018b610186366004611799565b6103ef565b005b34801561019957600080fd5b506065546101ad906001600160a01b031681565b60405161012e9190611806565b3480156101c657600080fd5b506101da6101d5366004611908565b610489565b60405161012e9190611948565b3480156101f357600080fd5b5061018b610202366004611956565b610510565b34801561021357600080fd5b5061018b610222366004611977565b610546565b34801561023357600080fd5b5061018b6105f4565b34801561024857600080fd5b5061018b610257366004611956565b61062a565b34801561026857600080fd5b506033546001600160a01b03166101ad565b34801561028657600080fd5b5061018b6102953660046119d3565b61065d565b3480156102a657600080fd5b5061018b6102b5366004611956565b6106ce565b3480156102c657600080fd5b506066546101ad906001600160a01b031681565b3480156102e657600080fd5b506101da6102f5366004611a3e565b610701565b61018b610308366004611ac2565b610771565b34801561031957600080fd5b5061018b610328366004611b47565b610833565b34801561033957600080fd5b5061018b610348366004611956565b610866565b34801561035957600080fd5b506067546101ad906001600160a01b031681565b6066546000906001600160a01b031633146103a35760405162461bcd60e51b815260040161039a90611bb8565b60405180910390fd5b7f9afeef02b2dc7c87e4d0fe67945dedf1c4ee5bcf5cdf26f94fb1837859816f3386868686866040516103da959493929190611bf1565b60405180910390a15060015b95945050505050565b60006103fb60016108ce565b90508015610413576000805461ff0019166101001790555b61041c8561095b565b610425846109ad565b61042e83610a04565b61043782610a4f565b8015610482576000805461ff00191690556040517f7f26b83ff96e1f2b6a682f133852f6798a09c465da95921460cefb38474024989061047990600190611c55565b60405180910390a15b5050505050565b60665460405163299aee5160e11b81526000916001600160a01b031690635335dca2906104ba908590600401611cbd565b60206040518083038186803b1580156104d257600080fd5b505afa1580156104e6573d6000803e3d6000fd5b505050506040513d601f19601f8201168201806040525081019061050a9190611cd9565b92915050565b6033546001600160a01b0316331461053a5760405162461bcd60e51b815260040161039a90611d2f565b610543816109ad565b50565b6033546001600160a01b031633146105705760405162461bcd60e51b815260040161039a90611d2f565b6040516000906001600160a01b0384169083156108fc0290849084818181858888f193505050509050806105b65760405162461bcd60e51b815260040161039a90611d8b565b7f2c876ecb97b3c6854f2488d373403f903eacb800e51c159a5c0c7a9c857e482783836040516105e7929190611daf565b60405180910390a1505050565b6033546001600160a01b0316331461061e5760405162461bcd60e51b815260040161039a90611d2f565b610628600061095b565b565b6033546001600160a01b031633146106545760405162461bcd60e51b815260040161039a90611d2f565b61054381610a04565b6033546001600160a01b031633146106875760405162461bcd60e51b815260040161039a90611d2f565b61069b6001600160a01b0384168383610aa4565b7f2717ead6b9200dd235aad468c9809ea400fe33ac69b5bfaa6d3e90fc922b63988383836040516105e793929190611dca565b6033546001600160a01b031633146106f85760405162461bcd60e51b815260040161039a90611d2f565b61054381610aff565b6000806107116020870187611956565b6107216040880160208901611956565b6107316060890160408a01611b47565b8860600135888888604051602001610750989796959493929190611e8d565b6040516020818303038152906040528051906020012090505b949350505050565b6065546001600160a01b0316331461079b5760405162461bcd60e51b815260040161039a90611f4d565b6067546066546107d7916001600160a01b038082169289928992600160a01b9091046001600160401b0316918991899189916001911634610b4a565b506067546040517f809e486d6b48a6fe847b52ec27f1b5e172027add7c9bb8f158ac00cacd3888eb916104799130916001600160a01b038116918a918a914691600160a01b90046001600160401b0316908b908b908b90611f69565b6033546001600160a01b0316331461085d5760405162461bcd60e51b815260040161039a90611d2f565b61054381610a4f565b6033546001600160a01b031633146108905760405162461bcd60e51b815260040161039a90611d2f565b6001600160a01b0381166108b65760405162461bcd60e51b815260040161039a90612038565b6105438161095b565b6001600160a01b03163b151590565b60008054610100900460ff1615610915578160ff1660011480156108f15750303b155b61090d5760405162461bcd60e51b815260040161039a90612093565b506000919050565b60005460ff80841691161061093c5760405162461bcd60e51b815260040161039a90612093565b506000805460ff191660ff92909216919091179055600190565b919050565b603380546001600160a01b038381166001600160a01b0319831681179093556040519116919082907f8be0079c531659141344cd1fd0a4f28419497f9722a3daafe3b4186f6b6457e090600090a35050565b606680546001600160a01b0319166001600160a01b0383169081179091556040517f3f8223bcd8b3b875473e9f9e14e1ad075451a2b5ffd31591655da9a01516bf5e916109f991611806565b60405180910390a150565b606780546001600160a01b0319166001600160a01b0383161790556040517f75fd3aa5d9b6e2a8a9d8894008c9263200713f4b1fa9113665e09ceac0027746906109f9908390611806565b6067805467ffffffffffffffff60a01b1916600160a01b6001600160401b038416021790556040517fb21f4918f3e7b110065f3bf18a09b38074a4553144258ccfc30b57a76211e929906109f9908390611771565b610afa8363a9059cbb60e01b8484604051602401610ac39291906120a3565b60408051601f198184030181529190526020810180516001600160e01b03166001600160e01b031990931692909217909152610c32565b505050565b606580546001600160a01b0319166001600160a01b0383161790556040517faa474df0dfcc209d82b435095ee02f41d7d42a8b4f5231c3552969b587c8b679906109f9908390611806565b60006001846006811115610b6057610b6061170a565b1415610b7e57610b778b8b8b8b8b8b8b8a8a610cc1565b9050610c24565b6002846006811115610b9257610b9261170a565b1480610baf57506004846006811115610bad57610bad61170a565b145b15610bc557610b77848c8c8c8c8c8b8a8a610e61565b6003846006811115610bd957610bd961170a565b1480610bf657506005846006811115610bf457610bf461170a565b145b15610c0c57610b77848c8c8c8c8c8b8a8a6110f9565b60405162461bcd60e51b815260040161039a906120e5565b9a9950505050505050505050565b6000610c87826040518060400160405280602081526020017f5361666545524332303a206c6f772d6c6576656c2063616c6c206661696c6564815250856001600160a01b031661136c9092919063ffffffff16565b805190915015610afa5780806020019051810190610ca59190612108565b610afa5760405162461bcd60e51b815260040161039a90612170565b600080836001600160a01b03166382980dc46040518163ffffffff1660e01b815260040160206040518083038186803b158015610cfd57600080fd5b505afa158015610d11573d6000803e3d6000fd5b505050506040513d601f19601f82011682018060405250810190610d35919061218b565b9050610d4b6001600160a01b038b16828b611385565b60405163a5977fbb60e01b81526001600160a01b0382169063a5977fbb90610d81908e908e908e908e908e908e906004016121ac565b600060405180830381600087803b158015610d9b57600080fd5b505af1158015610daf573d6000803e3d6000fd5b505050506000308c8c8c8c8c46604051602001610dd297969594939291906121fb565b604051602081830303815290604052805190602001209050846001600160a01b0316634289fbb3858e8c86868c6040518763ffffffff1660e01b8152600401610e1f959493929190612294565b6000604051808303818588803b158015610e3857600080fd5b505af1158015610e4c573d6000803e3d6000fd5b50939f9e505050505050505050505050505050565b60008060028b6006811115610e7857610e7861170a565b1415610ef657836001600160a01b031663d8257d176040518163ffffffff1660e01b815260040160206040518083038186803b158015610eb757600080fd5b505afa158015610ecb573d6000803e3d6000fd5b505050506040513d601f19601f82011682018060405250810190610eef919061218b565b9050610f6a565b836001600160a01b031663c66a9c5a6040518163ffffffff1660e01b815260040160206040518083038186803b158015610f2f57600080fd5b505afa158015610f43573d6000803e3d6000fd5b505050506040513d601f19601f82011682018060405250810190610f67919061218b565b90505b610f7e6001600160a01b038a16828a611385565b600060028c6006811115610f9457610f9461170a565b141561103a57816001600160a01b031663234636248b8b8b8f8c6040518663ffffffff1660e01b8152600401610fce9594939291906122db565b600060405180830381600087803b158015610fe857600080fd5b505af1158015610ffc573d6000803e3d6000fd5b50505050308a8a8a8e8b4660405160200161101d979695949392919061231d565b6040516020818303038152906040528051906020012090506110c3565b816001600160a01b031663234636248b8b8b8f8c6040518663ffffffff1660e01b815260040161106e9594939291906122db565b602060405180830381600087803b15801561108857600080fd5b505af115801561109c573d6000803e3d6000fd5b505050506040513d601f19601f820116820180604052508101906110c09190611cd9565b90505b604051634289fbb360e01b81526001600160a01b03861690634289fbb3908690610e1f908f908d90889088908e90600401612294565b60008060038b60068111156111105761111061170a565b141561118e57836001600160a01b031663dfa2dbaf6040518163ffffffff1660e01b815260040160206040518083038186803b15801561114f57600080fd5b505afa158015611163573d6000803e3d6000fd5b505050506040513d601f19601f82011682018060405250810190611187919061218b565b9050611202565b836001600160a01b03166395b12c276040518163ffffffff1660e01b815260040160206040518083038186803b1580156111c757600080fd5b505afa1580156111db573d6000803e3d6000fd5b505050506040513d601f19601f820116820180604052508101906111ff919061218b565b90505b6112166001600160a01b038a16828a611385565b600060038c600681111561122c5761122c61170a565b14156112ce57816001600160a01b031663de790c7e8b8b8e8b6040518563ffffffff1660e01b81526004016112649493929190612379565b600060405180830381600087803b15801561127e57600080fd5b505af1158015611292573d6000803e3d6000fd5b50505050308a8a8d8a466040516020016112b1969594939291906123ae565b604051602081830303815290604052805190602001209050611357565b816001600160a01b031663a00293018b8b8b8f8c6040518663ffffffff1660e01b81526004016113029594939291906122db565b602060405180830381600087803b15801561131c57600080fd5b505af1158015611330573d6000803e3d6000fd5b505050506040513d601f19601f820116820180604052508101906113549190611cd9565b90505b6110c36001600160a01b038b16836000611437565b606061137b84846000856114fa565b90505b9392505050565b600081846001600160a01b031663dd62ed3e30866040518363ffffffff1660e01b81526004016113b6929190612418565b60206040518083038186803b1580156113ce57600080fd5b505afa1580156113e2573d6000803e3d6000fd5b505050506040513d601f19601f820116820180604052508101906114069190611cd9565b6114109190612449565b90506114318463095ea7b360e01b8584604051602401610ac39291906120a3565b50505050565b8015806114bf5750604051636eb1769f60e11b81526001600160a01b0384169063dd62ed3e9061146d9030908690600401612418565b60206040518083038186803b15801561148557600080fd5b505afa158015611499573d6000803e3d6000fd5b505050506040513d601f19601f820116820180604052508101906114bd9190611cd9565b155b6114db5760405162461bcd60e51b815260040161039a906124b4565b610afa8363095ea7b360e01b8484604051602401610ac39291906120a3565b60608247101561151c5760405162461bcd60e51b815260040161039a90612507565b6001600160a01b0385163b6115435760405162461bcd60e51b815260040161039a9061254b565b600080866001600160a01b0316858760405161155f919061257d565b60006040518083038185875af1925050503d806000811461159c576040519150601f19603f3d011682016040523d82523d6000602084013e6115a1565b606091505b50915091506115b18282866115bc565b979650505050505050565b606083156115cb57508161137e565b8251156115db5782518084602001fd5b8160405162461bcd60e51b815260040161039a9190611cbd565b60006001600160a01b03821661050a565b61160f816115f5565b811461054357600080fd5b803561050a81611606565b8061160f565b803561050a81611625565b60008083601f84011261164b5761164b600080fd5b5081356001600160401b0381111561166557611665600080fd5b60208301915083600182028301111561168057611680600080fd5b9250929050565b6000806000806000608086880312156116a2576116a2600080fd5b60006116ae888861161a565b95505060206116bf8882890161162b565b94505060408601356001600160401b038111156116de576116de600080fd5b6116ea88828901611636565b935093505060606116fd8882890161161a565b9150509295509295909350565b634e487b7160e01b600052602160045260246000fd5b600381106105435761054361170a565b8061095681611720565b600061050a82611730565b61174e8161173a565b82525050565b6020810161050a8284611745565b6001600160401b03811661174e565b6020810161050a8284611762565b6001600160401b03811661160f565b803561050a8161177f565b600080600080608085870312156117b2576117b2600080fd5b60006117be878761161a565b94505060206117cf8782880161161a565b93505060406117e08782880161161a565b92505060606117f18782880161178e565b91505092959194509250565b61174e816115f5565b6020810161050a82846117fd565b634e487b7160e01b600052604160045260246000fd5b601f19601f83011681018181106001600160401b038211171561184f5761184f611814565b6040525050565b600061186160405190565b9050610956828261182a565b60006001600160401b0382111561188657611886611814565b601f19601f83011660200192915050565b82818337506000910152565b60006118b66118b18461186d565b611856565b9050828152602081018484840111156118d1576118d1600080fd5b6118dc848285611897565b509392505050565b600082601f8301126118f8576118f8600080fd5b81356107698482602086016118a3565b60006020828403121561191d5761191d600080fd5b81356001600160401b0381111561193657611936600080fd5b610769848285016118e4565b8061174e565b6020810161050a8284611942565b60006020828403121561196b5761196b600080fd5b6000610769848461161a565b6000806040838503121561198d5761198d600080fd5b6000611999858561161a565b92505060206119aa8582860161162b565b9150509250929050565b600061050a826115f5565b61160f816119b4565b803561050a816119bf565b6000806000606084860312156119eb576119eb600080fd5b60006119f786866119c8565b9350506020611a088682870161161a565b9250506040611a198682870161162b565b9150509250925092565b600060808284031215611a3857611a38600080fd5b50919050565b60008060008060c08587031215611a5757611a57600080fd5b6000611a638787611a23565b9450506080611a748782880161178e565b93505060a08501356001600160401b03811115611a9357611a93600080fd5b611a9f87828801611636565b95989497509550505050565b63ffffffff811661160f565b803561050a81611aab565b600080600080600060a08688031215611add57611add600080fd5b6000611ae988886119c8565b9550506020611afa8882890161162b565b9450506040611b0b8882890161178e565b9350506060611b1c88828901611ab7565b92505060808601356001600160401b03811115611b3b57611b3b600080fd5b6116fd888289016118e4565b600060208284031215611b5c57611b5c600080fd5b6000610769848461178e565b603081526000602082017f52656368617267654d65737361676553656e6465723a2063616c6c657220697381526f206e6f74206d6573736167652062757360801b602082015291505b5060400190565b6020808252810161050a81611b68565b8183526000602084019350611bde838584611897565b601f19601f8401165b9093019392505050565b60808101611bff82886117fd565b611c0c6020830187611942565b8181036040830152611c1f818587611bc8565b9050611c2e60608301846117fd565b9695505050505050565b600061050a82611c46565b90565b60ff1690565b61174e81611c38565b6020810161050a8284611c4c565b60005b83811015611c7e578181015183820152602001611c66565b838111156114315750506000910152565b6000611c99825190565b808452602084019350611cb0818560208601611c63565b601f19601f820116611be7565b6020808252810161137e8184611c8f565b805161050a81611625565b600060208284031215611cee57611cee600080fd5b60006107698484611cce565b60208082527f4f776e61626c653a2063616c6c6572206973206e6f7420746865206f776e6572910190815260005b5060200190565b6020808252810161050a81611cfa565b602f81526000602082017f4f776e6572576974686472617761626c653a207769746864726177206e61746981526e1d99481d1bdad95b8819985a5b1959608a1b60208201529150611bb1565b6020808252810161050a81611d3f565b600061050a826119b4565b61174e81611d9b565b60408101611dbd8285611da6565b61137e6020830184611942565b60608101611dd88286611da6565b611de560208301856117fd565b6107696040830184611942565b600281106105435761054361170a565b8061095681611df2565b600061050a82611e02565b600061050a8260f81b90565b61174e611e2f82611e0c565b611e17565b600061050a8260601b90565b600061050a82611e34565b61174e611e57826115f5565b611e40565b600061050a8260c01b90565b61174e6001600160401b038216611e5c565b6000611e87838584611897565b50500190565b6000611e99828b611e23565b600182019150611ea9828a611e4b565b601482019150611eb98289611e4b565b601482019150611ec98288611e68565b600882019150611ed98287611942565b602082019150611ee98286611e68565b600882019150610c24828486611e7a565b603681526000602082017f52656368617267654d65737361676553656e6465723a2063616c6c6572206973815275081b9bdd081c9958da185c99d94818dbdb9d1c9858dd60521b60208201529150611bb1565b6020808252810161050a81611efa565b63ffffffff811661174e565b6101208101611f78828c6117fd565b611f85602083018b6117fd565b611f92604083018a611da6565b611f9f6060830189611942565b611fac6080830188611762565b611fb960a0830187611762565b611fc660c0830186611762565b611fd360e0830185611f5d565b818103610100830152611fe68184611c8f565b9b9a5050505050505050505050565b602681526000602082017f4f776e61626c653a206e6577206f776e657220697320746865207a65726f206181526564647265737360d01b60208201529150611bb1565b6020808252810161050a81611ff5565b602e81526000602082017f496e697469616c697a61626c653a20636f6e747261637420697320616c72656181526d191e481a5b9a5d1a585b1a5e995960921b60208201529150611bb1565b6020808252810161050a81612048565b60408101611dbd82856117fd565b601981526000602082017f6272696467652074797065206e6f7420737570706f727465640000000000000081529150611d28565b6020808252810161050a816120b1565b80151561160f565b805161050a816120f5565b60006020828403121561211d5761211d600080fd5b600061076984846120fd565b602a81526000602082017f5361666545524332303a204552433230206f7065726174696f6e20646964206e8152691bdd081cdd58d8d9595960b21b60208201529150611bb1565b6020808252810161050a81612129565b805161050a81611606565b6000602082840312156121a0576121a0600080fd5b60006107698484612180565b60c081016121ba82896117fd565b6121c760208301886117fd565b6121d46040830187611942565b6121e16060830186611762565b6121ee6080830185611762565b6115b160a0830184611f5d565b6000612207828a611e4b565b6014820191506122178289611e4b565b6014820191506122278288611e4b565b6014820191506122378287611942565b6020820191506122478286611e68565b6008820191506122578285611e68565b6008820191506122678284611e68565b50600801979650505050505050565b600061050a611c436001600160401b03841681565b61174e81612276565b60a081016122a282886117fd565b6122af602083018761228b565b6122bc60408301866117fd565b6122c96060830185611942565b81810360808301526115b18184611c8f565b60a081016122e982886117fd565b6122f66020830187611942565b6123036040830186611762565b61231060608301856117fd565b611c2e6080830184611762565b6000612329828a611e4b565b6014820191506123398289611e4b565b6014820191506123498288611942565b6020820191506123598287611e68565b6008820191506123698286611e4b565b6014820191506122578285611e68565b6080810161238782876117fd565b6123946020830186611942565b6123a160408301856117fd565b6103e66060830184611762565b60006123ba8289611e4b565b6014820191506123ca8288611e4b565b6014820191506123da8287611942565b6020820191506123ea8286611e4b565b6014820191506123fa8285611e68565b60088201915061240a8284611e68565b506008019695505050505050565b6040810161242682856117fd565b61137e60208301846117fd565b634e487b7160e01b600052601160045260246000fd5b6000821982111561245c5761245c612433565b500190565b603681526000602082017f5361666545524332303a20617070726f76652066726f6d206e6f6e2d7a65726f81527520746f206e6f6e2d7a65726f20616c6c6f77616e636560501b60208201529150611bb1565b6020808252810161050a81612461565b602681526000602082017f416464726573733a20696e73756666696369656e742062616c616e636520666f8152651c8818d85b1b60d21b60208201529150611bb1565b6020808252810161050a816124c4565b601d81526000602082017f416464726573733a2063616c6c20746f206e6f6e2d636f6e747261637400000081529150611d28565b6020808252810161050a81612517565b6000612565825190565b612573818560208601611c63565b9290920192915050565b600061137e828461255b56fea2646970667358221220ac8c91c9a8c24d6c9892b37871b4b8eb9f27e3bd7a35310da0206d921ae2ff2864736f6c63430008090033",
  "devdoc": {
    "author": "Alexandas",
    "details": "Celer SGN source chain sender contract",
    "kind": "dev",
    "methods": {
      "calcFee(bytes)": {
        "details": "calculate message fee",
        "params": {
          "message": "message bytes"
        },
        "returns": {
          "_0": "fee"
        }
      },
      "executeMessageWithTransferRefund(address,uint256,bytes,address)": {
        "details": "call when cBridge transfer failed",
        "params": {
          "_amount": "token amount",
          "_message": "message",
          "_token": "token address",
          "executor": "exector address"
        }
      },
      "initialize(address,address,address,uint64)": {
        "details": "proxy initialize function",
        "params": {
          "_dstChainId": "dst chain chainId",
          "_messageBus": "src chain messageBus",
          "_receiver": "dst chain receiver",
          "owner": "contract owner"
        }
      },
      "messageId((address,address,uint64,bytes32),uint64,bytes)": {
        "details": "messageId for message bus",
        "params": {
          "dstChainId": "message route info",
          "message": "message bytes",
          "route": "message route info"
        }
      },
      "owner()": {
        "details": "Returns the address of the current owner."
      },
      "ownerWithdrawERC20(address,address,uint256)": {
        "details": "withdraw token",
        "params": {
          "to": "receiver address",
          "token": "token address",
          "value": "token value"
        }
      },
      "ownerWithdrawNative(address,uint256)": {
        "details": "withdraw ETH",
        "params": {
          "to": "receiver address",
          "value": "token value"
        }
      },
      "renounceOwnership()": {
        "details": "Leaves the contract without owner. It will not be possible to call `onlyOwner` functions anymore. Can only be called by the current owner. NOTE: Renouncing ownership will leave the contract without an owner, thereby removing any functionality that is only available to the owner."
      },
      "sendMessageWithTransfer(address,uint256,uint64,uint32,bytes)": {
        "details": "sendMessageWithTransfer to dst chain",
        "params": {
          "message": "message to dst chain"
        }
      },
      "setDstChainId(uint64)": {
        "details": "set dst chain chainId",
        "params": {
          "dstChainId": "dst chainId"
        }
      },
      "setMessageBus(address)": {
        "details": "update message bus",
        "params": {
          "messageBus": "message bus address"
        }
      },
      "setReceiver(address)": {
        "details": "set dst chain receiver",
        "params": {
          "_receiver": "dst chain receiver"
        }
      },
      "setSrcChainRecharge(address)": {
        "details": "set src chain recharge",
        "params": {
          "_recharge": "src chain recharge address"
        }
      },
      "transferOwnership(address)": {
        "details": "Transfers ownership of the contract to a new account (`newOwner`). Can only be called by the current owner."
      }
    },
    "stateVariables": {
      "dstChainId": {
        "details": "dst chainId"
      },
      "messageBus": {
        "details": "src chain messageBus address"
      },
      "receiver": {
        "details": "dst chain receiver address"
      },
      "srcChainRecharge": {
        "details": "src chain payment address"
      }
    },
    "version": 1
  },
  "userdoc": {
    "kind": "user",
    "methods": {},
    "version": 1
  },
  "storageLayout": {
    "storage": [
      {
        "astId": 147,
        "contract": "contracts/recharges/RechargeMessageSender.sol:RechargeMessageSender",
        "label": "_initialized",
        "offset": 0,
        "slot": "0",
        "type": "t_uint8"
      },
      {
        "astId": 150,
        "contract": "contracts/recharges/RechargeMessageSender.sol:RechargeMessageSender",
        "label": "_initializing",
        "offset": 1,
        "slot": "0",
        "type": "t_bool"
      },
      {
        "astId": 1038,
        "contract": "contracts/recharges/RechargeMessageSender.sol:RechargeMessageSender",
        "label": "__gap",
        "offset": 0,
        "slot": "1",
        "type": "t_array(t_uint256)50_storage"
      },
      {
        "astId": 10,
        "contract": "contracts/recharges/RechargeMessageSender.sol:RechargeMessageSender",
        "label": "_owner",
        "offset": 0,
        "slot": "51",
        "type": "t_address"
      },
      {
        "astId": 122,
        "contract": "contracts/recharges/RechargeMessageSender.sol:RechargeMessageSender",
        "label": "__gap",
        "offset": 0,
        "slot": "52",
        "type": "t_array(t_uint256)49_storage"
      },
      {
        "astId": 10687,
        "contract": "contracts/recharges/RechargeMessageSender.sol:RechargeMessageSender",
        "label": "srcChainRecharge",
        "offset": 0,
        "slot": "101",
        "type": "t_address"
      },
      {
        "astId": 10690,
        "contract": "contracts/recharges/RechargeMessageSender.sol:RechargeMessageSender",
        "label": "messageBus",
        "offset": 0,
        "slot": "102",
        "type": "t_address"
      },
      {
        "astId": 10694,
        "contract": "contracts/recharges/RechargeMessageSender.sol:RechargeMessageSender",
        "label": "receiver",
        "offset": 0,
        "slot": "103",
        "type": "t_address"
      },
      {
        "astId": 10698,
        "contract": "contracts/recharges/RechargeMessageSender.sol:RechargeMessageSender",
        "label": "dstChainId",
        "offset": 20,
        "slot": "103",
        "type": "t_uint64"
      }
    ],
    "types": {
      "t_address": {
        "encoding": "inplace",
        "label": "address",
        "numberOfBytes": "20"
      },
      "t_array(t_uint256)49_storage": {
        "base": "t_uint256",
        "encoding": "inplace",
        "label": "uint256[49]",
        "numberOfBytes": "1568"
      },
      "t_array(t_uint256)50_storage": {
        "base": "t_uint256",
        "encoding": "inplace",
        "label": "uint256[50]",
        "numberOfBytes": "1600"
      },
      "t_bool": {
        "encoding": "inplace",
        "label": "bool",
        "numberOfBytes": "1"
      },
      "t_uint256": {
        "encoding": "inplace",
        "label": "uint256",
        "numberOfBytes": "32"
      },
      "t_uint64": {
        "encoding": "inplace",
        "label": "uint64",
        "numberOfBytes": "8"
      },
      "t_uint8": {
        "encoding": "inplace",
        "label": "uint8",
        "numberOfBytes": "1"
      }
    }
  }
}