{
  "address": "0x9f6692Eab65F049D8102FDd5B324e07221046F72",
  "abi": [
    {
      "inputs": [],
      "stateMutability": "nonpayable",
      "type": "constructor"
    },
    {
      "anonymous": false,
      "inputs": [
        {
          "indexed": false,
          "internalType": "uint8",
          "name": "version",
          "type": "uint8"
        }
      ],
      "name": "Initialized",
      "type": "event"
    },
    {
      "anonymous": false,
      "inputs": [
        {
          "indexed": false,
          "internalType": "address",
          "name": "to",
          "type": "address"
        },
        {
          "indexed": false,
          "internalType": "uint256",
          "name": "value",
          "type": "uint256"
        }
      ],
      "name": "NativeWithdrawal",
      "type": "event"
    },
    {
      "anonymous": false,
      "inputs": [
        {
          "indexed": true,
          "internalType": "address",
          "name": "previousOwner",
          "type": "address"
        },
        {
          "indexed": true,
          "internalType": "address",
          "name": "newOwner",
          "type": "address"
        }
      ],
      "name": "OwnershipTransferred",
      "type": "event"
    },
    {
      "anonymous": false,
      "inputs": [
        {
          "indexed": false,
          "internalType": "contract IERC20Upgradeable",
          "name": "token",
          "type": "address"
        },
        {
          "components": [
            {
              "internalType": "address",
              "name": "provider",
              "type": "address"
            },
            {
              "internalType": "uint64",
              "name": "nonce",
              "type": "uint64"
            },
            {
              "internalType": "bytes32",
              "name": "account",
              "type": "bytes32"
            },
            {
              "components": [
                {
                  "internalType": "enum ResourceData.ResourceType",
                  "name": "resourceType",
                  "type": "uint8"
                },
                {
                  "internalType": "uint256[]",
                  "name": "values",
                  "type": "uint256[]"
                }
              ],
              "internalType": "struct ResourceData.ValuePayload[]",
              "name": "payloads",
              "type": "tuple[]"
            }
          ],
          "indexed": false,
          "internalType": "struct IDstChainPayment.PaymentPayload",
          "name": "payloads",
          "type": "tuple"
        }
      ],
      "name": "Paid",
      "type": "event"
    },
    {
      "anonymous": false,
      "inputs": [
        {
          "indexed": false,
          "internalType": "address",
          "name": "provider",
          "type": "address"
        },
        {
          "indexed": false,
          "internalType": "bytes32",
          "name": "account",
          "type": "bytes32"
        },
        {
          "components": [
            {
              "internalType": "enum ResourceData.ResourceType",
              "name": "resourceType",
              "type": "uint8"
            },
            {
              "internalType": "uint256[]",
              "name": "values",
              "type": "uint256[]"
            }
          ],
          "indexed": false,
          "internalType": "struct ResourceData.ValuePayload[]",
          "name": "payloads",
          "type": "tuple[]"
        }
      ],
      "name": "PaidV2",
      "type": "event"
    },
    {
      "anonymous": false,
      "inputs": [
        {
          "indexed": false,
          "internalType": "address",
          "name": "account",
          "type": "address"
        }
      ],
      "name": "Paused",
      "type": "event"
    },
    {
      "anonymous": false,
      "inputs": [
        {
          "indexed": false,
          "internalType": "address",
          "name": "account",
          "type": "address"
        }
      ],
      "name": "PauserAdded",
      "type": "event"
    },
    {
      "anonymous": false,
      "inputs": [
        {
          "indexed": false,
          "internalType": "address",
          "name": "account",
          "type": "address"
        }
      ],
      "name": "PauserRemoved",
      "type": "event"
    },
    {
      "anonymous": false,
      "inputs": [
        {
          "indexed": false,
          "internalType": "contract IRouter",
          "name": "router",
          "type": "address"
        }
      ],
      "name": "RouterUpdated",
      "type": "event"
    },
    {
      "anonymous": false,
      "inputs": [
        {
          "indexed": false,
          "internalType": "address",
          "name": "account",
          "type": "address"
        }
      ],
      "name": "Unpaused",
      "type": "event"
    },
    {
      "anonymous": false,
      "inputs": [
        {
          "indexed": false,
          "internalType": "contract IERC20Upgradeable",
          "name": "token",
          "type": "address"
        },
        {
          "indexed": false,
          "internalType": "address",
          "name": "to",
          "type": "address"
        },
        {
          "indexed": false,
          "internalType": "uint256",
          "name": "value",
          "type": "uint256"
        }
      ],
      "name": "Withdrawal",
      "type": "event"
    },
    {
      "inputs": [
        {
          "internalType": "address",
          "name": "account",
          "type": "address"
        }
      ],
      "name": "addPauser",
      "outputs": [],
      "stateMutability": "nonpayable",
      "type": "function"
    },
    {
      "inputs": [
        {
          "internalType": "address",
          "name": "provider",
          "type": "address"
        }
      ],
      "name": "balanceOf",
      "outputs": [
        {
          "internalType": "uint256",
          "name": "",
          "type": "uint256"
        }
      ],
      "stateMutability": "view",
      "type": "function"
    },
    {
      "inputs": [
        {
          "internalType": "bytes",
          "name": "message",
          "type": "bytes"
        }
      ],
      "name": "celerExec",
      "outputs": [],
      "stateMutability": "nonpayable",
      "type": "function"
    },
    {
      "inputs": [
        {
          "internalType": "bytes",
          "name": "message",
          "type": "bytes"
        }
      ],
      "name": "decodeMessage",
      "outputs": [
        {
          "internalType": "address",
          "name": "provider",
          "type": "address"
        },
        {
          "internalType": "bytes32",
          "name": "account",
          "type": "bytes32"
        },
        {
          "components": [
            {
              "internalType": "enum ResourceData.ResourceType",
              "name": "resourceType",
              "type": "uint8"
            },
            {
              "internalType": "uint256[]",
              "name": "values",
              "type": "uint256[]"
            }
          ],
          "internalType": "struct ResourceData.ValuePayload[]",
          "name": "payloads",
          "type": "tuple[]"
        }
      ],
      "stateMutability": "view",
      "type": "function"
    },
    {
      "inputs": [
        {
          "internalType": "bytes",
          "name": "message",
          "type": "bytes"
        }
      ],
      "name": "decodeSourceChainMessage",
      "outputs": [
        {
          "internalType": "address",
          "name": "provider",
          "type": "address"
        },
        {
          "internalType": "uint64",
          "name": "nonce",
          "type": "uint64"
        },
        {
          "internalType": "bytes32",
          "name": "account",
          "type": "bytes32"
        },
        {
          "components": [
            {
              "internalType": "enum ResourceData.ResourceType",
              "name": "resourceType",
              "type": "uint8"
            },
            {
              "internalType": "uint256[]",
              "name": "values",
              "type": "uint256[]"
            }
          ],
          "internalType": "struct ResourceData.ValuePayload[]",
          "name": "payloads",
          "type": "tuple[]"
        }
      ],
      "stateMutability": "view",
      "type": "function"
    },
    {
      "inputs": [
        {
          "internalType": "address",
          "name": "provider",
          "type": "address"
        },
        {
          "internalType": "enum ResourceData.ResourceType",
          "name": "resourceType",
          "type": "uint8"
        },
        {
          "internalType": "uint256",
          "name": "value",
          "type": "uint256"
        }
      ],
      "name": "getAmountOf",
      "outputs": [
        {
          "internalType": "uint256",
          "name": "",
          "type": "uint256"
        }
      ],
      "stateMutability": "view",
      "type": "function"
    },
    {
      "inputs": [
        {
          "internalType": "address",
          "name": "provider",
          "type": "address"
        },
        {
          "internalType": "enum ResourceData.ResourceType",
          "name": "resourceType",
          "type": "uint8"
        },
        {
          "internalType": "uint256",
          "name": "amount",
          "type": "uint256"
        }
      ],
      "name": "getValueOf",
      "outputs": [
        {
          "internalType": "uint256",
          "name": "",
          "type": "uint256"
        }
      ],
      "stateMutability": "view",
      "type": "function"
    },
    {
      "inputs": [
        {
          "internalType": "address",
          "name": "owner",
          "type": "address"
        },
        {
          "internalType": "address",
          "name": "pauser",
          "type": "address"
        },
        {
          "internalType": "contract IRouter",
          "name": "router",
          "type": "address"
        }
      ],
      "name": "initialize",
      "outputs": [],
      "stateMutability": "nonpayable",
      "type": "function"
    },
    {
      "inputs": [
        {
          "internalType": "address",
          "name": "provider",
          "type": "address"
        },
        {
          "internalType": "bytes32",
          "name": "account",
          "type": "bytes32"
        },
        {
          "internalType": "uint256",
          "name": "storageFee",
          "type": "uint256"
        },
        {
          "internalType": "uint256",
          "name": "expirationFee",
          "type": "uint256"
        }
      ],
      "name": "ipfsAllocations",
      "outputs": [
        {
          "internalType": "uint256",
          "name": "amount",
          "type": "uint256"
        },
        {
          "internalType": "uint256",
          "name": "expiration",
          "type": "uint256"
        }
      ],
      "stateMutability": "view",
      "type": "function"
    },
    {
      "inputs": [
        {
          "internalType": "address",
          "name": "provider",
          "type": "address"
        },
        {
          "internalType": "bytes32",
          "name": "account",
          "type": "bytes32"
        },
        {
          "internalType": "uint256",
          "name": "amount",
          "type": "uint256"
        },
        {
          "internalType": "uint256",
          "name": "expiration",
          "type": "uint256"
        }
      ],
      "name": "ipfsAlloctionsFee",
      "outputs": [
        {
          "internalType": "uint256",
          "name": "storageFee",
          "type": "uint256"
        },
        {
          "internalType": "uint256",
          "name": "expirationFee",
          "type": "uint256"
        }
      ],
      "stateMutability": "view",
      "type": "function"
    },
    {
      "inputs": [
        {
          "internalType": "address",
          "name": "account",
          "type": "address"
        }
      ],
      "name": "isPauser",
      "outputs": [
        {
          "internalType": "bool",
          "name": "",
          "type": "bool"
        }
      ],
      "stateMutability": "view",
      "type": "function"
    },
    {
      "inputs": [],
      "name": "owner",
      "outputs": [
        {
          "internalType": "address",
          "name": "",
          "type": "address"
        }
      ],
      "stateMutability": "view",
      "type": "function"
    },
    {
      "inputs": [
        {
          "internalType": "contract IERC20Upgradeable",
          "name": "token",
          "type": "address"
        },
        {
          "internalType": "address",
          "name": "to",
          "type": "address"
        },
        {
          "internalType": "uint256",
          "name": "value",
          "type": "uint256"
        }
      ],
      "name": "ownerWithdrawERC20",
      "outputs": [],
      "stateMutability": "nonpayable",
      "type": "function"
    },
    {
      "inputs": [
        {
          "internalType": "address payable",
          "name": "to",
          "type": "address"
        },
        {
          "internalType": "uint256",
          "name": "value",
          "type": "uint256"
        }
      ],
      "name": "ownerWithdrawNative",
      "outputs": [],
      "stateMutability": "nonpayable",
      "type": "function"
    },
    {
      "inputs": [],
      "name": "pause",
      "outputs": [],
      "stateMutability": "nonpayable",
      "type": "function"
    },
    {
      "inputs": [],
      "name": "paused",
      "outputs": [
        {
          "internalType": "bool",
          "name": "",
          "type": "bool"
        }
      ],
      "stateMutability": "view",
      "type": "function"
    },
    {
      "inputs": [
        {
          "internalType": "address",
          "name": "",
          "type": "address"
        }
      ],
      "name": "pausers",
      "outputs": [
        {
          "internalType": "bool",
          "name": "",
          "type": "bool"
        }
      ],
      "stateMutability": "view",
      "type": "function"
    },
    {
      "inputs": [
        {
          "components": [
            {
              "internalType": "address",
              "name": "provider",
              "type": "address"
            },
            {
              "internalType": "uint64",
              "name": "nonce",
              "type": "uint64"
            },
            {
              "internalType": "bytes32",
              "name": "account",
              "type": "bytes32"
            },
            {
              "components": [
                {
                  "internalType": "enum ResourceData.ResourceType",
                  "name": "resourceType",
                  "type": "uint8"
                },
                {
                  "internalType": "uint256[]",
                  "name": "values",
                  "type": "uint256[]"
                }
              ],
              "internalType": "struct ResourceData.ValuePayload[]",
              "name": "payloads",
              "type": "tuple[]"
            }
          ],
          "internalType": "struct IDstChainPayment.PaymentPayload",
          "name": "payload",
          "type": "tuple"
        }
      ],
      "name": "pay",
      "outputs": [
        {
          "internalType": "uint256",
          "name": "value",
          "type": "uint256"
        }
      ],
      "stateMutability": "nonpayable",
      "type": "function"
    },
    {
      "inputs": [
        {
          "internalType": "contract IERC20Upgradeable",
          "name": "_token",
          "type": "address"
        },
        {
          "internalType": "uint256",
          "name": "dstAmount",
          "type": "uint256"
        },
        {
          "internalType": "bytes",
          "name": "message",
          "type": "bytes"
        }
      ],
      "name": "payFromSourceChain",
      "outputs": [],
      "stateMutability": "nonpayable",
      "type": "function"
    },
    {
      "inputs": [
        {
          "internalType": "address",
          "name": "provider",
          "type": "address"
        },
        {
          "internalType": "bytes32",
          "name": "account",
          "type": "bytes32"
        },
        {
          "components": [
            {
              "internalType": "enum ResourceData.ResourceType",
              "name": "resourceType",
              "type": "uint8"
            },
            {
              "internalType": "uint256[]",
              "name": "values",
              "type": "uint256[]"
            }
          ],
          "internalType": "struct ResourceData.ValuePayload[]",
          "name": "payloads",
          "type": "tuple[]"
        }
      ],
      "name": "payV2",
      "outputs": [
        {
          "internalType": "uint256",
          "name": "value",
          "type": "uint256"
        }
      ],
      "stateMutability": "nonpayable",
      "type": "function"
    },
    {
      "inputs": [
        {
          "internalType": "address",
          "name": "provider",
          "type": "address"
        },
        {
          "internalType": "enum ResourceData.ResourceType",
          "name": "resourceType",
          "type": "uint8"
        }
      ],
      "name": "priceOf",
      "outputs": [
        {
          "internalType": "uint256",
          "name": "",
          "type": "uint256"
        }
      ],
      "stateMutability": "view",
      "type": "function"
    },
    {
      "inputs": [
        {
          "internalType": "address",
          "name": "account",
          "type": "address"
        }
      ],
      "name": "removePauser",
      "outputs": [],
      "stateMutability": "nonpayable",
      "type": "function"
    },
    {
      "inputs": [],
      "name": "renounceOwnership",
      "outputs": [],
      "stateMutability": "nonpayable",
      "type": "function"
    },
    {
      "inputs": [],
      "name": "renouncePauser",
      "outputs": [],
      "stateMutability": "nonpayable",
      "type": "function"
    },
    {
      "inputs": [],
      "name": "router",
      "outputs": [
        {
          "internalType": "contract IRouter",
          "name": "",
          "type": "address"
        }
      ],
      "stateMutability": "view",
      "type": "function"
    },
    {
      "inputs": [
        {
          "internalType": "address",
          "name": "newOwner",
          "type": "address"
        }
      ],
      "name": "transferOwnership",
      "outputs": [],
      "stateMutability": "nonpayable",
      "type": "function"
    },
    {
      "inputs": [],
      "name": "unpause",
      "outputs": [],
      "stateMutability": "nonpayable",
      "type": "function"
    }
  ],
  "transactionHash": "0x37bbc2c501c1cea6721efea31816274151a3c8cb6c03aebf9d865bfe98ae4421",
  "args": [],
  "numDeployments": 2,
  "solcInputHash": "88898d944c876018937712bb26eaa334",
  "bytecode": "0x60806040523480156200001157600080fd5b5060006200002060016200008e565b9050801562000039576000805461ff0019166101001790555b801562000087576000805461ff00191690556040517f7f26b83ff96e1f2b6a682f133852f6798a09c465da95921460cefb3847402498906200007e9060019062000168565b60405180910390a15b50620001cb565b60008054610100900460ff1615620000f7578160ff166001148015620000c75750620000c5306200013b60201b620017121760201c565b155b620000ef5760405162461bcd60e51b8152600401620000e69062000178565b60405180910390fd5b506000919050565b60005460ff808416911610620001215760405162461bcd60e51b8152600401620000e69062000178565b506000805460ff191660ff92909216919091179055600190565b6001600160a01b03163b151590565b600060ff82165b92915050565b62000162816200014a565b82525050565b6020810162000151828462000157565b602080825281016200015181602e81527f496e697469616c697a61626c653a20636f6e747261637420697320616c72656160208201526d191e481a5b9a5d1a585b1a5e995960921b604082015260600190565b61456880620001db6000396000f3fe608060405234801561001057600080fd5b50600436106101a95760003560e01c806370a08231116100f957806393563a9511610097578063c0c53b8b11610071578063c0c53b8b14610397578063ce841dd2146103aa578063f2fde38b146103bd578063f887ea40146103d057600080fd5b806393563a951461034057806394e48f8914610353578063bd1699751461037457600080fd5b806380f51c12116100d357806380f51c12146102e957806382dc1ec41461030c5780638456cb591461031f5780638da5cb5b1461032757600080fd5b806370a08231146102bb578063715018a6146102ce57806377ef533c146102d657600080fd5b80636267834e11610166578063699256f411610140578063699256f41461027a5780636b2c0f551461028d5780636ef8d66d146102a05780636f63d9ec146102a857600080fd5b80636267834e14610232578063634d45b21461024557806365d6b40c1461026757600080fd5b806335da9b23146101ae5780633f4ba83a146101d757806346fbf68e146101e1578063490e4fa2146102015780635c975abb146102145780635e1a544c1461021f575b600080fd5b6101c16101bc366004612b49565b6103f0565b6040516101ce9190612ba1565b60405180910390f35b6101df610507565b005b6101f46101ef366004612baf565b61053f565b6040516101ce9190612bd8565b6101c161020f366004612e81565b61055d565b60975460ff166101f4565b6101c161022d366004612ebb565b6106b6565b6101df610240366004612f49565b6107ca565b610258610253366004613026565b61092d565b6040516101ce939291906131a8565b6101c1610275366004612b49565b610953565b6101df6102883660046131d5565b610a0f565b6101df61029b366004612baf565b610abd565b6101df610af3565b6101c16102b6366004613208565b610afc565b6101c16102c9366004612baf565b610c45565b6101df610d75565b6101df6102e4366004613287565b610da9565b6101f46102f7366004612baf565b60c96020526000908152604090205460ff1681565b6101df61031a366004612baf565b611068565b6101df61109b565b6065546001600160a01b03166040516101ce91906132f4565b6101df61034e366004613302565b6110c8565b610366610361366004613337565b611139565b6040516101ce92919061339b565b610387610382366004613026565b6113f9565b6040516101ce94939291906133c5565b6101df6103a5366004613409565b611423565b6103666103b8366004613337565b6114b3565b6101df6103cb366004612baf565b6116b9565b60ca546103e3906001600160a01b031681565b6040516101ce9190613463565b60008060ca60009054906101000a90046001600160a01b03166001600160a01b03166337187fc36040518163ffffffff1660e01b815260040160206040518083038186803b15801561044157600080fd5b505afa158015610455573d6000803e3d6000fd5b505050506040513d601f19601f82011682018060405250810190610479919061347c565b6040516335da9b2360e01b81529091506001600160a01b038216906335da9b23906104ac9088908890889060040161349d565b60206040518083038186803b1580156104c457600080fd5b505afa1580156104d8573d6000803e3d6000fd5b505050506040513d601f19601f820116820180604052508101906104fc91906134d0565b9150505b9392505050565b6105103361053f565b6105355760405162461bcd60e51b815260040161052c90613526565b60405180910390fd5b61053d611721565b565b6001600160a01b0316600090815260c9602052604090205460ff1690565b600061056b60975460ff1690565b156105885760405162461bcd60e51b815260040161052c9061355d565b600260015414156105ab5760405162461bcd60e51b815260040161052c906135a1565b60026001558151604083015160608401516105c7929190611787565b9050600060ca60009054906101000a90046001600160a01b03166001600160a01b031663c24126766040518163ffffffff1660e01b815260040160206040518083038186803b15801561061957600080fd5b505afa15801561062d573d6000803e3d6000fd5b505050506040513d601f19601f82011682018060405250810190610651919061347c565b905061065d8183611ea7565b9150610673836000015184604001518385611f0e565b7fc5f1085d8db8470034ca0b57c2029a07440e82632d8b6d34119bcc93fed8064881846040516106a492919061365c565b60405180910390a15060018055919050565b60008060ca60009054906101000a90046001600160a01b03166001600160a01b03166337187fc36040518163ffffffff1660e01b815260040160206040518083038186803b15801561070757600080fd5b505afa15801561071b573d6000803e3d6000fd5b505050506040513d601f19601f8201168201806040525081019061073f919061347c565b604051631786951360e21b81529091506001600160a01b03821690635e1a544c90610770908790879060040161367c565b60206040518083038186803b15801561078857600080fd5b505afa15801561079c573d6000803e3d6000fd5b505050506040513d601f19601f820116820180604052508101906107c091906134d0565b9150505b92915050565b60ca54604080516303bf7e6b60e21b815290516000926001600160a01b031691630efdf9ac916004808301926020929190829003018186803b15801561080f57600080fd5b505afa158015610823573d6000803e3d6000fd5b505050506040513d601f19601f8201168201806040525081019061084791906136a2565b9050336001600160a01b038216146108715760405162461bcd60e51b815260040161052c90613710565b60975460ff16156108945760405162461bcd60e51b815260040161052c9061355d565b60008060006108d886868080601f01602080910402602001604051908101604052809392919081815260200183838082843760009201919091525061092d92505050565b9250925092506108e983838361207b565b507fa5e8ac6f0e257373f82e6696a38a9acc7b1d97e8435d3262f297f8ba36815e2c83838360405161091d939291906131a8565b60405180910390a1505050505050565b6000806060838060200190518101906109469190613889565b9196909550909350915050565b60008060ca60009054906101000a90046001600160a01b03166001600160a01b03166337187fc36040518163ffffffff1660e01b815260040160206040518083038186803b1580156109a457600080fd5b505afa1580156109b8573d6000803e3d6000fd5b505050506040513d601f19601f820116820180604052508101906109dc919061347c565b604051631975ad0360e21b81529091506001600160a01b038216906365d6b40c906104ac9088908890889060040161349d565b6065546001600160a01b03163314610a395760405162461bcd60e51b815260040161052c9061391b565b6040516000906001600160a01b0384169083156108fc0290849084818181858888f19350505050905080610a7f5760405162461bcd60e51b815260040161052c90613977565b7f2c876ecb97b3c6854f2488d373403f903eacb800e51c159a5c0c7a9c857e48278383604051610ab0929190613987565b60405180910390a1505050565b6065546001600160a01b03163314610ae75760405162461bcd60e51b815260040161052c9061391b565b610af0816122c2565b50565b61053d336122c2565b6000610b0a60975460ff1690565b15610b275760405162461bcd60e51b815260040161052c9061355d565b60026001541415610b4a5760405162461bcd60e51b815260040161052c906135a1565b60026001556000610b5c85858561207b565b9050600060ca60009054906101000a90046001600160a01b03166001600160a01b031663c24126766040518163ffffffff1660e01b815260040160206040518083038186803b158015610bae57600080fd5b505afa158015610bc2573d6000803e3d6000fd5b505050506040513d601f19601f82011682018060405250810190610be6919061347c565b9050610bfd6001600160a01b038216333085612342565b7fa5e8ac6f0e257373f82e6696a38a9acc7b1d97e8435d3262f297f8ba36815e2c868686604051610c30939291906131a8565b60405180910390a15050600180559392505050565b60ca54604080516314b47ed960e31b815290516000926001600160a01b03169163a5a3f6c8916004808301926020929190829003018186803b158015610c8a57600080fd5b505afa158015610c9e573d6000803e3d6000fd5b505050506040513d601f19601f82011682018060405250810190610cc2919061347c565b6001600160a01b0316636b074a07836040518263ffffffff1660e01b8152600401610ced91906132f4565b60206040518083038186803b158015610d0557600080fd5b505afa158015610d19573d6000803e3d6000fd5b505050506040513d601f19601f82011682018060405250810190610d3d91906139a8565b610d595760405162461bcd60e51b815260040161052c90613a0b565b506001600160a01b0316600090815260cb602052604090205490565b6065546001600160a01b03163314610d9f5760405162461bcd60e51b815260040161052c9061391b565b61053d600061239a565b60ca54604080516303bf7e6b60e21b815290516000926001600160a01b031691630efdf9ac916004808301926020929190829003018186803b158015610dee57600080fd5b505afa158015610e02573d6000803e3d6000fd5b505050506040513d601f19601f82011682018060405250810190610e2691906136a2565b9050336001600160a01b03821614610e505760405162461bcd60e51b815260040161052c90613710565b60975460ff1615610e735760405162461bcd60e51b815260040161052c9061355d565b60026001541415610e965760405162461bcd60e51b815260040161052c906135a1565b600260015560ca5460408051636120933b60e11b815290516000926001600160a01b03169163c2412676916004808301926020929190829003018186803b158015610ee057600080fd5b505afa158015610ef4573d6000803e3d6000fd5b505050506040513d601f19601f82011682018060405250810190610f18919061347c565b9050856001600160a01b0316816001600160a01b031614610f4b5760405162461bcd60e51b815260040161052c90613a4f565b600080600080610f9088888080601f0160208091040260200160405190810160405280939291908181526020018383808284376000920191909152506113f992505050565b93509350935093506000610fa4868b6123ec565b905060006040518060800160405280876001600160a01b03168152602001866001600160401b03168152602001858152602001610ff88460405180602001604052808881525061241d90919063ffffffff16565b81525090506110108682604001518360600151611787565b5061101d8685898e611f0e565b7fc5f1085d8db8470034ca0b57c2029a07440e82632d8b6d34119bcc93fed80648878260405161104e92919061365c565b60405180910390a150506001805550505050505050505050565b6065546001600160a01b031633146110925760405162461bcd60e51b815260040161052c9061391b565b610af08161259d565b6110a43361053f565b6110c05760405162461bcd60e51b815260040161052c90613526565b61053d612616565b6065546001600160a01b031633146110f25760405162461bcd60e51b815260040161052c9061391b565b6111066001600160a01b038416838361266e565b7f2717ead6b9200dd235aad468c9809ea400fe33ac69b5bfaa6d3e90fc922b6398838383604051610ab093929190613a5f565b600080600060ca60009054906101000a90046001600160a01b03166001600160a01b031663740e80616040518163ffffffff1660e01b815260040160206040518083038186803b15801561118c57600080fd5b505afa1580156111a0573d6000803e3d6000fd5b505050506040513d601f19601f820116820180604052508101906111c4919061347c565b60405162f304db60e01b8152909150879087906001600160a01b0384169062f304db906111f79085908590600401613a7a565b60206040518083038186803b15801561120f57600080fd5b505afa158015611223573d6000803e3d6000fd5b505050506040513d601f19601f8201168201806040525081019061124791906139a8565b156112975760008711801561125c5750600086115b6112785760405162461bcd60e51b815260040161052c90613ad8565b611284826004896103f0565b94506112908587612692565b93506113ed565b60008711806112a65750600086115b6112c25760405162461bcd60e51b815260040161052c90613b1c565b611350611349836004866001600160a01b0316633a01873287876040518363ffffffff1660e01b81526004016112f9929190613a7a565b60206040518083038186803b15801561131157600080fd5b505afa158015611325573d6000803e3d6000fd5b505050506040513d601f19601f820116820180604052508101906101bc91906134d0565b8890612692565b94506113ea6113e38360046101bc8b886001600160a01b0316634d30b6be89896040518363ffffffff1660e01b815260040161138d929190613a7a565b60206040518083038186803b1580156113a557600080fd5b505afa1580156113b9573d6000803e3d6000fd5b505050506040513d601f19601f820116820180604052508101906113dd91906134d0565b9061269e565b8790612692565b93505b50505094509492505050565b60008060006060848060200190518101906114149190613b37565b92989197509550909350915050565b600061142f60016126aa565b90508015611447576000805461ff0019166101001790555b6114508461239a565b61145983612737565b6114628261275e565b80156114ad576000805461ff00191690556040517f7f26b83ff96e1f2b6a682f133852f6798a09c465da95921460cefb3847402498906114a490600190613bbd565b60405180910390a15b50505050565b600080600060ca60009054906101000a90046001600160a01b03166001600160a01b031663740e80616040518163ffffffff1660e01b815260040160206040518083038186803b15801561150657600080fd5b505afa15801561151a573d6000803e3d6000fd5b505050506040513d601f19601f8201168201806040525081019061153e919061347c565b60405162f304db60e01b8152909150879087906001600160a01b0384169062f304db906115719085908590600401613a7a565b60206040518083038186803b15801561158957600080fd5b505afa15801561159d573d6000803e3d6000fd5b505050506040513d601f19601f820116820180604052508101906115c191906139a8565b15611613576000871180156115d65750600086115b6115f25760405162461bcd60e51b815260040161052c90613ad8565b6116076116008360046106b6565b889061278e565b9450611290868861278e565b60008711806116225750600086115b61163e5760405162461bcd60e51b815260040161052c90613b1c565b611675611600836004866001600160a01b0316633a01873287876040518363ffffffff1660e01b81526004016112f9929190613a7a565b94506113ea6116b28360046101bc89886001600160a01b0316634d30b6be89896040518363ffffffff1660e01b815260040161138d929190613a7a565b879061278e565b6065546001600160a01b031633146116e35760405162461bcd60e51b815260040161052c9061391b565b6001600160a01b0381166117095760405162461bcd60e51b815260040161052c90613c0e565b610af08161239a565b6001600160a01b03163b151590565b60975460ff166117435760405162461bcd60e51b815260040161052c90613c49565b6097805460ff191690557f5db9ee0a495bf2e6ff9c91a7834c1ba4fdd244a5e8aa4e537bd38aeae4b073aa335b60405161177d91906132f4565b60405180910390a1565b6000808251116117a95760405162461bcd60e51b815260040161052c90613c97565b60ca54604080516337187fc360e01b815290516000926001600160a01b0316916337187fc3916004808301926020929190829003018186803b1580156117ee57600080fd5b505afa158015611802573d6000803e3d6000fd5b505050506040513d601f19601f82011682018060405250810190611826919061347c565b905060005b8351811015611e9e57600084828151811061184857611848613ca7565b602002602001015190506001600481111561186557611865613069565b8151600481111561187857611878613069565b1415611a36578060200151516001146118a35760405162461bcd60e51b815260040161052c90613cfe565b6000836001600160a01b03166365d6b40c89846000015185602001516000815181106118d1576118d1613ca7565b60200260200101516040518463ffffffff1660e01b81526004016118f79392919061349d565b60206040518083038186803b15801561190f57600080fd5b505afa158015611923573d6000803e3d6000fd5b505050506040513d601f19601f8201168201806040525081019061194791906134d0565b905060ca60009054906101000a90046001600160a01b03166001600160a01b03166322b31aba6040518163ffffffff1660e01b815260040160206040518083038186803b15801561199757600080fd5b505afa1580156119ab573d6000803e3d6000fd5b505050506040513d601f19601f820116820180604052508101906119cf919061347c565b6001600160a01b0316630de482878989846040518463ffffffff1660e01b81526004016119fe93929190613d0e565b600060405180830381600087803b158015611a1857600080fd5b505af1158015611a2c573d6000803e3d6000fd5b5050505050611e35565b600381516004811115611a4b57611a4b613069565b1415611b6a57806020015151600114611a765760405162461bcd60e51b815260040161052c90613d67565b6000836001600160a01b03166365d6b40c8984600001518560200151600081518110611aa457611aa4613ca7565b60200260200101516040518463ffffffff1660e01b8152600401611aca9392919061349d565b60206040518083038186803b158015611ae257600080fd5b505afa158015611af6573d6000803e3d6000fd5b505050506040513d601f19601f82011682018060405250810190611b1a91906134d0565b905060ca60009054906101000a90046001600160a01b03166001600160a01b031663a2d2f2db6040518163ffffffff1660e01b815260040160206040518083038186803b15801561199757600080fd5b600281516004811115611b7f57611b7f613069565b1415611c9e57806020015151600114611baa5760405162461bcd60e51b815260040161052c90613db5565b6000836001600160a01b03166365d6b40c8984600001518560200151600081518110611bd857611bd8613ca7565b60200260200101516040518463ffffffff1660e01b8152600401611bfe9392919061349d565b60206040518083038186803b158015611c1657600080fd5b505afa158015611c2a573d6000803e3d6000fd5b505050506040513d601f19601f82011682018060405250810190611c4e91906134d0565b905060ca60009054906101000a90046001600160a01b03166001600160a01b031663f931ca566040518163ffffffff1660e01b815260040160206040518083038186803b15801561199757600080fd5b600481516004811115611cb357611cb3613069565b1415611e1d57806020015151600214611cde5760405162461bcd60e51b815260040161052c90613e05565b600080611d2989898560200151600081518110611cfd57611cfd613ca7565b60200260200101518660200151600181518110611d1c57611d1c613ca7565b60200260200101516114b3565b9150915060ca60009054906101000a90046001600160a01b03166001600160a01b031663740e80616040518163ffffffff1660e01b815260040160206040518083038186803b158015611d7b57600080fd5b505afa158015611d8f573d6000803e3d6000fd5b505050506040513d601f19601f82011682018060405250810190611db3919061347c565b6001600160a01b031663a5a2d6178a8a85856040518563ffffffff1660e01b8152600401611de49493929190613e15565b600060405180830381600087803b158015611dfe57600080fd5b505af1158015611e12573d6000803e3d6000fd5b505050505050611e35565b60405162461bcd60e51b815260040161052c90613e8d565b60005b816020015151811015611e8957611e7582602001518281518110611e5e57611e5e613ca7565b60200260200101518661269e90919063ffffffff16565b945080611e8181613eb3565b915050611e38565b50508080611e9690613eb3565b91505061182b565b50509392505050565b600080611eb38461279a565b90506012808211611ee657611edd611ecb8284612833565b611ed690600a613fdc565b859061278e565b925050506107c4565b611f05611ef38383612833565b611efe90600a613fdc565b8590612692565b95945050505050565b60ca60009054906101000a90046001600160a01b03166001600160a01b031663a1c841ca6040518163ffffffff1660e01b815260040160206040518083038186803b158015611f5c57600080fd5b505afa158015611f70573d6000803e3d6000fd5b505050506040513d601f19601f82011682018060405250810190611f94919061347c565b6001600160a01b0316632d52976485856040518363ffffffff1660e01b8152600401611fc1929190613a7a565b60206040518083038186803b158015611fd957600080fd5b505afa158015611fed573d6000803e3d6000fd5b505050506040513d601f19601f8201168201806040525081019061201191906139a8565b61202d5760405162461bcd60e51b815260040161052c9061402c565b6001600160a01b038416600090815260cb6020526040902054612050908261269e565b6001600160a01b03808616600090815260cb60205260409020919091556114ad908316333084612342565b60ca54604080516350e420e560e11b815290516000926001600160a01b03169163a1c841ca916004808301926020929190829003018186803b1580156120c057600080fd5b505afa1580156120d4573d6000803e3d6000fd5b505050506040513d601f19601f820116820180604052508101906120f8919061347c565b6001600160a01b0316632d52976485856040518363ffffffff1660e01b8152600401612125929190613a7a565b60206040518083038186803b15801561213d57600080fd5b505afa158015612151573d6000803e3d6000fd5b505050506040513d601f19601f8201168201806040525081019061217591906139a8565b6121915760405162461bcd60e51b815260040161052c9061402c565b61219c848484611787565b9050600060ca60009054906101000a90046001600160a01b03166001600160a01b031663c24126766040518163ffffffff1660e01b815260040160206040518083038186803b1580156121ee57600080fd5b505afa158015612202573d6000803e3d6000fd5b505050506040513d601f19601f82011682018060405250810190612226919061347c565b90506122328183611ea7565b6001600160a01b038616600090815260cb602052604090205490925061225990839061403c565b6001600160a01b038616600090815260cb602090815260408083209390935560cc81528282208783529052205461229190839061403c565b6001600160a01b03909516600090815260cc6020908152604080832096835295905293909320939093555090919050565b6122cb8161053f565b6122e75760405162461bcd60e51b815260040161052c90614088565b6001600160a01b038116600090815260c9602052604090819020805460ff19169055517fcd265ebaf09df2871cc7bd4133404a235ba12eff2041bb89d9c714a2621c7c7e906123379083906132f4565b60405180910390a150565b6114ad846323b872dd60e01b85858560405160240161236393929190614098565b60408051601f198184030181529190526020810180516001600160e01b03166001600160e01b03199093169290921790915261283f565b606580546001600160a01b038381166001600160a01b0319831681179093556040519116919082907f8be0079c531659141344cd1fd0a4f28419497f9722a3daafe3b4186f6b6457e090600090a35050565b6000806123f88461279a565b9050601280821161241057611edd611ef38284612833565b611f05611ecb8383612833565b81518051606091906124415760405162461bcd60e51b815260040161052c906140e7565b600061244c826128ce565b90506000811161246e5760405162461bcd60e51b815260040161052c9061412b565b60005b825181101561259357600083828151811061248e5761248e613ca7565b60200260200101516020015151116124b85760405162461bcd60e51b815260040161052c9061417a565b60005b8382815181106124cd576124cd613ca7565b60200260200101516020015151811015612580576125348361252e888786815181106124fb576124fb613ca7565b602002602001015160200151858151811061251857612518613ca7565b602002602001015161269290919063ffffffff16565b9061278e565b84838151811061254657612546613ca7565b602002602001015160200151828151811061256357612563613ca7565b60209081029190910101528061257881613eb3565b9150506124bb565b508061258b81613eb3565b915050612471565b5090949350505050565b6125a68161053f565b156125c35760405162461bcd60e51b815260040161052c906141c8565b6001600160a01b038116600090815260c9602052604090819020805460ff19166001179055517f6719d08c1888103bea251a4ed56406bd0c3e69723c8a1686e017e7bbe159b6f8906123379083906132f4565b60975460ff16156126395760405162461bcd60e51b815260040161052c9061355d565b6097805460ff191660011790557f62e78cea01bee320cd4e420270b5ea74000d11b0c9f74754ebdbfc544b05a2586117703390565b61268d8363a9059cbb60e01b8484604051602401612363929190613a7a565b505050565b600061050082846141d8565b6000610500828461403c565b60008054610100900460ff16156126f1578160ff1660011480156126cd5750303b155b6126e95760405162461bcd60e51b815260040161052c90614242565b506000919050565b60005460ff8084169116106127185760405162461bcd60e51b815260040161052c90614242565b506000805460ff191660ff92909216919091179055600190565b919050565b600054610100900460ff166110925760405162461bcd60e51b815260040161052c9061429a565b600054610100900460ff166127855760405162461bcd60e51b815260040161052c9061429a565b610af08161299b565b600061050082846142c0565b6000806000836001600160a01b03166040516127b5906142d4565b600060405180830381855afa9150503d80600081146127f0576040519150601f19603f3d011682016040523d82523d6000602084013e6127f5565b606091505b5091509150816128175760405162461bcd60e51b815260040161052c9061431d565b8080602001905181019061282b91906134d0565b949350505050565b6000610500828461432d565b6000612894826040518060400160405280602081526020017f5361666545524332303a206c6f772d6c6576656c2063616c6c206661696c6564815250856001600160a01b0316612a0c9092919063ffffffff16565b80519091501561268d57808060200190518101906128b291906139a8565b61268d5760405162461bcd60e51b815260040161052c9061438b565b6000808251116128f05760405162461bcd60e51b815260040161052c906143dd565b60005b82518110156129955760005b83828151811061291157612911613ca7565b602002602001015160200151518110156129825761296e84838151811061293a5761293a613ca7565b602002602001015160200151828151811061295757612957613ca7565b60200260200101518461269e90919063ffffffff16565b92508061297a81613eb3565b9150506128ff565b508061298d81613eb3565b9150506128f3565b50919050565b6001600160a01b0381166129c15760405162461bcd60e51b815260040161052c90614421565b60ca80546001600160a01b0319166001600160a01b0383161790556040517f7aed1d3e8155a07ccf395e44ea3109a0e2d6c9b29bbbe9f142d9790596f4dc8090612337908390613463565b606061282b8484600085856001600160a01b0385163b612a3e5760405162461bcd60e51b815260040161052c90614465565b600080866001600160a01b03168587604051612a5a91906144c3565b60006040518083038185875af1925050503d8060008114612a97576040519150601f19603f3d011682016040523d82523d6000602084013e612a9c565b606091505b5091509150612aac828286612ab7565b979650505050505050565b60608315612ac6575081610500565b825115612ad65782518084602001fd5b8160405162461bcd60e51b815260040161052c9190614501565b60006001600160a01b0382166107c4565b612b0a81612af0565b8114610af057600080fd5b80356107c481612b01565b60058110610af057600080fd5b80356107c481612b20565b80612b0a565b80356107c481612b38565b600080600060608486031215612b6157612b61600080fd5b6000612b6d8686612b15565b9350506020612b7e86828701612b2d565b9250506040612b8f86828701612b3e565b9150509250925092565b805b82525050565b602081016107c48284612b99565b600060208284031215612bc457612bc4600080fd5b60006107c08484612b15565b801515612b9b565b602081016107c48284612bd0565b634e487b7160e01b600052604160045260246000fd5b601f19601f83011681018181106001600160401b0382111715612c2157612c21612be6565b6040525050565b6000612c3360405190565b90506127328282612bfc565b6001600160401b038116612b0a565b80356107c481612c3f565b60006001600160401b03821115612c7257612c72612be6565b5060209081020190565b6000612c8f612c8a84612c59565b612c28565b83815290506020808201908402830185811115612cae57612cae600080fd5b835b81811015612cd25780612cc38882612b3e565b84525060209283019201612cb0565b5050509392505050565b600082601f830112612cf057612cf0600080fd5b81356107c0848260208601612c7c565b600060408284031215612d1557612d15600080fd5b612d1f6040612c28565b90506000612d2d8484612b2d565b82525060208201356001600160401b03811115612d4c57612d4c600080fd5b612d5884828501612cdc565b60208301525092915050565b6000612d72612c8a84612c59565b83815290506020808201908402830185811115612d9157612d91600080fd5b835b81811015612cd25780356001600160401b03811115612db457612db4600080fd5b808601612dc18982612d00565b8552505060209283019201612d93565b600082601f830112612de557612de5600080fd5b81356107c0848260208601612d64565b600060808284031215612e0a57612e0a600080fd5b612e146080612c28565b90506000612e228484612b15565b8252506020612e3384848301612c4e565b6020830152506040612e4784828501612b3e565b60408301525060608201356001600160401b03811115612e6957612e69600080fd5b612e7584828501612dd1565b60608301525092915050565b600060208284031215612e9657612e96600080fd5b81356001600160401b03811115612eaf57612eaf600080fd5b6107c084828501612df5565b60008060408385031215612ed157612ed1600080fd5b6000612edd8585612b15565b9250506020612eee85828601612b2d565b9150509250929050565b60008083601f840112612f0d57612f0d600080fd5b5081356001600160401b03811115612f2757612f27600080fd5b602083019150836001820283011115612f4257612f42600080fd5b9250929050565b60008060208385031215612f5f57612f5f600080fd5b82356001600160401b03811115612f7857612f78600080fd5b612f8485828601612ef8565b92509250509250929050565b60006001600160401b03821115612fa957612fa9612be6565b601f19601f83011660200192915050565b82818337506000910152565b6000612fd4612c8a84612f90565b905082815260208101848484011115612fef57612fef600080fd5b612ffa848285612fba565b509392505050565b600082601f83011261301657613016600080fd5b81356107c0848260208601612fc6565b60006020828403121561303b5761303b600080fd5b81356001600160401b0381111561305457613054600080fd5b6107c084828501613002565b612b9b81612af0565b634e487b7160e01b600052602160045260246000fd5b60058110610af057610af0613069565b806127328161307f565b60006107c48261308f565b612b9b81613099565b60006130b98383612b99565b505060200190565b60006130cb825190565b80845260209384019383018060005b838110156130ff5781516130ee88826130ad565b9750602083019250506001016130da565b509495945050505050565b8051600090604084019061311e85826130a4565b5060208301518482036020860152611f0582826130c1565b6000610500838361310a565b600061314c825190565b808452602084019350836020820285016131668560200190565b8060005b8581101561319b57848403895281516131838582613136565b94506020830160209a909a019992505060010161316a565b5091979650505050505050565b606081016131b68286613060565b6131c36020830185612b99565b8181036040830152611f058184613142565b600080604083850312156131eb576131eb600080fd5b60006131f78585612b15565b9250506020612eee85828601612b3e565b60008060006060848603121561322057613220600080fd5b600061322c8686612b15565b935050602061323d86828701612b3e565b92505060408401356001600160401b0381111561325c5761325c600080fd5b612b8f86828701612dd1565b60006107c482612af0565b612b0a81613268565b80356107c481613273565b600080600080606085870312156132a0576132a0600080fd5b60006132ac878761327c565b94505060206132bd87828801612b3e565b93505060408501356001600160401b038111156132dc576132dc600080fd5b6132e887828801612ef8565b95989497509550505050565b602081016107c48284613060565b60008060006060848603121561331a5761331a600080fd5b6000613326868661327c565b9350506020612b7e86828701612b15565b6000806000806080858703121561335057613350600080fd5b600061335c8787612b15565b945050602061336d87828801612b3e565b935050604061337e87828801612b3e565b925050606061338f87828801612b3e565b91505092959194509250565b604081016133a98285612b99565b6105006020830184612b99565b6001600160401b038116612b9b565b608081016133d38287613060565b6133e060208301866133b6565b6133ed6040830185612b99565b81810360608301526133ff8184613142565b9695505050505050565b60008060006060848603121561342157613421600080fd5b600061342d8686612b15565b935050602061343e86828701612b15565b9250506040612b8f8682870161327c565b60006107c482613268565b612b9b8161344f565b602081016107c4828461345a565b80516107c481613273565b60006020828403121561349157613491600080fd5b60006107c08484613471565b606081016134ab8286613060565b6134b860208301856130a4565b61282b6040830184612b99565b80516107c481612b38565b6000602082840312156134e5576134e5600080fd5b60006107c084846134c5565b60208082527f5061757365723a2063616c6c6572206973206e6f742074686520706175736572910190815260005b5060200190565b602080825281016107c4816134f1565b601081526000602082016f14185d5cd8589b194e881c185d5cd95960821b8152915061351f565b602080825281016107c481613536565b601f81526000602082017f5265656e7472616e637947756172643a207265656e7472616e742063616c6c008152915061351f565b602080825281016107c48161356d565b60006135bb825190565b808452602084019350836020820285016135d58560200190565b8060005b8581101561319b57848403895281516135f28582613136565b94506020830160209a909a01999250506001016135d9565b8051600090608084019061361e8582613060565b50602083015161363160208601826133b6565b5060408301516136446040860182612b99565b5060608301518482036060860152611f0582826135b1565b6040810161366a828561345a565b818103602083015261282b818461360a565b6040810161368a8285613060565b61050060208301846130a4565b80516107c481612b01565b6000602082840312156136b7576136b7600080fd5b60006107c08484613697565b602d81526000602082017f526f75746572577261707065723a2063616c6c6572206973206e6f74206d657381526c39b0b3b2903932b1b2b4bb32b960991b602082015291505b5060400190565b602080825281016107c4816136c3565b80516107c481612b20565b6000613739612c8a84612c59565b8381529050602080820190840283018581111561375857613758600080fd5b835b81811015612cd2578061376d88826134c5565b8452506020928301920161375a565b600082601f83011261379057613790600080fd5b81516107c084826020860161372b565b6000604082840312156137b5576137b5600080fd5b6137bf6040612c28565b905060006137cd8484613720565b82525060208201516001600160401b038111156137ec576137ec600080fd5b612d588482850161377c565b6000613806612c8a84612c59565b8381529050602080820190840283018581111561382557613825600080fd5b835b81811015612cd25780516001600160401b0381111561384857613848600080fd5b80860161385589826137a0565b8552505060209283019201613827565b600082601f83011261387957613879600080fd5b81516107c08482602086016137f8565b6000806000606084860312156138a1576138a1600080fd5b60006138ad8686613697565b93505060206138be868287016134c5565b92505060408401516001600160401b038111156138dd576138dd600080fd5b612b8f86828701613865565b60208082527f4f776e61626c653a2063616c6c6572206973206e6f7420746865206f776e65729101908152600061351f565b602080825281016107c4816138e9565b602f81526000602082017f4f776e6572576974686472617761626c653a207769746864726177206e61746981526e1d99481d1bdad95b8819985a5b1959608a1b60208201529150613709565b602080825281016107c48161392b565b604081016133a9828561345a565b801515612b0a565b80516107c481613995565b6000602082840312156139bd576139bd600080fd5b60006107c0848461399d565b602581526000602082017f447374436861696e5061796d656e743a206e6f6e6578697374656e742070726f8152643b34b232b960d91b60208201529150613709565b602080825281016107c4816139c9565b601e81526000602082017f447374436861696e5061796d656e743a20696e76616c696420746f6b656e00008152915061351f565b602080825281016107c481613a1b565b60608101613a6d828661345a565b6134b86020830185613060565b604081016133a98285613060565b603381526000602082017f447374436861696e5061796d656e743a20696e76616c696420706172616d7320815272199bdc88195e1c1a5c9959081858d8dbdd5b9d606a1b60208201529150613709565b602080825281016107c481613a88565b601f81526000602082017f447374436861696e5061796d656e743a20696e76616c696420706172616d73008152915061351f565b602080825281016107c481613ae8565b80516107c481612c3f565b60008060008060808587031215613b5057613b50600080fd5b6000613b5c8787613697565b9450506020613b6d87828801613b2c565b9350506040613b7e878288016134c5565b92505060608501516001600160401b03811115613b9d57613b9d600080fd5b61338f87828801613865565b600060ff82166107c4565b612b9b81613ba9565b602081016107c48284613bb4565b602681526000602082017f4f776e61626c653a206e6577206f776e657220697320746865207a65726f206181526564647265737360d01b60208201529150613709565b602080825281016107c481613bcb565b601481526000602082017314185d5cd8589b194e881b9bdd081c185d5cd95960621b8152915061351f565b602080825281016107c481613c1e565b602181526000602082017f447374436861696e5061796d656e743a20696e76616c6964207061796c6f61648152607360f81b60208201529150613709565b602080825281016107c481613c59565b634e487b7160e01b600052603260045260246000fd5b60368152600060208201600080516020614513833981519152815275656e67746820666f72204275696c64696e6754696d6560501b60208201529150613709565b602080825281016107c481613cbd565b60608101613d1c8286613060565b6134b86020830185612b99565b60338152600060208201600080516020614513833981519152815272656e67746820666f7220415253746f7261676560681b60208201529150613709565b602080825281016107c481613d29565b603381526000602082016000805160206145138339815191528152720cadccee8d040ccdee44084c2dcc8eed2c8e8d606b1b60208201529150613709565b602080825281016107c481613d77565b60358152600060208201600080516020614513833981519152815274656e67746820666f72204950465353746f7261676560581b60208201529150613709565b602080825281016107c481613dc5565b60808101613e238287613060565b613e306020830186612b99565b613e3d6040830185612b99565b611f056060830184612b99565b602681526000602082017f447374436861696e5061796d656e743a20756e6b6e6f776e207265736f75726381526565207479706560d01b60208201529150613709565b602080825281016107c481613e4a565b634e487b7160e01b600052601160045260246000fd5b6000600019821415613ec757613ec7613e9d565b5060010190565b80825b6001851115613f0d57808604811115613eec57613eec613e9d565b6001851615613efa57908102905b8002613f068560011c90565b9450613ed1565b94509492505050565b600082613f2557506001610500565b81613f3257506000610500565b8160018114613f485760028114613f5257613f7f565b6001915050610500565b60ff841115613f6357613f63613e9d565b8360020a915084821115613f7957613f79613e9d565b50610500565b5060208310610133831016604e8410600b8410161715613fb2575081810a83811115613fad57613fad613e9d565b610500565b613fbf8484846001613ece565b92509050818404811115613fd557613fd5613e9d565b0292915050565b60006105006000198484613f16565b602481526000602082017f447374436861696e5061796d656e743a206e6f6e6578697374656e74206163638152631bdd5b9d60e21b60208201529150613709565b602080825281016107c481613feb565b6000821982111561404f5761404f613e9d565b500190565b601d81526000602082017f5061757365723a206163636f756e74206973206e6f74207061757365720000008152915061351f565b602080825281016107c481614054565b60608101613a6d8286613060565b602481526000602082017f5265736f75726365446174613a20696e76616c6964207061796c6f6164206c658152630dccee8d60e31b60208201529150613709565b602080825281016107c4816140a6565b601e81526000602082017f5265736f75726365446174613a207a65726f20746f74616c2076616c756500008152915061351f565b602080825281016107c4816140f7565b602281526000602082017f5265736f75726365446174613a20696e76616c69642076616c7565206c656e678152610e8d60f31b60208201529150613709565b602080825281016107c48161413b565b602181526000602082017f5061757365723a206163636f756e7420697320616c72656164792070617573658152603960f91b60208201529150613709565b602080825281016107c48161418a565b60008160001904831182151516156141f2576141f2613e9d565b500290565b602e81526000602082017f496e697469616c697a61626c653a20636f6e747261637420697320616c72656181526d191e481a5b9a5d1a585b1a5e995960921b60208201529150613709565b602080825281016107c4816141f7565b602b81526000602082017f496e697469616c697a61626c653a20636f6e7472616374206973206e6f74206981526a6e697469616c697a696e6760a81b60208201529150613709565b602080825281016107c481614252565b634e487b7160e01b600052601260045260246000fd5b6000826142cf576142cf6142aa565b500490565b63313ce56760e01b81526000600482016107c4565b601b81526000602082017f5265736f75726365446174613a20696e76616c696420746f6b656e00000000008152915061351f565b602080825281016107c4816142e9565b60008282101561433f5761433f613e9d565b500390565b602a81526000602082017f5361666545524332303a204552433230206f7065726174696f6e20646964206e8152691bdd081cdd58d8d9595960b21b60208201529150613709565b602080825281016107c481614344565b602581526000602082017f5265736f75726365446174613a20696e76616c6964207061796c6f616473206c8152640cadccee8d60db1b60208201529150613709565b602080825281016107c48161439b565b601b81526000602082017f526f75746572577261707065723a207a65726f206164647265737300000000008152915061351f565b602080825281016107c4816143ed565b601d81526000602082017f416464726573733a2063616c6c20746f206e6f6e2d636f6e74726163740000008152915061351f565b602080825281016107c481614431565b60005b83811015614490578181015183820152602001614478565b838111156114ad5750506000910152565b60006144ab825190565b6144b9818560208601614475565b9290920192915050565b600061050082846144a1565b60006144d9825190565b8084526020840193506144f0818560208601614475565b601f01601f19169290920192915050565b6020808252810161050081846144cf56fe447374436861696e5061796d656e743a20696e76616c69642076616c7565206ca2646970667358221220ff8e16a608ef0f71a92334128f6988530edd5f233c899587c9418b9c7ee0527c64736f6c63430008090033",
  "devdoc": {
    "author": "Alexandas",
    "details": "Dst chain payment contract",
    "kind": "dev",
    "methods": {
      "addPauser(address)": {
        "details": "add a pauser for the contract",
        "params": {
          "account": "address"
        }
      },
      "balanceOf(address)": {
        "details": "return balance of provider",
        "params": {
          "provider": "provider address"
        },
        "returns": {
          "_0": "balance of provider"
        }
      },
      "celerExec(bytes)": {
        "details": "pay from source chain only called by message receiver",
        "params": {
          "message": "payment payload message bytes"
        }
      },
      "decodeSourceChainMessage(bytes)": {
        "details": "decode source chain message",
        "params": {
          "message": "message bytes"
        },
        "returns": {
          "account": "user account",
          "nonce": "nonce",
          "payloads": "payment payloads",
          "provider": "provider address"
        }
      },
      "getAmountOf(address,uint8,uint256)": {
        "details": "return resource amount with value",
        "params": {
          "provider": "provider address",
          "resourceType": "resource type",
          "value": "token value"
        },
        "returns": {
          "_0": "resource amount"
        }
      },
      "getValueOf(address,uint8,uint256)": {
        "details": "return value of amount resource",
        "params": {
          "amount": "resource amount",
          "provider": "provider address",
          "resourceType": "resource type"
        },
        "returns": {
          "_0": "token value"
        }
      },
      "initialize(address,address,address)": {
        "details": "proxy initialize function",
        "params": {
          "owner": "contract owner",
          "pauser": "contract pauser",
          "router": "router contract"
        }
      },
      "ipfsAllocations(address,bytes32,uint256,uint256)": {
        "details": "calculate ipfs storage and expiration with storage fee and expiration fee",
        "params": {
          "account": "user account",
          "expirationFee": "expiration fee",
          "provider": "provider address",
          "storageFee": "storage fee"
        },
        "returns": {
          "amount": "ipfs storage amount",
          "expiration": "ipfs expiration(in seconds)"
        }
      },
      "ipfsAlloctionsFee(address,bytes32,uint256,uint256)": {
        "details": "calculate fee for ipfs storage and expiration",
        "params": {
          "account": "user account",
          "amount": "ipfs storage amount",
          "expiration": "ipfs expiration(in seconds)",
          "provider": "provider address"
        },
        "returns": {
          "expirationFee": "ipfs expiration fee",
          "storageFee": "ipfs storage fee"
        }
      },
      "isPauser(address)": {
        "details": "whether the account is the contract pauser",
        "params": {
          "account": "address"
        },
        "returns": {
          "_0": "whether account is a pauser"
        }
      },
      "owner()": {
        "details": "Returns the address of the current owner."
      },
      "ownerWithdrawERC20(address,address,uint256)": {
        "details": "withdraw token",
        "params": {
          "to": "receiver address",
          "token": "token address",
          "value": "token value"
        }
      },
      "ownerWithdrawNative(address,uint256)": {
        "details": "withdraw ETH",
        "params": {
          "to": "receiver address",
          "value": "token value"
        }
      },
      "pause()": {
        "details": "pause the contract"
      },
      "paused()": {
        "details": "Returns true if the contract is paused, and false otherwise."
      },
      "pay((address,uint64,bytes32,(uint8,uint256[])[]))": {
        "details": "pay on dst chain",
        "params": {
          "payload": "payment payload"
        },
        "returns": {
          "value": "payment value"
        }
      },
      "payFromSourceChain(address,uint256,bytes)": {
        "details": "pay from source chain only called by message receiver",
        "params": {
          "_token": "token address",
          "dstAmount": "token amount",
          "message": "payment payload message bytes"
        }
      },
      "payV2(address,bytes32,(uint8,uint256[])[])": {
        "details": "pay on dst chain",
        "params": {
          "account": "user account",
          "payloads": "payment payloads",
          "provider": "provider address"
        },
        "returns": {
          "value": "total token value"
        }
      },
      "priceOf(address,uint8)": {
        "details": "return resource price",
        "params": {
          "provider": "provider address",
          "resourceType": "resource type"
        },
        "returns": {
          "_0": "resource price"
        }
      },
      "removePauser(address)": {
        "details": "remove a pauser for the contract",
        "params": {
          "account": "address"
        }
      },
      "renounceOwnership()": {
        "details": "Leaves the contract without owner. It will not be possible to call `onlyOwner` functions anymore. Can only be called by the current owner. NOTE: Renouncing ownership will leave the contract without an owner, thereby removing any functionality that is only available to the owner."
      },
      "renouncePauser()": {
        "details": "remove a pauser for the contract"
      },
      "transferOwnership(address)": {
        "details": "Transfers ownership of the contract to a new account (`newOwner`). Can only be called by the current owner."
      },
      "unpause()": {
        "details": "unpause the contract"
      }
    },
    "version": 1
  },
  "userdoc": {
    "kind": "user",
    "methods": {},
    "version": 1
  },
  "storageLayout": {
    "storage": [
      {
        "astId": 147,
        "contract": "contracts/payments/DstChainPayment.sol:DstChainPayment",
        "label": "_initialized",
        "offset": 0,
        "slot": "0",
        "type": "t_uint8"
      },
      {
        "astId": 150,
        "contract": "contracts/payments/DstChainPayment.sol:DstChainPayment",
        "label": "_initializing",
        "offset": 1,
        "slot": "0",
        "type": "t_bool"
      },
      {
        "astId": 407,
        "contract": "contracts/payments/DstChainPayment.sol:DstChainPayment",
        "label": "_status",
        "offset": 0,
        "slot": "1",
        "type": "t_uint256"
      },
      {
        "astId": 451,
        "contract": "contracts/payments/DstChainPayment.sol:DstChainPayment",
        "label": "__gap",
        "offset": 0,
        "slot": "2",
        "type": "t_array(t_uint256)49_storage"
      },
      {
        "astId": 1038,
        "contract": "contracts/payments/DstChainPayment.sol:DstChainPayment",
        "label": "__gap",
        "offset": 0,
        "slot": "51",
        "type": "t_array(t_uint256)50_storage"
      },
      {
        "astId": 10,
        "contract": "contracts/payments/DstChainPayment.sol:DstChainPayment",
        "label": "_owner",
        "offset": 0,
        "slot": "101",
        "type": "t_address"
      },
      {
        "astId": 122,
        "contract": "contracts/payments/DstChainPayment.sol:DstChainPayment",
        "label": "__gap",
        "offset": 0,
        "slot": "102",
        "type": "t_array(t_uint256)49_storage"
      },
      {
        "astId": 303,
        "contract": "contracts/payments/DstChainPayment.sol:DstChainPayment",
        "label": "_paused",
        "offset": 0,
        "slot": "151",
        "type": "t_bool"
      },
      {
        "astId": 392,
        "contract": "contracts/payments/DstChainPayment.sol:DstChainPayment",
        "label": "__gap",
        "offset": 0,
        "slot": "152",
        "type": "t_array(t_uint256)49_storage"
      },
      {
        "astId": 3817,
        "contract": "contracts/payments/DstChainPayment.sol:DstChainPayment",
        "label": "pausers",
        "offset": 0,
        "slot": "201",
        "type": "t_mapping(t_address,t_bool)"
      },
      {
        "astId": 5824,
        "contract": "contracts/payments/DstChainPayment.sol:DstChainPayment",
        "label": "router",
        "offset": 0,
        "slot": "202",
        "type": "t_contract(IRouter)6874"
      },
      {
        "astId": 8486,
        "contract": "contracts/payments/DstChainPayment.sol:DstChainPayment",
        "label": "providerBalances",
        "offset": 0,
        "slot": "203",
        "type": "t_mapping(t_address,t_uint256)"
      },
      {
        "astId": 8492,
        "contract": "contracts/payments/DstChainPayment.sol:DstChainPayment",
        "label": "fees",
        "offset": 0,
        "slot": "204",
        "type": "t_mapping(t_address,t_mapping(t_bytes32,t_uint256))"
      }
    ],
    "types": {
      "t_address": {
        "encoding": "inplace",
        "label": "address",
        "numberOfBytes": "20"
      },
      "t_array(t_uint256)49_storage": {
        "base": "t_uint256",
        "encoding": "inplace",
        "label": "uint256[49]",
        "numberOfBytes": "1568"
      },
      "t_array(t_uint256)50_storage": {
        "base": "t_uint256",
        "encoding": "inplace",
        "label": "uint256[50]",
        "numberOfBytes": "1600"
      },
      "t_bool": {
        "encoding": "inplace",
        "label": "bool",
        "numberOfBytes": "1"
      },
      "t_bytes32": {
        "encoding": "inplace",
        "label": "bytes32",
        "numberOfBytes": "32"
      },
      "t_contract(IRouter)6874": {
        "encoding": "inplace",
        "label": "contract IRouter",
        "numberOfBytes": "20"
      },
      "t_mapping(t_address,t_bool)": {
        "encoding": "mapping",
        "key": "t_address",
        "label": "mapping(address => bool)",
        "numberOfBytes": "32",
        "value": "t_bool"
      },
      "t_mapping(t_address,t_mapping(t_bytes32,t_uint256))": {
        "encoding": "mapping",
        "key": "t_address",
        "label": "mapping(address => mapping(bytes32 => uint256))",
        "numberOfBytes": "32",
        "value": "t_mapping(t_bytes32,t_uint256)"
      },
      "t_mapping(t_address,t_uint256)": {
        "encoding": "mapping",
        "key": "t_address",
        "label": "mapping(address => uint256)",
        "numberOfBytes": "32",
        "value": "t_uint256"
      },
      "t_mapping(t_bytes32,t_uint256)": {
        "encoding": "mapping",
        "key": "t_bytes32",
        "label": "mapping(bytes32 => uint256)",
        "numberOfBytes": "32",
        "value": "t_uint256"
      },
      "t_uint256": {
        "encoding": "inplace",
        "label": "uint256",
        "numberOfBytes": "32"
      },
      "t_uint8": {
        "encoding": "inplace",
        "label": "uint8",
        "numberOfBytes": "1"
      }
    }
  }
}