{
  "address": "0xdAcDaB630E0DcF5F39154a44B3104559464487C7",
  "abi": [
    {
      "inputs": [],
      "stateMutability": "nonpayable",
      "type": "constructor"
    },
    {
      "anonymous": false,
      "inputs": [
        {
          "indexed": false,
          "internalType": "uint8",
          "name": "version",
          "type": "uint8"
        }
      ],
      "name": "Initialized",
      "type": "event"
    },
    {
      "anonymous": false,
      "inputs": [
        {
          "indexed": false,
          "internalType": "address",
          "name": "to",
          "type": "address"
        },
        {
          "indexed": false,
          "internalType": "uint256",
          "name": "value",
          "type": "uint256"
        }
      ],
      "name": "NativeWithdrawal",
      "type": "event"
    },
    {
      "anonymous": false,
      "inputs": [
        {
          "indexed": true,
          "internalType": "address",
          "name": "previousOwner",
          "type": "address"
        },
        {
          "indexed": true,
          "internalType": "address",
          "name": "newOwner",
          "type": "address"
        }
      ],
      "name": "OwnershipTransferred",
      "type": "event"
    },
    {
      "anonymous": false,
      "inputs": [
        {
          "indexed": false,
          "internalType": "contract IERC20Upgradeable",
          "name": "token",
          "type": "address"
        },
        {
          "components": [
            {
              "internalType": "address",
              "name": "provider",
              "type": "address"
            },
            {
              "internalType": "uint64",
              "name": "nonce",
              "type": "uint64"
            },
            {
              "internalType": "bytes32",
              "name": "account",
              "type": "bytes32"
            },
            {
              "components": [
                {
                  "internalType": "enum ResourceData.ResourceType",
                  "name": "resourceType",
                  "type": "uint8"
                },
                {
                  "internalType": "uint256[]",
                  "name": "values",
                  "type": "uint256[]"
                }
              ],
              "internalType": "struct ResourceData.ValuePayload[]",
              "name": "payloads",
              "type": "tuple[]"
            }
          ],
          "indexed": false,
          "internalType": "struct IDstChainPayment.PaymentPayload",
          "name": "payloads",
          "type": "tuple"
        }
      ],
      "name": "Paid",
      "type": "event"
    },
    {
      "anonymous": false,
      "inputs": [
        {
          "indexed": false,
          "internalType": "address",
          "name": "provider",
          "type": "address"
        },
        {
          "indexed": false,
          "internalType": "bytes32",
          "name": "account",
          "type": "bytes32"
        },
        {
          "components": [
            {
              "internalType": "enum ResourceData.ResourceType",
              "name": "resourceType",
              "type": "uint8"
            },
            {
              "internalType": "uint256[]",
              "name": "values",
              "type": "uint256[]"
            }
          ],
          "indexed": false,
          "internalType": "struct ResourceData.ValuePayload[]",
          "name": "payloads",
          "type": "tuple[]"
        }
      ],
      "name": "PaidV2",
      "type": "event"
    },
    {
      "anonymous": false,
      "inputs": [
        {
          "indexed": false,
          "internalType": "address",
          "name": "account",
          "type": "address"
        }
      ],
      "name": "Paused",
      "type": "event"
    },
    {
      "anonymous": false,
      "inputs": [
        {
          "indexed": false,
          "internalType": "address",
          "name": "account",
          "type": "address"
        }
      ],
      "name": "PauserAdded",
      "type": "event"
    },
    {
      "anonymous": false,
      "inputs": [
        {
          "indexed": false,
          "internalType": "address",
          "name": "account",
          "type": "address"
        }
      ],
      "name": "PauserRemoved",
      "type": "event"
    },
    {
      "anonymous": false,
      "inputs": [
        {
          "indexed": false,
          "internalType": "contract IRouter",
          "name": "router",
          "type": "address"
        }
      ],
      "name": "RouterUpdated",
      "type": "event"
    },
    {
      "anonymous": false,
      "inputs": [
        {
          "indexed": false,
          "internalType": "address",
          "name": "account",
          "type": "address"
        }
      ],
      "name": "Unpaused",
      "type": "event"
    },
    {
      "anonymous": false,
      "inputs": [
        {
          "indexed": false,
          "internalType": "contract IERC20Upgradeable",
          "name": "token",
          "type": "address"
        },
        {
          "indexed": false,
          "internalType": "address",
          "name": "to",
          "type": "address"
        },
        {
          "indexed": false,
          "internalType": "uint256",
          "name": "value",
          "type": "uint256"
        }
      ],
      "name": "Withdrawal",
      "type": "event"
    },
    {
      "inputs": [
        {
          "internalType": "address",
          "name": "account",
          "type": "address"
        }
      ],
      "name": "addPauser",
      "outputs": [],
      "stateMutability": "nonpayable",
      "type": "function"
    },
    {
      "inputs": [
        {
          "internalType": "address",
          "name": "provider",
          "type": "address"
        }
      ],
      "name": "balanceOf",
      "outputs": [
        {
          "internalType": "uint256",
          "name": "",
          "type": "uint256"
        }
      ],
      "stateMutability": "view",
      "type": "function"
    },
    {
      "inputs": [
        {
          "internalType": "bytes",
          "name": "message",
          "type": "bytes"
        }
      ],
      "name": "celerExec",
      "outputs": [],
      "stateMutability": "nonpayable",
      "type": "function"
    },
    {
      "inputs": [
        {
          "internalType": "bytes",
          "name": "message",
          "type": "bytes"
        }
      ],
      "name": "decodeMessage",
      "outputs": [
        {
          "internalType": "address",
          "name": "provider",
          "type": "address"
        },
        {
          "internalType": "bytes32",
          "name": "account",
          "type": "bytes32"
        },
        {
          "components": [
            {
              "internalType": "enum ResourceData.ResourceType",
              "name": "resourceType",
              "type": "uint8"
            },
            {
              "internalType": "uint256[]",
              "name": "values",
              "type": "uint256[]"
            }
          ],
          "internalType": "struct ResourceData.ValuePayload[]",
          "name": "payloads",
          "type": "tuple[]"
        }
      ],
      "stateMutability": "view",
      "type": "function"
    },
    {
      "inputs": [
        {
          "internalType": "bytes",
          "name": "message",
          "type": "bytes"
        }
      ],
      "name": "decodeSourceChainMessage",
      "outputs": [
        {
          "internalType": "address",
          "name": "provider",
          "type": "address"
        },
        {
          "internalType": "uint64",
          "name": "nonce",
          "type": "uint64"
        },
        {
          "internalType": "bytes32",
          "name": "account",
          "type": "bytes32"
        },
        {
          "components": [
            {
              "internalType": "enum ResourceData.ResourceType",
              "name": "resourceType",
              "type": "uint8"
            },
            {
              "internalType": "uint256[]",
              "name": "values",
              "type": "uint256[]"
            }
          ],
          "internalType": "struct ResourceData.ValuePayload[]",
          "name": "payloads",
          "type": "tuple[]"
        }
      ],
      "stateMutability": "view",
      "type": "function"
    },
    {
      "inputs": [
        {
          "internalType": "address",
          "name": "provider",
          "type": "address"
        },
        {
          "internalType": "enum ResourceData.ResourceType",
          "name": "resourceType",
          "type": "uint8"
        },
        {
          "internalType": "uint256",
          "name": "value",
          "type": "uint256"
        }
      ],
      "name": "getAmountOf",
      "outputs": [
        {
          "internalType": "uint256",
          "name": "",
          "type": "uint256"
        }
      ],
      "stateMutability": "view",
      "type": "function"
    },
    {
      "inputs": [
        {
          "internalType": "address",
          "name": "provider",
          "type": "address"
        },
        {
          "internalType": "enum ResourceData.ResourceType",
          "name": "resourceType",
          "type": "uint8"
        },
        {
          "internalType": "uint256",
          "name": "amount",
          "type": "uint256"
        }
      ],
      "name": "getValueOf",
      "outputs": [
        {
          "internalType": "uint256",
          "name": "",
          "type": "uint256"
        }
      ],
      "stateMutability": "view",
      "type": "function"
    },
    {
      "inputs": [
        {
          "internalType": "address",
          "name": "owner",
          "type": "address"
        },
        {
          "internalType": "address",
          "name": "pauser",
          "type": "address"
        },
        {
          "internalType": "contract IRouter",
          "name": "router",
          "type": "address"
        }
      ],
      "name": "initialize",
      "outputs": [],
      "stateMutability": "nonpayable",
      "type": "function"
    },
    {
      "inputs": [
        {
          "internalType": "address",
          "name": "provider",
          "type": "address"
        },
        {
          "internalType": "bytes32",
          "name": "account",
          "type": "bytes32"
        },
        {
          "internalType": "uint256",
          "name": "storageFee",
          "type": "uint256"
        },
        {
          "internalType": "uint256",
          "name": "expirationFee",
          "type": "uint256"
        }
      ],
      "name": "ipfsAllocations",
      "outputs": [
        {
          "internalType": "uint256",
          "name": "amount",
          "type": "uint256"
        },
        {
          "internalType": "uint256",
          "name": "expiration",
          "type": "uint256"
        }
      ],
      "stateMutability": "view",
      "type": "function"
    },
    {
      "inputs": [
        {
          "internalType": "address",
          "name": "provider",
          "type": "address"
        },
        {
          "internalType": "bytes32",
          "name": "account",
          "type": "bytes32"
        },
        {
          "internalType": "uint256",
          "name": "amount",
          "type": "uint256"
        },
        {
          "internalType": "uint256",
          "name": "expiration",
          "type": "uint256"
        }
      ],
      "name": "ipfsAlloctionsFee",
      "outputs": [
        {
          "internalType": "uint256",
          "name": "storageFee",
          "type": "uint256"
        },
        {
          "internalType": "uint256",
          "name": "expirationFee",
          "type": "uint256"
        }
      ],
      "stateMutability": "view",
      "type": "function"
    },
    {
      "inputs": [
        {
          "internalType": "address",
          "name": "account",
          "type": "address"
        }
      ],
      "name": "isPauser",
      "outputs": [
        {
          "internalType": "bool",
          "name": "",
          "type": "bool"
        }
      ],
      "stateMutability": "view",
      "type": "function"
    },
    {
      "inputs": [],
      "name": "owner",
      "outputs": [
        {
          "internalType": "address",
          "name": "",
          "type": "address"
        }
      ],
      "stateMutability": "view",
      "type": "function"
    },
    {
      "inputs": [
        {
          "internalType": "contract IERC20Upgradeable",
          "name": "token",
          "type": "address"
        },
        {
          "internalType": "address",
          "name": "to",
          "type": "address"
        },
        {
          "internalType": "uint256",
          "name": "value",
          "type": "uint256"
        }
      ],
      "name": "ownerWithdrawERC20",
      "outputs": [],
      "stateMutability": "nonpayable",
      "type": "function"
    },
    {
      "inputs": [
        {
          "internalType": "address payable",
          "name": "to",
          "type": "address"
        },
        {
          "internalType": "uint256",
          "name": "value",
          "type": "uint256"
        }
      ],
      "name": "ownerWithdrawNative",
      "outputs": [],
      "stateMutability": "nonpayable",
      "type": "function"
    },
    {
      "inputs": [],
      "name": "pause",
      "outputs": [],
      "stateMutability": "nonpayable",
      "type": "function"
    },
    {
      "inputs": [],
      "name": "paused",
      "outputs": [
        {
          "internalType": "bool",
          "name": "",
          "type": "bool"
        }
      ],
      "stateMutability": "view",
      "type": "function"
    },
    {
      "inputs": [
        {
          "internalType": "address",
          "name": "",
          "type": "address"
        }
      ],
      "name": "pausers",
      "outputs": [
        {
          "internalType": "bool",
          "name": "",
          "type": "bool"
        }
      ],
      "stateMutability": "view",
      "type": "function"
    },
    {
      "inputs": [
        {
          "components": [
            {
              "internalType": "address",
              "name": "provider",
              "type": "address"
            },
            {
              "internalType": "uint64",
              "name": "nonce",
              "type": "uint64"
            },
            {
              "internalType": "bytes32",
              "name": "account",
              "type": "bytes32"
            },
            {
              "components": [
                {
                  "internalType": "enum ResourceData.ResourceType",
                  "name": "resourceType",
                  "type": "uint8"
                },
                {
                  "internalType": "uint256[]",
                  "name": "values",
                  "type": "uint256[]"
                }
              ],
              "internalType": "struct ResourceData.ValuePayload[]",
              "name": "payloads",
              "type": "tuple[]"
            }
          ],
          "internalType": "struct IDstChainPayment.PaymentPayload",
          "name": "payload",
          "type": "tuple"
        }
      ],
      "name": "pay",
      "outputs": [
        {
          "internalType": "uint256",
          "name": "value",
          "type": "uint256"
        }
      ],
      "stateMutability": "nonpayable",
      "type": "function"
    },
    {
      "inputs": [
        {
          "internalType": "contract IERC20Upgradeable",
          "name": "_token",
          "type": "address"
        },
        {
          "internalType": "uint256",
          "name": "dstAmount",
          "type": "uint256"
        },
        {
          "internalType": "bytes",
          "name": "message",
          "type": "bytes"
        }
      ],
      "name": "payFromSourceChain",
      "outputs": [],
      "stateMutability": "nonpayable",
      "type": "function"
    },
    {
      "inputs": [
        {
          "internalType": "address",
          "name": "provider",
          "type": "address"
        },
        {
          "internalType": "bytes32",
          "name": "account",
          "type": "bytes32"
        },
        {
          "components": [
            {
              "internalType": "enum ResourceData.ResourceType",
              "name": "resourceType",
              "type": "uint8"
            },
            {
              "internalType": "uint256[]",
              "name": "values",
              "type": "uint256[]"
            }
          ],
          "internalType": "struct ResourceData.ValuePayload[]",
          "name": "payloads",
          "type": "tuple[]"
        }
      ],
      "name": "payV2",
      "outputs": [
        {
          "internalType": "uint256",
          "name": "value",
          "type": "uint256"
        }
      ],
      "stateMutability": "nonpayable",
      "type": "function"
    },
    {
      "inputs": [
        {
          "internalType": "address",
          "name": "provider",
          "type": "address"
        },
        {
          "internalType": "enum ResourceData.ResourceType",
          "name": "resourceType",
          "type": "uint8"
        }
      ],
      "name": "priceOf",
      "outputs": [
        {
          "internalType": "uint256",
          "name": "",
          "type": "uint256"
        }
      ],
      "stateMutability": "view",
      "type": "function"
    },
    {
      "inputs": [
        {
          "internalType": "address",
          "name": "account",
          "type": "address"
        }
      ],
      "name": "removePauser",
      "outputs": [],
      "stateMutability": "nonpayable",
      "type": "function"
    },
    {
      "inputs": [],
      "name": "renounceOwnership",
      "outputs": [],
      "stateMutability": "nonpayable",
      "type": "function"
    },
    {
      "inputs": [],
      "name": "renouncePauser",
      "outputs": [],
      "stateMutability": "nonpayable",
      "type": "function"
    },
    {
      "inputs": [],
      "name": "router",
      "outputs": [
        {
          "internalType": "contract IRouter",
          "name": "",
          "type": "address"
        }
      ],
      "stateMutability": "view",
      "type": "function"
    },
    {
      "inputs": [
        {
          "internalType": "address",
          "name": "newOwner",
          "type": "address"
        }
      ],
      "name": "transferOwnership",
      "outputs": [],
      "stateMutability": "nonpayable",
      "type": "function"
    },
    {
      "inputs": [],
      "name": "unpause",
      "outputs": [],
      "stateMutability": "nonpayable",
      "type": "function"
    }
  ],
  "transactionHash": "0x6cf501305f7e14dc39fa617ba563cbd7cec69772578349c1f363df76848e8f28",
  "args": [],
  "numDeployments": 12,
  "solcInputHash": "188d4b9c04153cc25e701c829728ee9b",
  "bytecode": "0x60806040523480156200001157600080fd5b5060006200002060016200008e565b9050801562000039576000805461ff0019166101001790555b801562000087576000805461ff00191690556040517f7f26b83ff96e1f2b6a682f133852f6798a09c465da95921460cefb3847402498906200007e9060019062000168565b60405180910390a15b50620001cb565b60008054610100900460ff1615620000f7578160ff166001148015620000c75750620000c5306200013b60201b620017941760201c565b155b620000ef5760405162461bcd60e51b8152600401620000e69062000178565b60405180910390fd5b506000919050565b60005460ff808416911610620001215760405162461bcd60e51b8152600401620000e69062000178565b506000805460ff191660ff92909216919091179055600190565b6001600160a01b03163b151590565b600060ff82165b92915050565b62000162816200014a565b82525050565b6020810162000151828462000157565b602080825281016200015181602e81527f496e697469616c697a61626c653a20636f6e747261637420697320616c72656160208201526d191e481a5b9a5d1a585b1a5e995960921b604082015260600190565b61455f80620001db6000396000f3fe608060405234801561001057600080fd5b50600436106101a95760003560e01c806370a08231116100f957806393563a9511610097578063c0c53b8b11610071578063c0c53b8b14610397578063ce841dd2146103aa578063f2fde38b146103bd578063f887ea40146103d057600080fd5b806393563a951461034057806394e48f8914610353578063bd1699751461037457600080fd5b806380f51c12116100d357806380f51c12146102e957806382dc1ec41461030c5780638456cb591461031f5780638da5cb5b1461032757600080fd5b806370a08231146102bb578063715018a6146102ce57806377ef533c146102d657600080fd5b80636267834e11610166578063699256f411610140578063699256f41461027a5780636b2c0f551461028d5780636ef8d66d146102a05780636f63d9ec146102a857600080fd5b80636267834e14610232578063634d45b21461024557806365d6b40c1461026757600080fd5b806335da9b23146101ae5780633f4ba83a146101d757806346fbf68e146101e1578063490e4fa2146102015780635c975abb146102145780635e1a544c1461021f575b600080fd5b6101c16101bc366004612b40565b6103f0565b6040516101ce9190612b98565b60405180910390f35b6101df610507565b005b6101f46101ef366004612ba6565b61053f565b6040516101ce9190612bcf565b6101c161020f366004612e78565b61055d565b60975460ff166101f4565b6101c161022d366004612eb2565b6106b6565b6101df610240366004612f40565b6107ca565b61025861025336600461301d565b6109b9565b6040516101ce9392919061319f565b6101c1610275366004612b40565b6109df565b6101df6102883660046131cc565b610a9b565b6101df61029b366004612ba6565b610b49565b6101df610b7f565b6101c16102b63660046131ff565b610b88565b6101c16102c9366004612ba6565b610cc7565b6101df610df7565b6101df6102e436600461327e565b610e2b565b6101f46102f7366004612ba6565b60c96020526000908152604090205460ff1681565b6101df61031a366004612ba6565b6110ea565b6101df61111d565b6065546001600160a01b03166040516101ce91906132eb565b6101df61034e3660046132f9565b61114a565b61036661036136600461332e565b6111bb565b6040516101ce929190613392565b61038761038236600461301d565b61147b565b6040516101ce94939291906133bc565b6101df6103a5366004613400565b6114a5565b6103666103b836600461332e565b611535565b6101df6103cb366004612ba6565b61173b565b60ca546103e3906001600160a01b031681565b6040516101ce919061345a565b60008060ca60009054906101000a90046001600160a01b03166001600160a01b03166337187fc36040518163ffffffff1660e01b815260040160206040518083038186803b15801561044157600080fd5b505afa158015610455573d6000803e3d6000fd5b505050506040513d601f19601f820116820180604052508101906104799190613473565b6040516335da9b2360e01b81529091506001600160a01b038216906335da9b23906104ac90889088908890600401613494565b60206040518083038186803b1580156104c457600080fd5b505afa1580156104d8573d6000803e3d6000fd5b505050506040513d601f19601f820116820180604052508101906104fc91906134c7565b9150505b9392505050565b6105103361053f565b6105355760405162461bcd60e51b815260040161052c9061351d565b60405180910390fd5b61053d6117a3565b565b6001600160a01b0316600090815260c9602052604090205460ff1690565b600061056b60975460ff1690565b156105885760405162461bcd60e51b815260040161052c90613554565b600260015414156105ab5760405162461bcd60e51b815260040161052c90613598565b60026001558151604083015160608401516105c7929190611809565b9050600060ca60009054906101000a90046001600160a01b03166001600160a01b031663c24126766040518163ffffffff1660e01b815260040160206040518083038186803b15801561061957600080fd5b505afa15801561062d573d6000803e3d6000fd5b505050506040513d601f19601f820116820180604052508101906106519190613473565b905061065d8183611f29565b9150610673836000015184604001518385611f90565b7fc5f1085d8db8470034ca0b57c2029a07440e82632d8b6d34119bcc93fed8064881846040516106a4929190613653565b60405180910390a15060018055919050565b60008060ca60009054906101000a90046001600160a01b03166001600160a01b03166337187fc36040518163ffffffff1660e01b815260040160206040518083038186803b15801561070757600080fd5b505afa15801561071b573d6000803e3d6000fd5b505050506040513d601f19601f8201168201806040525081019061073f9190613473565b604051631786951360e21b81529091506001600160a01b03821690635e1a544c906107709087908790600401613673565b60206040518083038186803b15801561078857600080fd5b505afa15801561079c573d6000803e3d6000fd5b505050506040513d601f19601f820116820180604052508101906107c091906134c7565b9150505b92915050565b60ca54604080516303bf7e6b60e21b815290516000926001600160a01b031691630efdf9ac916004808301926020929190829003018186803b15801561080f57600080fd5b505afa158015610823573d6000803e3d6000fd5b505050506040513d601f19601f820116820180604052508101906108479190613699565b9050336001600160a01b038216146108715760405162461bcd60e51b815260040161052c90613707565b60975460ff16156108945760405162461bcd60e51b815260040161052c90613554565b60008060006108d886868080601f0160208091040260200160405190810160405280939291908181526020018383808284376000920191909152506109b992505050565b925092509250600060ca60009054906101000a90046001600160a01b03166001600160a01b031663c24126766040518163ffffffff1660e01b815260040160206040518083038186803b15801561092e57600080fd5b505afa158015610942573d6000803e3d6000fd5b505050506040513d601f19601f820116820180604052508101906109669190613473565b9050610974818585856120fd565b507fa5e8ac6f0e257373f82e6696a38a9acc7b1d97e8435d3262f297f8ba36815e2c8484846040516109a89392919061319f565b60405180910390a150505050505050565b6000806060838060200190518101906109d29190613880565b9196909550909350915050565b60008060ca60009054906101000a90046001600160a01b03166001600160a01b03166337187fc36040518163ffffffff1660e01b815260040160206040518083038186803b158015610a3057600080fd5b505afa158015610a44573d6000803e3d6000fd5b505050506040513d601f19601f82011682018060405250810190610a689190613473565b604051631975ad0360e21b81529091506001600160a01b038216906365d6b40c906104ac90889088908890600401613494565b6065546001600160a01b03163314610ac55760405162461bcd60e51b815260040161052c90613912565b6040516000906001600160a01b0384169083156108fc0290849084818181858888f19350505050905080610b0b5760405162461bcd60e51b815260040161052c9061396e565b7f2c876ecb97b3c6854f2488d373403f903eacb800e51c159a5c0c7a9c857e48278383604051610b3c92919061397e565b60405180910390a1505050565b6065546001600160a01b03163314610b735760405162461bcd60e51b815260040161052c90613912565b610b7c816122b9565b50565b61053d336122b9565b6000610b9660975460ff1690565b15610bb35760405162461bcd60e51b815260040161052c90613554565b60026001541415610bd65760405162461bcd60e51b815260040161052c90613598565b600260015560ca5460408051636120933b60e11b815290516000926001600160a01b03169163c2412676916004808301926020929190829003018186803b158015610c2057600080fd5b505afa158015610c34573d6000803e3d6000fd5b505050506040513d601f19601f82011682018060405250810190610c589190613473565b90506000610c68828787876120fd565b9050610c7f6001600160a01b038316333084612339565b7fa5e8ac6f0e257373f82e6696a38a9acc7b1d97e8435d3262f297f8ba36815e2c868686604051610cb29392919061319f565b60405180910390a15050600180559392505050565b60ca54604080516314b47ed960e31b815290516000926001600160a01b03169163a5a3f6c8916004808301926020929190829003018186803b158015610d0c57600080fd5b505afa158015610d20573d6000803e3d6000fd5b505050506040513d601f19601f82011682018060405250810190610d449190613473565b6001600160a01b0316636b074a07836040518263ffffffff1660e01b8152600401610d6f91906132eb565b60206040518083038186803b158015610d8757600080fd5b505afa158015610d9b573d6000803e3d6000fd5b505050506040513d601f19601f82011682018060405250810190610dbf919061399f565b610ddb5760405162461bcd60e51b815260040161052c90613a02565b506001600160a01b0316600090815260cb602052604090205490565b6065546001600160a01b03163314610e215760405162461bcd60e51b815260040161052c90613912565b61053d6000612391565b60ca54604080516303bf7e6b60e21b815290516000926001600160a01b031691630efdf9ac916004808301926020929190829003018186803b158015610e7057600080fd5b505afa158015610e84573d6000803e3d6000fd5b505050506040513d601f19601f82011682018060405250810190610ea89190613699565b9050336001600160a01b03821614610ed25760405162461bcd60e51b815260040161052c90613707565b60975460ff1615610ef55760405162461bcd60e51b815260040161052c90613554565b60026001541415610f185760405162461bcd60e51b815260040161052c90613598565b600260015560ca5460408051636120933b60e11b815290516000926001600160a01b03169163c2412676916004808301926020929190829003018186803b158015610f6257600080fd5b505afa158015610f76573d6000803e3d6000fd5b505050506040513d601f19601f82011682018060405250810190610f9a9190613473565b9050856001600160a01b0316816001600160a01b031614610fcd5760405162461bcd60e51b815260040161052c90613a46565b60008060008061101288888080601f01602080910402602001604051908101604052809392919081815260200183838082843760009201919091525061147b92505050565b93509350935093506000611026868b6123e3565b905060006040518060800160405280876001600160a01b03168152602001866001600160401b0316815260200185815260200161107a8460405180602001604052808881525061241490919063ffffffff16565b81525090506110928682604001518360600151611809565b5061109f8685898e611f90565b7fc5f1085d8db8470034ca0b57c2029a07440e82632d8b6d34119bcc93fed8064887826040516110d0929190613653565b60405180910390a150506001805550505050505050505050565b6065546001600160a01b031633146111145760405162461bcd60e51b815260040161052c90613912565b610b7c81612594565b6111263361053f565b6111425760405162461bcd60e51b815260040161052c9061351d565b61053d61260d565b6065546001600160a01b031633146111745760405162461bcd60e51b815260040161052c90613912565b6111886001600160a01b0384168383612665565b7f2717ead6b9200dd235aad468c9809ea400fe33ac69b5bfaa6d3e90fc922b6398838383604051610b3c93929190613a56565b600080600060ca60009054906101000a90046001600160a01b03166001600160a01b031663740e80616040518163ffffffff1660e01b815260040160206040518083038186803b15801561120e57600080fd5b505afa158015611222573d6000803e3d6000fd5b505050506040513d601f19601f820116820180604052508101906112469190613473565b60405162f304db60e01b8152909150879087906001600160a01b0384169062f304db906112799085908590600401613a71565b60206040518083038186803b15801561129157600080fd5b505afa1580156112a5573d6000803e3d6000fd5b505050506040513d601f19601f820116820180604052508101906112c9919061399f565b15611319576000871180156112de5750600086115b6112fa5760405162461bcd60e51b815260040161052c90613acf565b611306826004896103f0565b94506113128587612689565b935061146f565b60008711806113285750600086115b6113445760405162461bcd60e51b815260040161052c90613b13565b6113d26113cb836004866001600160a01b0316633a01873287876040518363ffffffff1660e01b815260040161137b929190613a71565b60206040518083038186803b15801561139357600080fd5b505afa1580156113a7573d6000803e3d6000fd5b505050506040513d601f19601f820116820180604052508101906101bc91906134c7565b8890612689565b945061146c6114658360046101bc8b886001600160a01b0316634d30b6be89896040518363ffffffff1660e01b815260040161140f929190613a71565b60206040518083038186803b15801561142757600080fd5b505afa15801561143b573d6000803e3d6000fd5b505050506040513d601f19601f8201168201806040525081019061145f91906134c7565b90612695565b8790612689565b93505b50505094509492505050565b60008060006060848060200190518101906114969190613b2e565b92989197509550909350915050565b60006114b160016126a1565b905080156114c9576000805461ff0019166101001790555b6114d284612391565b6114db8361272e565b6114e482612755565b801561152f576000805461ff00191690556040517f7f26b83ff96e1f2b6a682f133852f6798a09c465da95921460cefb38474024989061152690600190613bb4565b60405180910390a15b50505050565b600080600060ca60009054906101000a90046001600160a01b03166001600160a01b031663740e80616040518163ffffffff1660e01b815260040160206040518083038186803b15801561158857600080fd5b505afa15801561159c573d6000803e3d6000fd5b505050506040513d601f19601f820116820180604052508101906115c09190613473565b60405162f304db60e01b8152909150879087906001600160a01b0384169062f304db906115f39085908590600401613a71565b60206040518083038186803b15801561160b57600080fd5b505afa15801561161f573d6000803e3d6000fd5b505050506040513d601f19601f82011682018060405250810190611643919061399f565b15611695576000871180156116585750600086115b6116745760405162461bcd60e51b815260040161052c90613acf565b6116896116828360046106b6565b8890612785565b94506113128688612785565b60008711806116a45750600086115b6116c05760405162461bcd60e51b815260040161052c90613b13565b6116f7611682836004866001600160a01b0316633a01873287876040518363ffffffff1660e01b815260040161137b929190613a71565b945061146c6117348360046101bc89886001600160a01b0316634d30b6be89896040518363ffffffff1660e01b815260040161140f929190613a71565b8790612785565b6065546001600160a01b031633146117655760405162461bcd60e51b815260040161052c90613912565b6001600160a01b03811661178b5760405162461bcd60e51b815260040161052c90613c05565b610b7c81612391565b6001600160a01b03163b151590565b60975460ff166117c55760405162461bcd60e51b815260040161052c90613c40565b6097805460ff191690557f5db9ee0a495bf2e6ff9c91a7834c1ba4fdd244a5e8aa4e537bd38aeae4b073aa335b6040516117ff91906132eb565b60405180910390a1565b60008082511161182b5760405162461bcd60e51b815260040161052c90613c8e565b60ca54604080516337187fc360e01b815290516000926001600160a01b0316916337187fc3916004808301926020929190829003018186803b15801561187057600080fd5b505afa158015611884573d6000803e3d6000fd5b505050506040513d601f19601f820116820180604052508101906118a89190613473565b905060005b8351811015611f205760008482815181106118ca576118ca613c9e565b60200260200101519050600160048111156118e7576118e7613060565b815160048111156118fa576118fa613060565b1415611ab8578060200151516001146119255760405162461bcd60e51b815260040161052c90613cf5565b6000836001600160a01b03166365d6b40c898460000151856020015160008151811061195357611953613c9e565b60200260200101516040518463ffffffff1660e01b815260040161197993929190613494565b60206040518083038186803b15801561199157600080fd5b505afa1580156119a5573d6000803e3d6000fd5b505050506040513d601f19601f820116820180604052508101906119c991906134c7565b905060ca60009054906101000a90046001600160a01b03166001600160a01b03166322b31aba6040518163ffffffff1660e01b815260040160206040518083038186803b158015611a1957600080fd5b505afa158015611a2d573d6000803e3d6000fd5b505050506040513d601f19601f82011682018060405250810190611a519190613473565b6001600160a01b0316630de482878989846040518463ffffffff1660e01b8152600401611a8093929190613d05565b600060405180830381600087803b158015611a9a57600080fd5b505af1158015611aae573d6000803e3d6000fd5b5050505050611eb7565b600381516004811115611acd57611acd613060565b1415611bec57806020015151600114611af85760405162461bcd60e51b815260040161052c90613d5e565b6000836001600160a01b03166365d6b40c8984600001518560200151600081518110611b2657611b26613c9e565b60200260200101516040518463ffffffff1660e01b8152600401611b4c93929190613494565b60206040518083038186803b158015611b6457600080fd5b505afa158015611b78573d6000803e3d6000fd5b505050506040513d601f19601f82011682018060405250810190611b9c91906134c7565b905060ca60009054906101000a90046001600160a01b03166001600160a01b031663a2d2f2db6040518163ffffffff1660e01b815260040160206040518083038186803b158015611a1957600080fd5b600281516004811115611c0157611c01613060565b1415611d2057806020015151600114611c2c5760405162461bcd60e51b815260040161052c90613dac565b6000836001600160a01b03166365d6b40c8984600001518560200151600081518110611c5a57611c5a613c9e565b60200260200101516040518463ffffffff1660e01b8152600401611c8093929190613494565b60206040518083038186803b158015611c9857600080fd5b505afa158015611cac573d6000803e3d6000fd5b505050506040513d601f19601f82011682018060405250810190611cd091906134c7565b905060ca60009054906101000a90046001600160a01b03166001600160a01b031663f931ca566040518163ffffffff1660e01b815260040160206040518083038186803b158015611a1957600080fd5b600481516004811115611d3557611d35613060565b1415611e9f57806020015151600214611d605760405162461bcd60e51b815260040161052c90613dfc565b600080611dab89898560200151600081518110611d7f57611d7f613c9e565b60200260200101518660200151600181518110611d9e57611d9e613c9e565b6020026020010151611535565b9150915060ca60009054906101000a90046001600160a01b03166001600160a01b031663740e80616040518163ffffffff1660e01b815260040160206040518083038186803b158015611dfd57600080fd5b505afa158015611e11573d6000803e3d6000fd5b505050506040513d601f19601f82011682018060405250810190611e359190613473565b6001600160a01b031663a5a2d6178a8a85856040518563ffffffff1660e01b8152600401611e669493929190613e0c565b600060405180830381600087803b158015611e8057600080fd5b505af1158015611e94573d6000803e3d6000fd5b505050505050611eb7565b60405162461bcd60e51b815260040161052c90613e84565b60005b816020015151811015611f0b57611ef782602001518281518110611ee057611ee0613c9e565b60200260200101518661269590919063ffffffff16565b945080611f0381613eaa565b915050611eba565b50508080611f1890613eaa565b9150506118ad565b50509392505050565b600080611f3584612791565b90506012808211611f6857611f5f611f4d828461282a565b611f5890600a613fd3565b8590612785565b925050506107c4565b611f87611f75838361282a565b611f8090600a613fd3565b8590612689565b95945050505050565b60ca60009054906101000a90046001600160a01b03166001600160a01b031663a1c841ca6040518163ffffffff1660e01b815260040160206040518083038186803b158015611fde57600080fd5b505afa158015611ff2573d6000803e3d6000fd5b505050506040513d601f19601f820116820180604052508101906120169190613473565b6001600160a01b0316632d52976485856040518363ffffffff1660e01b8152600401612043929190613a71565b60206040518083038186803b15801561205b57600080fd5b505afa15801561206f573d6000803e3d6000fd5b505050506040513d601f19601f82011682018060405250810190612093919061399f565b6120af5760405162461bcd60e51b815260040161052c90614023565b6001600160a01b038416600090815260cb60205260409020546120d29082612695565b6001600160a01b03808616600090815260cb602052604090209190915561152f908316333084612339565b60ca54604080516350e420e560e11b815290516000926001600160a01b03169163a1c841ca916004808301926020929190829003018186803b15801561214257600080fd5b505afa158015612156573d6000803e3d6000fd5b505050506040513d601f19601f8201168201806040525081019061217a9190613473565b6001600160a01b0316632d52976485856040518363ffffffff1660e01b81526004016121a7929190613a71565b60206040518083038186803b1580156121bf57600080fd5b505afa1580156121d3573d6000803e3d6000fd5b505050506040513d601f19601f820116820180604052508101906121f7919061399f565b6122135760405162461bcd60e51b815260040161052c90614023565b61221e848484611809565b905061222a8582611f29565b6001600160a01b038516600090815260cb6020526040902054909150612251908290614033565b6001600160a01b038516600090815260cb602090815260408083209390935560cc815282822086835290522054612289908290614033565b6001600160a01b03909416600090815260cc60209081526040808320958352949052929092209290925592915050565b6122c28161053f565b6122de5760405162461bcd60e51b815260040161052c9061407f565b6001600160a01b038116600090815260c9602052604090819020805460ff19169055517fcd265ebaf09df2871cc7bd4133404a235ba12eff2041bb89d9c714a2621c7c7e9061232e9083906132eb565b60405180910390a150565b61152f846323b872dd60e01b85858560405160240161235a9392919061408f565b60408051601f198184030181529190526020810180516001600160e01b03166001600160e01b031990931692909217909152612836565b606580546001600160a01b038381166001600160a01b0319831681179093556040519116919082907f8be0079c531659141344cd1fd0a4f28419497f9722a3daafe3b4186f6b6457e090600090a35050565b6000806123ef84612791565b9050601280821161240757611f5f611f75828461282a565b611f87611f4d838361282a565b81518051606091906124385760405162461bcd60e51b815260040161052c906140de565b6000612443826128c5565b9050600081116124655760405162461bcd60e51b815260040161052c90614122565b60005b825181101561258a57600083828151811061248557612485613c9e565b60200260200101516020015151116124af5760405162461bcd60e51b815260040161052c90614171565b60005b8382815181106124c4576124c4613c9e565b602002602001015160200151518110156125775761252b83612525888786815181106124f2576124f2613c9e565b602002602001015160200151858151811061250f5761250f613c9e565b602002602001015161268990919063ffffffff16565b90612785565b84838151811061253d5761253d613c9e565b602002602001015160200151828151811061255a5761255a613c9e565b60209081029190910101528061256f81613eaa565b9150506124b2565b508061258281613eaa565b915050612468565b5090949350505050565b61259d8161053f565b156125ba5760405162461bcd60e51b815260040161052c906141bf565b6001600160a01b038116600090815260c9602052604090819020805460ff19166001179055517f6719d08c1888103bea251a4ed56406bd0c3e69723c8a1686e017e7bbe159b6f89061232e9083906132eb565b60975460ff16156126305760405162461bcd60e51b815260040161052c90613554565b6097805460ff191660011790557f62e78cea01bee320cd4e420270b5ea74000d11b0c9f74754ebdbfc544b05a2586117f23390565b6126848363a9059cbb60e01b848460405160240161235a929190613a71565b505050565b600061050082846141cf565b60006105008284614033565b60008054610100900460ff16156126e8578160ff1660011480156126c45750303b155b6126e05760405162461bcd60e51b815260040161052c90614239565b506000919050565b60005460ff80841691161061270f5760405162461bcd60e51b815260040161052c90614239565b506000805460ff191660ff92909216919091179055600190565b919050565b600054610100900460ff166111145760405162461bcd60e51b815260040161052c90614291565b600054610100900460ff1661277c5760405162461bcd60e51b815260040161052c90614291565b610b7c81612992565b600061050082846142b7565b6000806000836001600160a01b03166040516127ac906142cb565b600060405180830381855afa9150503d80600081146127e7576040519150601f19603f3d011682016040523d82523d6000602084013e6127ec565b606091505b50915091508161280e5760405162461bcd60e51b815260040161052c90614314565b8080602001905181019061282291906134c7565b949350505050565b60006105008284614324565b600061288b826040518060400160405280602081526020017f5361666545524332303a206c6f772d6c6576656c2063616c6c206661696c6564815250856001600160a01b0316612a039092919063ffffffff16565b80519091501561268457808060200190518101906128a9919061399f565b6126845760405162461bcd60e51b815260040161052c90614382565b6000808251116128e75760405162461bcd60e51b815260040161052c906143d4565b60005b825181101561298c5760005b83828151811061290857612908613c9e565b602002602001015160200151518110156129795761296584838151811061293157612931613c9e565b602002602001015160200151828151811061294e5761294e613c9e565b60200260200101518461269590919063ffffffff16565b92508061297181613eaa565b9150506128f6565b508061298481613eaa565b9150506128ea565b50919050565b6001600160a01b0381166129b85760405162461bcd60e51b815260040161052c90614418565b60ca80546001600160a01b0319166001600160a01b0383161790556040517f7aed1d3e8155a07ccf395e44ea3109a0e2d6c9b29bbbe9f142d9790596f4dc809061232e90839061345a565b60606128228484600085856001600160a01b0385163b612a355760405162461bcd60e51b815260040161052c9061445c565b600080866001600160a01b03168587604051612a5191906144ba565b60006040518083038185875af1925050503d8060008114612a8e576040519150601f19603f3d011682016040523d82523d6000602084013e612a93565b606091505b5091509150612aa3828286612aae565b979650505050505050565b60608315612abd575081610500565b825115612acd5782518084602001fd5b8160405162461bcd60e51b815260040161052c91906144f8565b60006001600160a01b0382166107c4565b612b0181612ae7565b8114610b7c57600080fd5b80356107c481612af8565b60058110610b7c57600080fd5b80356107c481612b17565b80612b01565b80356107c481612b2f565b600080600060608486031215612b5857612b58600080fd5b6000612b648686612b0c565b9350506020612b7586828701612b24565b9250506040612b8686828701612b35565b9150509250925092565b805b82525050565b602081016107c48284612b90565b600060208284031215612bbb57612bbb600080fd5b60006107c08484612b0c565b801515612b92565b602081016107c48284612bc7565b634e487b7160e01b600052604160045260246000fd5b601f19601f83011681018181106001600160401b0382111715612c1857612c18612bdd565b6040525050565b6000612c2a60405190565b90506127298282612bf3565b6001600160401b038116612b01565b80356107c481612c36565b60006001600160401b03821115612c6957612c69612bdd565b5060209081020190565b6000612c86612c8184612c50565b612c1f565b83815290506020808201908402830185811115612ca557612ca5600080fd5b835b81811015612cc95780612cba8882612b35565b84525060209283019201612ca7565b5050509392505050565b600082601f830112612ce757612ce7600080fd5b81356107c0848260208601612c73565b600060408284031215612d0c57612d0c600080fd5b612d166040612c1f565b90506000612d248484612b24565b82525060208201356001600160401b03811115612d4357612d43600080fd5b612d4f84828501612cd3565b60208301525092915050565b6000612d69612c8184612c50565b83815290506020808201908402830185811115612d8857612d88600080fd5b835b81811015612cc95780356001600160401b03811115612dab57612dab600080fd5b808601612db88982612cf7565b8552505060209283019201612d8a565b600082601f830112612ddc57612ddc600080fd5b81356107c0848260208601612d5b565b600060808284031215612e0157612e01600080fd5b612e0b6080612c1f565b90506000612e198484612b0c565b8252506020612e2a84848301612c45565b6020830152506040612e3e84828501612b35565b60408301525060608201356001600160401b03811115612e6057612e60600080fd5b612e6c84828501612dc8565b60608301525092915050565b600060208284031215612e8d57612e8d600080fd5b81356001600160401b03811115612ea657612ea6600080fd5b6107c084828501612dec565b60008060408385031215612ec857612ec8600080fd5b6000612ed48585612b0c565b9250506020612ee585828601612b24565b9150509250929050565b60008083601f840112612f0457612f04600080fd5b5081356001600160401b03811115612f1e57612f1e600080fd5b602083019150836001820283011115612f3957612f39600080fd5b9250929050565b60008060208385031215612f5657612f56600080fd5b82356001600160401b03811115612f6f57612f6f600080fd5b612f7b85828601612eef565b92509250509250929050565b60006001600160401b03821115612fa057612fa0612bdd565b601f19601f83011660200192915050565b82818337506000910152565b6000612fcb612c8184612f87565b905082815260208101848484011115612fe657612fe6600080fd5b612ff1848285612fb1565b509392505050565b600082601f83011261300d5761300d600080fd5b81356107c0848260208601612fbd565b60006020828403121561303257613032600080fd5b81356001600160401b0381111561304b5761304b600080fd5b6107c084828501612ff9565b612b9281612ae7565b634e487b7160e01b600052602160045260246000fd5b60058110610b7c57610b7c613060565b8061272981613076565b60006107c482613086565b612b9281613090565b60006130b08383612b90565b505060200190565b60006130c2825190565b80845260209384019383018060005b838110156130f65781516130e588826130a4565b9750602083019250506001016130d1565b509495945050505050565b80516000906040840190613115858261309b565b5060208301518482036020860152611f8782826130b8565b60006105008383613101565b6000613143825190565b8084526020840193508360208202850161315d8560200190565b8060005b85811015613192578484038952815161317a858261312d565b94506020830160209a909a0199925050600101613161565b5091979650505050505050565b606081016131ad8286613057565b6131ba6020830185612b90565b8181036040830152611f878184613139565b600080604083850312156131e2576131e2600080fd5b60006131ee8585612b0c565b9250506020612ee585828601612b35565b60008060006060848603121561321757613217600080fd5b60006132238686612b0c565b935050602061323486828701612b35565b92505060408401356001600160401b0381111561325357613253600080fd5b612b8686828701612dc8565b60006107c482612ae7565b612b018161325f565b80356107c48161326a565b6000806000806060858703121561329757613297600080fd5b60006132a38787613273565b94505060206132b487828801612b35565b93505060408501356001600160401b038111156132d3576132d3600080fd5b6132df87828801612eef565b95989497509550505050565b602081016107c48284613057565b60008060006060848603121561331157613311600080fd5b600061331d8686613273565b9350506020612b7586828701612b0c565b6000806000806080858703121561334757613347600080fd5b60006133538787612b0c565b945050602061336487828801612b35565b935050604061337587828801612b35565b925050606061338687828801612b35565b91505092959194509250565b604081016133a08285612b90565b6105006020830184612b90565b6001600160401b038116612b92565b608081016133ca8287613057565b6133d760208301866133ad565b6133e46040830185612b90565b81810360608301526133f68184613139565b9695505050505050565b60008060006060848603121561341857613418600080fd5b60006134248686612b0c565b935050602061343586828701612b0c565b9250506040612b8686828701613273565b60006107c48261325f565b612b9281613446565b602081016107c48284613451565b80516107c48161326a565b60006020828403121561348857613488600080fd5b60006107c08484613468565b606081016134a28286613057565b6134af602083018561309b565b6128226040830184612b90565b80516107c481612b2f565b6000602082840312156134dc576134dc600080fd5b60006107c084846134bc565b60208082527f5061757365723a2063616c6c6572206973206e6f742074686520706175736572910190815260005b5060200190565b602080825281016107c4816134e8565b601081526000602082016f14185d5cd8589b194e881c185d5cd95960821b81529150613516565b602080825281016107c48161352d565b601f81526000602082017f5265656e7472616e637947756172643a207265656e7472616e742063616c6c0081529150613516565b602080825281016107c481613564565b60006135b2825190565b808452602084019350836020820285016135cc8560200190565b8060005b8581101561319257848403895281516135e9858261312d565b94506020830160209a909a01999250506001016135d0565b805160009060808401906136158582613057565b50602083015161362860208601826133ad565b50604083015161363b6040860182612b90565b5060608301518482036060860152611f8782826135a8565b604081016136618285613451565b81810360208301526128228184613601565b604081016136818285613057565b610500602083018461309b565b80516107c481612af8565b6000602082840312156136ae576136ae600080fd5b60006107c0848461368e565b602d81526000602082017f526f75746572577261707065723a2063616c6c6572206973206e6f74206d657381526c39b0b3b2903932b1b2b4bb32b960991b602082015291505b5060400190565b602080825281016107c4816136ba565b80516107c481612b17565b6000613730612c8184612c50565b8381529050602080820190840283018581111561374f5761374f600080fd5b835b81811015612cc9578061376488826134bc565b84525060209283019201613751565b600082601f83011261378757613787600080fd5b81516107c0848260208601613722565b6000604082840312156137ac576137ac600080fd5b6137b66040612c1f565b905060006137c48484613717565b82525060208201516001600160401b038111156137e3576137e3600080fd5b612d4f84828501613773565b60006137fd612c8184612c50565b8381529050602080820190840283018581111561381c5761381c600080fd5b835b81811015612cc95780516001600160401b0381111561383f5761383f600080fd5b80860161384c8982613797565b855250506020928301920161381e565b600082601f83011261387057613870600080fd5b81516107c08482602086016137ef565b60008060006060848603121561389857613898600080fd5b60006138a4868661368e565b93505060206138b5868287016134bc565b92505060408401516001600160401b038111156138d4576138d4600080fd5b612b868682870161385c565b60208082527f4f776e61626c653a2063616c6c6572206973206e6f7420746865206f776e657291019081526000613516565b602080825281016107c4816138e0565b602f81526000602082017f4f776e6572576974686472617761626c653a207769746864726177206e61746981526e1d99481d1bdad95b8819985a5b1959608a1b60208201529150613700565b602080825281016107c481613922565b604081016133a08285613451565b801515612b01565b80516107c48161398c565b6000602082840312156139b4576139b4600080fd5b60006107c08484613994565b602581526000602082017f447374436861696e5061796d656e743a206e6f6e6578697374656e742070726f8152643b34b232b960d91b60208201529150613700565b602080825281016107c4816139c0565b601e81526000602082017f447374436861696e5061796d656e743a20696e76616c696420746f6b656e000081529150613516565b602080825281016107c481613a12565b60608101613a648286613451565b6134af6020830185613057565b604081016133a08285613057565b603381526000602082017f447374436861696e5061796d656e743a20696e76616c696420706172616d7320815272199bdc88195e1c1a5c9959081858d8dbdd5b9d606a1b60208201529150613700565b602080825281016107c481613a7f565b601f81526000602082017f447374436861696e5061796d656e743a20696e76616c696420706172616d730081529150613516565b602080825281016107c481613adf565b80516107c481612c36565b60008060008060808587031215613b4757613b47600080fd5b6000613b53878761368e565b9450506020613b6487828801613b23565b9350506040613b75878288016134bc565b92505060608501516001600160401b03811115613b9457613b94600080fd5b6133868782880161385c565b600060ff82166107c4565b612b9281613ba0565b602081016107c48284613bab565b602681526000602082017f4f776e61626c653a206e6577206f776e657220697320746865207a65726f206181526564647265737360d01b60208201529150613700565b602080825281016107c481613bc2565b601481526000602082017314185d5cd8589b194e881b9bdd081c185d5cd95960621b81529150613516565b602080825281016107c481613c15565b602181526000602082017f447374436861696e5061796d656e743a20696e76616c6964207061796c6f61648152607360f81b60208201529150613700565b602080825281016107c481613c50565b634e487b7160e01b600052603260045260246000fd5b6036815260006020820160008051602061450a833981519152815275656e67746820666f72204275696c64696e6754696d6560501b60208201529150613700565b602080825281016107c481613cb4565b60608101613d138286613057565b6134af6020830185612b90565b6033815260006020820160008051602061450a833981519152815272656e67746820666f7220415253746f7261676560681b60208201529150613700565b602080825281016107c481613d20565b6033815260006020820160008051602061450a8339815191528152720cadccee8d040ccdee44084c2dcc8eed2c8e8d606b1b60208201529150613700565b602080825281016107c481613d6e565b6035815260006020820160008051602061450a833981519152815274656e67746820666f72204950465353746f7261676560581b60208201529150613700565b602080825281016107c481613dbc565b60808101613e1a8287613057565b613e276020830186612b90565b613e346040830185612b90565b611f876060830184612b90565b602681526000602082017f447374436861696e5061796d656e743a20756e6b6e6f776e207265736f75726381526565207479706560d01b60208201529150613700565b602080825281016107c481613e41565b634e487b7160e01b600052601160045260246000fd5b6000600019821415613ebe57613ebe613e94565b5060010190565b80825b6001851115613f0457808604811115613ee357613ee3613e94565b6001851615613ef157908102905b8002613efd8560011c90565b9450613ec8565b94509492505050565b600082613f1c57506001610500565b81613f2957506000610500565b8160018114613f3f5760028114613f4957613f76565b6001915050610500565b60ff841115613f5a57613f5a613e94565b8360020a915084821115613f7057613f70613e94565b50610500565b5060208310610133831016604e8410600b8410161715613fa9575081810a83811115613fa457613fa4613e94565b610500565b613fb68484846001613ec5565b92509050818404811115613fcc57613fcc613e94565b0292915050565b60006105006000198484613f0d565b602481526000602082017f447374436861696e5061796d656e743a206e6f6e6578697374656e74206163638152631bdd5b9d60e21b60208201529150613700565b602080825281016107c481613fe2565b6000821982111561404657614046613e94565b500190565b601d81526000602082017f5061757365723a206163636f756e74206973206e6f742070617573657200000081529150613516565b602080825281016107c48161404b565b60608101613a648286613057565b602481526000602082017f5265736f75726365446174613a20696e76616c6964207061796c6f6164206c658152630dccee8d60e31b60208201529150613700565b602080825281016107c48161409d565b601e81526000602082017f5265736f75726365446174613a207a65726f20746f74616c2076616c7565000081529150613516565b602080825281016107c4816140ee565b602281526000602082017f5265736f75726365446174613a20696e76616c69642076616c7565206c656e678152610e8d60f31b60208201529150613700565b602080825281016107c481614132565b602181526000602082017f5061757365723a206163636f756e7420697320616c72656164792070617573658152603960f91b60208201529150613700565b602080825281016107c481614181565b60008160001904831182151516156141e9576141e9613e94565b500290565b602e81526000602082017f496e697469616c697a61626c653a20636f6e747261637420697320616c72656181526d191e481a5b9a5d1a585b1a5e995960921b60208201529150613700565b602080825281016107c4816141ee565b602b81526000602082017f496e697469616c697a61626c653a20636f6e7472616374206973206e6f74206981526a6e697469616c697a696e6760a81b60208201529150613700565b602080825281016107c481614249565b634e487b7160e01b600052601260045260246000fd5b6000826142c6576142c66142a1565b500490565b63313ce56760e01b81526000600482016107c4565b601b81526000602082017f5265736f75726365446174613a20696e76616c696420746f6b656e000000000081529150613516565b602080825281016107c4816142e0565b60008282101561433657614336613e94565b500390565b602a81526000602082017f5361666545524332303a204552433230206f7065726174696f6e20646964206e8152691bdd081cdd58d8d9595960b21b60208201529150613700565b602080825281016107c48161433b565b602581526000602082017f5265736f75726365446174613a20696e76616c6964207061796c6f616473206c8152640cadccee8d60db1b60208201529150613700565b602080825281016107c481614392565b601b81526000602082017f526f75746572577261707065723a207a65726f2061646472657373000000000081529150613516565b602080825281016107c4816143e4565b601d81526000602082017f416464726573733a2063616c6c20746f206e6f6e2d636f6e747261637400000081529150613516565b602080825281016107c481614428565b60005b8381101561448757818101518382015260200161446f565b8381111561152f5750506000910152565b60006144a2825190565b6144b081856020860161446c565b9290920192915050565b60006105008284614498565b60006144d0825190565b8084526020840193506144e781856020860161446c565b601f01601f19169290920192915050565b6020808252810161050081846144c656fe447374436861696e5061796d656e743a20696e76616c69642076616c7565206ca26469706673582212200b7c8841b667db22faa63bbaf48e2446fd94dfe50979464491f48d2a20119afd64736f6c63430008090033",
  "devdoc": {
    "author": "Alexandas",
    "details": "Dst chain payment contract",
    "kind": "dev",
    "methods": {
      "addPauser(address)": {
        "details": "add a pauser for the contract",
        "params": {
          "account": "address"
        }
      },
      "balanceOf(address)": {
        "details": "return balance of provider",
        "params": {
          "provider": "provider address"
        },
        "returns": {
          "_0": "balance of provider"
        }
      },
      "celerExec(bytes)": {
        "details": "pay from source chain only called by message receiver",
        "params": {
          "message": "payment payload message bytes"
        }
      },
      "decodeSourceChainMessage(bytes)": {
        "details": "decode source chain message",
        "params": {
          "message": "message bytes"
        },
        "returns": {
          "account": "user account",
          "nonce": "nonce",
          "payloads": "payment payloads",
          "provider": "provider address"
        }
      },
      "getAmountOf(address,uint8,uint256)": {
        "details": "return resource amount with value",
        "params": {
          "provider": "provider address",
          "resourceType": "resource type",
          "value": "token value"
        },
        "returns": {
          "_0": "resource amount"
        }
      },
      "getValueOf(address,uint8,uint256)": {
        "details": "return value of amount resource",
        "params": {
          "amount": "resource amount",
          "provider": "provider address",
          "resourceType": "resource type"
        },
        "returns": {
          "_0": "token value"
        }
      },
      "initialize(address,address,address)": {
        "details": "proxy initialize function",
        "params": {
          "owner": "contract owner",
          "pauser": "contract pauser",
          "router": "router contract"
        }
      },
      "ipfsAllocations(address,bytes32,uint256,uint256)": {
        "details": "calculate ipfs storage and expiration with storage fee and expiration fee",
        "params": {
          "account": "user account",
          "expirationFee": "expiration fee",
          "provider": "provider address",
          "storageFee": "storage fee"
        },
        "returns": {
          "amount": "ipfs storage amount",
          "expiration": "ipfs expiration(in seconds)"
        }
      },
      "ipfsAlloctionsFee(address,bytes32,uint256,uint256)": {
        "details": "calculate fee for ipfs storage and expiration",
        "params": {
          "account": "user account",
          "amount": "ipfs storage amount",
          "expiration": "ipfs expiration(in seconds)",
          "provider": "provider address"
        },
        "returns": {
          "expirationFee": "ipfs expiration fee",
          "storageFee": "ipfs storage fee"
        }
      },
      "isPauser(address)": {
        "details": "whether the account is the contract pauser",
        "params": {
          "account": "address"
        },
        "returns": {
          "_0": "whether account is a pauser"
        }
      },
      "owner()": {
        "details": "Returns the address of the current owner."
      },
      "ownerWithdrawERC20(address,address,uint256)": {
        "details": "withdraw token",
        "params": {
          "to": "receiver address",
          "token": "token address",
          "value": "token value"
        }
      },
      "ownerWithdrawNative(address,uint256)": {
        "details": "withdraw ETH",
        "params": {
          "to": "receiver address",
          "value": "token value"
        }
      },
      "pause()": {
        "details": "pause the contract"
      },
      "paused()": {
        "details": "Returns true if the contract is paused, and false otherwise."
      },
      "pay((address,uint64,bytes32,(uint8,uint256[])[]))": {
        "details": "pay on dst chain",
        "params": {
          "payload": "payment payload"
        },
        "returns": {
          "value": "payment value"
        }
      },
      "payFromSourceChain(address,uint256,bytes)": {
        "details": "pay from source chain only called by message receiver",
        "params": {
          "_token": "token address",
          "dstAmount": "token amount",
          "message": "payment payload message bytes"
        }
      },
      "payV2(address,bytes32,(uint8,uint256[])[])": {
        "details": "pay on dst chain",
        "params": {
          "account": "user account",
          "payloads": "payment payloads",
          "provider": "provider address"
        },
        "returns": {
          "value": "total token value"
        }
      },
      "priceOf(address,uint8)": {
        "details": "return resource price",
        "params": {
          "provider": "provider address",
          "resourceType": "resource type"
        },
        "returns": {
          "_0": "resource price"
        }
      },
      "removePauser(address)": {
        "details": "remove a pauser for the contract",
        "params": {
          "account": "address"
        }
      },
      "renounceOwnership()": {
        "details": "Leaves the contract without owner. It will not be possible to call `onlyOwner` functions anymore. Can only be called by the current owner. NOTE: Renouncing ownership will leave the contract without an owner, thereby removing any functionality that is only available to the owner."
      },
      "renouncePauser()": {
        "details": "remove a pauser for the contract"
      },
      "transferOwnership(address)": {
        "details": "Transfers ownership of the contract to a new account (`newOwner`). Can only be called by the current owner."
      },
      "unpause()": {
        "details": "unpause the contract"
      }
    },
    "version": 1
  },
  "userdoc": {
    "kind": "user",
    "methods": {},
    "version": 1
  },
  "storageLayout": {
    "storage": [
      {
        "astId": 147,
        "contract": "contracts/payments/DstChainPayment.sol:DstChainPayment",
        "label": "_initialized",
        "offset": 0,
        "slot": "0",
        "type": "t_uint8"
      },
      {
        "astId": 150,
        "contract": "contracts/payments/DstChainPayment.sol:DstChainPayment",
        "label": "_initializing",
        "offset": 1,
        "slot": "0",
        "type": "t_bool"
      },
      {
        "astId": 407,
        "contract": "contracts/payments/DstChainPayment.sol:DstChainPayment",
        "label": "_status",
        "offset": 0,
        "slot": "1",
        "type": "t_uint256"
      },
      {
        "astId": 451,
        "contract": "contracts/payments/DstChainPayment.sol:DstChainPayment",
        "label": "__gap",
        "offset": 0,
        "slot": "2",
        "type": "t_array(t_uint256)49_storage"
      },
      {
        "astId": 1038,
        "contract": "contracts/payments/DstChainPayment.sol:DstChainPayment",
        "label": "__gap",
        "offset": 0,
        "slot": "51",
        "type": "t_array(t_uint256)50_storage"
      },
      {
        "astId": 10,
        "contract": "contracts/payments/DstChainPayment.sol:DstChainPayment",
        "label": "_owner",
        "offset": 0,
        "slot": "101",
        "type": "t_address"
      },
      {
        "astId": 122,
        "contract": "contracts/payments/DstChainPayment.sol:DstChainPayment",
        "label": "__gap",
        "offset": 0,
        "slot": "102",
        "type": "t_array(t_uint256)49_storage"
      },
      {
        "astId": 303,
        "contract": "contracts/payments/DstChainPayment.sol:DstChainPayment",
        "label": "_paused",
        "offset": 0,
        "slot": "151",
        "type": "t_bool"
      },
      {
        "astId": 392,
        "contract": "contracts/payments/DstChainPayment.sol:DstChainPayment",
        "label": "__gap",
        "offset": 0,
        "slot": "152",
        "type": "t_array(t_uint256)49_storage"
      },
      {
        "astId": 3817,
        "contract": "contracts/payments/DstChainPayment.sol:DstChainPayment",
        "label": "pausers",
        "offset": 0,
        "slot": "201",
        "type": "t_mapping(t_address,t_bool)"
      },
      {
        "astId": 5940,
        "contract": "contracts/payments/DstChainPayment.sol:DstChainPayment",
        "label": "router",
        "offset": 0,
        "slot": "202",
        "type": "t_contract(IRouter)7039"
      },
      {
        "astId": 8524,
        "contract": "contracts/payments/DstChainPayment.sol:DstChainPayment",
        "label": "providerBalances",
        "offset": 0,
        "slot": "203",
        "type": "t_mapping(t_address,t_uint256)"
      },
      {
        "astId": 8530,
        "contract": "contracts/payments/DstChainPayment.sol:DstChainPayment",
        "label": "fees",
        "offset": 0,
        "slot": "204",
        "type": "t_mapping(t_address,t_mapping(t_bytes32,t_uint256))"
      }
    ],
    "types": {
      "t_address": {
        "encoding": "inplace",
        "label": "address",
        "numberOfBytes": "20"
      },
      "t_array(t_uint256)49_storage": {
        "base": "t_uint256",
        "encoding": "inplace",
        "label": "uint256[49]",
        "numberOfBytes": "1568"
      },
      "t_array(t_uint256)50_storage": {
        "base": "t_uint256",
        "encoding": "inplace",
        "label": "uint256[50]",
        "numberOfBytes": "1600"
      },
      "t_bool": {
        "encoding": "inplace",
        "label": "bool",
        "numberOfBytes": "1"
      },
      "t_bytes32": {
        "encoding": "inplace",
        "label": "bytes32",
        "numberOfBytes": "32"
      },
      "t_contract(IRouter)7039": {
        "encoding": "inplace",
        "label": "contract IRouter",
        "numberOfBytes": "20"
      },
      "t_mapping(t_address,t_bool)": {
        "encoding": "mapping",
        "key": "t_address",
        "label": "mapping(address => bool)",
        "numberOfBytes": "32",
        "value": "t_bool"
      },
      "t_mapping(t_address,t_mapping(t_bytes32,t_uint256))": {
        "encoding": "mapping",
        "key": "t_address",
        "label": "mapping(address => mapping(bytes32 => uint256))",
        "numberOfBytes": "32",
        "value": "t_mapping(t_bytes32,t_uint256)"
      },
      "t_mapping(t_address,t_uint256)": {
        "encoding": "mapping",
        "key": "t_address",
        "label": "mapping(address => uint256)",
        "numberOfBytes": "32",
        "value": "t_uint256"
      },
      "t_mapping(t_bytes32,t_uint256)": {
        "encoding": "mapping",
        "key": "t_bytes32",
        "label": "mapping(bytes32 => uint256)",
        "numberOfBytes": "32",
        "value": "t_uint256"
      },
      "t_uint256": {
        "encoding": "inplace",
        "label": "uint256",
        "numberOfBytes": "32"
      },
      "t_uint8": {
        "encoding": "inplace",
        "label": "uint8",
        "numberOfBytes": "1"
      }
    }
  }
}