{
  "address": "0x92ae37b49c9269079796F58C8708Df86E875D4Ae",
  "abi": [
    {
      "anonymous": false,
      "inputs": [
        {
          "indexed": false,
          "internalType": "uint8",
          "name": "version",
          "type": "uint8"
        }
      ],
      "name": "Initialized",
      "type": "event"
    },
    {
      "anonymous": false,
      "inputs": [
        {
          "indexed": false,
          "internalType": "address",
          "name": "to",
          "type": "address"
        },
        {
          "indexed": false,
          "internalType": "uint256",
          "name": "value",
          "type": "uint256"
        }
      ],
      "name": "NativeWithdrawal",
      "type": "event"
    },
    {
      "anonymous": false,
      "inputs": [
        {
          "indexed": true,
          "internalType": "address",
          "name": "previousOwner",
          "type": "address"
        },
        {
          "indexed": true,
          "internalType": "address",
          "name": "newOwner",
          "type": "address"
        }
      ],
      "name": "OwnershipTransferred",
      "type": "event"
    },
    {
      "anonymous": false,
      "inputs": [
        {
          "indexed": false,
          "internalType": "address",
          "name": "provider",
          "type": "address"
        },
        {
          "indexed": false,
          "internalType": "bytes32",
          "name": "account",
          "type": "bytes32"
        },
        {
          "components": [
            {
              "internalType": "enum ResourceData.ResourceType",
              "name": "resourceType",
              "type": "uint8"
            },
            {
              "internalType": "uint256[]",
              "name": "values",
              "type": "uint256[]"
            }
          ],
          "indexed": false,
          "internalType": "struct ResourceData.ValuePayload[]",
          "name": "payloads",
          "type": "tuple[]"
        },
        {
          "indexed": false,
          "internalType": "uint256",
          "name": "value",
          "type": "uint256"
        },
        {
          "indexed": false,
          "internalType": "uint256",
          "name": "nonce",
          "type": "uint256"
        },
        {
          "indexed": false,
          "internalType": "uint256",
          "name": "amount",
          "type": "uint256"
        }
      ],
      "name": "Paid",
      "type": "event"
    },
    {
      "anonymous": false,
      "inputs": [
        {
          "indexed": false,
          "internalType": "uint64",
          "name": "srcChainId",
          "type": "uint64"
        },
        {
          "indexed": false,
          "internalType": "bytes32",
          "name": "srcTxHash",
          "type": "bytes32"
        },
        {
          "indexed": false,
          "internalType": "address",
          "name": "provider",
          "type": "address"
        },
        {
          "indexed": false,
          "internalType": "bytes32",
          "name": "account",
          "type": "bytes32"
        },
        {
          "components": [
            {
              "internalType": "enum ResourceData.ResourceType",
              "name": "resourceType",
              "type": "uint8"
            },
            {
              "internalType": "uint256[]",
              "name": "values",
              "type": "uint256[]"
            }
          ],
          "indexed": false,
          "internalType": "struct ResourceData.ValuePayload[]",
          "name": "payloads",
          "type": "tuple[]"
        },
        {
          "indexed": false,
          "internalType": "uint256",
          "name": "value",
          "type": "uint256"
        },
        {
          "indexed": false,
          "internalType": "uint256",
          "name": "nonce",
          "type": "uint256"
        },
        {
          "indexed": false,
          "internalType": "uint256",
          "name": "amount",
          "type": "uint256"
        }
      ],
      "name": "PaidSrc",
      "type": "event"
    },
    {
      "anonymous": false,
      "inputs": [
        {
          "indexed": false,
          "internalType": "address",
          "name": "account",
          "type": "address"
        }
      ],
      "name": "Paused",
      "type": "event"
    },
    {
      "anonymous": false,
      "inputs": [
        {
          "indexed": false,
          "internalType": "address",
          "name": "account",
          "type": "address"
        }
      ],
      "name": "PauserAdded",
      "type": "event"
    },
    {
      "anonymous": false,
      "inputs": [
        {
          "indexed": false,
          "internalType": "address",
          "name": "account",
          "type": "address"
        }
      ],
      "name": "PauserRemoved",
      "type": "event"
    },
    {
      "anonymous": false,
      "inputs": [
        {
          "indexed": false,
          "internalType": "contract IRouter",
          "name": "router",
          "type": "address"
        }
      ],
      "name": "RouterUpdated",
      "type": "event"
    },
    {
      "anonymous": false,
      "inputs": [
        {
          "indexed": false,
          "internalType": "address",
          "name": "account",
          "type": "address"
        }
      ],
      "name": "Unpaused",
      "type": "event"
    },
    {
      "anonymous": false,
      "inputs": [
        {
          "indexed": false,
          "internalType": "contract IERC20Upgradeable",
          "name": "token",
          "type": "address"
        },
        {
          "indexed": false,
          "internalType": "address",
          "name": "to",
          "type": "address"
        },
        {
          "indexed": false,
          "internalType": "uint256",
          "name": "value",
          "type": "uint256"
        }
      ],
      "name": "Withdrawal",
      "type": "event"
    },
    {
      "inputs": [
        {
          "internalType": "address",
          "name": "account",
          "type": "address"
        }
      ],
      "name": "addPauser",
      "outputs": [],
      "stateMutability": "nonpayable",
      "type": "function"
    },
    {
      "inputs": [
        {
          "internalType": "address",
          "name": "provider",
          "type": "address"
        }
      ],
      "name": "balanceOf",
      "outputs": [
        {
          "internalType": "uint256",
          "name": "",
          "type": "uint256"
        }
      ],
      "stateMutability": "view",
      "type": "function"
    },
    {
      "inputs": [
        {
          "internalType": "bytes",
          "name": "message",
          "type": "bytes"
        }
      ],
      "name": "celerExec",
      "outputs": [],
      "stateMutability": "nonpayable",
      "type": "function"
    },
    {
      "inputs": [
        {
          "internalType": "bytes",
          "name": "message",
          "type": "bytes"
        }
      ],
      "name": "decodeMessage",
      "outputs": [
        {
          "internalType": "address",
          "name": "provider",
          "type": "address"
        },
        {
          "internalType": "bytes32",
          "name": "account",
          "type": "bytes32"
        },
        {
          "components": [
            {
              "internalType": "enum ResourceData.ResourceType",
              "name": "resourceType",
              "type": "uint8"
            },
            {
              "internalType": "uint256[]",
              "name": "values",
              "type": "uint256[]"
            }
          ],
          "internalType": "struct ResourceData.ValuePayload[]",
          "name": "payloads",
          "type": "tuple[]"
        },
        {
          "internalType": "uint256",
          "name": "nonce",
          "type": "uint256"
        },
        {
          "internalType": "uint256",
          "name": "amount",
          "type": "uint256"
        },
        {
          "internalType": "bytes",
          "name": "signature",
          "type": "bytes"
        }
      ],
      "stateMutability": "pure",
      "type": "function"
    },
    {
      "inputs": [
        {
          "internalType": "address",
          "name": "provider",
          "type": "address"
        },
        {
          "internalType": "bytes32",
          "name": "account",
          "type": "bytes32"
        }
      ],
      "name": "fee",
      "outputs": [
        {
          "internalType": "uint256",
          "name": "",
          "type": "uint256"
        }
      ],
      "stateMutability": "view",
      "type": "function"
    },
    {
      "inputs": [
        {
          "internalType": "address",
          "name": "provider",
          "type": "address"
        },
        {
          "internalType": "enum ResourceData.ResourceType",
          "name": "resourceType",
          "type": "uint8"
        },
        {
          "internalType": "uint256",
          "name": "value",
          "type": "uint256"
        }
      ],
      "name": "getAmountOf",
      "outputs": [
        {
          "internalType": "uint256",
          "name": "",
          "type": "uint256"
        }
      ],
      "stateMutability": "view",
      "type": "function"
    },
    {
      "inputs": [
        {
          "internalType": "address",
          "name": "provider",
          "type": "address"
        },
        {
          "internalType": "enum ResourceData.ResourceType",
          "name": "resourceType",
          "type": "uint8"
        },
        {
          "internalType": "uint256",
          "name": "amount",
          "type": "uint256"
        }
      ],
      "name": "getValueOf",
      "outputs": [
        {
          "internalType": "uint256",
          "name": "",
          "type": "uint256"
        }
      ],
      "stateMutability": "view",
      "type": "function"
    },
    {
      "inputs": [
        {
          "internalType": "address",
          "name": "provider",
          "type": "address"
        },
        {
          "internalType": "bytes32",
          "name": "account",
          "type": "bytes32"
        },
        {
          "internalType": "uint256",
          "name": "nonce",
          "type": "uint256"
        },
        {
          "internalType": "uint256",
          "name": "amount",
          "type": "uint256"
        }
      ],
      "name": "hashTypedDataV4ForVoucher",
      "outputs": [
        {
          "internalType": "bytes32",
          "name": "",
          "type": "bytes32"
        }
      ],
      "stateMutability": "view",
      "type": "function"
    },
    {
      "inputs": [
        {
          "internalType": "address",
          "name": "provider",
          "type": "address"
        },
        {
          "internalType": "bytes32",
          "name": "account",
          "type": "bytes32"
        },
        {
          "internalType": "uint256",
          "name": "nonce",
          "type": "uint256"
        },
        {
          "internalType": "uint256",
          "name": "amount",
          "type": "uint256"
        }
      ],
      "name": "hashVoucherTypes",
      "outputs": [
        {
          "internalType": "bytes32",
          "name": "",
          "type": "bytes32"
        }
      ],
      "stateMutability": "view",
      "type": "function"
    },
    {
      "inputs": [
        {
          "internalType": "string",
          "name": "name",
          "type": "string"
        },
        {
          "internalType": "string",
          "name": "version",
          "type": "string"
        },
        {
          "internalType": "string",
          "name": "types",
          "type": "string"
        }
      ],
      "name": "initializeEIP712",
      "outputs": [],
      "stateMutability": "nonpayable",
      "type": "function"
    },
    {
      "inputs": [
        {
          "internalType": "address",
          "name": "provider",
          "type": "address"
        },
        {
          "internalType": "bytes32",
          "name": "account",
          "type": "bytes32"
        },
        {
          "internalType": "uint256",
          "name": "storageFee",
          "type": "uint256"
        },
        {
          "internalType": "uint256",
          "name": "expirationFee",
          "type": "uint256"
        }
      ],
      "name": "ipfsAllocations",
      "outputs": [
        {
          "internalType": "uint256",
          "name": "amount",
          "type": "uint256"
        },
        {
          "internalType": "uint256",
          "name": "expiration",
          "type": "uint256"
        }
      ],
      "stateMutability": "view",
      "type": "function"
    },
    {
      "inputs": [
        {
          "internalType": "address",
          "name": "provider",
          "type": "address"
        },
        {
          "internalType": "bytes32",
          "name": "account",
          "type": "bytes32"
        },
        {
          "internalType": "uint256",
          "name": "amount",
          "type": "uint256"
        },
        {
          "internalType": "uint256",
          "name": "expiration",
          "type": "uint256"
        }
      ],
      "name": "ipfsAlloctionsFee",
      "outputs": [
        {
          "internalType": "uint256",
          "name": "storageFee",
          "type": "uint256"
        },
        {
          "internalType": "uint256",
          "name": "expirationFee",
          "type": "uint256"
        }
      ],
      "stateMutability": "view",
      "type": "function"
    },
    {
      "inputs": [
        {
          "internalType": "address",
          "name": "account",
          "type": "address"
        }
      ],
      "name": "isPauser",
      "outputs": [
        {
          "internalType": "bool",
          "name": "",
          "type": "bool"
        }
      ],
      "stateMutability": "view",
      "type": "function"
    },
    {
      "inputs": [],
      "name": "owner",
      "outputs": [
        {
          "internalType": "address",
          "name": "",
          "type": "address"
        }
      ],
      "stateMutability": "view",
      "type": "function"
    },
    {
      "inputs": [
        {
          "internalType": "contract IERC20Upgradeable",
          "name": "token",
          "type": "address"
        },
        {
          "internalType": "address",
          "name": "to",
          "type": "address"
        },
        {
          "internalType": "uint256",
          "name": "value",
          "type": "uint256"
        }
      ],
      "name": "ownerWithdrawERC20",
      "outputs": [],
      "stateMutability": "nonpayable",
      "type": "function"
    },
    {
      "inputs": [
        {
          "internalType": "address payable",
          "name": "to",
          "type": "address"
        },
        {
          "internalType": "uint256",
          "name": "value",
          "type": "uint256"
        }
      ],
      "name": "ownerWithdrawNative",
      "outputs": [],
      "stateMutability": "nonpayable",
      "type": "function"
    },
    {
      "inputs": [],
      "name": "pause",
      "outputs": [],
      "stateMutability": "nonpayable",
      "type": "function"
    },
    {
      "inputs": [],
      "name": "paused",
      "outputs": [
        {
          "internalType": "bool",
          "name": "",
          "type": "bool"
        }
      ],
      "stateMutability": "view",
      "type": "function"
    },
    {
      "inputs": [
        {
          "internalType": "address",
          "name": "",
          "type": "address"
        }
      ],
      "name": "pausers",
      "outputs": [
        {
          "internalType": "bool",
          "name": "",
          "type": "bool"
        }
      ],
      "stateMutability": "view",
      "type": "function"
    },
    {
      "inputs": [
        {
          "internalType": "address",
          "name": "provider",
          "type": "address"
        },
        {
          "internalType": "bytes32",
          "name": "account",
          "type": "bytes32"
        },
        {
          "components": [
            {
              "internalType": "enum ResourceData.ResourceType",
              "name": "resourceType",
              "type": "uint8"
            },
            {
              "internalType": "uint256[]",
              "name": "values",
              "type": "uint256[]"
            }
          ],
          "internalType": "struct ResourceData.ValuePayload[]",
          "name": "payloads",
          "type": "tuple[]"
        },
        {
          "internalType": "uint256",
          "name": "nonce",
          "type": "uint256"
        },
        {
          "internalType": "uint256",
          "name": "amount",
          "type": "uint256"
        },
        {
          "internalType": "bytes",
          "name": "signature",
          "type": "bytes"
        }
      ],
      "name": "pay",
      "outputs": [
        {
          "internalType": "uint256",
          "name": "value",
          "type": "uint256"
        }
      ],
      "stateMutability": "nonpayable",
      "type": "function"
    },
    {
      "inputs": [
        {
          "internalType": "uint64",
          "name": "srcChainId",
          "type": "uint64"
        },
        {
          "internalType": "bytes32",
          "name": "srcTxHash",
          "type": "bytes32"
        },
        {
          "internalType": "bytes32",
          "name": "account",
          "type": "bytes32"
        },
        {
          "components": [
            {
              "internalType": "enum ResourceData.ResourceType",
              "name": "resourceType",
              "type": "uint8"
            },
            {
              "internalType": "uint256[]",
              "name": "values",
              "type": "uint256[]"
            }
          ],
          "internalType": "struct ResourceData.ValuePayload[]",
          "name": "payloads",
          "type": "tuple[]"
        },
        {
          "internalType": "uint256",
          "name": "nonce",
          "type": "uint256"
        },
        {
          "internalType": "uint256",
          "name": "amount",
          "type": "uint256"
        },
        {
          "internalType": "bytes",
          "name": "voucherSig",
          "type": "bytes"
        }
      ],
      "name": "paySrc",
      "outputs": [
        {
          "internalType": "uint256",
          "name": "value",
          "type": "uint256"
        }
      ],
      "stateMutability": "nonpayable",
      "type": "function"
    },
    {
      "inputs": [
        {
          "internalType": "address",
          "name": "provider",
          "type": "address"
        },
        {
          "internalType": "bytes32",
          "name": "account",
          "type": "bytes32"
        },
        {
          "components": [
            {
              "internalType": "enum ResourceData.ResourceType",
              "name": "resourceType",
              "type": "uint8"
            },
            {
              "internalType": "uint256[]",
              "name": "values",
              "type": "uint256[]"
            }
          ],
          "internalType": "struct ResourceData.ValuePayload[]",
          "name": "payloads",
          "type": "tuple[]"
        },
        {
          "internalType": "uint256",
          "name": "nonce",
          "type": "uint256"
        },
        {
          "internalType": "uint256",
          "name": "amount",
          "type": "uint256"
        },
        {
          "internalType": "bytes",
          "name": "voucherSig",
          "type": "bytes"
        },
        {
          "internalType": "bytes",
          "name": "registrationSig",
          "type": "bytes"
        }
      ],
      "name": "payWithRegistration",
      "outputs": [
        {
          "internalType": "uint256",
          "name": "value",
          "type": "uint256"
        }
      ],
      "stateMutability": "nonpayable",
      "type": "function"
    },
    {
      "inputs": [
        {
          "internalType": "address",
          "name": "provider",
          "type": "address"
        },
        {
          "internalType": "enum ResourceData.ResourceType",
          "name": "resourceType",
          "type": "uint8"
        }
      ],
      "name": "priceOf",
      "outputs": [
        {
          "internalType": "uint256",
          "name": "",
          "type": "uint256"
        }
      ],
      "stateMutability": "view",
      "type": "function"
    },
    {
      "inputs": [
        {
          "internalType": "address",
          "name": "provider",
          "type": "address"
        }
      ],
      "name": "providerBalance",
      "outputs": [
        {
          "internalType": "uint256",
          "name": "",
          "type": "uint256"
        }
      ],
      "stateMutability": "view",
      "type": "function"
    },
    {
      "inputs": [
        {
          "internalType": "address",
          "name": "account",
          "type": "address"
        }
      ],
      "name": "removePauser",
      "outputs": [],
      "stateMutability": "nonpayable",
      "type": "function"
    },
    {
      "inputs": [],
      "name": "renounceOwnership",
      "outputs": [],
      "stateMutability": "nonpayable",
      "type": "function"
    },
    {
      "inputs": [],
      "name": "renouncePauser",
      "outputs": [],
      "stateMutability": "nonpayable",
      "type": "function"
    },
    {
      "inputs": [],
      "name": "router",
      "outputs": [
        {
          "internalType": "contract IRouter",
          "name": "",
          "type": "address"
        }
      ],
      "stateMutability": "view",
      "type": "function"
    },
    {
      "inputs": [
        {
          "internalType": "address",
          "name": "newOwner",
          "type": "address"
        }
      ],
      "name": "transferOwnership",
      "outputs": [],
      "stateMutability": "nonpayable",
      "type": "function"
    },
    {
      "inputs": [],
      "name": "unpause",
      "outputs": [],
      "stateMutability": "nonpayable",
      "type": "function"
    },
    {
      "inputs": [],
      "name": "voucherTypedHash",
      "outputs": [
        {
          "internalType": "bytes32",
          "name": "",
          "type": "bytes32"
        }
      ],
      "stateMutability": "view",
      "type": "function"
    },
    {
      "inputs": [
        {
          "internalType": "address",
          "name": "",
          "type": "address"
        },
        {
          "internalType": "uint256",
          "name": "",
          "type": "uint256"
        }
      ],
      "name": "vouchers",
      "outputs": [
        {
          "internalType": "uint256",
          "name": "",
          "type": "uint256"
        }
      ],
      "stateMutability": "view",
      "type": "function"
    }
  ],
  "transactionHash": "0x9f0508800b186926529131f34debe1f4dbd0ec2e66539351ffb5d2b6625e42a4",
  "args": [],
  "numDeployments": 2,
  "solcInputHash": "fa2bccb45a67de4aa5136b3cc256eab4",
  "bytecode": "0x608060405234801561001057600080fd5b506146f5806100206000396000f3fe608060405234801561001057600080fd5b50600436106101f05760003560e01c8063827fbd1d1161010f578063a322c81d116100a2578063eec9a00d11610071578063eec9a00d14610460578063f2fde38b14610473578063f887ea4014610486578063f8eb6624146104a657600080fd5b8063a322c81d146103db578063b76bfac214610411578063ce841dd21461043a578063e1e382d91461044d57600080fd5b806393563a95116100de57806393563a95146103815780639412cbe51461039457806394e48f89146103a7578063989af305146103c857600080fd5b8063827fbd1d1461034357806382dc1ec41461034d5780638456cb59146103605780638da5cb5b1461036857600080fd5b8063634d45b2116101875780636ef8d66d116101565780636ef8d66d146102fd57806370a0823114610305578063715018a61461031857806380f51c121461032057600080fd5b8063634d45b21461029f57806365d6b40c146102c4578063699256f4146102d75780636b2c0f55146102ea57600080fd5b806346fbf68e116101c357806346fbf68e1461024e5780635c975abb1461026e5780635e1a544c146102795780636267834e1461028c57600080fd5b806309d629ef146101f557806335da9b231461021e5780633f4ba83a1461023157806342747d901461023b575b600080fd5b610208610203366004612b31565b6104d2565b6040516102159190612b9d565b60405180910390f35b61020861022c366004612bc3565b610511565b610239610628565b005b610208610249366004612b31565b610660565b61026161025c366004612c13565b61067f565b6040516102159190612c3c565b60975460ff16610261565b610208610287366004612c4a565b61069d565b61023961029a366004612cd8565b6107b1565b6102b26102ad366004612e13565b6109ba565b60405161021596959493929190612ff3565b6102086102d2366004612bc3565b6109ec565b6102396102e536600461305a565b610aa8565b6102396102f8366004612c13565b610b56565b610239610b8c565b610208610313366004612c13565b610b95565b610239610cc5565b61026161032e366004612c13565b60c96020526000908152604090205460ff1681565b6102086101015481565b61023961035b366004612c13565b610cf9565b610239610d2c565b6065546001600160a01b0316604051610215919061308d565b61023961038f3660046130ba565b610d59565b6102396103a23660046130ef565b610dca565b6103ba6103b5366004612b31565b610e9e565b604051610215929190613182565b6102086103d636600461334e565b61115e565b6102086103e936600461305a565b6001600160a01b0391909116600090815260cc60209081526040808320938352929052205490565b61020861041f366004612c13565b6001600160a01b0316600090815260cb602052604090205490565b6103ba610448366004612b31565b6113af565b61020861045b366004613421565b6115b5565b61020861046e3660046134df565b611703565b610239610481366004612c13565b611927565b60ca54610499906001600160a01b031681565b60405161021591906135a6565b6102086104b436600461305a565b61010260209081526000928352604080842090915290825290205481565b600061010154858585856040516020016104f09594939291906135b4565b6040516020818303038152906040528051906020012090505b949350505050565b60008060ca60009054906101000a90046001600160a01b03166001600160a01b03166337187fc36040518163ffffffff1660e01b815260040160206040518083038186803b15801561056257600080fd5b505afa158015610576573d6000803e3d6000fd5b505050506040513d601f19601f8201168201806040525081019061059a919061360b565b6040516335da9b2360e01b81529091506001600160a01b038216906335da9b23906105cd9088908890889060040161362c565b60206040518083038186803b1580156105e557600080fd5b505afa1580156105f9573d6000803e3d6000fd5b505050506040513d601f19601f8201168201806040525081019061061d919061365f565b9150505b9392505050565b6106313361067f565b6106565760405162461bcd60e51b815260040161064d906136b5565b60405180910390fd5b61065e611980565b565b6000610676610671868686866104d2565b6119e6565b95945050505050565b6001600160a01b0316600090815260c9602052604090205460ff1690565b60008060ca60009054906101000a90046001600160a01b03166001600160a01b03166337187fc36040518163ffffffff1660e01b815260040160206040518083038186803b1580156106ee57600080fd5b505afa158015610702573d6000803e3d6000fd5b505050506040513d601f19601f82011682018060405250810190610726919061360b565b604051631786951360e21b81529091506001600160a01b03821690635e1a544c9061075790879087906004016136c5565b60206040518083038186803b15801561076f57600080fd5b505afa158015610783573d6000803e3d6000fd5b505050506040513d601f19601f820116820180604052508101906107a7919061365f565b9150505b92915050565b60ca54604080516303bf7e6b60e21b815290516000926001600160a01b031691630efdf9ac916004808301926020929190829003018186803b1580156107f657600080fd5b505afa15801561080a573d6000803e3d6000fd5b505050506040513d601f19601f8201168201806040525081019061082e91906136eb565b9050336001600160a01b038216146108585760405162461bcd60e51b815260040161064d90613759565b60975460ff161561087b5760405162461bcd60e51b815260040161064d90613790565b6000806000806000806108c389898080601f0160208091040260200160405190810160405280939291908181526020018383808284376000920191909152506109ba92505050565b955095509550955095509550600060ca60009054906101000a90046001600160a01b03166001600160a01b031663c24126766040518163ffffffff1660e01b815260040160206040518083038186803b15801561091f57600080fd5b505afa158015610933573d6000803e3d6000fd5b505050506040513d601f19601f82011682018060405250810190610957919061360b565b9050600061096a828989898989896119f9565b90507fd69233c4d4c07911a44762fb49e793100eb94db44cf846ddcec7f6210e9c143a8888888489896040516109a5969594939291906137a0565b60405180910390a15050505050505050505050565b60008060606000806060868060200190518101906109d891906139b7565b949c939b5091995097509550909350915050565b60008060ca60009054906101000a90046001600160a01b03166001600160a01b03166337187fc36040518163ffffffff1660e01b815260040160206040518083038186803b158015610a3d57600080fd5b505afa158015610a51573d6000803e3d6000fd5b505050506040513d601f19601f82011682018060405250810190610a75919061360b565b604051631975ad0360e21b81529091506001600160a01b038216906365d6b40c906105cd9088908890889060040161362c565b6065546001600160a01b03163314610ad25760405162461bcd60e51b815260040161064d90613a9a565b6040516000906001600160a01b0384169083156108fc0290849084818181858888f19350505050905080610b185760405162461bcd60e51b815260040161064d90613af6565b7f2c876ecb97b3c6854f2488d373403f903eacb800e51c159a5c0c7a9c857e48278383604051610b49929190613b06565b60405180910390a1505050565b6065546001600160a01b03163314610b805760405162461bcd60e51b815260040161064d90613a9a565b610b8981611d7d565b50565b61065e33611d7d565b60ca54604080516314b47ed960e31b815290516000926001600160a01b03169163a5a3f6c8916004808301926020929190829003018186803b158015610bda57600080fd5b505afa158015610bee573d6000803e3d6000fd5b505050506040513d601f19601f82011682018060405250810190610c12919061360b565b6001600160a01b0316636b074a07836040518263ffffffff1660e01b8152600401610c3d919061308d565b60206040518083038186803b158015610c5557600080fd5b505afa158015610c69573d6000803e3d6000fd5b505050506040513d601f19601f82011682018060405250810190610c8d9190613b27565b610ca95760405162461bcd60e51b815260040161064d90613b8a565b506001600160a01b0316600090815260cb602052604090205490565b6065546001600160a01b03163314610cef5760405162461bcd60e51b815260040161064d90613a9a565b61065e6000611dfd565b6065546001600160a01b03163314610d235760405162461bcd60e51b815260040161064d90613a9a565b610b8981611e4f565b610d353361067f565b610d515760405162461bcd60e51b815260040161064d906136b5565b61065e611ec8565b6065546001600160a01b03163314610d835760405162461bcd60e51b815260040161064d90613a9a565b610d976001600160a01b0384168383611f20565b7f2717ead6b9200dd235aad468c9809ea400fe33ac69b5bfaa6d3e90fc922b6398838383604051610b4993929190613b9a565b7fb53127684a568b3173ae13b9f8a6016e243e63b6e8ee1178d6a717850b5d6103546001600160a01b03163314610e135760405162461bcd60e51b815260040161064d90613bf7565b60026000610e2082611f7b565b90508015610e38576000805461ff0019166101001790555b610e428585612008565b82516020840120610101558015610e97576000805461ff00191690556040517f7f26b83ff96e1f2b6a682f133852f6798a09c465da95921460cefb384740249890610e8e908490613c10565b60405180910390a15b5050505050565b600080600060ca60009054906101000a90046001600160a01b03166001600160a01b031663740e80616040518163ffffffff1660e01b815260040160206040518083038186803b158015610ef157600080fd5b505afa158015610f05573d6000803e3d6000fd5b505050506040513d601f19601f82011682018060405250810190610f29919061360b565b60405162f304db60e01b8152909150879087906001600160a01b0384169062f304db90610f5c9085908590600401613c1e565b60206040518083038186803b158015610f7457600080fd5b505afa158015610f88573d6000803e3d6000fd5b505050506040513d601f19601f82011682018060405250810190610fac9190613b27565b15610ffc57600087118015610fc15750600086115b610fdd5760405162461bcd60e51b815260040161064d90613c7c565b610fe982600489610511565b9450610ff5858761203d565b9350611152565b600087118061100b5750600086115b6110275760405162461bcd60e51b815260040161064d90613cc0565b6110b56110ae836004866001600160a01b0316633a01873287876040518363ffffffff1660e01b815260040161105e929190613c1e565b60206040518083038186803b15801561107657600080fd5b505afa15801561108a573d6000803e3d6000fd5b505050506040513d601f19601f8201168201806040525081019061022c919061365f565b889061203d565b945061114f61114883600461022c8b886001600160a01b0316634d30b6be89896040518363ffffffff1660e01b81526004016110f2929190613c1e565b60206040518083038186803b15801561110a57600080fd5b505afa15801561111e573d6000803e3d6000fd5b505050506040513d601f19601f82011682018060405250810190611142919061365f565b90612049565b879061203d565b93505b50505094509492505050565b600061116c60975460ff1690565b156111895760405162461bcd60e51b815260040161064d90613790565b600260015414156111ac5760405162461bcd60e51b815260040161064d90613d04565b600260015560ca54604080516314b47ed960e31b815290516000926001600160a01b03169163a5a3f6c8916004808301926020929190829003018186803b1580156111f657600080fd5b505afa15801561120a573d6000803e3d6000fd5b505050506040513d601f19601f8201168201806040525081019061122e919061360b565b604051636b074a0760e01b81529091506001600160a01b03821690636b074a079061125d90339060040161308d565b60206040518083038186803b15801561127557600080fd5b505afa158015611289573d6000803e3d6000fd5b505050506040513d601f19601f820116820180604052508101906112ad9190613b27565b6112c95760405162461bcd60e51b815260040161064d90613d5a565b60ca5460408051636120933b60e11b815290513392611357926001600160a01b039091169163c241267691600480820192602092909190829003018186803b15801561131457600080fd5b505afa158015611328573d6000803e3d6000fd5b505050506040513d601f19601f8201168201806040525081019061134c919061360b565b828a8a8a8a8a6119f9565b92507f59d0291ceb1707ba532c277302a636530a2ad63da15d20cf5e4ad71c940046ae8a8a838b8b888c8c604051611396989796959493929190613d79565b60405180910390a1505060018055979650505050505050565b600080600060ca60009054906101000a90046001600160a01b03166001600160a01b031663740e80616040518163ffffffff1660e01b815260040160206040518083038186803b15801561140257600080fd5b505afa158015611416573d6000803e3d6000fd5b505050506040513d601f19601f8201168201806040525081019061143a919061360b565b60405162f304db60e01b8152909150879087906001600160a01b0384169062f304db9061146d9085908590600401613c1e565b60206040518083038186803b15801561148557600080fd5b505afa158015611499573d6000803e3d6000fd5b505050506040513d601f19601f820116820180604052508101906114bd9190613b27565b1561150f576000871180156114d25750600086115b6114ee5760405162461bcd60e51b815260040161064d90613c7c565b6115036114fc83600461069d565b8890612055565b9450610ff58688612055565b600087118061151e5750600086115b61153a5760405162461bcd60e51b815260040161064d90613cc0565b6115716114fc836004866001600160a01b0316633a01873287876040518363ffffffff1660e01b815260040161105e929190613c1e565b945061114f6115ae83600461022c89886001600160a01b0316634d30b6be89896040518363ffffffff1660e01b81526004016110f2929190613c1e565b8790612055565b60006115c360975460ff1690565b156115e05760405162461bcd60e51b815260040161064d90613790565b600260015414156116035760405162461bcd60e51b815260040161064d90613d04565b600260015560ca5460408051636120933b60e11b815290516000926001600160a01b03169163c2412676916004808301926020929190829003018186803b15801561164d57600080fd5b505afa158015611661573d6000803e3d6000fd5b505050506040513d601f19601f82011682018060405250810190611685919061360b565b9050611696818989898989896119f9565b915081156116b3576116b36001600160a01b038216333085612061565b7fd69233c4d4c07911a44762fb49e793100eb94db44cf846ddcec7f6210e9c143a8888888589896040516116ec969594939291906137a0565b60405180910390a150600180559695505050505050565b600061171160975460ff1690565b1561172e5760405162461bcd60e51b815260040161064d90613790565b600260015414156117515760405162461bcd60e51b815260040161064d90613d04565b600260015560ca54604080516350e420e560e11b815290516000926001600160a01b03169163a1c841ca916004808301926020929190829003018186803b15801561179b57600080fd5b505afa1580156117af573d6000803e3d6000fd5b505050506040513d601f19601f820116820180604052508101906117d3919061360b565b6040516382f19cf760e01b81529091506001600160a01b038216906382f19cf790611806908c908c908890600401613df7565b600060405180830381600087803b15801561182057600080fd5b505af1158015611834573d6000803e3d6000fd5b50505050600060ca60009054906101000a90046001600160a01b03166001600160a01b031663c24126766040518163ffffffff1660e01b815260040160206040518083038186803b15801561188857600080fd5b505afa15801561189c573d6000803e3d6000fd5b505050506040513d601f19601f820116820180604052508101906118c0919061360b565b90506118d1818b8b8b8b8b8b6119f9565b925082156118ee576118ee6001600160a01b038216333086612061565b7fd69233c4d4c07911a44762fb49e793100eb94db44cf846ddcec7f6210e9c143a8a8a8a868b8b604051611396969594939291906137a0565b6065546001600160a01b031633146119515760405162461bcd60e51b815260040161064d90613a9a565b6001600160a01b0381166119775760405162461bcd60e51b815260040161064d90613e67565b610b8981611dfd565b60975460ff166119a25760405162461bcd60e51b815260040161064d90613ea2565b6097805460ff191690557f5db9ee0a495bf2e6ff9c91a7834c1ba4fdd244a5e8aa4e537bd38aeae4b073aa335b6040516119dc919061308d565b60405180910390a1565b60006107ab6119f3612088565b836120c4565b60ca54604080516350e420e560e11b815290516000926001600160a01b03169163a1c841ca916004808301926020929190829003018186803b158015611a3e57600080fd5b505afa158015611a52573d6000803e3d6000fd5b505050506040513d601f19601f82011682018060405250810190611a76919061360b565b6001600160a01b0316632d52976488886040518363ffffffff1660e01b8152600401611aa3929190613c1e565b60206040518083038186803b158015611abb57600080fd5b505afa158015611acf573d6000803e3d6000fd5b505050506040513d601f19601f82011682018060405250810190611af39190613b27565b611b0f5760405162461bcd60e51b815260040161064d90613ef3565b611b1a8787876120f7565b90508215611cde576001600160a01b03871660009081526101026020908152604080832087845290915290205415611b645760405162461bcd60e51b815260040161064d90613f37565b6000611b7288888787610660565b905060ca60009054906101000a90046001600160a01b03166001600160a01b031663a5a3f6c86040518163ffffffff1660e01b815260040160206040518083038186803b158015611bc257600080fd5b505afa158015611bd6573d6000803e3d6000fd5b505050506040513d601f19601f82011682018060405250810190611bfa919061360b565b6001600160a01b031663238a4d1e8983866040518463ffffffff1660e01b8152600401611c2993929190613df7565b602060405180830381600087803b158015611c4357600080fd5b505af1158015611c57573d6000803e3d6000fd5b505050506040513d601f19601f82011682018060405250810190611c7b9190613b27565b611c975760405162461bcd60e51b815260040161064d90613f86565b83821115611cb057611ca98483613fac565b9150611cb5565b600091505b506001600160a01b03871660009081526101026020908152604080832087845290915290208390555b8015611d7257611cee8882612817565b6001600160a01b038816600090815260cb6020526040902054909150611d15908290613fc3565b6001600160a01b038816600090815260cb602090815260408083209390935560cc815282822089835290522054611d4d908290613fc3565b6001600160a01b038816600090815260cc602090815260408083208a84529091529020555b979650505050505050565b611d868161067f565b611da25760405162461bcd60e51b815260040161064d9061400f565b6001600160a01b038116600090815260c9602052604090819020805460ff19169055517fcd265ebaf09df2871cc7bd4133404a235ba12eff2041bb89d9c714a2621c7c7e90611df290839061308d565b60405180910390a150565b606580546001600160a01b038381166001600160a01b0319831681179093556040519116919082907f8be0079c531659141344cd1fd0a4f28419497f9722a3daafe3b4186f6b6457e090600090a35050565b611e588161067f565b15611e755760405162461bcd60e51b815260040161064d9061405d565b6001600160a01b038116600090815260c9602052604090819020805460ff19166001179055517f6719d08c1888103bea251a4ed56406bd0c3e69723c8a1686e017e7bbe159b6f890611df290839061308d565b60975460ff1615611eeb5760405162461bcd60e51b815260040161064d90613790565b6097805460ff191660011790557f62e78cea01bee320cd4e420270b5ea74000d11b0c9f74754ebdbfc544b05a2586119cf3390565b611f768363a9059cbb60e01b8484604051602401611f3f929190613c1e565b60408051601f198184030181529190526020810180516001600160e01b03166001600160e01b031990931692909217909152612875565b505050565b60008054610100900460ff1615611fc2578160ff166001148015611f9e5750303b155b611fba5760405162461bcd60e51b815260040161064d906140b8565b506000919050565b60005460ff808416911610611fe95760405162461bcd60e51b815260040161064d906140b8565b506000805460ff191660ff92909216919091179055600190565b919050565b600054610100900460ff1661202f5760405162461bcd60e51b815260040161064d90614110565b6120398282612904565b5050565b60006106218284614120565b60006106218284613fc3565b60006106218284614155565b612082846323b872dd60e01b858585604051602401611f3f93929190614169565b50505050565b60006120bf7f8b73c3c69bb8fe3d512ecc4cf759cc79239f7b179b0ffacaa9a75d522b39400f6120b760cd5490565b60ce54612945565b905090565b600082826040516020016120d992919061417d565b60405160208183030381529060405280519060200120905092915050565b6000808251116121195760405162461bcd60e51b815260040161064d906141ec565b60ca54604080516337187fc360e01b815290516000926001600160a01b0316916337187fc3916004808301926020929190829003018186803b15801561215e57600080fd5b505afa158015612172573d6000803e3d6000fd5b505050506040513d601f19601f82011682018060405250810190612196919061360b565b905060005b835181101561280e5760008482815181106121b8576121b86141fc565b60200260200101519050600160048111156121d5576121d5612e56565b815160048111156121e8576121e8612e56565b14156123a6578060200151516001146122135760405162461bcd60e51b815260040161064d90614253565b6000836001600160a01b03166365d6b40c8984600001518560200151600081518110612241576122416141fc565b60200260200101516040518463ffffffff1660e01b81526004016122679392919061362c565b60206040518083038186803b15801561227f57600080fd5b505afa158015612293573d6000803e3d6000fd5b505050506040513d601f19601f820116820180604052508101906122b7919061365f565b905060ca60009054906101000a90046001600160a01b03166001600160a01b03166322b31aba6040518163ffffffff1660e01b815260040160206040518083038186803b15801561230757600080fd5b505afa15801561231b573d6000803e3d6000fd5b505050506040513d601f19601f8201168201806040525081019061233f919061360b565b6001600160a01b0316630de482878989846040518463ffffffff1660e01b815260040161236e93929190614263565b600060405180830381600087803b15801561238857600080fd5b505af115801561239c573d6000803e3d6000fd5b50505050506127a5565b6003815160048111156123bb576123bb612e56565b14156124da578060200151516001146123e65760405162461bcd60e51b815260040161064d906142bc565b6000836001600160a01b03166365d6b40c8984600001518560200151600081518110612414576124146141fc565b60200260200101516040518463ffffffff1660e01b815260040161243a9392919061362c565b60206040518083038186803b15801561245257600080fd5b505afa158015612466573d6000803e3d6000fd5b505050506040513d601f19601f8201168201806040525081019061248a919061365f565b905060ca60009054906101000a90046001600160a01b03166001600160a01b031663a2d2f2db6040518163ffffffff1660e01b815260040160206040518083038186803b15801561230757600080fd5b6002815160048111156124ef576124ef612e56565b141561260e5780602001515160011461251a5760405162461bcd60e51b815260040161064d9061430a565b6000836001600160a01b03166365d6b40c8984600001518560200151600081518110612548576125486141fc565b60200260200101516040518463ffffffff1660e01b815260040161256e9392919061362c565b60206040518083038186803b15801561258657600080fd5b505afa15801561259a573d6000803e3d6000fd5b505050506040513d601f19601f820116820180604052508101906125be919061365f565b905060ca60009054906101000a90046001600160a01b03166001600160a01b031663f931ca566040518163ffffffff1660e01b815260040160206040518083038186803b15801561230757600080fd5b60048151600481111561262357612623612e56565b141561278d5780602001515160021461264e5760405162461bcd60e51b815260040161064d9061435a565b6000806126998989856020015160008151811061266d5761266d6141fc565b6020026020010151866020015160018151811061268c5761268c6141fc565b60200260200101516113af565b9150915060ca60009054906101000a90046001600160a01b03166001600160a01b031663740e80616040518163ffffffff1660e01b815260040160206040518083038186803b1580156126eb57600080fd5b505afa1580156126ff573d6000803e3d6000fd5b505050506040513d601f19601f82011682018060405250810190612723919061360b565b6001600160a01b031663a5a2d6178a8a85856040518563ffffffff1660e01b8152600401612754949392919061436a565b600060405180830381600087803b15801561276e57600080fd5b505af1158015612782573d6000803e3d6000fd5b5050505050506127a5565b60405162461bcd60e51b815260040161064d906143e2565b60005b8160200151518110156127f9576127e5826020015182815181106127ce576127ce6141fc565b60200260200101518661204990919063ffffffff16565b9450806127f1816143f2565b9150506127a8565b50508080612806906143f2565b91505061219b565b50509392505050565b6000806128238461297f565b905060128082116128565761284d61283b8284612a10565b61284690600a61451b565b8590612055565b925050506107ab565b6106766128638383612a10565b61286e90600a61451b565b859061203d565b60006128ca826040518060400160405280602081526020017f5361666545524332303a206c6f772d6c6576656c2063616c6c206661696c6564815250856001600160a01b0316612a1c9092919063ffffffff16565b805190915015611f7657808060200190518101906128e89190613b27565b611f765760405162461bcd60e51b815260040161064d90614571565b600054610100900460ff1661292b5760405162461bcd60e51b815260040161064d90614110565b81516020928301208151919092012060cd9190915560ce55565b60008383834630604051602001612960959493929190614581565b6040516020818303038152906040528051906020012090509392505050565b6000806000836001600160a01b031660405161299a906145c3565b600060405180830381855afa9150503d80600081146129d5576040519150601f19603f3d011682016040523d82523d6000602084013e6129da565b606091505b5091509150816129fc5760405162461bcd60e51b815260040161064d9061460c565b80806020019051810190610509919061365f565b60006106218284613fac565b60606105098484600085856001600160a01b0385163b612a4e5760405162461bcd60e51b815260040161064d90614650565b600080866001600160a01b03168587604051612a6a9190614682565b60006040518083038185875af1925050503d8060008114612aa7576040519150601f19603f3d011682016040523d82523d6000602084013e612aac565b606091505b5091509150611d7282828660608315612ac6575081610621565b825115612ad65782518084602001fd5b8160405162461bcd60e51b815260040161064d919061468e565b60006001600160a01b0382166107ab565b612b0a81612af0565b8114610b8957600080fd5b80356107ab81612b01565b80612b0a565b80356107ab81612b20565b60008060008060808587031215612b4a57612b4a600080fd5b6000612b568787612b15565b9450506020612b6787828801612b26565b9350506040612b7887828801612b26565b9250506060612b8987828801612b26565b91505092959194509250565b805b82525050565b602081016107ab8284612b95565b60058110610b8957600080fd5b80356107ab81612bab565b600080600060608486031215612bdb57612bdb600080fd5b6000612be78686612b15565b9350506020612bf886828701612bb8565b9250506040612c0986828701612b26565b9150509250925092565b600060208284031215612c2857612c28600080fd5b60006107a78484612b15565b801515612b97565b602081016107ab8284612c34565b60008060408385031215612c6057612c60600080fd5b6000612c6c8585612b15565b9250506020612c7d85828601612bb8565b9150509250929050565b60008083601f840112612c9c57612c9c600080fd5b5081356001600160401b03811115612cb657612cb6600080fd5b602083019150836001820283011115612cd157612cd1600080fd5b9250929050565b60008060208385031215612cee57612cee600080fd5b82356001600160401b03811115612d0757612d07600080fd5b612d1385828601612c87565b92509250509250929050565b634e487b7160e01b600052604160045260246000fd5b601f19601f83011681018181106001600160401b0382111715612d5a57612d5a612d1f565b6040525050565b6000612d6c60405190565b90506120038282612d35565b60006001600160401b03821115612d9157612d91612d1f565b601f19601f83011660200192915050565b82818337506000910152565b6000612dc1612dbc84612d78565b612d61565b905082815260208101848484011115612ddc57612ddc600080fd5b612de7848285612da2565b509392505050565b600082601f830112612e0357612e03600080fd5b81356107a7848260208601612dae565b600060208284031215612e2857612e28600080fd5b81356001600160401b03811115612e4157612e41600080fd5b6107a784828501612def565b612b9781612af0565b634e487b7160e01b600052602160045260246000fd5b60058110610b8957610b89612e56565b8061200381612e6c565b60006107ab82612e7c565b612b9781612e86565b6000612ea68383612b95565b505060200190565b6000612eb8825190565b80845260209384019383018060005b83811015612eec578151612edb8882612e9a565b975060208301925050600101612ec7565b509495945050505050565b80516000906040840190612f0b8582612e91565b50602083015184820360208601526106768282612eae565b60006106218383612ef7565b6000612f39825190565b80845260208401935083602082028501612f538560200190565b8060005b85811015612f885784840389528151612f708582612f23565b94506020830160209a909a0199925050600101612f57565b5091979650505050505050565b60005b83811015612fb0578181015183820152602001612f98565b838111156120825750506000910152565b6000612fcb825190565b808452602084019350612fe2818560208601612f95565b601f01601f19169290920192915050565b60c081016130018289612e4d565b61300e6020830188612b95565b81810360408301526130208187612f2f565b905061302f6060830186612b95565b61303c6080830185612b95565b81810360a083015261304e8184612fc1565b98975050505050505050565b6000806040838503121561307057613070600080fd5b600061307c8585612b15565b9250506020612c7d85828601612b26565b602081016107ab8284612e4d565b60006107ab82612af0565b612b0a8161309b565b80356107ab816130a6565b6000806000606084860312156130d2576130d2600080fd5b60006130de86866130af565b9350506020612bf886828701612b15565b60008060006060848603121561310757613107600080fd5b83356001600160401b0381111561312057613120600080fd5b61312c86828701612def565b93505060208401356001600160401b0381111561314b5761314b600080fd5b61315786828701612def565b92505060408401356001600160401b0381111561317657613176600080fd5b612c0986828701612def565b604081016131908285612b95565b6106216020830184612b95565b6001600160401b038116612b0a565b80356107ab8161319d565b60006001600160401b038211156131d0576131d0612d1f565b5060209081020190565b60006131e8612dbc846131b7565b8381529050602080820190840283018581111561320757613207600080fd5b835b8181101561322b578061321c8882612b26565b84525060209283019201613209565b5050509392505050565b600082601f83011261324957613249600080fd5b81356107a78482602086016131da565b60006040828403121561326e5761326e600080fd5b6132786040612d61565b905060006132868484612bb8565b82525060208201356001600160401b038111156132a5576132a5600080fd5b6132b184828501613235565b60208301525092915050565b60006132cb612dbc846131b7565b838152905060208082019084028301858111156132ea576132ea600080fd5b835b8181101561322b5780356001600160401b0381111561330d5761330d600080fd5b80860161331a8982613259565b85525050602092830192016132ec565b600082601f83011261333e5761333e600080fd5b81356107a78482602086016132bd565b600080600080600080600060e0888a03121561336c5761336c600080fd5b60006133788a8a6131ac565b97505060206133898a828b01612b26565b965050604061339a8a828b01612b26565b95505060608801356001600160401b038111156133b9576133b9600080fd5b6133c58a828b0161332a565b94505060806133d68a828b01612b26565b93505060a06133e78a828b01612b26565b92505060c08801356001600160401b0381111561340657613406600080fd5b6134128a828b01612def565b91505092959891949750929550565b60008060008060008060c0878903121561343d5761343d600080fd5b60006134498989612b15565b965050602061345a89828a01612b26565b95505060408701356001600160401b0381111561347957613479600080fd5b61348589828a0161332a565b945050606061349689828a01612b26565b93505060806134a789828a01612b26565b92505060a08701356001600160401b038111156134c6576134c6600080fd5b6134d289828a01612def565b9150509295509295509295565b600080600080600080600060e0888a0312156134fd576134fd600080fd5b60006135098a8a612b15565b975050602061351a8a828b01612b26565b96505060408801356001600160401b0381111561353957613539600080fd5b6135458a828b0161332a565b95505060606135568a828b01612b26565b94505060806135678a828b01612b26565b93505060a08801356001600160401b0381111561358657613586600080fd5b6133e78a828b01612def565b60006107ab8261309b565b612b9781613592565b602081016107ab828461359d565b60a081016135c28288612b95565b6135cf6020830187612e4d565b6135dc6040830186612b95565b6135e96060830185612b95565b6135f66080830184612b95565b9695505050505050565b80516107ab816130a6565b60006020828403121561362057613620600080fd5b60006107a78484613600565b6060810161363a8286612e4d565b6136476020830185612e91565b6105096040830184612b95565b80516107ab81612b20565b60006020828403121561367457613674600080fd5b60006107a78484613654565b60208082527f5061757365723a2063616c6c6572206973206e6f742074686520706175736572910190815260005b5060200190565b602080825281016107ab81613680565b604081016136d38285612e4d565b6106216020830184612e91565b80516107ab81612b01565b60006020828403121561370057613700600080fd5b60006107a784846136e0565b602d81526000602082017f526f75746572577261707065723a2063616c6c6572206973206e6f74206d657381526c39b0b3b2903932b1b2b4bb32b960991b602082015291505b5060400190565b602080825281016107ab8161370c565b601081526000602082016f14185d5cd8589b194e881c185d5cd95960821b815291506136ae565b602080825281016107ab81613769565b60c081016137ae8289612e4d565b6137bb6020830188612b95565b81810360408301526137cd8187612f2f565b90506137dc6060830186612b95565b6137e96080830185612b95565b611d7260a0830184612b95565b80516107ab81612bab565b600061380f612dbc846131b7565b8381529050602080820190840283018581111561382e5761382e600080fd5b835b8181101561322b57806138438882613654565b84525060209283019201613830565b600082601f83011261386657613866600080fd5b81516107a7848260208601613801565b60006040828403121561388b5761388b600080fd5b6138956040612d61565b905060006138a384846137f6565b82525060208201516001600160401b038111156138c2576138c2600080fd5b6132b184828501613852565b60006138dc612dbc846131b7565b838152905060208082019084028301858111156138fb576138fb600080fd5b835b8181101561322b5780516001600160401b0381111561391e5761391e600080fd5b80860161392b8982613876565b85525050602092830192016138fd565b600082601f83011261394f5761394f600080fd5b81516107a78482602086016138ce565b600061396d612dbc84612d78565b90508281526020810184848401111561398857613988600080fd5b612de7848285612f95565b600082601f8301126139a7576139a7600080fd5b81516107a784826020860161395f565b60008060008060008060c087890312156139d3576139d3600080fd5b60006139df89896136e0565b96505060206139f089828a01613654565b95505060408701516001600160401b03811115613a0f57613a0f600080fd5b613a1b89828a0161393b565b9450506060613a2c89828a01613654565b9350506080613a3d89828a01613654565b92505060a08701516001600160401b03811115613a5c57613a5c600080fd5b6134d289828a01613993565b60208082527f4f776e61626c653a2063616c6c6572206973206e6f7420746865206f776e6572910190815260006136ae565b602080825281016107ab81613a68565b602f81526000602082017f4f776e6572576974686472617761626c653a207769746864726177206e61746981526e1d99481d1bdad95b8819985a5b1959608a1b60208201529150613752565b602080825281016107ab81613aaa565b60408101613190828561359d565b801515612b0a565b80516107ab81613b14565b600060208284031215613b3c57613b3c600080fd5b60006107a78484613b1c565b602581526000602082017f447374436861696e5061796d656e743a206e6f6e6578697374656e742070726f8152643b34b232b960d91b60208201529150613752565b602080825281016107ab81613b48565b60608101613ba8828661359d565b6136476020830185612e4d565b602581526000602082017f41646d696e577261707065723a2063616c6c6572206973206e6f74207468652081526430b236b4b760d91b60208201529150613752565b602080825281016107ab81613bb5565b60ff8116612b97565b602081016107ab8284613c07565b604081016131908285612e4d565b603381526000602082017f447374436861696e5061796d656e743a20696e76616c696420706172616d7320815272199bdc88195e1c1a5c9959081858d8dbdd5b9d606a1b60208201529150613752565b602080825281016107ab81613c2c565b601f81526000602082017f447374436861696e5061796d656e743a20696e76616c696420706172616d7300815291506136ae565b602080825281016107ab81613c8c565b601f81526000602082017f5265656e7472616e637947756172643a207265656e7472616e742063616c6c00815291506136ae565b602080825281016107ab81613cd0565b602981526000602082017f526f75746572577261707065723a2063616c6c6572206973206e6f742074686581526810383937bb34b232b960b91b60208201529150613752565b602080825281016107ab81613d14565b6001600160401b038116612b97565b6101008101613d88828b613d6a565b613d95602083018a612b95565b613da26040830189612e4d565b613daf6060830188612b95565b8181036080830152613dc18187612f2f565b9050613dd060a0830186612b95565b613ddd60c0830185612b95565b613dea60e0830184612b95565b9998505050505050505050565b60608101613e058286612e4d565b613e126020830185612b95565b81810360408301526106768184612fc1565b602681526000602082017f4f776e61626c653a206e6577206f776e657220697320746865207a65726f206181526564647265737360d01b60208201529150613752565b602080825281016107ab81613e24565b601481526000602082017314185d5cd8589b194e881b9bdd081c185d5cd95960621b815291506136ae565b602080825281016107ab81613e77565b602481526000602082017f447374436861696e5061796d656e743a206e6f6e6578697374656e74206163638152631bdd5b9d60e21b60208201529150613752565b602080825281016107ab81613eb2565b601d81526000602082017f447374436861696e5061796d656e743a206e6f6e636520657869737473000000815291506136ae565b602080825281016107ab81613f03565b602281526000602082017f447374436861696e5061796d656e743a20696e76616c6964207369676e617475815261726560f01b60208201529150613752565b602080825281016107ab81613f47565b634e487b7160e01b600052601160045260246000fd5b600082821015613fbe57613fbe613f96565b500390565b60008219821115613fd657613fd6613f96565b500190565b601d81526000602082017f5061757365723a206163636f756e74206973206e6f7420706175736572000000815291506136ae565b602080825281016107ab81613fdb565b602181526000602082017f5061757365723a206163636f756e7420697320616c72656164792070617573658152603960f91b60208201529150613752565b602080825281016107ab8161401f565b602e81526000602082017f496e697469616c697a61626c653a20636f6e747261637420697320616c72656181526d191e481a5b9a5d1a585b1a5e995960921b60208201529150613752565b602080825281016107ab8161406d565b602b81526000602082017f496e697469616c697a61626c653a20636f6e7472616374206973206e6f74206981526a6e697469616c697a696e6760a81b60208201529150613752565b602080825281016107ab816140c8565b600081600019048311821515161561413a5761413a613f96565b500290565b634e487b7160e01b600052601260045260246000fd5b6000826141645761416461413f565b500490565b60608101613ba88286612e4d565b80612b97565b61190160f01b815260020160006141948285614177565b6020820191506141a48284614177565b5060200192915050565b602181526000602082017f447374436861696e5061796d656e743a20696e76616c6964207061796c6f61648152607360f81b60208201529150613752565b602080825281016107ab816141ae565b634e487b7160e01b600052603260045260246000fd5b603681526000602082016000805160206146a0833981519152815275656e67746820666f72204275696c64696e6754696d6560501b60208201529150613752565b602080825281016107ab81614212565b606081016142718286612e4d565b6136476020830185612b95565b603381526000602082016000805160206146a0833981519152815272656e67746820666f7220415253746f7261676560681b60208201529150613752565b602080825281016107ab8161427e565b603381526000602082016000805160206146a08339815191528152720cadccee8d040ccdee44084c2dcc8eed2c8e8d606b1b60208201529150613752565b602080825281016107ab816142cc565b603581526000602082016000805160206146a0833981519152815274656e67746820666f72204950465353746f7261676560581b60208201529150613752565b602080825281016107ab8161431a565b608081016143788287612e4d565b6143856020830186612b95565b6143926040830185612b95565b6106766060830184612b95565b602681526000602082017f447374436861696e5061796d656e743a20756e6b6e6f776e207265736f75726381526565207479706560d01b60208201529150613752565b602080825281016107ab8161439f565b600060001982141561440657614406613f96565b5060010190565b80825b600185111561444c5780860481111561442b5761442b613f96565b600185161561443957908102905b80026144458560011c90565b9450614410565b94509492505050565b60008261446457506001610621565b8161447157506000610621565b81600181146144875760028114614491576144be565b6001915050610621565b60ff8411156144a2576144a2613f96565b8360020a9150848211156144b8576144b8613f96565b50610621565b5060208310610133831016604e8410600b84101617156144f1575081810a838111156144ec576144ec613f96565b610621565b6144fe848484600161440d565b9250905081840481111561451457614514613f96565b0292915050565b60006106216000198484614455565b602a81526000602082017f5361666545524332303a204552433230206f7065726174696f6e20646964206e8152691bdd081cdd58d8d9595960b21b60208201529150613752565b602080825281016107ab8161452a565b60a0810161458f8288612b95565b61459c6020830187612b95565b6145a96040830186612b95565b6145b66060830185612b95565b6135f66080830184612e4d565b63313ce56760e01b81526000600482016107ab565b601b81526000602082017f5265736f75726365446174613a20696e76616c696420746f6b656e0000000000815291506136ae565b602080825281016107ab816145d8565b601d81526000602082017f416464726573733a2063616c6c20746f206e6f6e2d636f6e7472616374000000815291506136ae565b602080825281016107ab8161461c565b600061466a825190565b614678818560208601612f95565b9290920192915050565b60006106218284614660565b602080825281016106218184612fc156fe447374436861696e5061796d656e743a20696e76616c69642076616c7565206ca2646970667358221220694c711d3e19f980b50ae8ab2d298884d38cda60755e56f9d9b27f87057b7f5464736f6c63430008090033",
  "devdoc": {
    "kind": "dev",
    "methods": {
      "addPauser(address)": {
        "details": "add a pauser for the contract",
        "params": {
          "account": "address"
        }
      },
      "balanceOf(address)": {
        "details": "return balance of provider",
        "params": {
          "provider": "provider address"
        },
        "returns": {
          "_0": "balance of provider"
        }
      },
      "celerExec(bytes)": {
        "details": "pay from source chain only called by message receiver",
        "params": {
          "message": "payment payload message bytes"
        }
      },
      "getAmountOf(address,uint8,uint256)": {
        "details": "return resource amount with value",
        "params": {
          "provider": "provider address",
          "resourceType": "resource type",
          "value": "token value"
        },
        "returns": {
          "_0": "resource amount"
        }
      },
      "getValueOf(address,uint8,uint256)": {
        "details": "return value of amount resource",
        "params": {
          "amount": "resource amount",
          "provider": "provider address",
          "resourceType": "resource type"
        },
        "returns": {
          "_0": "token value"
        }
      },
      "ipfsAllocations(address,bytes32,uint256,uint256)": {
        "details": "calculate ipfs storage and expiration with storage fee and expiration fee",
        "params": {
          "account": "user account",
          "expirationFee": "expiration fee",
          "provider": "provider address",
          "storageFee": "storage fee"
        },
        "returns": {
          "amount": "ipfs storage amount",
          "expiration": "ipfs expiration(in seconds)"
        }
      },
      "ipfsAlloctionsFee(address,bytes32,uint256,uint256)": {
        "details": "calculate fee for ipfs storage and expiration",
        "params": {
          "account": "user account",
          "amount": "ipfs storage amount",
          "expiration": "ipfs expiration(in seconds)",
          "provider": "provider address"
        },
        "returns": {
          "expirationFee": "ipfs expiration fee",
          "storageFee": "ipfs storage fee"
        }
      },
      "isPauser(address)": {
        "details": "whether the account is the contract pauser",
        "params": {
          "account": "address"
        },
        "returns": {
          "_0": "whether account is a pauser"
        }
      },
      "owner()": {
        "details": "Returns the address of the current owner."
      },
      "ownerWithdrawERC20(address,address,uint256)": {
        "details": "withdraw token",
        "params": {
          "to": "receiver address",
          "token": "token address",
          "value": "token value"
        }
      },
      "ownerWithdrawNative(address,uint256)": {
        "details": "withdraw ETH",
        "params": {
          "to": "receiver address",
          "value": "token value"
        }
      },
      "pause()": {
        "details": "pause the contract"
      },
      "paused()": {
        "details": "Returns true if the contract is paused, and false otherwise."
      },
      "pay(address,bytes32,(uint8,uint256[])[],uint256,uint256,bytes)": {
        "details": "pay on dst chain",
        "params": {
          "account": "user account",
          "amount": "voucher amount",
          "nonce": "voucher nonce",
          "payloads": "payment payloads",
          "provider": "provider address",
          "signature": "vourcher signature for provider"
        },
        "returns": {
          "value": "total token value"
        }
      },
      "priceOf(address,uint8)": {
        "details": "return resource price",
        "params": {
          "provider": "provider address",
          "resourceType": "resource type"
        },
        "returns": {
          "_0": "resource price"
        }
      },
      "removePauser(address)": {
        "details": "remove a pauser for the contract",
        "params": {
          "account": "address"
        }
      },
      "renounceOwnership()": {
        "details": "Leaves the contract without owner. It will not be possible to call `onlyOwner` functions anymore. Can only be called by the current owner. NOTE: Renouncing ownership will leave the contract without an owner, thereby removing any functionality that is only available to the owner."
      },
      "renouncePauser()": {
        "details": "remove a pauser for the contract"
      },
      "transferOwnership(address)": {
        "details": "Transfers ownership of the contract to a new account (`newOwner`). Can only be called by the current owner."
      },
      "unpause()": {
        "details": "unpause the contract"
      }
    },
    "version": 1
  },
  "userdoc": {
    "kind": "user",
    "methods": {},
    "version": 1
  },
  "storageLayout": {
    "storage": [
      {
        "astId": 147,
        "contract": "contracts/payments/DstChainPaymentV2Src.sol:DstChainPaymentV2Src",
        "label": "_initialized",
        "offset": 0,
        "slot": "0",
        "type": "t_uint8"
      },
      {
        "astId": 150,
        "contract": "contracts/payments/DstChainPaymentV2Src.sol:DstChainPaymentV2Src",
        "label": "_initializing",
        "offset": 1,
        "slot": "0",
        "type": "t_bool"
      },
      {
        "astId": 407,
        "contract": "contracts/payments/DstChainPaymentV2Src.sol:DstChainPaymentV2Src",
        "label": "_status",
        "offset": 0,
        "slot": "1",
        "type": "t_uint256"
      },
      {
        "astId": 451,
        "contract": "contracts/payments/DstChainPaymentV2Src.sol:DstChainPaymentV2Src",
        "label": "__gap",
        "offset": 0,
        "slot": "2",
        "type": "t_array(t_uint256)49_storage"
      },
      {
        "astId": 1038,
        "contract": "contracts/payments/DstChainPaymentV2Src.sol:DstChainPaymentV2Src",
        "label": "__gap",
        "offset": 0,
        "slot": "51",
        "type": "t_array(t_uint256)50_storage"
      },
      {
        "astId": 10,
        "contract": "contracts/payments/DstChainPaymentV2Src.sol:DstChainPaymentV2Src",
        "label": "_owner",
        "offset": 0,
        "slot": "101",
        "type": "t_address"
      },
      {
        "astId": 122,
        "contract": "contracts/payments/DstChainPaymentV2Src.sol:DstChainPaymentV2Src",
        "label": "__gap",
        "offset": 0,
        "slot": "102",
        "type": "t_array(t_uint256)49_storage"
      },
      {
        "astId": 303,
        "contract": "contracts/payments/DstChainPaymentV2Src.sol:DstChainPaymentV2Src",
        "label": "_paused",
        "offset": 0,
        "slot": "151",
        "type": "t_bool"
      },
      {
        "astId": 392,
        "contract": "contracts/payments/DstChainPaymentV2Src.sol:DstChainPaymentV2Src",
        "label": "__gap",
        "offset": 0,
        "slot": "152",
        "type": "t_array(t_uint256)49_storage"
      },
      {
        "astId": 3817,
        "contract": "contracts/payments/DstChainPaymentV2Src.sol:DstChainPaymentV2Src",
        "label": "pausers",
        "offset": 0,
        "slot": "201",
        "type": "t_mapping(t_address,t_bool)"
      },
      {
        "astId": 6477,
        "contract": "contracts/payments/DstChainPaymentV2Src.sol:DstChainPaymentV2Src",
        "label": "router",
        "offset": 0,
        "slot": "202",
        "type": "t_contract(IRouter)7712"
      },
      {
        "astId": 9064,
        "contract": "contracts/payments/DstChainPaymentV2Src.sol:DstChainPaymentV2Src",
        "label": "providerBalances",
        "offset": 0,
        "slot": "203",
        "type": "t_mapping(t_address,t_uint256)"
      },
      {
        "astId": 9070,
        "contract": "contracts/payments/DstChainPaymentV2Src.sol:DstChainPaymentV2Src",
        "label": "fees",
        "offset": 0,
        "slot": "204",
        "type": "t_mapping(t_address,t_mapping(t_bytes32,t_uint256))"
      },
      {
        "astId": 1738,
        "contract": "contracts/payments/DstChainPaymentV2Src.sol:DstChainPaymentV2Src",
        "label": "_HASHED_NAME",
        "offset": 0,
        "slot": "205",
        "type": "t_bytes32"
      },
      {
        "astId": 1740,
        "contract": "contracts/payments/DstChainPaymentV2Src.sol:DstChainPaymentV2Src",
        "label": "_HASHED_VERSION",
        "offset": 0,
        "slot": "206",
        "type": "t_bytes32"
      },
      {
        "astId": 1878,
        "contract": "contracts/payments/DstChainPaymentV2Src.sol:DstChainPaymentV2Src",
        "label": "__gap",
        "offset": 0,
        "slot": "207",
        "type": "t_array(t_uint256)50_storage"
      },
      {
        "astId": 9095,
        "contract": "contracts/payments/DstChainPaymentV2Src.sol:DstChainPaymentV2Src",
        "label": "voucherTypedHash",
        "offset": 0,
        "slot": "257",
        "type": "t_bytes32"
      },
      {
        "astId": 9101,
        "contract": "contracts/payments/DstChainPaymentV2Src.sol:DstChainPaymentV2Src",
        "label": "vouchers",
        "offset": 0,
        "slot": "258",
        "type": "t_mapping(t_address,t_mapping(t_uint256,t_uint256))"
      }
    ],
    "types": {
      "t_address": {
        "encoding": "inplace",
        "label": "address",
        "numberOfBytes": "20"
      },
      "t_array(t_uint256)49_storage": {
        "base": "t_uint256",
        "encoding": "inplace",
        "label": "uint256[49]",
        "numberOfBytes": "1568"
      },
      "t_array(t_uint256)50_storage": {
        "base": "t_uint256",
        "encoding": "inplace",
        "label": "uint256[50]",
        "numberOfBytes": "1600"
      },
      "t_bool": {
        "encoding": "inplace",
        "label": "bool",
        "numberOfBytes": "1"
      },
      "t_bytes32": {
        "encoding": "inplace",
        "label": "bytes32",
        "numberOfBytes": "32"
      },
      "t_contract(IRouter)7712": {
        "encoding": "inplace",
        "label": "contract IRouter",
        "numberOfBytes": "20"
      },
      "t_mapping(t_address,t_bool)": {
        "encoding": "mapping",
        "key": "t_address",
        "label": "mapping(address => bool)",
        "numberOfBytes": "32",
        "value": "t_bool"
      },
      "t_mapping(t_address,t_mapping(t_bytes32,t_uint256))": {
        "encoding": "mapping",
        "key": "t_address",
        "label": "mapping(address => mapping(bytes32 => uint256))",
        "numberOfBytes": "32",
        "value": "t_mapping(t_bytes32,t_uint256)"
      },
      "t_mapping(t_address,t_mapping(t_uint256,t_uint256))": {
        "encoding": "mapping",
        "key": "t_address",
        "label": "mapping(address => mapping(uint256 => uint256))",
        "numberOfBytes": "32",
        "value": "t_mapping(t_uint256,t_uint256)"
      },
      "t_mapping(t_address,t_uint256)": {
        "encoding": "mapping",
        "key": "t_address",
        "label": "mapping(address => uint256)",
        "numberOfBytes": "32",
        "value": "t_uint256"
      },
      "t_mapping(t_bytes32,t_uint256)": {
        "encoding": "mapping",
        "key": "t_bytes32",
        "label": "mapping(bytes32 => uint256)",
        "numberOfBytes": "32",
        "value": "t_uint256"
      },
      "t_mapping(t_uint256,t_uint256)": {
        "encoding": "mapping",
        "key": "t_uint256",
        "label": "mapping(uint256 => uint256)",
        "numberOfBytes": "32",
        "value": "t_uint256"
      },
      "t_uint256": {
        "encoding": "inplace",
        "label": "uint256",
        "numberOfBytes": "32"
      },
      "t_uint8": {
        "encoding": "inplace",
        "label": "uint8",
        "numberOfBytes": "1"
      }
    }
  }
}