{
  "address": "0x88DD066285d30B1Ec23000d82AC0F3b3018879e4",
  "abi": [
    {
      "anonymous": false,
      "inputs": [
        {
          "indexed": false,
          "internalType": "uint8",
          "name": "version",
          "type": "uint8"
        }
      ],
      "name": "Initialized",
      "type": "event"
    },
    {
      "anonymous": false,
      "inputs": [
        {
          "indexed": false,
          "internalType": "address",
          "name": "to",
          "type": "address"
        },
        {
          "indexed": false,
          "internalType": "uint256",
          "name": "value",
          "type": "uint256"
        }
      ],
      "name": "NativeWithdrawal",
      "type": "event"
    },
    {
      "anonymous": false,
      "inputs": [
        {
          "indexed": true,
          "internalType": "address",
          "name": "previousOwner",
          "type": "address"
        },
        {
          "indexed": true,
          "internalType": "address",
          "name": "newOwner",
          "type": "address"
        }
      ],
      "name": "OwnershipTransferred",
      "type": "event"
    },
    {
      "anonymous": false,
      "inputs": [
        {
          "indexed": false,
          "internalType": "address",
          "name": "account",
          "type": "address"
        }
      ],
      "name": "Paused",
      "type": "event"
    },
    {
      "anonymous": false,
      "inputs": [
        {
          "indexed": false,
          "internalType": "address",
          "name": "account",
          "type": "address"
        }
      ],
      "name": "PauserAdded",
      "type": "event"
    },
    {
      "anonymous": false,
      "inputs": [
        {
          "indexed": false,
          "internalType": "address",
          "name": "account",
          "type": "address"
        }
      ],
      "name": "PauserRemoved",
      "type": "event"
    },
    {
      "anonymous": false,
      "inputs": [
        {
          "indexed": false,
          "internalType": "address",
          "name": "provider",
          "type": "address"
        },
        {
          "indexed": false,
          "internalType": "bytes32",
          "name": "account",
          "type": "bytes32"
        },
        {
          "indexed": false,
          "internalType": "uint256",
          "name": "amount",
          "type": "uint256"
        }
      ],
      "name": "Recharged",
      "type": "event"
    },
    {
      "anonymous": false,
      "inputs": [
        {
          "indexed": false,
          "internalType": "contract IRouter",
          "name": "router",
          "type": "address"
        }
      ],
      "name": "RouterUpdated",
      "type": "event"
    },
    {
      "anonymous": false,
      "inputs": [
        {
          "indexed": false,
          "internalType": "address",
          "name": "provider",
          "type": "address"
        },
        {
          "indexed": false,
          "internalType": "bytes32",
          "name": "account",
          "type": "bytes32"
        },
        {
          "indexed": false,
          "internalType": "uint256",
          "name": "amount",
          "type": "uint256"
        }
      ],
      "name": "Spent",
      "type": "event"
    },
    {
      "anonymous": false,
      "inputs": [
        {
          "indexed": false,
          "internalType": "address",
          "name": "account",
          "type": "address"
        }
      ],
      "name": "Unpaused",
      "type": "event"
    },
    {
      "anonymous": false,
      "inputs": [
        {
          "indexed": false,
          "internalType": "contract IERC20Upgradeable",
          "name": "token",
          "type": "address"
        },
        {
          "indexed": false,
          "internalType": "address",
          "name": "to",
          "type": "address"
        },
        {
          "indexed": false,
          "internalType": "uint256",
          "name": "value",
          "type": "uint256"
        }
      ],
      "name": "Withdrawal",
      "type": "event"
    },
    {
      "anonymous": false,
      "inputs": [
        {
          "indexed": false,
          "internalType": "address",
          "name": "provider",
          "type": "address"
        },
        {
          "indexed": false,
          "internalType": "bytes32",
          "name": "account",
          "type": "bytes32"
        },
        {
          "indexed": false,
          "internalType": "address",
          "name": "to",
          "type": "address"
        },
        {
          "indexed": false,
          "internalType": "uint256",
          "name": "amount",
          "type": "uint256"
        }
      ],
      "name": "Withdrawn",
      "type": "event"
    },
    {
      "inputs": [
        {
          "internalType": "address",
          "name": "account",
          "type": "address"
        }
      ],
      "name": "addPauser",
      "outputs": [],
      "stateMutability": "nonpayable",
      "type": "function"
    },
    {
      "inputs": [
        {
          "internalType": "address",
          "name": "provider",
          "type": "address"
        },
        {
          "internalType": "bytes32",
          "name": "account",
          "type": "bytes32"
        }
      ],
      "name": "balanceOf",
      "outputs": [
        {
          "internalType": "uint256",
          "name": "",
          "type": "uint256"
        }
      ],
      "stateMutability": "view",
      "type": "function"
    },
    {
      "inputs": [
        {
          "internalType": "uint256",
          "name": "amount",
          "type": "uint256"
        },
        {
          "internalType": "bytes",
          "name": "message",
          "type": "bytes"
        }
      ],
      "name": "celerExec",
      "outputs": [],
      "stateMutability": "nonpayable",
      "type": "function"
    },
    {
      "inputs": [
        {
          "internalType": "address",
          "name": "provider",
          "type": "address"
        },
        {
          "internalType": "bytes32",
          "name": "account",
          "type": "bytes32"
        },
        {
          "internalType": "bytes",
          "name": "walletSig",
          "type": "bytes"
        },
        {
          "internalType": "bytes",
          "name": "bills",
          "type": "bytes"
        },
        {
          "internalType": "uint256",
          "name": "timeout",
          "type": "uint256"
        },
        {
          "internalType": "uint64",
          "name": "nonce",
          "type": "uint64"
        },
        {
          "internalType": "bytes",
          "name": "billSig",
          "type": "bytes"
        },
        {
          "internalType": "address",
          "name": "to",
          "type": "address"
        },
        {
          "internalType": "uint256",
          "name": "amount",
          "type": "uint256"
        }
      ],
      "name": "initWalletAndWithdraw",
      "outputs": [
        {
          "internalType": "uint256",
          "name": "fee",
          "type": "uint256"
        }
      ],
      "stateMutability": "nonpayable",
      "type": "function"
    },
    {
      "inputs": [
        {
          "internalType": "address",
          "name": "owner",
          "type": "address"
        },
        {
          "internalType": "address",
          "name": "pauser",
          "type": "address"
        },
        {
          "internalType": "contract IRouter",
          "name": "router",
          "type": "address"
        }
      ],
      "name": "initialize",
      "outputs": [],
      "stateMutability": "nonpayable",
      "type": "function"
    },
    {
      "inputs": [
        {
          "internalType": "address",
          "name": "account",
          "type": "address"
        }
      ],
      "name": "isPauser",
      "outputs": [
        {
          "internalType": "bool",
          "name": "",
          "type": "bool"
        }
      ],
      "stateMutability": "view",
      "type": "function"
    },
    {
      "inputs": [],
      "name": "owner",
      "outputs": [
        {
          "internalType": "address",
          "name": "",
          "type": "address"
        }
      ],
      "stateMutability": "view",
      "type": "function"
    },
    {
      "inputs": [
        {
          "internalType": "contract IERC20Upgradeable",
          "name": "token",
          "type": "address"
        },
        {
          "internalType": "address",
          "name": "to",
          "type": "address"
        },
        {
          "internalType": "uint256",
          "name": "value",
          "type": "uint256"
        }
      ],
      "name": "ownerWithdrawERC20",
      "outputs": [],
      "stateMutability": "nonpayable",
      "type": "function"
    },
    {
      "inputs": [
        {
          "internalType": "address payable",
          "name": "to",
          "type": "address"
        },
        {
          "internalType": "uint256",
          "name": "value",
          "type": "uint256"
        }
      ],
      "name": "ownerWithdrawNative",
      "outputs": [],
      "stateMutability": "nonpayable",
      "type": "function"
    },
    {
      "inputs": [],
      "name": "pause",
      "outputs": [],
      "stateMutability": "nonpayable",
      "type": "function"
    },
    {
      "inputs": [],
      "name": "paused",
      "outputs": [
        {
          "internalType": "bool",
          "name": "",
          "type": "bool"
        }
      ],
      "stateMutability": "view",
      "type": "function"
    },
    {
      "inputs": [
        {
          "internalType": "address",
          "name": "",
          "type": "address"
        }
      ],
      "name": "pausers",
      "outputs": [
        {
          "internalType": "bool",
          "name": "",
          "type": "bool"
        }
      ],
      "stateMutability": "view",
      "type": "function"
    },
    {
      "inputs": [
        {
          "internalType": "address",
          "name": "provider",
          "type": "address"
        },
        {
          "internalType": "bytes32",
          "name": "account",
          "type": "bytes32"
        },
        {
          "internalType": "uint256",
          "name": "amount",
          "type": "uint256"
        }
      ],
      "name": "recharge",
      "outputs": [],
      "stateMutability": "nonpayable",
      "type": "function"
    },
    {
      "inputs": [
        {
          "internalType": "address",
          "name": "provider",
          "type": "address"
        },
        {
          "internalType": "bytes32",
          "name": "account",
          "type": "bytes32"
        },
        {
          "internalType": "uint256",
          "name": "amount",
          "type": "uint256"
        },
        {
          "internalType": "bytes",
          "name": "registrationSig",
          "type": "bytes"
        }
      ],
      "name": "rechargeWithRegistration",
      "outputs": [],
      "stateMutability": "nonpayable",
      "type": "function"
    },
    {
      "inputs": [
        {
          "internalType": "address",
          "name": "account",
          "type": "address"
        }
      ],
      "name": "removePauser",
      "outputs": [],
      "stateMutability": "nonpayable",
      "type": "function"
    },
    {
      "inputs": [],
      "name": "renounceOwnership",
      "outputs": [],
      "stateMutability": "nonpayable",
      "type": "function"
    },
    {
      "inputs": [],
      "name": "renouncePauser",
      "outputs": [],
      "stateMutability": "nonpayable",
      "type": "function"
    },
    {
      "inputs": [],
      "name": "router",
      "outputs": [
        {
          "internalType": "contract IRouter",
          "name": "",
          "type": "address"
        }
      ],
      "stateMutability": "view",
      "type": "function"
    },
    {
      "inputs": [
        {
          "internalType": "address",
          "name": "provider",
          "type": "address"
        },
        {
          "internalType": "bytes32",
          "name": "account",
          "type": "bytes32"
        },
        {
          "internalType": "bytes",
          "name": "bills",
          "type": "bytes"
        },
        {
          "internalType": "uint256",
          "name": "timeout",
          "type": "uint256"
        },
        {
          "internalType": "uint64",
          "name": "nonce",
          "type": "uint64"
        },
        {
          "internalType": "bytes",
          "name": "signature",
          "type": "bytes"
        }
      ],
      "name": "spend",
      "outputs": [
        {
          "internalType": "uint256",
          "name": "fee",
          "type": "uint256"
        }
      ],
      "stateMutability": "nonpayable",
      "type": "function"
    },
    {
      "inputs": [
        {
          "internalType": "address",
          "name": "newOwner",
          "type": "address"
        }
      ],
      "name": "transferOwnership",
      "outputs": [],
      "stateMutability": "nonpayable",
      "type": "function"
    },
    {
      "inputs": [],
      "name": "unpause",
      "outputs": [],
      "stateMutability": "nonpayable",
      "type": "function"
    },
    {
      "inputs": [
        {
          "internalType": "address",
          "name": "provider",
          "type": "address"
        },
        {
          "internalType": "bytes32",
          "name": "account",
          "type": "bytes32"
        }
      ],
      "name": "walletOf",
      "outputs": [
        {
          "internalType": "address",
          "name": "",
          "type": "address"
        }
      ],
      "stateMutability": "view",
      "type": "function"
    },
    {
      "inputs": [
        {
          "internalType": "address",
          "name": "provider",
          "type": "address"
        },
        {
          "internalType": "bytes32",
          "name": "account",
          "type": "bytes32"
        },
        {
          "internalType": "bytes",
          "name": "bills",
          "type": "bytes"
        },
        {
          "internalType": "uint256",
          "name": "timeout",
          "type": "uint256"
        },
        {
          "internalType": "uint64",
          "name": "nonce",
          "type": "uint64"
        },
        {
          "internalType": "bytes",
          "name": "signature",
          "type": "bytes"
        },
        {
          "internalType": "address",
          "name": "to",
          "type": "address"
        },
        {
          "internalType": "uint256",
          "name": "amount",
          "type": "uint256"
        }
      ],
      "name": "withdraw",
      "outputs": [
        {
          "internalType": "uint256",
          "name": "fee",
          "type": "uint256"
        }
      ],
      "stateMutability": "nonpayable",
      "type": "function"
    }
  ],
  "transactionHash": "0x333e768d2fa278ec4e99e54996a466a88da813d041e77c49354c6573fb1f1a45",
  "args": [],
  "numDeployments": 1,
  "solcInputHash": "060038dc8f02548c54f8d43408b5c7f5",
  "bytecode": "0x60806040523480156200001157600080fd5b5060006200002060016200008e565b9050801562000039576000805461ff0019166101001790555b801562000087576000805461ff00191690556040517f7f26b83ff96e1f2b6a682f133852f6798a09c465da95921460cefb3847402498906200007e9060019062000168565b60405180910390a15b50620001cb565b60008054610100900460ff1615620000f7578160ff166001148015620000c75750620000c5306200013b60201b620013001760201c565b155b620000ef5760405162461bcd60e51b8152600401620000e69062000178565b60405180910390fd5b506000919050565b60005460ff808416911610620001215760405162461bcd60e51b8152600401620000e69062000178565b506000805460ff191660ff92909216919091179055600190565b6001600160a01b03163b151590565b600060ff82165b92915050565b62000162816200014a565b82525050565b6020810162000151828462000157565b602080825281016200015181602e81527f496e697469616c697a61626c653a20636f6e747261637420697320616c72656160208201526d191e481a5b9a5d1a585b1a5e995960921b604082015260600190565b612e8280620001db6000396000f3fe608060405234801561001057600080fd5b506004361061014d5760003560e01c806372d9e80e116100c357806393563a951161007c57806393563a95146102a1578063c0c53b8b146102b4578063cf5f1d0e146102c7578063de4ed60d146102da578063f2fde38b146102ed578063f887ea401461030057600080fd5b806372d9e80e1461021f57806380f51c121461023f57806382dc1ec4146102625780638456cb59146102755780638da5cb5b1461027d5780638de479f61461028e57600080fd5b80635db17930116101155780635db17930146101c3578063699256f4146101d65780636b2c0f55146101e95780636ef8d66d146101fc578063715018a614610204578063720262641461020c57600080fd5b806317a6020b146101525780633f4ba83a1461017b57806346fbf68e146101855780634d30b6be146101a55780635c975abb146101b8575b600080fd5b610165610160366004611e8c565b610320565b6040516101729190611f52565b60405180910390f35b6101836104b0565b005b610198610193366004611f60565b6104df565b6040516101729190611f89565b6101656101b3366004611f97565b6104fd565b60655460ff16610198565b6101836101d1366004611fd4565b61063f565b6101836101e4366004611f97565b6107dc565b6101836101f7366004611f60565b61088a565b6101836108c0565b6101836108c9565b61018361021a366004612024565b6108fd565b61023261022d366004611f97565b610abc565b604051610172919061207a565b61019861024d366004611f60565b60976020526000908152604090205460ff1681565b610183610270366004611f60565b610bbd565b610183610bf0565b6033546001600160a01b0316610232565b61016561029c366004612088565b610c1d565b6101836102af3660046121bc565b610d99565b6101836102c23660046121f1565b610e0a565b6101656102d5366004612237565b610e9a565b6101836102e836600461231e565b611023565b6101836102fb366004611f60565b6112a7565b60ca54610313906001600160a01b031681565b60405161017291906123b0565b600061032e60655460ff1690565b156103545760405162461bcd60e51b815260040161034b906123e8565b60405180910390fd5b600260985414156103775760405162461bcd60e51b815260040161034b9061242c565b600260985560ca54604080516350e420e560e11b815290516001600160a01b039092169163a1c841ca91600480820192602092909190829003018186803b1580156103c157600080fd5b505afa1580156103d5573d6000803e3d6000fd5b505050506040513d601f19601f820116820180604052508101906103f99190612447565b6001600160a01b0316632d52976488886040518363ffffffff1660e01b8152600401610426929190612468565b60206040518083038186803b15801561043e57600080fd5b505afa158015610452573d6000803e3d6000fd5b505050506040513d601f19601f820116820180604052508101906104769190612496565b6104925760405162461bcd60e51b815260040161034b906124eb565b6104a087878787878761130f565b6001609855979650505050505050565b6104b9336104df565b6104d55760405162461bcd60e51b815260040161034b9061252d565b6104dd61157d565b565b6001600160a01b031660009081526097602052604090205460ff1690565b60ca54604080516350e420e560e11b815290516000926001600160a01b03169163a1c841ca916004808301926020929190829003018186803b15801561054257600080fd5b505afa158015610556573d6000803e3d6000fd5b505050506040513d601f19601f8201168201806040525081019061057a9190612447565b6001600160a01b0316632d52976484846040518363ffffffff1660e01b81526004016105a7929190612468565b60206040518083038186803b1580156105bf57600080fd5b505afa1580156105d3573d6000803e3d6000fd5b505050506040513d601f19601f820116820180604052508101906105f79190612496565b6106135760405162461bcd60e51b815260040161034b906124eb565b506001600160a01b038216600090815260cb602090815260408083208484529091529020545b92915050565b60655460ff16156106625760405162461bcd60e51b815260040161034b906123e8565b600260985414156106855760405162461bcd60e51b815260040161034b9061242c565b6002609855806106a75760405162461bcd60e51b815260040161034b90612569565b60ca60009054906101000a90046001600160a01b03166001600160a01b031663a1c841ca6040518163ffffffff1660e01b815260040160206040518083038186803b1580156106f557600080fd5b505afa158015610709573d6000803e3d6000fd5b505050506040513d601f19601f8201168201806040525081019061072d9190612447565b6001600160a01b0316632d52976484846040518363ffffffff1660e01b815260040161075a929190612468565b60206040518083038186803b15801561077257600080fd5b505afa158015610786573d6000803e3d6000fd5b505050506040513d601f19601f820116820180604052508101906107aa9190612496565b6107c65760405162461bcd60e51b815260040161034b906125c2565b6107d2338484846115e3565b5050600160985550565b6033546001600160a01b031633146108065760405162461bcd60e51b815260040161034b90612604565b6040516000906001600160a01b0384169083156108fc0290849084818181858888f1935050505090508061084c5760405162461bcd60e51b815260040161034b90612660565b7f2c876ecb97b3c6854f2488d373403f903eacb800e51c159a5c0c7a9c857e4827838360405161087d929190612670565b60405180910390a1505050565b6033546001600160a01b031633146108b45760405162461bcd60e51b815260040161034b90612604565b6108bd816116f8565b50565b6104dd336116f8565b6033546001600160a01b031633146108f35760405162461bcd60e51b815260040161034b90612604565b6104dd6000611778565b60655460ff16156109205760405162461bcd60e51b815260040161034b906123e8565b600260985414156109435760405162461bcd60e51b815260040161034b9061242c565b6002609881905550600080828060200190518101906109629190612694565b91509150600084116109865760405162461bcd60e51b815260040161034b90612569565b60ca60009054906101000a90046001600160a01b03166001600160a01b031663a1c841ca6040518163ffffffff1660e01b815260040160206040518083038186803b1580156109d457600080fd5b505afa1580156109e8573d6000803e3d6000fd5b505050506040513d601f19601f82011682018060405250810190610a0c9190612447565b6001600160a01b0316632d52976483836040518363ffffffff1660e01b8152600401610a39929190612468565b60206040518083038186803b158015610a5157600080fd5b505afa158015610a65573d6000803e3d6000fd5b505050506040513d601f19601f82011682018060405250810190610a899190612496565b610aa55760405162461bcd60e51b815260040161034b906125c2565b610ab1338383876115e3565b505060016098555050565b60ca54604080516350e420e560e11b815290516000926001600160a01b03169163a1c841ca916004808301926020929190829003018186803b158015610b0157600080fd5b505afa158015610b15573d6000803e3d6000fd5b505050506040513d601f19601f82011682018060405250810190610b399190612447565b6001600160a01b03166372d9e80e84846040518363ffffffff1660e01b8152600401610b66929190612468565b60206040518083038186803b158015610b7e57600080fd5b505afa158015610b92573d6000803e3d6000fd5b505050506040513d601f19601f82011682018060405250810190610bb691906126c7565b9392505050565b6033546001600160a01b03163314610be75760405162461bcd60e51b815260040161034b90612604565b6108bd816117ca565b610bf9336104df565b610c155760405162461bcd60e51b815260040161034b9061252d565b6104dd611843565b6000610c2b60655460ff1690565b15610c485760405162461bcd60e51b815260040161034b906123e8565b60026098541415610c6b5760405162461bcd60e51b815260040161034b9061242c565b600260985581610c8d5760405162461bcd60e51b815260040161034b90612569565b60ca60009054906101000a90046001600160a01b03166001600160a01b031663a1c841ca6040518163ffffffff1660e01b815260040160206040518083038186803b158015610cdb57600080fd5b505afa158015610cef573d6000803e3d6000fd5b505050506040513d601f19601f82011682018060405250810190610d139190612447565b6001600160a01b0316635db568a88b8b338c6040518563ffffffff1660e01b8152600401610d449493929190612746565b600060405180830381600087803b158015610d5e57600080fd5b505af1158015610d72573d6000803e3d6000fd5b50505050610d868a8a89898989898961189b565b60016098559a9950505050505050505050565b6033546001600160a01b03163314610dc35760405162461bcd60e51b815260040161034b90612604565b610dd76001600160a01b03841683836119b3565b7f2717ead6b9200dd235aad468c9809ea400fe33ac69b5bfaa6d3e90fc922b639883838360405161087d9392919061278a565b6000610e166001611a0e565b90508015610e2e576000805461ff0019166101001790555b610e3784611778565b610e4083611a9b565b610e4982611ac2565b8015610e94576000805461ff00191690556040517f7f26b83ff96e1f2b6a682f133852f6798a09c465da95921460cefb384740249890610e8b906001906127c6565b60405180910390a15b50505050565b6000610ea860655460ff1690565b15610ec55760405162461bcd60e51b815260040161034b906123e8565b60026098541415610ee85760405162461bcd60e51b815260040161034b9061242c565b600260985560ca54604080516350e420e560e11b815290516000926001600160a01b03169163a1c841ca916004808301926020929190829003018186803b158015610f3257600080fd5b505afa158015610f46573d6000803e3d6000fd5b505050506040513d601f19601f82011682018060405250810190610f6a9190612447565b60405163396cf40760e11b815290915033906001600160a01b038316906372d9e80e90610f9d908e908e90600401612468565b60206040518083038186803b158015610fb557600080fd5b505afa158015610fc9573d6000803e3d6000fd5b505050506040513d601f19601f82011682018060405250810190610fed91906126c7565b6001600160a01b0316146110135760405162461bcd60e51b815260040161034b90612823565b610d868a8a8a8a8a8a8a8a61189b565b60655460ff16156110465760405162461bcd60e51b815260040161034b906123e8565b600260985414156110695760405162461bcd60e51b815260040161034b9061242c565b600260985560ca54604080516350e420e560e11b815290516000926001600160a01b03169163a1c841ca916004808301926020929190829003018186803b1580156110b357600080fd5b505afa1580156110c7573d6000803e3d6000fd5b505050506040513d601f19601f820116820180604052508101906110eb9190612447565b6040516382f19cf760e01b81529091506001600160a01b038216906382f19cf79061111e90889088908790600401612833565b600060405180830381600087803b15801561113857600080fd5b505af115801561114c573d6000803e3d6000fd5b50505050600083116111705760405162461bcd60e51b815260040161034b906128a7565b60ca60009054906101000a90046001600160a01b03166001600160a01b031663a1c841ca6040518163ffffffff1660e01b815260040160206040518083038186803b1580156111be57600080fd5b505afa1580156111d2573d6000803e3d6000fd5b505050506040513d601f19601f820116820180604052508101906111f69190612447565b6001600160a01b0316632d52976486866040518363ffffffff1660e01b8152600401611223929190612468565b60206040518083038186803b15801561123b57600080fd5b505afa15801561124f573d6000803e3d6000fd5b505050506040513d601f19601f820116820180604052508101906112739190612496565b61128f5760405162461bcd60e51b815260040161034b90612909565b61129b338686866115e3565b50506001609855505050565b6033546001600160a01b031633146112d15760405162461bcd60e51b815260040161034b90612604565b6001600160a01b0381166112f75760405162461bcd60e51b815260040161034b9061295c565b6108bd81611778565b6001600160a01b03163b151590565b60008060ca60009054906101000a90046001600160a01b03166001600160a01b031663e20ce6eb6040518163ffffffff1660e01b815260040160206040518083038186803b15801561136057600080fd5b505afa158015611374573d6000803e3d6000fd5b505050506040513d601f19601f820116820180604052508101906113989190612447565b6040516317a6020b60e01b81529091506001600160a01b038216906317a6020b906113d1908b908b908b908b908b908b9060040161297b565b602060405180830381600087803b1580156113eb57600080fd5b505af11580156113ff573d6000803e3d6000fd5b505050506040513d601f19601f8201168201806040525081019061142391906129e2565b9150811561153757600061143789896104fd565b9050828110156114595760405162461bcd60e51b815260040161034b90612a4e565b6001600160a01b038916600090815260cb602090815260408083208b84529091529020546114879084611af2565b6001600160a01b03808b16600090815260cb602090815260408083208d84528252918290209390935560ca548151636120933b60e11b81529151611535948794899493169263c24126769260048083019392829003018186803b1580156114ed57600080fd5b505afa158015611501573d6000803e3d6000fd5b505050506040513d601f19601f820116820180604052508101906115259190612447565b6001600160a01b031691906119b3565b505b7fde367c913aaac6425f1138a69a4532650f465e49bda8eb976383904cb3d413e088888460405161156a93929190612a5e565b60405180910390a1509695505050505050565b60655460ff1661159f5760405162461bcd60e51b815260040161034b90612aa4565b6065805460ff191690557f5db9ee0a495bf2e6ff9c91a7834c1ba4fdd244a5e8aa4e537bd38aeae4b073aa335b6040516115d9919061207a565b60405180910390a1565b6001600160a01b038316600090815260cb602090815260408083208584529091529020546116119082611afe565b6001600160a01b03808516600090815260cb602090815260408083208784528252918290209390935560ca548151636120933b60e11b815291516116c5948994309488949091169263c241267692600480840193919291829003018186803b15801561167c57600080fd5b505afa158015611690573d6000803e3d6000fd5b505050506040513d601f19601f820116820180604052508101906116b49190612447565b6001600160a01b0316929190611b0a565b7fbb749947730256b87847d720594722a899da4c323db1ce06aa30fb53cf56edf6838383604051610e8b93929190612a5e565b611701816104df565b61171d5760405162461bcd60e51b815260040161034b90612ae8565b6001600160a01b03811660009081526097602052604090819020805460ff19169055517fcd265ebaf09df2871cc7bd4133404a235ba12eff2041bb89d9c714a2621c7c7e9061176d90839061207a565b60405180910390a150565b603380546001600160a01b038381166001600160a01b0319831681179093556040519116919082907f8be0079c531659141344cd1fd0a4f28419497f9722a3daafe3b4186f6b6457e090600090a35050565b6117d3816104df565b156117f05760405162461bcd60e51b815260040161034b90612b36565b6001600160a01b03811660009081526097602052604090819020805460ff19166001179055517f6719d08c1888103bea251a4ed56406bd0c3e69723c8a1686e017e7bbe159b6f89061176d90839061207a565b60655460ff16156118665760405162461bcd60e51b815260040161034b906123e8565b6065805460ff191660011790557f62e78cea01bee320cd4e420270b5ea74000d11b0c9f74754ebdbfc544b05a2586115cc3390565b60006118ab89898989898961130f565b9050816118b88a8a6104fd565b10156118d65760405162461bcd60e51b815260040161034b90612b90565b6001600160a01b038916600090815260cb602090815260408083208b84529091529020546119049083611af2565b6001600160a01b03808b16600090815260cb602090815260408083208d84528252918290209390935560ca548151636120933b60e11b8152915161196a948894889493169263c24126769260048083019392829003018186803b1580156114ed57600080fd5b7f1b0a089ddd8413135f08a33d7e2918568fc526e7725ad4d10b1f0e38e202e43f8989858560405161199f9493929190612ba0565b60405180910390a198975050505050505050565b611a098363a9059cbb60e01b84846040516024016119d2929190612468565b60408051601f198184030181529190526020810180516001600160e01b03166001600160e01b031990931692909217909152611b2b565b505050565b60008054610100900460ff1615611a55578160ff166001148015611a315750303b155b611a4d5760405162461bcd60e51b815260040161034b90612c20565b506000919050565b60005460ff808416911610611a7c5760405162461bcd60e51b815260040161034b90612c20565b506000805460ff191660ff92909216919091179055600190565b919050565b600054610100900460ff16610be75760405162461bcd60e51b815260040161034b90612c78565b600054610100900460ff16611ae95760405162461bcd60e51b815260040161034b90612c78565b6108bd81611bba565b6000610bb68284612c9e565b6000610bb68284612cb5565b610e94846323b872dd60e01b8585856040516024016119d293929190612ccd565b6000611b80826040518060400160405280602081526020017f5361666545524332303a206c6f772d6c6576656c2063616c6c206661696c6564815250856001600160a01b0316611c2b9092919063ffffffff16565b805190915015611a095780806020019051810190611b9e9190612496565b611a095760405162461bcd60e51b815260040161034b90612d22565b6001600160a01b038116611be05760405162461bcd60e51b815260040161034b90612d66565b60ca80546001600160a01b0319166001600160a01b0383161790556040517f7aed1d3e8155a07ccf395e44ea3109a0e2d6c9b29bbbe9f142d9790596f4dc809061176d9083906123b0565b6060611c3a8484600085611c42565b949350505050565b606082471015611c645760405162461bcd60e51b815260040161034b90612db9565b6001600160a01b0385163b611c8b5760405162461bcd60e51b815260040161034b90612dfd565b600080866001600160a01b03168587604051611ca79190612e2f565b60006040518083038185875af1925050503d8060008114611ce4576040519150601f19603f3d011682016040523d82523d6000602084013e611ce9565b606091505b5091509150611cf9828286611d04565b979650505050505050565b60608315611d13575081610bb6565b825115611d235782518084602001fd5b8160405162461bcd60e51b815260040161034b9190612e3b565b60006001600160a01b038216610639565b611d5781611d3d565b81146108bd57600080fd5b803561063981611d4e565b80611d57565b803561063981611d6d565b634e487b7160e01b600052604160045260246000fd5b601f19601f83011681018181106001600160401b0382111715611db957611db9611d7e565b6040525050565b6000611dcb60405190565b9050611a968282611d94565b60006001600160401b03821115611df057611df0611d7e565b601f19601f83011660200192915050565b82818337506000910152565b6000611e20611e1b84611dd7565b611dc0565b905082815260208101848484011115611e3b57611e3b600080fd5b611e46848285611e01565b509392505050565b600082601f830112611e6257611e62600080fd5b8135611c3a848260208601611e0d565b6001600160401b038116611d57565b803561063981611e72565b60008060008060008060c08789031215611ea857611ea8600080fd5b6000611eb48989611d62565b9650506020611ec589828a01611d73565b95505060408701356001600160401b03811115611ee457611ee4600080fd5b611ef089828a01611e4e565b9450506060611f0189828a01611d73565b9350506080611f1289828a01611e81565b92505060a08701356001600160401b03811115611f3157611f31600080fd5b611f3d89828a01611e4e565b9150509295509295509295565b805b82525050565b602081016106398284611f4a565b600060208284031215611f7557611f75600080fd5b6000611c3a8484611d62565b801515611f4c565b602081016106398284611f81565b60008060408385031215611fad57611fad600080fd5b6000611fb98585611d62565b9250506020611fca85828601611d73565b9150509250929050565b600080600060608486031215611fec57611fec600080fd5b6000611ff88686611d62565b935050602061200986828701611d73565b925050604061201a86828701611d73565b9150509250925092565b6000806040838503121561203a5761203a600080fd5b60006120468585611d73565b92505060208301356001600160401b0381111561206557612065600080fd5b611fca85828601611e4e565b611f4c81611d3d565b602081016106398284612071565b60008060008060008060008060006101208a8c0312156120aa576120aa600080fd5b60006120b68c8c611d62565b99505060206120c78c828d01611d73565b98505060408a01356001600160401b038111156120e6576120e6600080fd5b6120f28c828d01611e4e565b97505060608a01356001600160401b0381111561211157612111600080fd5b61211d8c828d01611e4e565b965050608061212e8c828d01611d73565b95505060a061213f8c828d01611e81565b94505060c08a01356001600160401b0381111561215e5761215e600080fd5b61216a8c828d01611e4e565b93505060e061217b8c828d01611d62565b92505061010061218d8c828d01611d73565b9150509295985092959850929598565b600061063982611d3d565b611d578161219d565b8035610639816121a8565b6000806000606084860312156121d4576121d4600080fd5b60006121e086866121b1565b935050602061200986828701611d62565b60008060006060848603121561220957612209600080fd5b60006122158686611d62565b935050602061222686828701611d62565b925050604061201a868287016121b1565b600080600080600080600080610100898b03121561225757612257600080fd5b60006122638b8b611d62565b98505060206122748b828c01611d73565b97505060408901356001600160401b0381111561229357612293600080fd5b61229f8b828c01611e4e565b96505060606122b08b828c01611d73565b95505060806122c18b828c01611e81565b94505060a08901356001600160401b038111156122e0576122e0600080fd5b6122ec8b828c01611e4e565b93505060c06122fd8b828c01611d62565b92505060e061230e8b828c01611d73565b9150509295985092959890939650565b6000806000806080858703121561233757612337600080fd5b60006123438787611d62565b945050602061235487828801611d73565b935050604061236587828801611d73565b92505060608501356001600160401b0381111561238457612384600080fd5b61239087828801611e4e565b91505092959194509250565b60006106398261219d565b611f4c8161239c565b6020810161063982846123a7565b601081526000602082016f14185d5cd8589b194e881c185d5cd95960821b815291505b5060200190565b60208082528101610639816123be565b601f81526000602082017f5265656e7472616e637947756172643a207265656e7472616e742063616c6c00815291506123e1565b60208082528101610639816123f8565b8051610639816121a8565b60006020828403121561245c5761245c600080fd5b6000611c3a848461243c565b604081016124768285612071565b610bb66020830184611f4a565b801515611d57565b805161063981612483565b6000602082840312156124ab576124ab600080fd5b6000611c3a848461248b565b601d81526000602082017f46756e64506f6f6c3a206e6f6e6578697374656e74206163636f756e74000000815291506123e1565b60208082528101610639816124b7565b60208082527f5061757365723a2063616c6c6572206973206e6f742074686520706175736572910190815260006123e1565b60208082528101610639816124fb565b6015815260006020820174119d5b99141bdbdb0e881e995c9bc8185b5bdd5b9d605a1b815291506123e1565b602080825281016106398161253d565b602981526000602082017f46756e64506f6f6c3a206e6f6e6578697374656e74206163636f756e74206f6e81526810383937bb34b232b960b91b602082015291505b5060400190565b6020808252810161063981612579565b60208082527f4f776e61626c653a2063616c6c6572206973206e6f7420746865206f776e6572910190815260006123e1565b60208082528101610639816125d2565b602f81526000602082017f4f776e6572576974686472617761626c653a207769746864726177206e61746981526e1d99481d1bdad95b8819985a5b1959608a1b602082015291506125bb565b6020808252810161063981612614565b6040810161247682856123a7565b805161063981611d4e565b805161063981611d6d565b600080604083850312156126aa576126aa600080fd5b60006126b6858561267e565b9250506020611fca85828601612689565b6000602082840312156126dc576126dc600080fd5b6000611c3a848461267e565b60005b838110156127035781810151838201526020016126eb565b83811115610e945750506000910152565b600061271e825190565b8084526020840193506127358185602086016126e8565b601f01601f19169290920192915050565b608081016127548287612071565b6127616020830186611f4a565b61276e6040830185612071565b81810360608301526127808184612714565b9695505050505050565b6060810161279882866123a7565b6127a56020830185612071565b611c3a6040830184611f4a565b600060ff8216610639565b611f4c816127b2565b6020810161063982846127bd565b603281526000602082017f46756e64506f6f6c3a2063616c6c6572206973206e6f74207468652077616c6c815271195d08199bdc881d1a19481858d8dbdd5b9d60721b602082015291506125bb565b60208082528101610639816127d4565b606081016128418286612071565b61284e6020830185611f4a565b81810360408301526128608184612714565b95945050505050565b602181526000602082017f46756e64506f6f6c526567697374726174696f6e3a207a65726f20616d6f756e8152601d60fa1b602082015291506125bb565b6020808252810161063981612869565b603581526000602082017f46756e64506f6f6c526567697374726174696f6e3a206e6f6e6578697374656e8152743a1030b1b1b7bab73a1037b710383937bb34b232b960591b602082015291506125bb565b60208082528101610639816128b7565b602681526000602082017f4f776e61626c653a206e6577206f776e657220697320746865207a65726f206181526564647265737360d01b602082015291506125bb565b6020808252810161063981612919565b6001600160401b038116611f4c565b60c081016129898289612071565b6129966020830188611f4a565b81810360408301526129a88187612714565b90506129b76060830186611f4a565b6129c4608083018561296c565b81810360a08301526129d68184612714565b98975050505050505050565b6000602082840312156129f7576129f7600080fd5b6000611c3a8484612689565b602e81526000602082017f46756e64506f6f6c3a20696e73756666696369656e742062616c616e6365206681526d6f722062696c6c696e672066656560901b602082015291506125bb565b6020808252810161063981612a03565b60608101612a6c8286612071565b6127a56020830185611f4a565b601481526000602082017314185d5cd8589b194e881b9bdd081c185d5cd95960621b815291506123e1565b6020808252810161063981612a79565b601d81526000602082017f5061757365723a206163636f756e74206973206e6f7420706175736572000000815291506123e1565b6020808252810161063981612ab4565b602181526000602082017f5061757365723a206163636f756e7420697320616c72656164792070617573658152603960f91b602082015291506125bb565b6020808252810161063981612af8565b602d81526000602082017f46756e64506f6f6c3a20696e73756666696369656e742062616c616e6365206681526c1bdc881dda5d1a191c985dd85b609a1b602082015291506125bb565b6020808252810161063981612b46565b60808101612bae8287612071565b612bbb6020830186611f4a565b612bc86040830185612071565b6128606060830184611f4a565b602e81526000602082017f496e697469616c697a61626c653a20636f6e747261637420697320616c72656181526d191e481a5b9a5d1a585b1a5e995960921b602082015291506125bb565b6020808252810161063981612bd5565b602b81526000602082017f496e697469616c697a61626c653a20636f6e7472616374206973206e6f74206981526a6e697469616c697a696e6760a81b602082015291506125bb565b6020808252810161063981612c30565b634e487b7160e01b600052601160045260246000fd5b600082821015612cb057612cb0612c88565b500390565b60008219821115612cc857612cc8612c88565b500190565b606081016127988286612071565b602a81526000602082017f5361666545524332303a204552433230206f7065726174696f6e20646964206e8152691bdd081cdd58d8d9595960b21b602082015291506125bb565b6020808252810161063981612cdb565b601b81526000602082017f526f75746572577261707065723a207a65726f20616464726573730000000000815291506123e1565b6020808252810161063981612d32565b602681526000602082017f416464726573733a20696e73756666696369656e742062616c616e636520666f8152651c8818d85b1b60d21b602082015291506125bb565b6020808252810161063981612d76565b601d81526000602082017f416464726573733a2063616c6c20746f206e6f6e2d636f6e7472616374000000815291506123e1565b6020808252810161063981612dc9565b6000612e17825190565b612e258185602086016126e8565b9290920192915050565b6000610bb68284612e0d565b60208082528101610bb6818461271456fea26469706673582212200cf4351d14f3514514be012728cc96c4c0cfce317c68ab220ec456eb8b22a38b64736f6c63430008090033",
  "devdoc": {
    "author": "Alexandas",
    "details": "FundPool contract",
    "kind": "dev",
    "methods": {
      "addPauser(address)": {
        "details": "add a pauser for the contract",
        "params": {
          "account": "address"
        }
      },
      "balanceOf(address,bytes32)": {
        "details": "return balance of account",
        "params": {
          "account": "user account",
          "provider": "provider address"
        },
        "returns": {
          "_0": "balance of account account"
        }
      },
      "initWalletAndWithdraw(address,bytes32,bytes,bytes,uint256,uint64,bytes,address,uint256)": {
        "details": "initialize wallet and recharge for account",
        "params": {
          "account": "user account",
          "amount": "token amount",
          "billSig": "bill signature",
          "bills": "billing data",
          "nonce": "billing nonce",
          "provider": "provider address",
          "timeout": "tx timeout",
          "to": "token receiver",
          "walletSig": "wallet signature"
        },
        "returns": {
          "fee": "bill fee"
        }
      },
      "initialize(address,address,address)": {
        "details": "proxy initialize function",
        "params": {
          "owner": "contract owner",
          "pauser": "contract pauser",
          "router": "router contract address"
        }
      },
      "isPauser(address)": {
        "details": "whether the account is the contract pauser",
        "params": {
          "account": "address"
        },
        "returns": {
          "_0": "whether account is a pauser"
        }
      },
      "owner()": {
        "details": "Returns the address of the current owner."
      },
      "ownerWithdrawERC20(address,address,uint256)": {
        "details": "withdraw token",
        "params": {
          "to": "receiver address",
          "token": "token address",
          "value": "token value"
        }
      },
      "ownerWithdrawNative(address,uint256)": {
        "details": "withdraw ETH",
        "params": {
          "to": "receiver address",
          "value": "token value"
        }
      },
      "pause()": {
        "details": "pause the contract"
      },
      "paused()": {
        "details": "Returns true if the contract is paused, and false otherwise."
      },
      "recharge(address,bytes32,uint256)": {
        "details": "recharge for account",
        "params": {
          "account": "user account",
          "amount": "token amount",
          "provider": "provider address"
        }
      },
      "rechargeWithRegistration(address,bytes32,uint256,bytes)": {
        "details": "recharge for account",
        "params": {
          "account": "user account",
          "amount": "token amount",
          "provider": "provider address"
        }
      },
      "removePauser(address)": {
        "details": "remove a pauser for the contract",
        "params": {
          "account": "address"
        }
      },
      "renounceOwnership()": {
        "details": "Leaves the contract without owner. It will not be possible to call `onlyOwner` functions anymore. Can only be called by the current owner. NOTE: Renouncing ownership will leave the contract without an owner, thereby removing any functionality that is only available to the owner."
      },
      "renouncePauser()": {
        "details": "remove a pauser for the contract"
      },
      "spend(address,bytes32,bytes,uint256,uint64,bytes)": {
        "details": "spend bills for account",
        "params": {
          "account": "user account",
          "bills": "billing data",
          "nonce": "billing nonce",
          "provider": "provider address",
          "signature": "provider signature",
          "timeout": "tx timeout"
        },
        "returns": {
          "fee": "bills fee"
        }
      },
      "transferOwnership(address)": {
        "details": "Transfers ownership of the contract to a new account (`newOwner`). Can only be called by the current owner."
      },
      "unpause()": {
        "details": "unpause the contract"
      },
      "walletOf(address,bytes32)": {
        "details": "return wallet of the account",
        "params": {
          "account": "user account",
          "provider": "provider address"
        },
        "returns": {
          "_0": "wallet of the account"
        }
      },
      "withdraw(address,bytes32,bytes,uint256,uint64,bytes,address,uint256)": {
        "details": "withdraw token for account",
        "params": {
          "account": "user account",
          "amount": "token amount",
          "bills": "billing data",
          "nonce": "billing nonce",
          "provider": "provider address",
          "signature": "provider signature",
          "timeout": "tx timeout",
          "to": "token receiver"
        },
        "returns": {
          "fee": "bill fee"
        }
      }
    },
    "version": 1
  },
  "userdoc": {
    "kind": "user",
    "methods": {},
    "version": 1
  },
  "storageLayout": {
    "storage": [
      {
        "astId": 147,
        "contract": "contracts/wallets/FundPoolRegistration.sol:FundPoolRegistration",
        "label": "_initialized",
        "offset": 0,
        "slot": "0",
        "type": "t_uint8"
      },
      {
        "astId": 150,
        "contract": "contracts/wallets/FundPoolRegistration.sol:FundPoolRegistration",
        "label": "_initializing",
        "offset": 1,
        "slot": "0",
        "type": "t_bool"
      },
      {
        "astId": 1038,
        "contract": "contracts/wallets/FundPoolRegistration.sol:FundPoolRegistration",
        "label": "__gap",
        "offset": 0,
        "slot": "1",
        "type": "t_array(t_uint256)50_storage"
      },
      {
        "astId": 10,
        "contract": "contracts/wallets/FundPoolRegistration.sol:FundPoolRegistration",
        "label": "_owner",
        "offset": 0,
        "slot": "51",
        "type": "t_address"
      },
      {
        "astId": 122,
        "contract": "contracts/wallets/FundPoolRegistration.sol:FundPoolRegistration",
        "label": "__gap",
        "offset": 0,
        "slot": "52",
        "type": "t_array(t_uint256)49_storage"
      },
      {
        "astId": 303,
        "contract": "contracts/wallets/FundPoolRegistration.sol:FundPoolRegistration",
        "label": "_paused",
        "offset": 0,
        "slot": "101",
        "type": "t_bool"
      },
      {
        "astId": 392,
        "contract": "contracts/wallets/FundPoolRegistration.sol:FundPoolRegistration",
        "label": "__gap",
        "offset": 0,
        "slot": "102",
        "type": "t_array(t_uint256)49_storage"
      },
      {
        "astId": 3817,
        "contract": "contracts/wallets/FundPoolRegistration.sol:FundPoolRegistration",
        "label": "pausers",
        "offset": 0,
        "slot": "151",
        "type": "t_mapping(t_address,t_bool)"
      },
      {
        "astId": 407,
        "contract": "contracts/wallets/FundPoolRegistration.sol:FundPoolRegistration",
        "label": "_status",
        "offset": 0,
        "slot": "152",
        "type": "t_uint256"
      },
      {
        "astId": 451,
        "contract": "contracts/wallets/FundPoolRegistration.sol:FundPoolRegistration",
        "label": "__gap",
        "offset": 0,
        "slot": "153",
        "type": "t_array(t_uint256)49_storage"
      },
      {
        "astId": 6477,
        "contract": "contracts/wallets/FundPoolRegistration.sol:FundPoolRegistration",
        "label": "router",
        "offset": 0,
        "slot": "202",
        "type": "t_contract(IRouter)7712"
      },
      {
        "astId": 13970,
        "contract": "contracts/wallets/FundPoolRegistration.sol:FundPoolRegistration",
        "label": "balances",
        "offset": 0,
        "slot": "203",
        "type": "t_mapping(t_address,t_mapping(t_bytes32,t_uint256))"
      }
    ],
    "types": {
      "t_address": {
        "encoding": "inplace",
        "label": "address",
        "numberOfBytes": "20"
      },
      "t_array(t_uint256)49_storage": {
        "base": "t_uint256",
        "encoding": "inplace",
        "label": "uint256[49]",
        "numberOfBytes": "1568"
      },
      "t_array(t_uint256)50_storage": {
        "base": "t_uint256",
        "encoding": "inplace",
        "label": "uint256[50]",
        "numberOfBytes": "1600"
      },
      "t_bool": {
        "encoding": "inplace",
        "label": "bool",
        "numberOfBytes": "1"
      },
      "t_bytes32": {
        "encoding": "inplace",
        "label": "bytes32",
        "numberOfBytes": "32"
      },
      "t_contract(IRouter)7712": {
        "encoding": "inplace",
        "label": "contract IRouter",
        "numberOfBytes": "20"
      },
      "t_mapping(t_address,t_bool)": {
        "encoding": "mapping",
        "key": "t_address",
        "label": "mapping(address => bool)",
        "numberOfBytes": "32",
        "value": "t_bool"
      },
      "t_mapping(t_address,t_mapping(t_bytes32,t_uint256))": {
        "encoding": "mapping",
        "key": "t_address",
        "label": "mapping(address => mapping(bytes32 => uint256))",
        "numberOfBytes": "32",
        "value": "t_mapping(t_bytes32,t_uint256)"
      },
      "t_mapping(t_bytes32,t_uint256)": {
        "encoding": "mapping",
        "key": "t_bytes32",
        "label": "mapping(bytes32 => uint256)",
        "numberOfBytes": "32",
        "value": "t_uint256"
      },
      "t_uint256": {
        "encoding": "inplace",
        "label": "uint256",
        "numberOfBytes": "32"
      },
      "t_uint8": {
        "encoding": "inplace",
        "label": "uint8",
        "numberOfBytes": "1"
      }
    }
  }
}