{
  "address": "0x79e3c29aca30bcc778219ec4d88aeab551ff7d77",
  "abi": [
    {
      "inputs": [],
      "stateMutability": "nonpayable",
      "type": "constructor"
    },
    {
      "anonymous": false,
      "inputs": [
        {
          "indexed": false,
          "internalType": "address",
          "name": "executor",
          "type": "address"
        }
      ],
      "name": "ExecutorUpdated",
      "type": "event"
    },
    {
      "anonymous": false,
      "inputs": [
        {
          "indexed": false,
          "internalType": "uint8",
          "name": "version",
          "type": "uint8"
        }
      ],
      "name": "Initialized",
      "type": "event"
    },
    {
      "anonymous": false,
      "inputs": [
        {
          "indexed": false,
          "internalType": "address",
          "name": "messageBus",
          "type": "address"
        }
      ],
      "name": "MessageBusUpdated",
      "type": "event"
    },
    {
      "anonymous": false,
      "inputs": [
        {
          "indexed": false,
          "internalType": "address",
          "name": "sender",
          "type": "address"
        },
        {
          "indexed": false,
          "internalType": "contract IERC20Upgradeable",
          "name": "token",
          "type": "address"
        },
        {
          "indexed": false,
          "internalType": "uint256",
          "name": "amount",
          "type": "uint256"
        },
        {
          "indexed": false,
          "internalType": "uint64",
          "name": "srcChainId",
          "type": "uint64"
        },
        {
          "indexed": false,
          "internalType": "bytes",
          "name": "message",
          "type": "bytes"
        },
        {
          "indexed": false,
          "internalType": "address",
          "name": "executor",
          "type": "address"
        }
      ],
      "name": "MessageWithTransferExecuted",
      "type": "event"
    },
    {
      "anonymous": false,
      "inputs": [
        {
          "indexed": false,
          "internalType": "address",
          "name": "sender",
          "type": "address"
        },
        {
          "indexed": false,
          "internalType": "contract IERC20Upgradeable",
          "name": "token",
          "type": "address"
        },
        {
          "indexed": false,
          "internalType": "uint256",
          "name": "amount",
          "type": "uint256"
        },
        {
          "indexed": false,
          "internalType": "uint64",
          "name": "srcChainId",
          "type": "uint64"
        },
        {
          "indexed": false,
          "internalType": "bytes",
          "name": "message",
          "type": "bytes"
        },
        {
          "indexed": false,
          "internalType": "address",
          "name": "executor",
          "type": "address"
        },
        {
          "indexed": false,
          "internalType": "bytes",
          "name": "error",
          "type": "bytes"
        }
      ],
      "name": "MessageWithTransferFailed",
      "type": "event"
    },
    {
      "anonymous": false,
      "inputs": [
        {
          "indexed": false,
          "internalType": "address",
          "name": "_sender",
          "type": "address"
        },
        {
          "indexed": false,
          "internalType": "address",
          "name": "_token",
          "type": "address"
        },
        {
          "indexed": false,
          "internalType": "uint256",
          "name": "_amount",
          "type": "uint256"
        },
        {
          "indexed": false,
          "internalType": "uint64",
          "name": "_srcChainId",
          "type": "uint64"
        },
        {
          "indexed": false,
          "internalType": "bytes",
          "name": "_message",
          "type": "bytes"
        },
        {
          "indexed": false,
          "internalType": "address",
          "name": "executor",
          "type": "address"
        }
      ],
      "name": "MessageWithTransferFallback",
      "type": "event"
    },
    {
      "anonymous": false,
      "inputs": [
        {
          "indexed": false,
          "internalType": "address",
          "name": "to",
          "type": "address"
        },
        {
          "indexed": false,
          "internalType": "uint256",
          "name": "value",
          "type": "uint256"
        }
      ],
      "name": "NativeWithdrawal",
      "type": "event"
    },
    {
      "anonymous": false,
      "inputs": [
        {
          "indexed": true,
          "internalType": "address",
          "name": "previousOwner",
          "type": "address"
        },
        {
          "indexed": true,
          "internalType": "address",
          "name": "newOwner",
          "type": "address"
        }
      ],
      "name": "OwnershipTransferred",
      "type": "event"
    },
    {
      "anonymous": false,
      "inputs": [
        {
          "indexed": false,
          "internalType": "contract IRouter",
          "name": "router",
          "type": "address"
        }
      ],
      "name": "RouterUpdated",
      "type": "event"
    },
    {
      "anonymous": false,
      "inputs": [
        {
          "indexed": false,
          "internalType": "contract IERC20Upgradeable",
          "name": "token",
          "type": "address"
        },
        {
          "indexed": false,
          "internalType": "address",
          "name": "to",
          "type": "address"
        },
        {
          "indexed": false,
          "internalType": "uint256",
          "name": "value",
          "type": "uint256"
        }
      ],
      "name": "Withdrawal",
      "type": "event"
    },
    {
      "inputs": [
        {
          "internalType": "address",
          "name": "sender",
          "type": "address"
        },
        {
          "internalType": "contract IERC20Upgradeable",
          "name": "token",
          "type": "address"
        },
        {
          "internalType": "uint256",
          "name": "amount",
          "type": "uint256"
        },
        {
          "internalType": "uint64",
          "name": "srcChainId",
          "type": "uint64"
        },
        {
          "internalType": "bytes",
          "name": "message",
          "type": "bytes"
        },
        {
          "internalType": "address",
          "name": "_executor",
          "type": "address"
        }
      ],
      "name": "executeMessageWithTransfer",
      "outputs": [
        {
          "internalType": "enum MessageReceiver.ExecutionStatus",
          "name": "",
          "type": "uint8"
        }
      ],
      "stateMutability": "payable",
      "type": "function"
    },
    {
      "inputs": [
        {
          "internalType": "address",
          "name": "_sender",
          "type": "address"
        },
        {
          "internalType": "address",
          "name": "_token",
          "type": "address"
        },
        {
          "internalType": "uint256",
          "name": "_amount",
          "type": "uint256"
        },
        {
          "internalType": "uint64",
          "name": "_srcChainId",
          "type": "uint64"
        },
        {
          "internalType": "bytes",
          "name": "_message",
          "type": "bytes"
        },
        {
          "internalType": "address",
          "name": "executor",
          "type": "address"
        }
      ],
      "name": "executeMessageWithTransferFallback",
      "outputs": [
        {
          "internalType": "enum MessageReceiver.ExecutionStatus",
          "name": "",
          "type": "uint8"
        }
      ],
      "stateMutability": "payable",
      "type": "function"
    },
    {
      "inputs": [],
      "name": "executor",
      "outputs": [
        {
          "internalType": "address",
          "name": "",
          "type": "address"
        }
      ],
      "stateMutability": "view",
      "type": "function"
    },
    {
      "inputs": [
        {
          "internalType": "address",
          "name": "owner",
          "type": "address"
        },
        {
          "internalType": "address",
          "name": "_messageBus",
          "type": "address"
        },
        {
          "internalType": "address",
          "name": "_executor",
          "type": "address"
        },
        {
          "internalType": "contract IRouter",
          "name": "router",
          "type": "address"
        }
      ],
      "name": "initialize",
      "outputs": [],
      "stateMutability": "nonpayable",
      "type": "function"
    },
    {
      "inputs": [],
      "name": "messageBus",
      "outputs": [
        {
          "internalType": "address",
          "name": "",
          "type": "address"
        }
      ],
      "stateMutability": "view",
      "type": "function"
    },
    {
      "inputs": [
        {
          "components": [
            {
              "internalType": "address",
              "name": "sender",
              "type": "address"
            },
            {
              "internalType": "address",
              "name": "receiver",
              "type": "address"
            },
            {
              "internalType": "uint64",
              "name": "srcChainId",
              "type": "uint64"
            },
            {
              "internalType": "bytes32",
              "name": "srcTxHash",
              "type": "bytes32"
            }
          ],
          "internalType": "struct MsgDataTypes.RouteInfo",
          "name": "route",
          "type": "tuple"
        },
        {
          "internalType": "uint64",
          "name": "dstChainId",
          "type": "uint64"
        },
        {
          "internalType": "bytes",
          "name": "message",
          "type": "bytes"
        }
      ],
      "name": "messageId",
      "outputs": [
        {
          "internalType": "bytes32",
          "name": "",
          "type": "bytes32"
        }
      ],
      "stateMutability": "view",
      "type": "function"
    },
    {
      "inputs": [],
      "name": "owner",
      "outputs": [
        {
          "internalType": "address",
          "name": "",
          "type": "address"
        }
      ],
      "stateMutability": "view",
      "type": "function"
    },
    {
      "inputs": [
        {
          "internalType": "contract IERC20Upgradeable",
          "name": "token",
          "type": "address"
        },
        {
          "internalType": "address",
          "name": "to",
          "type": "address"
        },
        {
          "internalType": "uint256",
          "name": "value",
          "type": "uint256"
        }
      ],
      "name": "ownerWithdrawERC20",
      "outputs": [],
      "stateMutability": "nonpayable",
      "type": "function"
    },
    {
      "inputs": [
        {
          "internalType": "address payable",
          "name": "to",
          "type": "address"
        },
        {
          "internalType": "uint256",
          "name": "value",
          "type": "uint256"
        }
      ],
      "name": "ownerWithdrawNative",
      "outputs": [],
      "stateMutability": "nonpayable",
      "type": "function"
    },
    {
      "inputs": [],
      "name": "renounceOwnership",
      "outputs": [],
      "stateMutability": "nonpayable",
      "type": "function"
    },
    {
      "inputs": [],
      "name": "router",
      "outputs": [
        {
          "internalType": "contract IRouter",
          "name": "",
          "type": "address"
        }
      ],
      "stateMutability": "view",
      "type": "function"
    },
    {
      "inputs": [
        {
          "internalType": "address",
          "name": "_executor",
          "type": "address"
        }
      ],
      "name": "setExecutor",
      "outputs": [],
      "stateMutability": "nonpayable",
      "type": "function"
    },
    {
      "inputs": [
        {
          "internalType": "address",
          "name": "messageBus",
          "type": "address"
        }
      ],
      "name": "setMessageBus",
      "outputs": [],
      "stateMutability": "nonpayable",
      "type": "function"
    },
    {
      "inputs": [
        {
          "internalType": "address",
          "name": "newOwner",
          "type": "address"
        }
      ],
      "name": "transferOwnership",
      "outputs": [],
      "stateMutability": "nonpayable",
      "type": "function"
    }
  ],
  "transactionHash": "0x33bc10c547cd666298e11b5a070c17c76abe0d64d525a290866ef3cf6d64fd66",
  "args": [],
  "numDeployments": 1,
  "solcInputHash": "54eee4000519ac0fc7fb300703574524",
  "bytecode": "0x60806040523480156200001157600080fd5b5060006200002060016200008e565b9050801562000039576000805461ff0019166101001790555b801562000087576000805461ff00191690556040517f7f26b83ff96e1f2b6a682f133852f6798a09c465da95921460cefb3847402498906200007e9060019062000168565b60405180910390a15b50620001cb565b60008054610100900460ff1615620000f7578160ff166001148015620000c75750620000c5306200013b60201b620008961760201c565b155b620000ef5760405162461bcd60e51b8152600401620000e69062000178565b60405180910390fd5b506000919050565b60005460ff808416911610620001215760405162461bcd60e51b8152600401620000e69062000178565b506000805460ff191660ff92909216919091179055600190565b6001600160a01b03163b151590565b600060ff82165b92915050565b62000162816200014a565b82525050565b6020810162000151828462000157565b602080825281016200015181602e81527f496e697469616c697a61626c653a20636f6e747261637420697320616c72656160208201526d191e481a5b9a5d1a585b1a5e995960921b604082015260600190565b611ac780620001db6000396000f3fe6080604052600436106100dd5760003560e01c806393563a951161007f578063c34c08e511610059578063c34c08e514610229578063f2fde38b14610249578063f887ea4014610269578063f8c8765e1461029c57600080fd5b806393563a95146101bc578063a1a227fa146101dc578063bb0248aa146101fc57600080fd5b8063699256f4116100bb578063699256f41461014d578063715018a61461016d5780637cd2bffc146101825780638da5cb5b1461019557600080fd5b80631c3c0ea8146100e2578063547cad12146101045780635ab7afc614610124575b600080fd5b3480156100ee57600080fd5b506101026100fd366004610dc1565b6102bc565b005b34801561011057600080fd5b5061010261011f366004610dc1565b6102fb565b610137610132366004610f04565b61032e565b6040516101449190610ff3565b60405180910390f35b34801561015957600080fd5b50610102610168366004611001565b6103a9565b34801561017957600080fd5b50610102610457565b61013761019036600461105d565b61048d565b3480156101a157600080fd5b506033546001600160a01b03165b604051610144919061109f565b3480156101c857600080fd5b506101026101d73660046110ad565b6106c1565b3480156101e857600080fd5b506065546101af906001600160a01b031681565b34801561020857600080fd5b5061021c61021736600461116a565b610732565b60405161014491906111de565b34801561023557600080fd5b506066546101af906001600160a01b031681565b34801561025557600080fd5b50610102610264366004610dc1565b6107a3565b34801561027557600080fd5b5060005461028f906201000090046001600160a01b031681565b604051610144919061121c565b3480156102a857600080fd5b506101026102b736600461122a565b6107fc565b6033546001600160a01b031633146102ef5760405162461bcd60e51b81526004016102e6906112c3565b60405180910390fd5b6102f8816108a5565b50565b6033546001600160a01b031633146103255760405162461bcd60e51b81526004016102e6906112c3565b6102f8816108fb565b6065546000906001600160a01b0316331461035b5760405162461bcd60e51b81526004016102e69061131d565b7fa0b35e480a2add0100f918632470cc8260628f0e8e277690f77da458ff8f4ab78787878787876040516103949695949392919061139f565b60405180910390a15060019695505050505050565b6033546001600160a01b031633146103d35760405162461bcd60e51b81526004016102e6906112c3565b6040516000906001600160a01b0384169083156108fc0290849084818181858888f193505050509050806104195760405162461bcd60e51b81526004016102e690611441565b7f2c876ecb97b3c6854f2488d373403f903eacb800e51c159a5c0c7a9c857e4827838360405161044a929190611451565b60405180910390a1505050565b6033546001600160a01b031633146104815760405162461bcd60e51b81526004016102e6906112c3565b61048b6000610947565b565b6065546000906001600160a01b031633146104ba5760405162461bcd60e51b81526004016102e69061131d565b6066546001600160a01b038381169116146104e75760405162461bcd60e51b81526004016102e6906114aa565b60008060029054906101000a90046001600160a01b03166001600160a01b031663ed1f63d36040518163ffffffff1660e01b815260040160206040518083038186803b15801561053657600080fd5b505afa15801561054a573d6000803e3d6000fd5b505050506040513d601f19601f8201168201806040525081019061056e91906114c5565b90506105846001600160a01b0388168288610999565b604051631dfbd4cf60e21b81526001600160a01b038216906377ef533c906105b4908a908a9089906004016114e6565b600060405180830381600087803b1580156105ce57600080fd5b505af19250505080156105df575060015b61065c573d80801561060d576040519150601f19603f3d011682016040523d82523d6000602084013e610612565b606091505b507f3538e4460f392ef0ea71ed8ac3c3ddd96cdb41831e212d8fe3a145e1956e85d58989898989898760405161064e979695949392919061151c565b60405180910390a15061069e565b7fa2ea2fb459fe24fd2d3083215ee27cdee6cd1773cd34d407ce9a5f910409ccfe88888888888860405161069596959493929190611591565b60405180910390a15b6106b36001600160a01b038816826000610999565b506001979650505050505050565b6033546001600160a01b031633146106eb5760405162461bcd60e51b81526004016102e6906112c3565b6106ff6001600160a01b0384168383610a98565b7f2717ead6b9200dd235aad468c9809ea400fe33ac69b5bfaa6d3e90fc922b639883838360405161044a939291906115ac565b600060016107436020870187610dc1565b6107536040880160208901610dc1565b6107636060890160408a016115d4565b8860600135888888604051602001610782989796959493929190611691565b6040516020818303038152906040528051906020012090505b949350505050565b6033546001600160a01b031633146107cd5760405162461bcd60e51b81526004016102e6906112c3565b6001600160a01b0381166107f35760405162461bcd60e51b81526004016102e69061174f565b6102f881610947565b60006108086001610ab7565b90508015610820576000805461ff0019166101001790555b61082985610947565b610832846108fb565b61083b836108a5565b61084482610b44565b801561088f576000805461ff00191690556040517f7f26b83ff96e1f2b6a682f133852f6798a09c465da95921460cefb38474024989061088690600190611773565b60405180910390a15b5050505050565b6001600160a01b03163b151590565b606680546001600160a01b0319166001600160a01b0383161790556040517fd9436ef9ce00ffeabc5da2489701502d3bd1a5ed7b254a1981fc5ffef9828e11906108f090839061109f565b60405180910390a150565b606580546001600160a01b0319166001600160a01b0383169081179091556040517f3f8223bcd8b3b875473e9f9e14e1ad075451a2b5ffd31591655da9a01516bf5e916108f09161109f565b603380546001600160a01b038381166001600160a01b0319831681179093556040519116919082907f8be0079c531659141344cd1fd0a4f28419497f9722a3daafe3b4186f6b6457e090600090a35050565b801580610a215750604051636eb1769f60e11b81526001600160a01b0384169063dd62ed3e906109cf9030908690600401611781565b60206040518083038186803b1580156109e757600080fd5b505afa1580156109fb573d6000803e3d6000fd5b505050506040513d601f19601f82011682018060405250810190610a1f91906117a7565b155b610a3d5760405162461bcd60e51b81526004016102e69061181b565b610a938363095ea7b360e01b8484604051602401610a5c92919061182b565b60408051601f198184030181529190526020810180516001600160e01b03166001600160e01b031990931692909217909152610b74565b505050565b610a938363a9059cbb60e01b8484604051602401610a5c92919061182b565b60008054610100900460ff1615610afe578160ff166001148015610ada5750303b155b610af65760405162461bcd60e51b81526004016102e690611884565b506000919050565b60005460ff808416911610610b255760405162461bcd60e51b81526004016102e690611884565b506000805460ff191660ff92909216919091179055600190565b919050565b600054610100900460ff16610b6b5760405162461bcd60e51b81526004016102e6906118dc565b6102f881610c03565b6000610bc9826040518060400160405280602081526020017f5361666545524332303a206c6f772d6c6576656c2063616c6c206661696c6564815250856001600160a01b0316610c7b9092919063ffffffff16565b805190915015610a935780806020019051810190610be791906118ff565b610a935760405162461bcd60e51b81526004016102e690611967565b6001600160a01b038116610c295760405162461bcd60e51b81526004016102e6906119ab565b6000805462010000600160b01b031916620100006001600160a01b038416021790556040517f7aed1d3e8155a07ccf395e44ea3109a0e2d6c9b29bbbe9f142d9790596f4dc80906108f090839061121c565b6060610c8a8484600085610c94565b90505b9392505050565b606082471015610cb65760405162461bcd60e51b81526004016102e6906119fe565b6001600160a01b0385163b610cdd5760405162461bcd60e51b81526004016102e690611a42565b600080866001600160a01b03168587604051610cf99190611a74565b60006040518083038185875af1925050503d8060008114610d36576040519150601f19603f3d011682016040523d82523d6000602084013e610d3b565b606091505b5091509150610d4b828286610d56565b979650505050505050565b60608315610d65575081610c8d565b825115610d755782518084602001fd5b8160405162461bcd60e51b81526004016102e69190611a80565b60006001600160a01b0382165b92915050565b610dab81610d8f565b81146102f857600080fd5b8035610d9c81610da2565b600060208284031215610dd657610dd6600080fd5b600061079b8484610db6565b80610dab565b8035610d9c81610de2565b67ffffffffffffffff8116610dab565b8035610d9c81610df3565b634e487b7160e01b600052604160045260246000fd5b601f19601f830116810181811067ffffffffffffffff82111715610e4a57610e4a610e0e565b6040525050565b6000610e5c60405190565b9050610b3f8282610e24565b600067ffffffffffffffff821115610e8257610e82610e0e565b601f19601f83011660200192915050565b82818337506000910152565b6000610eb2610ead84610e68565b610e51565b905082815260208101848484011115610ecd57610ecd600080fd5b610ed8848285610e93565b509392505050565b600082601f830112610ef457610ef4600080fd5b813561079b848260208601610e9f565b60008060008060008060c08789031215610f2057610f20600080fd5b6000610f2c8989610db6565b9650506020610f3d89828a01610db6565b9550506040610f4e89828a01610de8565b9450506060610f5f89828a01610e03565b935050608087013567ffffffffffffffff811115610f7f57610f7f600080fd5b610f8b89828a01610ee0565b92505060a0610f9c89828a01610db6565b9150509295509295509295565b634e487b7160e01b600052602160045260246000fd5b600381106102f8576102f8610fa9565b80610b3f81610fbf565b6000610d9c82610fcf565b610fed81610fd9565b82525050565b60208101610d9c8284610fe4565b6000806040838503121561101757611017600080fd5b60006110238585610db6565b925050602061103485828601610de8565b9150509250929050565b6000610d9c82610d8f565b610dab8161103e565b8035610d9c81611049565b60008060008060008060c0878903121561107957611079600080fd5b60006110858989610db6565b9650506020610f3d89828a01611052565b610fed81610d8f565b60208101610d9c8284611096565b6000806000606084860312156110c5576110c5600080fd5b60006110d18686611052565b93505060206110e286828701610db6565b92505060406110f386828701610de8565b9150509250925092565b60006080828403121561111257611112600080fd5b50919050565b60008083601f84011261112d5761112d600080fd5b50813567ffffffffffffffff81111561114857611148600080fd5b60208301915083600182028301111561116357611163600080fd5b9250929050565b60008060008060c0858703121561118357611183600080fd5b600061118f87876110fd565b94505060806111a087828801610e03565b93505060a085013567ffffffffffffffff8111156111c0576111c0600080fd5b6111cc87828801611118565b95989497509550505050565b80610fed565b60208101610d9c82846111d8565b60006001600160a01b038216610d9c565b6000610d9c826111ec565b6000610d9c826111fd565b610fed81611208565b60208101610d9c8284611213565b6000806000806080858703121561124357611243600080fd5b600061124f8787610db6565b945050602061126087828801610db6565b935050604061127187828801610db6565b925050606061128287828801611052565b91505092959194509250565b60208082527f4f776e61626c653a2063616c6c6572206973206e6f7420746865206f776e6572910190815260005b5060200190565b60208082528101610d9c8161128e565b602a81526000602082017f4d65737361676552656365697665723a2063616c6c6572206973206e6f74206d8152696573736167652062757360b01b602082015291505b5060400190565b60208082528101610d9c816112d3565b67ffffffffffffffff8116610fed565b60005b83811015611358578181015183820152602001611340565b83811115611367576000848401525b50505050565b6000611377825190565b80845260208401935061138e81856020860161133d565b601f01601f19169290920192915050565b60c081016113ad8289611096565b6113ba6020830188611096565b6113c760408301876111d8565b6113d4606083018661132d565b81810360808301526113e6818561136d565b9050610d4b60a0830184611096565b602f81526000602082017f4f776e6572576974686472617761626c653a207769746864726177206e61746981526e1d99481d1bdad95b8819985a5b1959608a1b60208201529150611316565b60208082528101610d9c816113f5565b6040810161145f8285611213565b610c8d60208301846111d8565b602181526000602082017f4d65737361676552656365697665723a20696e76616c6964206578656375746f8152603960f91b60208201529150611316565b60208082528101610d9c8161146c565b8051610d9c81611049565b6000602082840312156114da576114da600080fd5b600061079b84846114ba565b606081016114f48286611213565b61150160208301856111d8565b8181036040830152611513818461136d565b95945050505050565b60e0810161152a828a611096565b6115376020830189611213565b61154460408301886111d8565b611551606083018761132d565b8181036080830152611563818661136d565b905061157260a0830185611096565b81810360c0830152611584818461136d565b9998505050505050505050565b60c0810161159f8289611096565b6113ba6020830188611213565b606081016115ba8286611213565b6115c76020830185611096565b61079b60408301846111d8565b6000602082840312156115e9576115e9600080fd5b600061079b8484610e03565b600281106102f8576102f8610fa9565b80610b3f816115f5565b6000610d9c82611605565b6000610d9c8260f81b90565b610fed6116328261160f565b61161a565b6000610d9c8260601b90565b6000610d9c82611637565b610fed61165a82610d8f565b611643565b6000610d9c8260c01b90565b610fed67ffffffffffffffff821661165f565b600061168b838584610e93565b50500190565b600061169d828b611626565b6001820191506116ad828a61164e565b6014820191506116bd828961164e565b6014820191506116cd828861166b565b6008820191506116dd82876111d8565b6020820191506116ed828661166b565b6008820191506116fe82848661167e565b9a9950505050505050505050565b602681526000602082017f4f776e61626c653a206e6577206f776e657220697320746865207a65726f206181526564647265737360d01b60208201529150611316565b60208082528101610d9c8161170c565b600060ff8216610d9c565b610fed8161175f565b60208101610d9c828461176a565b6040810161178f8285611096565b610c8d6020830184611096565b8051610d9c81610de2565b6000602082840312156117bc576117bc600080fd5b600061079b848461179c565b603681526000602082017f5361666545524332303a20617070726f76652066726f6d206e6f6e2d7a65726f81527520746f206e6f6e2d7a65726f20616c6c6f77616e636560501b60208201529150611316565b60208082528101610d9c816117c8565b6040810161145f8285611096565b602e81526000602082017f496e697469616c697a61626c653a20636f6e747261637420697320616c72656181526d191e481a5b9a5d1a585b1a5e995960921b60208201529150611316565b60208082528101610d9c81611839565b602b81526000602082017f496e697469616c697a61626c653a20636f6e7472616374206973206e6f74206981526a6e697469616c697a696e6760a81b60208201529150611316565b60208082528101610d9c81611894565b801515610dab565b8051610d9c816118ec565b60006020828403121561191457611914600080fd5b600061079b84846118f4565b602a81526000602082017f5361666545524332303a204552433230206f7065726174696f6e20646964206e8152691bdd081cdd58d8d9595960b21b60208201529150611316565b60208082528101610d9c81611920565b601b81526000602082017f526f75746572577261707065723a207a65726f20616464726573730000000000815291506112bc565b60208082528101610d9c81611977565b602681526000602082017f416464726573733a20696e73756666696369656e742062616c616e636520666f8152651c8818d85b1b60d21b60208201529150611316565b60208082528101610d9c816119bb565b601d81526000602082017f416464726573733a2063616c6c20746f206e6f6e2d636f6e7472616374000000815291506112bc565b60208082528101610d9c81611a0e565b6000611a5c825190565b611a6a81856020860161133d565b9290920192915050565b6000610c8d8284611a52565b60208082528101610c8d818461136d56fea2646970667358221220a7f5e104f327df23231b890d5b591e8b21cfd0176cce62eba9ea63982778954064736f6c63430008090033",
  "devdoc": {
    "author": "Alexandas",
    "details": "dst chain message receiver",
    "events": {
      "ExecutorUpdated(address)": {
        "details": "emit when executor changed",
        "params": {
          "executor": "executor address"
        }
      },
      "MessageBusUpdated(address)": {
        "details": "emit when message bus updated",
        "params": {
          "messageBus": "dst chain messageBus in sgn"
        }
      },
      "MessageWithTransferExecuted(address,address,uint256,uint64,bytes,address)": {
        "details": "emit when message with transfer executed",
        "params": {
          "amount": "token amount",
          "executor": "executor address",
          "message": "src chain message",
          "sender": "message sender address",
          "srcChainId": "src chain chainId",
          "token": "token address"
        }
      },
      "MessageWithTransferFailed(address,address,uint256,uint64,bytes,address,bytes)": {
        "details": "emit message with transfer failed",
        "params": {
          "amount": "token amount",
          "error": "error message",
          "executor": "executor address",
          "message": "src chain message",
          "sender": "message sender address",
          "srcChainId": "src chain chainId",
          "token": "token address"
        }
      },
      "MessageWithTransferFallback(address,address,uint256,uint64,bytes,address)": {
        "details": "emit when message with transfer fallback",
        "params": {
          "_amount": "token amount",
          "_message": "src chain message",
          "_sender": "message sender address",
          "_srcChainId": "src chain chainId",
          "_token": "token address",
          "executor": "executor address"
        }
      }
    },
    "kind": "dev",
    "methods": {
      "executeMessageWithTransfer(address,address,uint256,uint64,bytes,address)": {
        "details": "execute message with transfer",
        "params": {
          "_executor": "executor address",
          "amount": "token amount",
          "message": "src chain message",
          "sender": "message sender address",
          "srcChainId": "src chain chainId",
          "token": "token address"
        }
      },
      "executeMessageWithTransferFallback(address,address,uint256,uint64,bytes,address)": {
        "details": "execute message with transfer fallback",
        "params": {
          "_amount": "token amount",
          "_message": "src chain message",
          "_sender": "message sender address",
          "_srcChainId": "src chain chainId",
          "_token": "token address",
          "executor": "executor address"
        }
      },
      "initialize(address,address,address,address)": {
        "details": "proxy intialize function",
        "params": {
          "_executor": "executor address",
          "_messageBus": "dst chain message bus",
          "owner": "contract owner"
        }
      },
      "messageId((address,address,uint64,bytes32),uint64,bytes)": {
        "details": "Explain to a developer any extra details",
        "params": {
          "dstChainId": "dst chain chainId",
          "message": "message bytes",
          "route": "route info"
        },
        "returns": {
          "_0": "message id"
        }
      },
      "owner()": {
        "details": "Returns the address of the current owner."
      },
      "ownerWithdrawERC20(address,address,uint256)": {
        "details": "withdraw token",
        "params": {
          "to": "receiver address",
          "token": "token address",
          "value": "token value"
        }
      },
      "ownerWithdrawNative(address,uint256)": {
        "details": "withdraw ETH",
        "params": {
          "to": "receiver address",
          "value": "token value"
        }
      },
      "renounceOwnership()": {
        "details": "Leaves the contract without owner. It will not be possible to call `onlyOwner` functions anymore. Can only be called by the current owner. NOTE: Renouncing ownership will leave the contract without an owner, thereby removing any functionality that is only available to the owner."
      },
      "setExecutor(address)": {
        "details": "set executor address",
        "params": {
          "_executor": "executor address"
        }
      },
      "setMessageBus(address)": {
        "details": "set message bus",
        "params": {
          "messageBus": "message bus address"
        }
      },
      "transferOwnership(address)": {
        "details": "Transfers ownership of the contract to a new account (`newOwner`). Can only be called by the current owner."
      }
    },
    "stateVariables": {
      "executor": {
        "details": "message executor"
      },
      "messageBus": {
        "details": "message bus in dst chain"
      }
    },
    "version": 1
  },
  "userdoc": {
    "kind": "user",
    "methods": {},
    "version": 1
  },
  "storageLayout": {
    "storage": [
      {
        "astId": 147,
        "contract": "contracts/messages/MessageReceiver.sol:MessageReceiver",
        "label": "_initialized",
        "offset": 0,
        "slot": "0",
        "type": "t_uint8"
      },
      {
        "astId": 150,
        "contract": "contracts/messages/MessageReceiver.sol:MessageReceiver",
        "label": "_initializing",
        "offset": 1,
        "slot": "0",
        "type": "t_bool"
      },
      {
        "astId": 5834,
        "contract": "contracts/messages/MessageReceiver.sol:MessageReceiver",
        "label": "router",
        "offset": 2,
        "slot": "0",
        "type": "t_contract(IRouter)6848"
      },
      {
        "astId": 1038,
        "contract": "contracts/messages/MessageReceiver.sol:MessageReceiver",
        "label": "__gap",
        "offset": 0,
        "slot": "1",
        "type": "t_array(t_uint256)50_storage"
      },
      {
        "astId": 10,
        "contract": "contracts/messages/MessageReceiver.sol:MessageReceiver",
        "label": "_owner",
        "offset": 0,
        "slot": "51",
        "type": "t_address"
      },
      {
        "astId": 122,
        "contract": "contracts/messages/MessageReceiver.sol:MessageReceiver",
        "label": "__gap",
        "offset": 0,
        "slot": "52",
        "type": "t_array(t_uint256)49_storage"
      },
      {
        "astId": 7661,
        "contract": "contracts/messages/MessageReceiver.sol:MessageReceiver",
        "label": "messageBus",
        "offset": 0,
        "slot": "101",
        "type": "t_address"
      },
      {
        "astId": 7664,
        "contract": "contracts/messages/MessageReceiver.sol:MessageReceiver",
        "label": "executor",
        "offset": 0,
        "slot": "102",
        "type": "t_address"
      }
    ],
    "types": {
      "t_address": {
        "encoding": "inplace",
        "label": "address",
        "numberOfBytes": "20"
      },
      "t_array(t_uint256)49_storage": {
        "base": "t_uint256",
        "encoding": "inplace",
        "label": "uint256[49]",
        "numberOfBytes": "1568"
      },
      "t_array(t_uint256)50_storage": {
        "base": "t_uint256",
        "encoding": "inplace",
        "label": "uint256[50]",
        "numberOfBytes": "1600"
      },
      "t_bool": {
        "encoding": "inplace",
        "label": "bool",
        "numberOfBytes": "1"
      },
      "t_contract(IRouter)6848": {
        "encoding": "inplace",
        "label": "contract IRouter",
        "numberOfBytes": "20"
      },
      "t_uint256": {
        "encoding": "inplace",
        "label": "uint256",
        "numberOfBytes": "32"
      },
      "t_uint8": {
        "encoding": "inplace",
        "label": "uint8",
        "numberOfBytes": "1"
      }
    }
  }
}